:020000040800F2
:10000000583000206902000895930008057D00081B
:10001000919300086D290008F7B90008000000005E
:10002000000000000000000000000000BBA100086C
:10003000AB31000800000000D39E0008BDAB0008F3
:10004000830200088302000883020008830200087C
:10005000830200088302000883020008830200086C
:10006000830200088302000883020008830200085C
:10007000830200088302000883020008830200084C
:100080008302000883020008BD09000883020008FB
:100090008302000871290008830200088302000817
:1000A0008302000805AD00088302000883020008EF
:1000B0008302000815AD000825AD00088302000882
:1000C00083020008830200088302000883020008FC
:1000D00083020008830200088302000883020008EC
:1000E00083020008830200088302000883020008DC
:1000F00083020008830200088302000883020008CC
:1001000083020008830200088302000883020008BB
:10011000830200088302000835AD000845AD0008E1
:10012000830200088302000883020008830200089B
:10013000830200088302000883020008830200088B
:10014000830200088302000883020008830200087B
:10015000830200088302000883020008830200086B
:10016000830200088302000883020008830200085B
:1001700083020008830200088302000800000000D8
:10018000830200088302000800F002F800F05CF827
:100190000AA090E8000C82448344AAF10107DA45E2
:1001A00001D100F051F8AFF2090EBAE80F0013F0D8
:1001B000010F18BFFB1A43F0010318474C2601003A
:1001C0006C2601000A444FF0000C10F8013B13F0BC
:1001D000070408BF10F8014B1D1108BF10F8015BA0
:1001E000641E05D010F8016B641E01F8016BF9D193
:1001F00013F0080F1EBF10F8014BAD1C0C1B09D1EA
:100200006D1E58BF01F801CBFAD505E014F8016B5B
:1002100001F8016B6D1EF9D59142D6D370470000ED
:100220000023002400250026103A28BF78C1FBD8FF
:10023000520728BF30C148BF0B6070471FB511F08F
:1002400041FD1FBD10B510BD00F03EFA1146FFF78D
:10025000F5FF0EF036FA00F05CFA03B4FFF7F2FF98
:1002600003BC00F0BFFA0000094880470948004776
:10027000FEE7FEE7FEE7FEE7FEE7FEE7FEE7FEE756
:10028000FEE7FEE704480549054A064B70470000B3
:10029000F1AC000889010008582A002058300020DD
:1002A000582C0020582C00209FED1A1AF5EE000A59
:1002B00040EE010ABDEEE00AF5EEC00A10EE100AAB
:1002C000F1EE10FA38BF401E00EE100A1349F7EEA7
:1002D000001AB8EEC00A30EEC00ADFED0F0A20EEB9
:1002E000200AFCEEC00A10EE900AC0F3080000EEEF
:1002F000900A01EB8000F8EE600A90ED011A70EEB2
:10030000600A90ED000A71EEE01A21EE800A00EE1C
:10031000810A704783F9223E00000044641F0108EF
:10032000DFED1D0AB5EEC00A60EE200ABDEEE01A50
:1003300011EE100AF1EE10FA38BF401E00EE100A5E
:10034000B8EEC00A30EEC00ADFED140A20EE200A33
:10035000B4EEE00AF1EE10FAA8BF30EE600AFCEE4F
:10036000C00A0F49F7EE001A10EE900AC0F3080019
:1003700000EE900A01EB8000F8EE600A90ED011AA1
:1003800070EE600A90ED000A71EEE01A21EE800A2C
:1003900000EE810A7047000083F9223E000000440D
:1003A000641F010853EA020C00F069802DE9F04B4C
:1003B0004FF00006002B1FBFB3FA83F503FA05F4D4
:1003C00024FA05F65E4012BF1643B2FA82F502FA2D
:1003D00005F4C5F120051EBF22FA05FC44EA0C0411
:1003E000203556EA044C4FEA144418BF641C4FF001
:1003F00000084FF00009904271EB030C39D300293B
:1004000019BFB1FA81F701FA07F6B0FA80F700FADE
:1004100007F6C7F120071EBF20FA07FC46EA0C06C4
:100420002037B6FBF4FCA7EB0507103F07F01F0BC6
:10043000CBF120060CFA0BFB2CFA06F644BFB346B0
:100440000026202FA4BF5E464FF0000B5BEA060C8F
:1004500008BF4FF0010B19EB0B09ABFB027C48EB1B
:100460000608C01B06FB02CC0BFB03CC71EB0C0196
:10047000C1E70B46024641464846BDE8F08B13B53E
:100480004FF000004FF00001AFF30080BDE81C40CA
:10049000704740EA010310B59B070FD1042A0DD322
:1004A00010C808C9121F9C42F8D020BA19BA884255
:1004B00001D9012010BD4FF0FF3010BD1AB1D30794
:1004C00003D0521C07E0002010BD10F8013B11F8CA
:1004D000014B1B1B07D110F8013B11F8014B1B1BF3
:1004E00001D1921EF1D1184610BD032A40F230808E
:1004F00010F0030C00F0158011F8013BBCF1020F65
:10050000624498BF11F801CB00F8013B38BF11F8E5
:10051000013BA2F1040298BF00F801CB38BF00F8FC
:10052000013B11F0030300F02580083AC0F0088079
:1005300051F8043B083A51F804CBA0E80810F5E75D
:10054000121D5CBF51F8043B40F8043BAFF3008040
:10055000D20724BF11F8013B11F801CB48BF11F8B5
:10056000012B24BF00F8013B00F801CB48BF00F885
:10057000012B704710B5203AC0F00B80B1E818503D
:10058000203AA0E81850B1E81850A0E81850BFF47D
:10059000F5AF5FEA027C24BFB1E81850A0E818501C
:1005A00044BF18C918C0BDE810405FEA827C24BF70
:1005B00051F8043B40F8043B08BF7047D20728BFFE
:1005C00031F8023B48BF11F8012B28BF20F8023B4D
:1005D00048BF00F8012B70474FF000020429C0F01B
:1005E000128010F0030C00F01B80CCF1040CBCF165
:1005F000020F18BF00F8012BA8BF20F8022BA1EBB7
:100600000C0100F00DB85FEAC17C24BF00F8012B9B
:1006100000F8012B48BF00F8012B70474FF0000293
:1006200000B5134694469646203922BFA0E80C50E8
:10063000A0E80C50B1F12001BFF4F7AF090728BFC3
:10064000A0E80C5048BF0CC05DF804EB890028BF3F
:1006500040F8042B08BF704748BF20F8022B11F068
:10066000804F18BF00F8012B7047704770477047E4
:1006700010B500F009F8006810BD10B5044600F090
:1006800003F8046010BD000000487047F429002002
:100690001FB584B000200A9C06AB04AA02A90094EE
:1006A000AFF3008018B1DDE9020108B010BD0348C6
:1006B000204000F034F800200146F6E70000207CDE
:1006C00000487047F42900207546FFF7F9FFAE4651
:1006D00005006946534620F00700854618B020B54E
:1006E000FFF7D0FDBDE820404FF000064FF00007B7
:1006F0004FF000084FF0000B21F00701AC46ACE8CA
:10070000C009ACE8C009ACE8C009ACE8C0098D4636
:1007100070470446AFF300802046FFF79EFD10B5FA
:1007200000F00AF8BDE8104000F001B8704700285A
:1007300001D000F057B8704710B5022803D041012E
:1007400003D50DA112E0002010BD010101D50FA1BC
:100750000CE0C10001D511A108E0810001D512A172
:1007600004E0400001D513A100E0002115A000F035
:100770003FF8012010BD0000496E76616C6964206D
:100780004F7065726174696F6E000000446976692C
:100790006465204279205A65726F00004F76657259
:1007A000666C6F7700000000556E646572666C6F52
:1007B00077000000496E6578616374205265737537
:1007C0006C7400005349474650453A2041726974A1
:1007D000686D6574696320657863657074696F6EB0
:1007E0003A20000001491820ABBEFEE726000200B7
:1007F00070B505460C460A2000E06D1C00F011F8AB
:1008000035B128780028F8D102E0641C00F009F81E
:1008100014B120780028F8D1BDE870400A20AFF369
:10082000008008B569468DF800000320ABBE08BD06
:1008300010B500F0C7FD314890ED080ADFED300A31
:1008400020EE200A2F48D0ED030A9FED2F1A00EE6C
:10085000810A2A4880ED080A2C480068406B2B4921
:100860000968896B884205D9244890ED080A80ED13
:10087000070A06E0214890ED080AB1EE400A80ED33
:10088000070A1E4890ED070ABDEEC00A10EE100AD6
:1008900000B21A490882084690ED590ADFED180A9D
:1008A00020EE200A1748D0ED050A9FED171A00EE3A
:1008B000810A084680ED590A15480068C06B144942
:1008C0000968096C884205D90C4890ED590A80EDF9
:1008D000580A06E0094890ED590AB1EE400A80ED49
:1008E000580A064890ED580ABDEEC00A10EE100AEC
:1008F00001B20248A0F8541110BD00006C2700207E
:100900006666663F601A0020CDCCCC3D740A00209C
:10091000C408002070B50546AC6B206C00F0500098
:1009200050BB206C40F4007020642068806800F0A8
:100930004050E8B9207ED8B92068C06A00F4700041
:1009400020B12068806800F4806088B92068406821
:1009500020F0200021684860206C20F48070206422
:10096000206C00F4805018B9206C40F00100206425
:10097000204604F087F80BE0206C00F0100018B15E
:10098000204604F081F803E0A06BC16C284688473C
:1009900070BD70B50546AC6B40202064606C40F0C3
:1009A00004006064204604F06FF870BD70B5044622
:1009B000A56B284604F067F870BD000010B5034829
:1009C00004F063F8024804F060F810BD240500202C
:1009D0006C05002055494A6822F440324A604A6852
:1009E00043681A434A600268526822F480720368BE
:1009F0005A6002685368026943EA022203685A6037
:100A00000268526822F0407203685A6002685268B5
:100A100083681A4303685A600268926822F400628D
:100A200003689A6002689268C3681A4303689A6010
:100A30003F4B826A9A4218D00268926822F0706234
:100A400003689A6002689268836A1A4303689A602E
:100A50000268926822F0405203689A6002689268C5
:100A6000C36A1A4303689A600BE00268926822F036
:100A7000706203689A600268926822F040520368CC
:100A80009A600268926822F0020203689A60026823
:100A90009368027E43EA420203689A602022125C55
:100AA000A2B10268526842F4006203685A600268A8
:100AB000526822F4604203685A6002685368426ACE
:100AC000521E43EA423203685A6005E002685268E7
:100AD00022F4006203685A600268D26A22F470024B
:100AE0000368DA620268D36A828B521E43EA0252BA
:100AF0000368DA620268926822F4007203689A60FE
:100B00000268936890F8302043EA422203689A60B2
:100B10000268926822F4806203689A6002689368AF
:100B2000426943EA822203689A60704700230140C9
:100B30000100000F3548406800EE100AB8EE400A88
:100B4000DFED330A20EE200ABCEEC00A10EE100AD8
:100B50002E49C8600846C06810B94FF0FF30C86021
:100B60002A48C06800EE100AB8EE400AF7EE000A04
:100B700020EE200ADFED270A80EE801ABDEEC10AC2
:100B800010EE100A00B2214908822348006800686C
:100B9000C0F3001070B90846B0F9100000EE100A5A
:100BA000B8EEC00A1D4880ED0C0A0846008A1B49B1
:100BB000888613E01548B0F9100000EE100AB8EE70
:100BC000C00AFFEE000A20EE200A144880ED0C0A4D
:100BD0000E48008A404200B2104988860E480068DC
:100BE000416A0A48C069401E01EB0040074908629B
:100BF0000846006A4969401A0849C1F88400084655
:100C0000B0F8840000B2A1F850007047340800200A
:100C1000310C433CC0E1644C0C0900206C270020DF
:100C20003648806A00EE100AB8EE400ADFED340A5A
:100C300020EE200ABCEEC00A10EE100A2F4908630D
:100C40000846006B18B94FF0FF312C4801632B4860
:100C5000006B00EE100AB8EE400AF2EE0E0A20EE2B
:100C6000200ADFED280A80EE801ABDEEC10A10EEE0
:100C7000100A01B221488186234800680068C0F349
:100C80000010A8B11D48B0F9340000EE100AB8EE0B
:100C9000C00AFFEE000A20EE200A1C4880ED5D0A23
:100CA0001648808E404201B21848A0F878110EE034
:100CB0001248B0F9340000EE100AB8EEC00A13482A
:100CC00080ED5D0A0D48818E1048A0F878110E481D
:100CD0000068416A0948006C401E01EB004107486A
:100CE0004164416C806B091A0848C0F8C811B0F81B
:100CF000C80101B20548A0F89411704734080020DB
:100D0000310C433CC0E1644C540900206C270020A6
:100D100010B5002410E003200BF044FE12490968CE
:100D200008441149086004200BF03CFE0F49096893
:100D300008440E490860641CB4F57A7FEBDB0A486E
:100D400000684FF47A71B0FBF1F009490881074857
:100D500000684FF47A71B0FBF1F081B2044801826F
:100D600003F008FB10BD0000C8020020CC020020E8
:100D7000601A002010B52DED068B044604EB04101C
:100D800000EB84107C4901EB8000B0F9580000EEC4
:100D9000100AB8EEC00A04EB041000EB841001EB5B
:100DA000800080ED130A04EB041101EB8411724AF8
:100DB00002EB810191F9880010F05CF841EC180B0E
:100DC00004EB041000EB84106B4A02EB8000B0F9D6
:100DD000500000EE100AF8EEC00A04EB041000EB1D
:100DE000841002EB8000B0F9580000EE100AB8EE53
:100DF000C00A30EEC00A10EE101A084610F0ACFE21
:100E000041EC1A0BB0EE4A0AF0EE6A0A0BF0C8F990
:100E1000B0EE409AF0EE609A53EC182B51EC190B9F
:100E200010F03BFA7DD204EB041000EB8410524921
:100E300001EB800090F87E00401CC0B204EB04116E
:100E400001EB84114C4A02EB810181F87E000228FB
:100E50003BDB002004EB041101EB841102EB810168
:100E600081F87E0004EB041101EB841102EB810197
:100E7000B1F9501001EE101AB8EEC11AF0EE410AA5
:100E800004EB041101EB841102EB810191ED131AC3
:100E9000B0EE410A04EB041101EB841102EB810175
:100EA00001F1EC0008F0B6FA04EB041000EB84103A
:100EB000314901EB800090ED450A04EB041000EB92
:100EC000841001EB800080ED0B0A04EB041000EBB2
:100ED0008410294901EB800090ED0C0A04EB04100A
:100EE00000EB841001EB8000D0ED0E0A80EE201A9A
:100EF000B0EE418A04EB041000EB841001EB80009B
:100F000090ED0B0A04EB041000EB841001EB800061
:100F1000D0ED0E0A80EE201AF0EE418A04EB0411A7
:100F200000E01BE001EB8411134A02EB810101F1A7
:100F3000C000F0EE480AB0EE680A08F06BFA04EB65
:100F4000041000EB84100C4901EB8000D0ED3A0A4C
:100F5000B0EE600A204600F011F80AE004EB04113C
:100F600001EB8411044A02EB810101F1EC000CF069
:100F70009DFABDEC068B10BD6C27002040BBF0EE47
:100F8000000A80EE201AF6EE000A71EE200A9FEDAC
:100F9000261A60EE810AFCEEE00A10EE901A89B281
:100FA000224A12685163F0EE000A80EE201AF6EE33
:100FB000000A70EEC10A9FED1C1A60EE810AFCEE79
:100FC000E00A10EE901A89B2184A1268916329E07B
:100FD000012827D1B0EE001AC0EE010AB6EE001AC1
:100FE00070EE810A9FED121A60EE810AFCEEE00AB3
:100FF00010EE901A89B20F4A1268D163F0EE000A1F
:1010000080EE201AF6EE000A70EEC10A9FED081A73
:1010100060EE810AFCEEE00A10EE901A89B2054AF1
:101020001268116470470000003C0346740A0020F7
:1010300000388345C408002010B52DED048B04460C
:10104000424890ED050AB5EEC00AF1EE10FA2DD136
:1010500004EB041000EB84103C4A02EB800090ED9E
:10106000070A10EE101A084610F076FD41EC190B35
:10107000B0EE490AF0EE690A0BF092F8B0EE408A41
:10108000F0EE608A9FED320B53EC102B51EC180BF5
:101090000FF028FF0AD29FED300A04EB041000EB9A
:1010A00084102A4901EB800080ED490A04EB04100A
:1010B00000EB8410254901EB8000D0ED070A04EB1A
:1010C000041000EB841001EB8000808C00EE100A0D
:1010D000B8EE400A80EE801AB0EE418A04EB0410AC
:1010E00000EB841001EB8000D0ED050A04EB041046
:1010F00000EB841001EB8000808C00EE100AB8EE4B
:10110000400A80EE801AF0EE418A04EB041101EBF4
:1011100084110E4A02EB810101F58C70F0EE480A51
:10112000B0EE680A08F076F904EB041000EB8410C6
:10113000064901EB8000D0ED500AB0EE600A20466F
:10114000FFF71CFFBDEC048B10BD00006C270020D6
:10115000000000A09999B93F0000000010B5FFF70A
:10116000D7FD14480089322806DA1348008820F099
:1011700040001149088006E00F48008820F0400038
:1011800040300D4908800B48008A322808DA0A48A6
:10119000B0F8440120F040000749A1F8440108E0FC
:1011A0000548B0F8440120F0400040300249A1F861
:1011B000440110BD601A00206C27002010B52DEDF1
:1011C000048B0446204600F04BFE04EB041000EBB9
:1011D00084103E4901EB8000808F68BB04EB041053
:1011E00000EB84100A4602EB800090ED0C0A10EE32
:1011F000101A084610F0B0FC41EC190BB0EE490A89
:10120000F0EE690A0AF0CCFFB0EE408AF0EE608A98
:101210009FED2F0B53EC102B51EC180B0FF062FECF
:101220000AD29FED2D0A04EB041000EB841027492D
:1012300001EB800080ED330A04EB041000EB841016
:10124000224901EB800090ED0C0A04EB041000EB46
:10125000841001EB8000D0ED0E0A80EE201AB0EE73
:10126000418A04EB041000EB841001EB800090ED48
:101270000B0A04EB041000EB841001EB8000D0EDAE
:101280000E0A80EE201AF0EE418A04EB041101EB05
:1012900084110E4A02EB810101F1C000F0EE480A10
:1012A000B0EE680A08F0B6F804EB041000EB841006
:1012B000064901EB8000D0ED3A0AB0EE600A204604
:1012C000FFF75CFEBDEC048B10BD00006C27002016
:1012D00000000000000000400000000010B52DEDEF
:1012E000048B044604EB041000EB8410324901EB3C
:1012F0008000007907285CD104EB041000EB841017
:1013000001EB80008078022853D104EB041000EB3D
:1013100084100A4602EB800090ED0C0A10EE101AC1
:10132000084610F019FC41EC190BB0EE490AF0EE3A
:10133000690A0AF035FFB0EE408AF0EE608A9FED50
:101340001F0B53EC102B51EC180B0FF0CBFD26D2DA
:1013500004EB041000EB8410174901EB8000B0F897
:101360008E00401C80B204EB041101EB8411124A80
:1013700002EB8101A1F88E000A281ADB002004EBA1
:10138000041101EB841102EB8101A1F88E0004EB42
:10139000041101EB841102EB8101C87009E0002007
:1013A00004EB041101EB8411034A02EB8101A1F863
:1013B0008E00BDEC048B10BD6C27002000000000E7
:1013C0000000244010B503200BF0ECFA1349098902
:1013D000401A00EE100AB8EEC00ADFED110A20EE46
:1013E000200ADFED100A80EE201A0C4880ED031A67
:1013F00004200BF0D7FA0949098A401A00EE100AB6
:10140000B8EEC00ADFED060A20EE200ADFED050A7D
:1014100080EE201A014880ED051A10BD601A0020E8
:10142000333353404260E54200EB001101EB801181
:101430005F4A02EB8101D1ED170A00EB001101EBCD
:10144000801102EB8101B1F95A1000EE101AB8EECA
:10145000C00AF4EEC00AF1EE10FA47D200EB001118
:1014600001EB801102EB810191ED170A00EB0011F5
:1014700001EB801102EB8101D1ED180A30EE200A58
:1014800000EB001101EB801102EB810181ED170AE5
:1014900000EB001101EB801102EB8101D1ED170A85
:1014A00000EB001101EB801102EB8101B1F95A1040
:1014B00000EE101AB8EEC00AF4EEC00AF1EE10FA0F
:1014C00075DD00EB001101EB801102EB8101B1F938
:1014D0005A1000EE101AB8EEC00A00EB001101EB32
:1014E000801102EB810181ED170A60E000EB001131
:1014F00001EB80112E4A02EB8101D1ED170A00EBBE
:10150000001101EB801102EB8101B1F95A1000EEDC
:10151000101AB8EEC00AF4EEC00AF1EE10FA46DD79
:1015200000EB001101EB801102EB810191ED170A34
:1015300000EB001101EB801102EB8101D1ED180AE3
:1015400030EE600A00EB001101EB801102EB81012B
:1015500081ED170A00EB001101EB801102EB810114
:10156000D1ED170A00EB001101EB801102EB8101B4
:10157000B1F95A1000EE101AB8EEC00AF4EEC00A23
:10158000F1EE10FA13D200EB001101EB801102EB27
:101590008101B1F95A1000EE101AB8EEC00A00EB42
:1015A000001101EB801102EB810181ED170A7047F8
:1015B0006C27002010B52DED048B0446002C7DD146
:1015C000FE4890ED000A04EB041000EB8410FC4987
:1015D00001EB8000D0ED190A30EE600A04EB041034
:1015E00000EB841001EB800080ED1B0A04EB04107B
:1015F00000EB841001EB800090ED1B0ABDEEC00AE9
:1016000010EE100A00B204EB041101EB8411EC4A55
:1016100002EB8101A1F878002046FFF705FF04EBFB
:10162000041000EB8410E64A02EB8000D0ED1B0AA8
:1016300004EB041000EB841002EB8000B0F95A00B8
:1016400000EE100AB8EEC00A30EEC00A10EE101A12
:10165000084610F081FA41EC190BB0EE490AF0EEA1
:10166000690A0AF09DFDB0EE408AF0EE608A9FEDB7
:10167000D50B53EC102B51EC180B0FF00EFE7DD256
:1016800004EB041000EB8410CD4901EB800090F8CE
:101690007E00401CC0B204EB041101EB8411C84A67
:1016A00002EB810181F87E00022859DB002004EB67
:1016B000041101EB841102EB810100E0BAE081F832
:1016C0007E0004EB041000EB8410114601EB800057
:1016D00090ED1B0AB5EEC00AF1EE10FA09DD9FEDA0
:1016E000BB0A04EB041000EB841001EB800080EDDA
:1016F0000B0A04EB041000EB8410B14901EB8000ED
:1017000090ED1B0AB5EEC00AF1EE10FA09D29FED7A
:10171000B00A04EB041000EB841001EB800080EDB4
:101720000B0A04EB041101EB8411A54A02EB8101C1
:1017300091ED1B1AF0EE410A04EB041101EB841148
:1017400002EB810191ED171AB0EE410A04EB04118E
:1017500001EB841102EB810101F1940007F05AFEC4
:1017600004EB041000EB8410954901EB800090ED30
:101770000C0A04EB041000EB841000E035E001EBF0
:101780008000D0ED0E0A80EE201AB0EE418A04EB04
:10179000041000EB841001EB800090ED0B0A04EBC9
:1017A000041000EB841001EB8000D0ED2F0A30EE26
:1017B000200A04EB041000EB841001EB8000D0ED54
:1017C0000E0A80EE201AF0EE418A04EB041101EBC0
:1017D00084117B4A02EB810101F1C000F0EE480A5E
:1017E000B0EE680A07F016FE15E004EB041101EBF9
:1017F0008411734A02EB810101F194000BF056FE53
:1018000004EB041101EB84116D4A02EB810101F13B
:10181000C0000BF04BFE04EB041000EB8410684991
:1018200001EB8000D0ED3A0AB0EE600A2046FFF7E7
:10183000A5FBFAE0012CFCD1604890ED000A04EB16
:10184000041000EB84105E4901EB8000D0ED190A12
:1018500030EE600A04EB041000EB841001EB800012
:1018600080ED1B0A04EB041000EB841001EB8000F8
:1018700090ED1B0ABDEEC00A10EE100A00B204EB98
:10188000041101EB84114E4A02EB8101A1F87800AA
:101890001046B0F93C0000EE100AB8EEC00AB5EEF2
:1018A000C00AF1EE10FA0ADD9FED4A0A04EB0410BB
:1018B00000EB8410114601EB800080ED0B0A4048DC
:1018C000B0F93C0000EE100AB8EEC00AB5EEC00A4E
:1018D000F1EE10FA0AD29FED400A04EB041000EB7F
:1018E0008410374901EB800080ED0B0A04EB0410F3
:1018F00000EB8410324901EB800090F87E00401C20
:10190000C0B204EB041101EB84112D4A02EB8101FA
:1019100081F87E00022826DB002004EB041101EB95
:10192000841102EB810181F87E0004EB041101EBCC
:10193000841102EB810191ED1B1AF0EE410A04EBD8
:10194000041101EB841102EB810191ED171AB0EE45
:10195000410A04EB041101EB841102EB810101F156
:10196000940007F057FD04EB041000EB84101449B9
:1019700001EB800090ED0C0A04EB041000EB8410E6
:1019800001EB8000D0ED0E0A80EE201AB0EE418A05
:1019900004EB041000EB841001EB800090ED0B0AC7
:1019A00004EB041000EB841001EB8000D0ED2F0A53
:1019B00030EE200A04EB041010E000003C00002090
:1019C0006C2700200000000000000040000096C3CB
:1019D000000096430000C8C20000C84200EB84101B
:1019E00001EB8000D0ED0E0A80EE201AF0EE418A65
:1019F00004EB041101EB84110D4A02EB810101F1AA
:101A0000C000F0EE480AB0EE680A07F003FD04EBF0
:101A1000041000EB8410064901EB8000D0ED3A0A77
:101A2000B0EE600A2046FFF7A9FABDEC048B10BDAA
:101A30006C27002010B5044604EB041000EB841062
:101A4000044911F82000C0F3801010B9204600F0BE
:101A500089FB10BD6C27002010B504463CB94C48EA
:101A600000EBC40108224B480CF028F908E0012CD7
:101A700006D1474800EBC401082247480CF01EF984
:101A8000434830F834004FF6FF71884203D0404895
:101A900030F8340080B904EB041000EB84103F49A7
:101AA00031F8200020F0100004EB041101EB841148
:101AB0003A4A22F821001BE0354830F8340004EBA4
:101AC000041101EB8411354A02EB8101A1F87A007F
:101AD00004EB041000EB8410114631F8200020F0D4
:101AE0001000103004EB041101EB841122F82100E6
:101AF000274800EBC40040884FF6FF71884204D0AD
:101B0000234800EBC400408850B94FF4FA7004EB4E
:101B1000041101EB8411214A02EB8101C8810BE021
:101B20001B4800EBC400408804EB041101EB841156
:101B30001A4A02EB8101C881154800EBC4004068D5
:101B4000401C20B1124800EBC400406858B9B2EE06
:101B50000E0A04EB041000EB8410104901EB800026
:101B600080ED190A13E00A4800EBC40090ED010A69
:101B7000B8EEC00ADFED0A0A80EE201A04EB04106A
:101B800000EB8410054901EB800080ED191A10BDAF
:101B9000D424002000D0030800D803086C270020BC
:101BA00000007A4410B5044604EB041000EB8410E6
:101BB000164901EB80000079092824D2DFE800F003
:101BC00005060A0E1216171B1F001DE02046FFF720
:101BD000D1F819E0204600F009FA15E0204600F09F
:101BE00053FB11E02046FFF727FA0DE00CE02046FA
:101BF000FFF7E0FC08E02046FFF7E0FA04E02046AB
:101C000000F000FC00E000BF00BF10BD6C2700200A
:101C100010B52DED068B0020FFF760FB0120FFF7CC
:101C20005DFB8C48007905285CD18A4890F8480112
:101C3000052857D1874988890FF040F941EC180BE6
:101C4000844890ED070A10EE101A08460FF084FF42
:101C500041EC1A0BB0EE4A0AF0EE6A0A0AF0A0FA5A
:101C6000B0EE409AF0EE609A53EC182B51EC190B41
:101C70000FF013FB21D37749B1F850010FF01EF993
:101C800041EC180B734890ED580A10EE101A0846F4
:101C90000FF062FF41EC1A0BB0EE4A0AF0EE6A0A4E
:101CA0000AF07EFAB0EE409AF0EE609A53EC182BF0
:101CB00051EC190B0FF0F1FA11D267480088401C63
:101CC00065490880084600880A280BDD0020088046
:101CD0006049887000215F4880F8461102E00020CA
:101CE0005D4908805B48807802283AD159480079DC
:101CF000052836D05749C8890FF0E0F841EC180B99
:101D0000544890ED070A10EE101A08460FF024FF11
:101D100041EC1A0BB0EE4A0AF0EE6A0A0AF040FAF9
:101D2000B0EE409AF0EE609A53EC182B51EC190B80
:101D30000FF0B3FA12D248484088401C4649488008
:101D4000084640880A280CDD002048804148008869
:101D500020F00100401C3F49088002E000203E497D
:101D600048803C4890F8460102283ED1394890F816
:101D70004801052839D03749B1F852010FF09EF8D3
:101D800041EC180B334890ED580A10EE101A084633
:101D90000FF0E2FE41EC1A0BB0EE4A0AF0EE6A0ACE
:101DA0000AF0FEF9B0EE409AF0EE609A53EC182B70
:101DB00051EC190B0FF071FA14D227488088401C9F
:101DC00025498880084680880A280EDD0020888002
:101DD0002048B0F8440120F00100401C1D49A1F842
:101DE000440102E000201C4988801A480078C0F3B2
:101DF000801020B91748007800F0010038B117486A
:101E0000807E20F00400001D1449887605E0134808
:101E1000807E20F00400114988760E4890F8440135
:101E2000C0F3801028B90B4890F8440100F001007D
:101E300038B10A48807E20F00800083007498876CB
:101E400005E00648807E20F0080004498876BDEC55
:101E5000068B10BD6C2700205E040020B8240020F3
:101E600000EB001101EB80115F4A02EB8101D1ED23
:101E70000B0A00EB001101EB801102EB8101B1F9BB
:101E80003C1000EE101AB8EEC00AF4EEC00AF1EEF3
:101E900010FA47D200EB001101EB801102EB810137
:101EA00091ED0B0A00EB001101EB801102EB8101B7
:101EB000D1ED100A30EE200A00EB001101EB801189
:101EC00002EB810181ED0B0A00EB001101EB8011A7
:101ED00002EB8101D1ED0B0A00EB001101EB801147
:101EE00002EB8101B1F93C1000EE101AB8EEC00A05
:101EF000F4EEC00AF1EE10FA75DD00EB001101EB13
:101F0000801102EB8101B1F93C1000EE101AB8EE1D
:101F1000C00A00EB001101EB801102EB810181EDA1
:101F20000B0A60E000EB001101EB80112E4A02EB7E
:101F30008101D1ED0B0A00EB001101EB801102EBE6
:101F40008101B1F93C1000EE101AB8EEC00AF4EEAF
:101F5000C00AF1EE10FA46DD00EB001101EB801132
:101F600002EB810191ED0B0A00EB001101EB8011F6
:101F700002EB8101D1ED100A30EE600A00EB001196
:101F800001EB801102EB810181ED0B0A00EB0011E6
:101F900001EB801102EB8101D1ED0B0A00EB001186
:101FA00001EB801102EB8101B1F93C1000EE101A37
:101FB000B8EEC00AF4EEC00AF1EE10FA13D200EB4C
:101FC000001101EB801102EB8101B1F93C1000EE30
:101FD000101AB8EEC00A00EB001101EB801102EB01
:101FE000810181ED0B0A70476C27002010B52DEDA3
:101FF000048B04462046FFF733FF04EB041000EB8C
:1020000084103E4901EB8000808F68BB04EB041014
:1020100000EB84100A4602EB800090ED0C0A10EEF3
:10202000101A08460FF098FD41EC190BB0EE490A62
:10203000F0EE690A0AF0B4F8B0EE408AF0EE608A79
:102040009FED2F0B53EC102B51EC180B0EF04AFFA9
:102050000AD29FED2D0A04EB041000EB84102749EF
:1020600001EB800080ED330A04EB041000EB8410D8
:10207000224901EB800090ED0C0A04EB041000EB08
:10208000841001EB8000D0ED0E0A80EE201AB0EE35
:10209000418A04EB041000EB841001EB800090ED0A
:1020A0000B0A04EB041000EB841001EB8000D0ED70
:1020B0000E0A80EE201AF0EE418A04EB041101EBC7
:1020C00084110E4A02EB810101F1C000F0EE480AD2
:1020D000B0EE680A07F09EF904EB041000EB8410E0
:1020E000064901EB8000D0ED3A0AB0EE600A2046C6
:1020F000FEF744FFBDEC048B10BD00006C270020F0
:1021000000000000000000400000000010B52DEDB0
:10211000028B0446B0EE408AB0EE480A2046FEF735
:102120002DFF54B9012208210B4803F0BFFF012203
:102130001021094803F0BAFF0BE0012C09D101225C
:102140005102064803F0B2FF01228021044803F047
:10215000ADFFBDEC028B10BD001002400018024024
:10216000000C024000EB001101EB8011344A02EB3D
:102170008101C97879B301295ED100EB001101EB2F
:10218000801102EB81018978022919D000EB00113E
:1021900001EB801102EB810191F8901081B90121CE
:1021A00000EB001202EB8012254B03EB82029170D0
:1021B00000EB001202EB801203EB820282F8901017
:1021C000002100EB001202EB80121D4B03EB820298
:1021D00082F8911031E0FFE700EB001101EB801174
:1021E000174A02EB8101897804291AD000EB00110B
:1021F00001EB801102EB810191F8911089B9002166
:1022000000EB001202EB80120D4B03EB8202917087
:10221000012100EB001202EB801203EB820282F834
:102220009110002100EB001202EB8012044B03EB33
:10223000820282F8901000E000BF00BF70470000EB
:102240006C27002010B5044654B9002208210B4821
:1022500003F02CFF00221021084803F027FF0BE0B9
:10226000012C09D100226102054803F01FFF002262
:102270008021044803F01AFF10BD00000010024046
:1022800000180240000C024010B5044604EB041094
:1022900000EB84105A4901EB800090ED060A04EB34
:1022A000041000EB841001EB8000D0ED110AB4EEB5
:1022B000E00AF1EE10FA3FD204EB041000EB8410B8
:1022C00001EB800090ED060A04EB041000EB841093
:1022D00001EB8000D0ED120A30EE200A04EB04106E
:1022E00000EB841001EB800080ED060A04EB041083
:1022F00000EB841001EB800090ED060A04EB041063
:1023000000EB841001EB8000D0ED110AB4EEE00A7E
:10231000F1EE10FA65DD04EB041000EB841001EB24
:10232000800090ED110A04EB041000EB841001EB27
:10233000800080ED060A54E004EB041000EB8410EA
:102340002F4901EB800090ED060A04EB041000EB2E
:10235000841001EB8000D0ED110AB4EEE00AF1EE3A
:1023600010FA3EDD04EB041000EB841001EB80005A
:1023700090ED060A04EB041000EB841001EB8000E2
:10238000D0ED120A30EE600A04EB041000EB84106A
:1023900001EB800080ED060A04EB041000EB8410D2
:1023A00001EB800090ED060A04EB041000EB8410B2
:1023B00001EB8000D0ED110AB4EEE00AF1EE10FA64
:1023C0000FD204EB041000EB841001EB800090EDC1
:1023D000110A04EB041000EB841001EB800080ED87
:1023E000060A04EB041000EB8410054901EB8000A1
:1023F000D0ED060AB0EE600A2046FEF7BFFD10BD24
:102400006C27002010B52DED048B0446002C7DD1E7
:10241000C84890ED010AD0ED020A30EE600AB5EE30
:10242000C00AF1EE10FA09DD4FF6D46004EB041196
:1024300001EB8411C04A02EB81018887BD4890ED11
:10244000010AD0ED020A30EE600AB5EEC00AF1EEE4
:1024500010FA09D24FF4967004EB041101EB8411C9
:10246000B54A02EB810188872046FFF7F9FCB148A5
:1024700090ED010AD0ED020A30EE600A10EE101A5B
:1024800008460FF069FB41EC190BB0EE490AF0EE7B
:10249000690A09F085FEB0EE408AF0EE608A9FED91
:1024A000A70B53EC102B51EC180B0EF0F6FE3AD2A2
:1024B00004EB041000EB84109F4901EB800090EDC9
:1024C0000C0A04EB041000EB841001EB8000D0ED4B
:1024D0000E0A80EE201AB0EE418A04EB041000EBE5
:1024E000841001EB800090ED0B0A04EB041000EB6C
:1024F000841001EB8000D0ED0E0A80EE201AF0EE81
:10250000418A04EB041101EB841100E025E08A4AC2
:1025100002EB810101F1C000F0EE480AB0EE680A5A
:1025200006F078FF0AE004EB041101EB8411824A03
:1025300002EB810101F1C0000AF0B8FF04EB0410C6
:1025400000EB84107C4901EB8000D0ED3A0AB0EE3C
:10255000600A2046FEF712FDE8E0012CFCD1794824
:1025600090ED000A04EB041000EB8410724901EBBB
:102570008000D0ED190A30EE600A04EB041000EB85
:10258000841001EB800080ED1B0A04EB041000EBCB
:10259000841001EB800090ED1B0ABDEEC00A10EE26
:1025A000100A00B204EB041101EB8411624A02EB41
:1025B0008101A1F878001046B0F93C0000EE100A45
:1025C000B8EEC00AB5EEC00AF1EE10FA0ADD9FEDD2
:1025D0005E0A04EB041000EB8410114601EB80004E
:1025E00080ED0B0A5448B0F93C0000EE100AB8EE3A
:1025F000C00AB5EEC00AF1EE10FA0AD29FED530AF6
:1026000004EB041000EB84104B4901EB800080EDDB
:102610000B0A04EB041000EB8410474901EB800027
:1026200090F87E00401CC0B204EB041101EB841151
:10263000414A02EB810181F87E00022826DB00205E
:1026400004EB041101EB841102EB810181F87E009F
:1026500004EB041101EB841102EB810191ED1B1AD3
:10266000F0EE410A04EB041101EB841102EB81014D
:1026700091ED171AB0EE410A04EB041101EB84113D
:1026800002EB810101F1940006F0C4FE04EB04109A
:1026900000EB8410284901EB800090ED0C0A04EB5C
:1026A000041000EB841001EB8000D0ED0E0A80EEE8
:1026B000201AB0EE418A04EB041000EB841001EB09
:1026C000800090ED0B0A04EB041000EB841001EB8A
:1026D0008000D0ED2F0A30EE200A04EB041000EB4E
:1026E000841001EB8000D0ED0E0A80EE201AF0EE8F
:1026F000418A04EB041101EB84110F4A02EB8101C2
:1027000001F1C000F0EE480AB0EE680A06F082FE61
:1027100004EB041000EB8410074901EB8000D0EDBE
:102720003A0AB0EE600A2046FEF728FCBDEC048BA6
:1027300010BD0000B01C00206C270020000000002D
:102740000000F03F3C0000200000F0C20000F0421A
:1027500010B54FF4A2717548FDF760FF4FF4A271F8
:102760007348FDF75BFFFEF7F9FC0020FFF774F9F3
:102770009FED700A6D4880ED0E0A0B206B4981F8C1
:1027800088004FF41670A1F87C00B3EE0E0A0846DC
:1027900080ED100A00208870642088845020888191
:1027A0009FED650A084680ED120AB6EE000A80ED3C
:1027B000180A9FED620A80ED170A0020A1F85A005E
:1027C0009FED5F0A084680ED1A0A0120FFF744F9E1
:1027D0009FED580A554880ED5F0A082180F8CC111A
:1027E0004FF41671A0F8C011B3EE0E0A80ED610A25
:1027F000002180F846116421A0F868115021A0F84A
:1028000050119FED4D0A80ED630AB6EE000A80ED8F
:10281000690A9FED4A0A80ED680A0021A0F89E111E
:102820009FED470A80ED6B0A90ED0E0AB1EE400A6B
:10283000B0EE402A90ED0E0AF0EE401A9FED3F1ADE
:10284000DFED3E0AB0EE080AEC300CF01FFB9FED06
:102850003D2ADFED3D1A9FED391ADFED370A9FED76
:102860003B0A334884380CF011FB9FED362ADFED2C
:10287000361A9FED321AF1EE040AB3EE040A2C4820
:102880002C380CF003FB294890ED0E0AB1EE400AFB
:10289000B0EE402A90ED0E0AF0EE401A9FED271A96
:1028A000DFED260A9FED2A0A94300CF0EFFA1F485C
:1028B00090ED5F0AB1EE400AB0EE402A90ED5F0A5B
:1028C000F0EE401A9FED1D1ADFED1C0A9FED210A64
:1028D00000F50C700CF0DAFA9FED1A2ADFED1A1AE7
:1028E0009FED161ADFED1C0AB6EE000A1048C03044
:1028F0000CF0CCFA9FED132ADFED131A9FED0F1A9F
:10290000F1EE040AB3EE040A14480CF0BFFA9FED8E
:10291000142ADFED141A9FED091ADFED080A9FED66
:10292000120A0E4884380CF0B1FA10BD6C27002052
:10293000B0280020000096430AD7233C0000000086
:10294000713DCA3FA4707DBFA4707D3FCDCCCC3D0E
:102950000000FA436666663FCDCC4C3DC829002096
:102960000000F0C20000F0420000C84200BFFEE7D5
:1029700010B5024802F0A4FD10BD00000C080020B4
:102980000848094908608020088100208880C880A4
:102990000648074908608020088100208880C88098
:1029A000704700008C0700208007002000070020EF
:1029B000F406002010B504464CB904EBC400834A69
:1029C00002EB4001122282480BF078F90AE0012C58
:1029D00008D104EBC4007D4A02EB400112227D487D
:1029E0000BF06CF904EBC400784931F8100080B2A8
:1029F0004FF6FF71884227D004EBC400734931F8C9
:102A0000100008B304EBC40001EB4000408880B222
:102A10004FF6FF71884217D004EBC4006B4901EBFD
:102A20004000408880B104EBC40001EB4000808886
:102A300080B24FF6FF71884206D004EBC4006349B0
:102A400001EB4000808838B9002167206043624A6A
:102A500002EB800081700CE04D2060435F49084428
:102A600004EBC401594A02EB41010A6802608988FB
:102A7000818004EBC400554901EB4000C08880B25E
:102A80004FF6FF71884228D004EBC4004F4901EB98
:102A90004000C08808B304EBC40001EB400000898B
:102AA00080B24FF6FF71884217D004EBC40047494B
:102AB00001EB4000008980B104EBC40001EB400051
:102AC000408980B24FF6FF71884206D004EBC40003
:102AD0003E4901EB4000408938B90021672060433E
:102AE0003D4A02EB800081700EE04D2060433B497F
:102AF000084404EBC401354A02EB4101D1F8062039
:102B0000C0F806204989418104EBC4002F4901EB3C
:102B10004000C068401C28B104EBC40001EB400039
:102B2000C06838B90021672060432B4A02EB80005F
:102B3000817014E004EBC400244901EB4000C0683C
:102B400000EE100AF8EEC00A9FED251A80EE810A09
:102B500010EE100A4D216143204A1144486104EBF4
:102B6000C4001A4901EB4000008A4FF6FF71884209
:102B700006D004EBC400154901EB4000008A48B9B7
:102B8000B3EE090A67206043134901EB800080ED32
:102B90001A0A14E004EBC4000C4901EB4000008A5F
:102BA00000EE100AB8EE400ADFED0E0A80EE201AA1
:102BB00067206043084901EB800080ED1A1A204627
:102BC00001F0BCF8204600F00FF810BD3C1E0020BC
:102BD000000002080008020880210020611D00207A
:102BE00000401C4600007A444D214143764A11447E
:102BF000B1F9001000EBC002744B33F9122091427E
:102C000074D14D214143704A1144B1F9021000EBD7
:102C1000C00203EB4202B2F90220914266D14D217B
:102C20004143694A1144B1F9041000EBC00203EBBF
:102C30004202B2F90420914258D14D214143624AE7
:102C40001144B1F9061000EBC00203EB4202B2F9E5
:102C5000062091424AD14D2141435B4A1144B1F9CA
:102C6000082000EBC00103EB4101B1F908108A42D2
:102C70003CD14D214143544A1144B1F90A2000EBA3
:102C8000C00103EB4101B1F90A108A422ED100EBD9
:102C9000C0011A4602EB4101CA684D2141434A4B2B
:102CA0001944496900EE101ADFED490A20EE200AA6
:102CB000BDEEC00A10EE101A8A4217D100EBC00117
:102CC000424A02EB41010A8A67214143414B03EB2F
:102CD000810191ED1A0ADFED400A20EE200ABCEED8
:102CE000C00A10EE101A89B28A4267D04D214143C2
:102CF000354A1144098800EBC002344B23F8121006
:102D00004D214143304A1144498800EBC00203EB96
:102D1000420251804D2141432B4A1144898800EBE6
:102D2000C00203EB420291804D214143264A1144E7
:102D3000C98800EBC00203EB4202D1804D21414320
:102D4000214A11440A8900EBC00103EB41010A81C9
:102D50004D2141431C4A11444A8900EBC00103EB59
:102D600041014A814D214143174A1144496900EE0E
:102D7000101ADFED170A20EE200ABDEEC00A10EE91
:102D8000101A00EBC00203EB4202D16067214143FD
:102D9000104A02EB810191ED1A0ADFED0F0A20EED5
:102DA000200ABCEEC00A10EE101A00EBC00203EBC2
:102DB000420211820121094A115403E00021074A0D
:102DC0001154704700BFFCE7611D00203C1E00202D
:102DD00000401C468021002000007A441C04002092
:102DE00010B50E480078012803D00C48407801281F
:102DF00012D10020094908704870012105200AF00D
:102E000027FF1222064907480AF034FF122204491C
:102E1000123105480AF02EFF10BD00001C040020EE
:102E20003C1E0020000002080008020870B588B0AF
:102E300004460E46154601200190B4F5006F03D2FA
:102E400002940020059002E0039404200590082DD0
:102E500000DD08250020049006958DF81C0000BFB9
:102E6000064802F012FB0028FAD001AB324602A954
:102E7000024802F0F8F8012008B070BD0C080020EC
:102E800090ED010AD0ED000AB0EE001A10EE810AB2
:102E9000D0ED020A30EE600ADFED090A20EE200ACA
:102EA00081ED000A90ED010AD0ED020A30EE600AD1
:102EB000DFED040A20EE200A81ED010A70470000D0
:102EC0009FAAAA3E36CD133F10B52DED048B0446C4
:102ED00067206043674A02EB800090ED040A10EE21
:102EE000101A08460EF038FE41EC190BB0EE490AF4
:102EF000F0EE690A09F054F9B0EE408AF0EE608A0B
:102F00009FED5D0B53EC102B51EC180B0DF0EAFF0D
:102F10007DD267206043574A02EB800090ED040A9F
:102F200010EE101A08460EF017FE41EC190BB0EE29
:102F3000490AF0EE690A09F033F9B0EE408AF0EE82
:102F4000608A9FED4F0B53EC102B51EC180B0EF0D9
:102F5000A4F95CD267206043464901EB8000D0EDC4
:102F6000040A4D20604348490844406B00EE100AB3
:102F700030EEC00A672060433E4901EB800080EDDF
:102F80000B0A6720604301EB800090ED0B0ADFED38
:102F90003F0A80EE201A3E4890ED000A21EE000A1A
:102FA0006720604301EB800080ED0C0A67206043DE
:102FB00001EB800090ED0C0AF7EE080AB4EEE00A8F
:102FC000F1EE10FA07DDB7EE080A6720604301EB67
:102FD000800080ED0C0A67206043264901EB8000E9
:102FE00090ED0C0AFFEE080AB4EEE00AF1EE10FADA
:102FF00007D2BFEE080A6720604301EB800080ED36
:103000000C0A672060431B4A02EB800000E025E0C9
:1030100090ED0C0A10EE101A08460EF09DFD41ECE2
:10302000190BB0EE490AF0EE690A09F0B9F8B0EEF2
:10303000408AF0EE608A9FED170B53EC102B51EC99
:10304000180B0DF04FFF12D29FED140A672060435A
:10305000084901EB800080ED0C0A08E09FED0F0AA3
:1030600067206043034901EB800080ED0C0ABDEC52
:10307000048B10BD802100200000000000C07240C1
:103080000000000000002440611D00206F12833A00
:1030900024040020000000A09999B93F000000001E
:1030A0000146087810381823B0FBF3F20848805C1A
:1030B000C865032A05D908686FF30900001D8865F3
:1030C00003E008686FF309008865886D70470000A9
:1030D000441F0108014600208A6A8B69CBB932B1CE
:1030E000012A0DD0022A03D0032A10D10EE000BF1E
:1030F000CB6A03F08073B3F1807F00D1012007E039
:10310000CB6AB3F1C07F00D1012001E000E000BF35
:1031100034E08B69B3F5005F1AD132B1012A07D0D0
:10312000022A03D0032A11D10AE000BF01200EE0D9
:10313000CB6A03F08073B3F1807F00D1012006E0F9
:10314000CB6AB3F1C07F00D1012000E000BF15E0E1
:1031500032B1012A05D0022A04D0032A0CD103E09F
:1031600000BF00BF012008E0CB6A03F08073B3F119
:10317000807F00D1012000E000BF00BF704730B564
:103180000468246824F4802405682C600468636063
:103190008468402C04D10468A2600468E16003E004
:1031A0000468A1600468E26030BD7047552007499B
:1031B0000870AA20487001208870C87008710448FF
:1031C0000A680260097901717047000061000020FF
:1031D0005C00002010B52DED048B84B00446002067
:1031E000039002900190214609F02AFB03A921F8DF
:1031F00014002146012009F023FB02A921F8140044
:103200002146022009F01CFB01A921F81400C4EB9F
:10321000041000EB4000FE4901EB800090F8A6008E
:1032200000286ED10120C4EB041101EB4101F84AE2
:1032300002EB810181F8A6000020C4EB041101EB30
:10324000410102EB8101A1F8AA004FF40060C4EB38
:10325000041101EB410102EB81014860C4EB041150
:1032600001EB410102EB8101C860C4EB041101EBE9
:10327000410102EB810148619FEDE60A672060434E
:10328000E54901EB800080ED290A002120460BF082
:1032900045FE01220221E14802F008FF20460BF022
:1032A0005FFE67206043DC4901EB800090ED290A56
:1032B0006720604301EB800080ED5B0A9FEDD80A38
:1032C0006720604301EB800080ED150A67206043B2
:1032D00001EB800090ED150A6720604301EB800050
:1032E00080ED610A9FEDCF0A6720604301EB80000B
:1032F00080ED620A012167206043C74A02EB80002B
:103300008170C4EB041000EB4000C14901EB800068
:10331000B0F8A400401C80B2C4EB041101EB4101E1
:10332000BB4A02EB8101A1F8A40001287EDB00204A
:10333000C4EB041101EB410102EB8101A1F8A400EF
:103340009FEDB70A67206043B34901EB800080ED31
:10335000150A6720604301EB800090ED150A672095
:10336000604301EB800080ED610A9FEDAE0A6720AB
:10337000604301EB800080ED620A672060430A46EB
:1033800002EB800090ED5B0A10EE101A08460EF07A
:10339000E3FB41EC190BB0EE490AF0EE690A08F0C4
:1033A000FFFEB0EE408AF0EE608A9FED9F0B53EC7B
:1033B000102B51EC180B0DF070FF1BD89FED990AE4
:1033C00067206043944901EB800080ED5B0AC4EB09
:1033D000041000EB40008E4901EB800090F8A7003C
:1033E000401CC4EB041101EB4101894A02EB81014D
:1033F00081F8A700C4EB041000EB4000844901EB06
:10340000800090F8A70002287EDD67206043824993
:1034100001EB800090ED5B0AB5EEC00AF1EE10FA08
:1034200072D1C4EB041000EB400000E019E37849CE
:1034300001EB8000B0F8A800B0F57A7F64DCC4EB43
:10344000041000EB400001EB8000B0F8A800401C25
:10345000C4EB041101EB41016D4A02EB8101A1F8BB
:10346000A800C4EB041000EB4000114601EB800003
:10347000B0F8A800B0F57A7F7ED1C4EB041000EB61
:10348000400051F82000C4EB041101EB410102EBB4
:103490008101496808444008C4EB041101EB410173
:1034A00002EB81018861C4EB041000EB400011467F
:1034B00001EB80008068C4EB041101EB410102EBD9
:1034C0008101C96808444008C4EB041101EB4101C3
:1034D00002EB8101C861C4EB041000EB400011460F
:1034E00001EB80000069C4EB041101EB410102EB28
:1034F0008101496908444008C4EB041101EB410112
:1035000002EB8101086200E08BE1C4EB041000EBE8
:103510004000114651F82000C4EB041101EB4101B9
:1035200002EB81014968401AC0F34F00C4EB04115B
:1035300001EB410102EB81018884C4EB041000EB34
:103540004000114601EB80008068C4EB041101EBE0
:10355000410102EB8101C968401AC0F34F00C4EB7E
:10356000041101EB410102EB8101C884C4EB04109A
:1035700000EB4000114600E0FAE101EB8000006939
:10358000C4EB041101EB410102EB81014969401ACE
:10359000C0F34F00C4EB041101EB410102EB8101C8
:1035A0000885C4EB041000EB4000114601EB8000DD
:1035B000808CB0F5167F7DDBC4EB041000EB40007F
:1035C00001EB8000C08CB0F5167FF4DBC4EB041077
:1035D00000EB400001EB8000008DB0F5167FEADBC8
:1035E00003A830F81400C4EB041101EB410102EB15
:1035F0008101098B09B2401A00EE100AF8EEC00AE8
:10360000C4EB041000EB4000114601EB80000FE01A
:10361000601E002017B7513A8021002000100240A0
:103620008FC2F53D0000000000000040FB21194062
:10363000808C00EE100AB8EE400A80EE801AC4EBCF
:10364000041000EB400001EB800080ED0B1A02A893
:1036500030F81400C4EB041101EB410102EB8101CD
:10366000898B09B2401A00EE100AF8EEC00AC4EBCA
:10367000041000EB4000114601EB8000C08C00EE0E
:10368000100AB8EE400A80EE801AC4EB041000EB7A
:10369000400001EB800080ED0C1A01A830F8140006
:1036A000C4EB041101EB410102EB8101098C09B269
:1036B000401A00E0A1E000EE100AF8EEC00AC4EBE8
:1036C000041000EB4000114601EB8000008D00EE7D
:1036D000100AB8EE400A80EE801AC4EB041000EB2A
:1036E000400001EB800080ED0D1AC4EB041000EBEC
:1036F000400001EB800090ED0B0AC4EB041000EBDE
:10370000400001EB8000D0ED0C0AB6EE001A00EE8E
:10371000C10AC4EB041000EB400001EB8000D0EDC7
:103720000D0AB6EE001A00EEC10AC4EB041000EB5D
:10373000400001EB800080ED0F0AC4EB041000EBA9
:10374000400001EB800090ED0C0AB1EE400ADFED85
:10375000FE0A20EE200AC4EB041000EB400001EB4F
:103760008000D0ED0D0A9FEDF81A00EE810AC4EB3F
:10377000041000EB400001EB800080ED0E0AC4EB6A
:10378000041000EB400001EB800090ED0F1AF0EE0A
:10379000410AC4EB041000EB400001EB800090ED07
:1037A0000E1AB0EE410A08F0D3FBC4EB041000EB94
:1037B0004000E64901EB80004430C4EB041101EB0A
:1037C0004101E24A02EB810191F8AF1000EB810068
:1037D00080ED000AC4EB041000EB4000114601EB41
:1037E000800090F8AF00401CC4EB041101EB4101D4
:1037F00002EB810181F8AF00BAE0C4EB041000EBEA
:103800004000D24901EB800090F8A700401EC4EBB5
:10381000041101EB4101CD4A02EB810181F8A700BF
:10382000A6E003A830F81400C4EB041101EB410139
:10383000C64A52F82110884208D903A830F814006B
:10384000C4EB041101EB410142F8210003A830F858
:103850001400C4EB041101EB4101BC4A02EB8101ED
:103860004968884209D203A830F81400C4EB041157
:1038700001EB410102EB8101486002A830F814001D
:10388000C4EB041101EB4101B04A02EB81018968EC
:10389000884209D902A830F81400C4EB041101EBE6
:1038A000410102EB8101886002A830F81400C4EBEA
:1038B000041101EB4101A54A02EB8101C96888426C
:1038C00009D202A830F81400C4EB041101EB410145
:1038D00002EB8101C86001A830F81400C4EB0411A8
:1038E00001EB4101994A02EB81010969884209D93A
:1038F00001A830F81400C4EB041101EB410102EB04
:103900008101086101A830F81400C4EB041101EB37
:1039100041018E4A02EB81014969884209D201A81E
:1039200030F81400C4EB041101EB410102EB8101FA
:10393000486167206043864901EB800090ED5B0A97
:103940006720604301EB8000D0ED290A30EE200AA9
:103950006720604301EB800080ED5B0A0020C4EB30
:10396000041101EB4101794A02EB8101A1F8A800A1
:10397000C4EB041000EB4000744901EB800090F8A8
:10398000A7000C286EDD67206043714901EB8000C1
:103990008078012866D1C4EB041000EB40006B492D
:1039A00001EB8000B0F8AA00401C80B2C4EB041107
:1039B00001EB4101654A02EB8101A1F8AA00B0F5D3
:1039C0007A7F4FDB0020C4EB041101EB410102EBD5
:1039D0008101A1F8AA001FEDED0A10EE100A4D2199
:1039E00061435C4A114448610020C4EB041101EBBF
:1039F0004101564A02EB810181F8A7009FED560A6A
:103A000067206043524901EB800080ED290A1FEDD9
:103A1000FB0A6720604301EB800080ED5B0A002019
:103A2000C4EB041101EB410102EB8101A1F8A400F8
:103A3000022167206043464A02EB8000817000202B
:103A4000C4EB041101EB4101404A02EB810181F812
:103A5000A700C4EB041101EB410102EB8101A1F8C5
:103A6000A8005CE1C4EB041000EB4000374901EB17
:103A7000800090F8A7000C28F3DD672060433449EC
:103A800001EB800080780228EBD1C4EB041000EB3E
:103A900040002E4901EB8000B0F8AA00401C80B223
:103AA000C4EB041101EB4101284A02EB8101A1F8AA
:103AB000AA00B0F57A7FD4DB20460BF08DFA012105
:103AC00020460BF02BFA0020C4EB041101EB41015E
:103AD0001E4A02EB810181F8B00043E0C4EB041000
:103AE00000EB4000194901EB80004430C4EB0411A5
:103AF00001EB4101154A02EB810191F8B01000EB96
:103B0000810090ED000AC4EB041000EB4000114668
:103B100001EB8000D0ED100A30EE200AC4EB041057
:103B200000EB400001EB800080ED100AC4EB0410B4
:103B300000EB400001EB800090F8B000401CC4EBAB
:103B4000041101EB410109E0D7B35D3F601E002085
:103B500080210020611D002017B751BA02EB8101BE
:103B600081F8B000C4EB041000EB40006E4901EB9B
:103B7000800090F8B000C4EB041101EB41016A4AE7
:103B800002EB810191F8AF108842A7DBC4EB04106F
:103B900000EB4000114601EB8000D0ED100AC4EBB1
:103BA000041000EB400001EB800090F8AF0000EE45
:103BB000100AB8EE400A80EE801AC4EB041000EB45
:103BC000400001EB800080ED101AC4EB041000EB04
:103BD000400001EB8000008B01B24D206043534A4E
:103BE0001044C180C4EB041000EB40004E4901EBCF
:103BF0008000808B01B24D20604310440181C4EBF2
:103C0000041000EB4000484901EB8000008C01B239
:103C10004D20604310444181C4EB041000EB400090
:103C2000414901EB8000808C01B24D20604310447B
:103C30000180C4EB041000EB40003B4901EB800025
:103C4000C08C01B24D20604310444180C4EB04108D
:103C500000EB4000344901EB8000008D01B24D20A3
:103C6000604310448180C4EB041000EB40002E49F7
:103C700001EB8000006C4D216143114448612046F6
:103C800000F05CF867206043294901EB80008078F0
:103C9000032836D19FED270A6720604301EB80009F
:103CA00080ED290A0020C4EB041101EB41011E4AFA
:103CB00002EB8101A1F8AA00C4EB041101EB410160
:103CC00002EB8101A1F8A400C4EB041101EB410156
:103CD00002EB810181F8A700C4EB041101EB410163
:103CE00002EB810181F8A600C4EB041101EB410154
:103CF00002EB8101A1F8A8002046FEF775FFFFF74F
:103D00006FF80B488078032809D1094890F89E0184
:103D1000032804D100220221074802F0C7F904B0A9
:103D2000BDEC048B10BD0000601E0020611D002052
:103D30008021002017B7513A0010024010B52DED38
:103D4000048B04464D20604344490844B0F9000008
:103D5000B0F5167F64DB4D2060430844B0F90200E3
:103D6000B0F5167F5CDB4D2060430844B0F90400D9
:103D7000B0F5167F54DB4D2060430844B0F90600CF
:103D800040F2DC51884266DD4D20604333490844EF
:103D9000B0F9080040F2DC5188425CDD4D20604300
:103DA0002E490844B0F90A0040F2DC51884252DD45
:103DB0004D206043294A1044416908460DF0CCFE6D
:103DC00041EC190BB0EE490AF0EE690A08F0E8F987
:103DD000B0EE408AF0EE608A9FED210B53EC102B81
:103DE00051EC180B0DF07EF835D2032167206043AB
:103DF0001D4A02EB8000817000216720604302EBC6
:103E00008000018167206043114601EB80008088BB
:103E100020F010016720604302EB800081801AE0EF
:103E2000002167206043104A02EB8000817001216D
:103E30006720604302EB80000181672060431146E8
:103E400001EB8000808820F0100010306721614372
:103E500002EB81018880BDEC048B10BD611D002048
:103E600000000040FB2109408021002072B600BF05
:103E7000FEE7000010B5002201B909E0012901D1D7
:103E80000A0205E0022901D10A0201E04FF4407262
:103E90000E4B1B6823F440730C4C236023461B68B5
:103EA0001343236023461B6823F0F8032360234653
:103EB0001B68022444EAC0042343044C23602346C5
:103EC0001B6843F48033236010BD0000103C0240A7
:103ED000074A126822F44072054B1A601A461268AB
:103EE0001A601A46126842F001021A6001707047A7
:103EF000103C024010B50D49096821F440710B4C8B
:103F000021602146096841F4407121602146096819
:103F100041F001012160026000BF00BF00BFBFF39C
:103F20006F8F00BF00BF00BF436010BD103C024058
:103F3000084A126822F44072064B1A601A46126848
:103F400042F480721A601A46126842F001021A6046
:103F500001807047103C0240084A126822F4407207
:103F6000064B1A601A46126842F400721A601A462A
:103F7000126842F001021A6001607047103C024072
:103F80002348006800F0100040B12248C06940F0AA
:103F900010002049C86110201D4908601C480068B5
:103FA00000F0200040B11B48C06940F008001949EA
:103FB000C8612020164908601548006800F04000DC
:103FC00040B11448C06940F004001249C861402063
:103FD0000F4908600E48006800F0800040B10D48AD
:103FE000C06940F002000B49C861802008490860A0
:103FF0000748006800F0020040B10648C06940F080
:1040000020000449C861022001490860704700008F
:104010000C3C02408004002070B5044600250020BE
:104020001449C86102F048F8054609E0601C38B13F
:1040300024B102F041F8401BA04201D9032070BD19
:104040000D48006800F480300028EFD10A4800686D
:1040500000F0010010B1012007490860064800681F
:1040600000F0F20018B1FFF78BFF0120E7E7002016
:10407000E5E70000800400200C3C024010B500EB96
:10408000400202EBC002124B43F822100A1D00EB63
:10409000400303EBC0030E4C04EB83035A600C3265
:1040A00000EB400303EBC00304EB83039A60083288
:1040B00000EB400303EBC00304EB8303DA60083238
:1040C00000EB400303EBC00304EB83031A6110BD54
:1040D000BC1C0020B0EE401AF0EE602AF6EE006A3A
:1040E00061EE266AF0EE665ADFED2B6A62EEA66A92
:1040F000B0EE666AF0EE411AF1EE656A76EE866A17
:10410000B0EE662AF1EE656A76EEC66AB0EE660A31
:10411000DFED226AB0EE663ADFED206AF0EE663A35
:10412000F4EEC21AF1EE10FA04DDB0EE613AF0EEF0
:10413000423A03E0B0EE423AF0EE613AB4EEC30A1E
:10414000F1EE10FA02DDB0EE403A06E0B4EEE30A1A
:10415000F1EE10FA01D2F0EE403A73EE236AB6EEB9
:10416000007A66EE870A31EEE04A72EE604A30EE7F
:10417000605AF6EE006A74EE266AC0ED006AF6EE4A
:10418000006A74EEA66AC0ED016AF6EE006A75EE8A
:10419000266AC0ED026A7047D7B35D3F0000000099
:1041A000B0EE401A0C4890ED000A0C4880ED000A71
:1041B0009FED0B0A21EE000AD0ED001A9FED092AAF
:1041C00040EE821A9FED082A02EE210A024880ED95
:1041D000000A90ED000A7047F8030020FC0300205D
:1041E0000AD7233D6F12833A8FC2753FB0EE401A53
:1041F0000C4890ED000A0C4880ED000A9FED0B0A78
:1042000021EE000AD0ED001A9FED092A40EE821A35
:104210009FED082A02EE210A024880ED000A90ED87
:10422000000A7047080400200C0400200AD7233D30
:104230006F12833A8FC2753F10B5044604EB4402F7
:1042400002EBC4024A4B03EB820202F1280104EBA9
:10425000440202EBC40203EB820202F1240004EBED
:10426000440202EBC40253F82220D2ED000AB0EE61
:10427000600A05F0A9FF04EB440202EBC4023C4BC8
:1042800003EB820202F1140104EB440202EBC402CC
:1042900003EB82025068FEF7F3FD04EB440202EBED
:1042A000C402334B03EB820292ED0A1AF0EE410A8C
:1042B00004EB440202EBC40203EB820292ED091A02
:1042C000B0EE410A04EB440202EBC40203EB8202AB
:1042D000916804EB440202EBC40203EB820202F198
:1042E000140005F0E1FD04EB440202EBC402204B94
:1042F00003EB820292ED0A1AF0EE410A04EB44024B
:1043000002EBC40203EB820292ED091AB0EE410AFD
:1043100004EB440202EBC40203EB820202F11C0133
:1043200004EB440202EBC40203EB8202D06805F006
:1043300027FF04EB440101EBC4010D4A02EB8101AC
:10434000086904EB440101EBC40102EB810191ED2A
:10435000081AF0EE410A04EB440101EBC40102EB40
:10436000810191ED071AB0EE410AFFF7B3FE10BDCF
:10437000BC1C002010B52DED068B032008F0D8FAE8
:1043800000EE100AB8EE400ADFED2F0A20EE200AF8
:104390009FED2E1AC0EE010A9FED2D0A80EE801AC5
:1043A0009FED2C0A21EE000A2B4880ED000A9FEDBC
:1043B0002B0AF0EE408A9FED290AB0EE408A0520D4
:1043C00008F0F0FA00EE100AB8EE400ADFED1F0A1E
:1043D00080EE201A9FED1C0A21EE000AB0EE408A02
:1043E000B2EE040A28EE000ADFED170A70EEC80AE2
:1043F00080EE201AF0EE418AB0EE680A0AF031FC35
:10440000F0EE40AAB2EE040A0AF02BFC3AEEC00A23
:10441000DFED130A80EE201AB0EE419A9FED110AEB
:1044200030EE490AF0EE409AB7EE000AC0EE290AD3
:10443000B0EE60AA9FED0C0A3AEE400A064880ED05
:10444000010ABDEC068B10BD33335340000080459C
:104450000000604200008444601A00200000000058
:10446000003079450FCF5B3B3393884310B52DED7A
:10447000068B04469FED2C0AB0EE40AA9FED2A0A57
:10448000B0EE408A8CB9062008F08CFA00EE100AD3
:10449000F8EE400A9FED251A80EE810ADFED240A2E
:1044A00020EE200AB0EE408A12E0012C10D1072045
:1044B00008F078FA00EE100AF8EE400A9FED1B1A99
:1044C00080EE810ADFED1A0A20EE200AB0EE408A63
:1044D000B2EE040A28EE000ADFED150A70EEC80AF3
:1044E00080EE201AB0EE41AAB0EE4A0A0AF0B9FBFB
:1044F000F0EE40AAB2EE040A0AF0B3FB3AEEC00AAC
:10450000DFED0C0AC0EE208A9FED0B0A30EE689AB0
:10451000B7EE000AC0EE099A9FED080A39EEC00A0C
:10452000BDEC068B10BD00000000000000008045BF
:1045300033335340003079450FCF5B3B339388438F
:1045400010B50020FEF736FA0120FEF733FAFEF729
:1045500047FC9FED091AF1EE000A9FED080A0020C2
:1045600004F0BCFF9FED041AF1EE000A9FED030A70
:10457000012004F0B3FF10BD17B7D13800003E434F
:1045800030B50246854C8869A04200D000BF00BF0C
:1045900092F83C00012801D1022030BD012082F8B0
:1045A0003C0000BF0868092816D91068C0680C785C
:1045B0000A3C04EB44050724AC40A0431468E060C7
:1045C0000C780A3C04EB44048868A0401468E46852
:1045D00020431468E06013E0106800690C7804EB75
:1045E00044050724AC40A043146820610C7804EB18
:1045F00044048868A040146824692043146820613A
:104600001068806B20F440101468A0631068846BFD
:10461000088A401E44EA00501468A0630879C01C50
:104620000C7C001B00EB80041F20A0401468A46BCE
:104630008443106884630879C01C0C7C001B00EB69
:104640008004088880B2A0401468A46B20431468DA
:10465000A063524C8869A04218D01068806820F48A
:1046600070201468A060106880688C69204314680A
:10467000A0601068806820F440101468A060106882
:104680008068CC6920431468A0600BE010688068E3
:1046900020F470201468A0601068806820F4401036
:1046A0001468A060487D30B11068406840F48060B4
:1046B0001468606005E01068406820F48060146849
:1046C0006060087D30B11068406840F48050146824
:1046D000606005E01068406820F4805014686060F5
:1046E0004868012804D002280FD0032827D119E0F8
:1046F000106840696FF30B001468606110684069CE
:10470000CC6820431468606126E0106880696FF30C
:104710000B001468A06110688069CC68204314689D
:10472000A06119E01068C0696FF30B001468E061C4
:104730001068C069CC6820431468E0610CE0106820
:10474000006A6FF30B00146820621068006ACC687E
:1047500020431468206200BF00BF114B114C106849
:10476000A04206D10868122803D1586840F480009E
:1047700058600C4C1068A04209D10868102802D07B
:104780000868112803D1586840F40000586000BF41
:10479000002082F83C0000BF00BFFEE601000F00D1
:1047A000002301400020014010B504460548844222
:1047B00002D107F0F7FE04E00348844201D108F07B
:1047C0001DF810BD240500206C05002038B50146F9
:1047D000002000900022002300BF91F83C00012837
:1047E00001D1022038BD012081F83C0000BF0868DB
:1047F000806800F00100A0B90868806840F00100FE
:104800000D68A86038480068384DB0FBF5F000EB43
:104810004000009002E00098401E009000980028A0
:10482000F9D10868806800F00100002851D0086CB8
:1048300042F20105A84340F480500864086C00F47B
:10484000807008B90020486400BF002081F83C0057
:1048500000BF401F0D6828600868406840F0800075
:104860000D686860224C606800F01F00B0B90868ED
:10487000806800F4401008B9012000E000200246E2
:1048800008684068012525EA90230AB303B3086845
:10489000806840F480000D68A86022E008688068A5
:1048A00000F4401008B9012000E00020024608682A
:1048B0004068012525EA90230E4D0868A84210D1D2
:1048C00032B12BB10868806840F480000D68A860A0
:1048D00007E0086C40F010000864486C40F00100EC
:1048E000486400207EE700001C00002040420F00CA
:1048F000002301400020014038B50246002000900E
:1049000000BF92F83C00012801D1022038BD0120EF
:1049100082F83C0000BF0868092816D91068C068F2
:104920000C780A3C04EB44050724AC40A04314680F
:10493000E0600C780A3C04EB44048868A0401468EA
:10494000E46820431468E06013E0106800690C78A4
:1049500004EB44050724AC40A043146820610C78A4
:1049600004EB44048868A040146824692043146858
:1049700020614868072817D21068406B0C79641EC4
:1049800004EB84051F24AC40A043146860630888CE
:1049900080B20C79641E04EB8404A0401468646B3C
:1049A00020431468606331E048680D2817D210680E
:1049B000006B0C79E41F04EB84051F24AC40A0437A
:1049C00014682063088880B20C79E41F04EB840427
:1049D000A0401468246B20431468206316E010681C
:1049E000C06A0C790D3C04EB84051F24AC40A04345
:1049F0001468E062088880B20C790D3C04EB8404F2
:104A0000A0401468E46A20431468E062194B1A4C11
:104A10001068A04206D10868122803D1586840F4F3
:104A200080005860144C1068A0421CD108681028FF
:104A300002D00868112816D1586840F40000586068
:104A4000086810280FD10D4800680D4CB0FBF4F039
:104A500000EB80004000009002E00098401E0090B3
:104A600000980028F9D100BF002082F83C0000BF68
:104A700000BF4BE700230140002001401C00002044
:104A800040420F007047704770472DE9F0410446DF
:104A900000250026206807682068D0F8048007F009
:104AA000020508F0200695B38EB3206C00F01000CC
:104AB00018B9206C40F4007020642068806800F011
:104AC0004050E8B9207ED8B92068C06A00F4700070
:104AD00020B12068806800F4806088B92068406850
:104AE00020F0200021684860206C20F48070206451
:104AF000206C00F4805018B9206C40F00100206454
:104B00002046FFF7BFFF6FF012002168086007F032
:104B1000040508F08006E5B3DEB3206C00F0100059
:104B200018B9206C40F4005020642068806800F4BC
:104B3000401038BB2068806B00F4401020B1206822
:104B4000806800F48060E8B92068406800F4806004
:104B5000C0B92068806800F0405098B9207E88B9BC
:104B60002068406820F0800021684860206C20F4B4
:104B700080502064206C00F4807018B9206C40F0E4
:104B8000010020642046FFF70FFE6FF00C00216843
:104B9000086007F0010508F0400685B17EB1206885
:104BA000006800F0010050B1206C40F480302064B7
:104BB000204600F04FF86FF001002168086007F010
:104BC000200508F080667DB176B1606C40F002008F
:104BD00060646FF02000216808602046FFF754FFF2
:104BE0006FF0200021680860BDE8F08170B50446D0
:104BF00000250CB9012070BD1549A06A884200D07B
:104C000000BF206C30B9204600F026F80020606418
:104C100084F83C00206C00F0100088B9206C20F46F
:104C2000885040F0020020642046FBF7D3FE0020AD
:104C30006064206C20F0020040F00100206400E07D
:104C4000012500BF002084F83C0000BF2846D2E7C1
:104C50000100000F7047000010B586B00446142113
:104C600001A8FBF7DBFC7F49206888426CD100BFBC
:104C7000002000907C48006840F480707A49086009
:104C80000846006800F48070009000BF00BF00BFBD
:104C90000020009074481438006840F00400724905
:104CA000143908600846006800F00400009000BF56
:104CB00000BF00BF002000900846006840F00100DF
:104CC00008600846006800F00100009000BF00BFC7
:104CD0000E200190032002900020039001A9634858
:104CE00001F0E2F87120019003200290002003906F
:104CF00001A95F4801F0D8F85E485F4908600020CC
:104D0000486000215C488160C1604FF480610161AE
:104D100049004161890081614911C161002101623D
:104D2000416200F0DDFE08B1FFF7A0F800BF524875
:104D3000A063846300BF00221146122001F068FACC
:104D4000122001F055FA8BE04C4920688842FAD1D4
:104D500000BF002000904448006840F48060424951
:104D600008600846006800F48060009000BF00BF43
:104D700000BF002000903C481438006840F020003C
:104D80003949143908600846006800F02000009096
:104D900000BF00BF00BF002000900846006840F040
:104DA000040008600846006800F00400009000BF9E
:104DB00000BF00BF002000900846006840F00100DE
:104DC00008600846006800F00100009000BF00BFC6
:104DD0004FF4FE600190032002900020039001A98F
:104DE000274801F061F80120019003200290002083
:104DF000039001A91D4801F057F80E2001900320EF
:104E000002900020039001A9194801F04DF81948BB
:104E100018301C4908604FF0806048600021194834
:104E20008160C1604FF48061016149004161890086
:104E300081614911C16100210162416200F050FEAF
:104E400008B1FFF713F800BF0E48A063846300BFEA
:104E500000221146122001F0DBF9122001F0C8F9FE
:104E600006B010BD00200140443802400008024056
:104E70000000024010640240B405002000220140FE
:104E80000014024014060020F8B504460D461646EC
:104E90000020009000BF94F83C00012801D10220BE
:104EA000F8BD012084F83C0000BF2068806800F055
:104EB0000100A0B92068806840F001002168886086
:104EC000554800685549B0FBF1F000EB40000090F8
:104ED00002E00098401E009000980028F9D1206858
:104EE000806800F48070B0F5807F05D1206880680C
:104EF00020F48070216888602068806800F00100DC
:104F000000287ED0206C40F20161884340F480701C
:104F100020642068406800F4806028B1206C20F490
:104F2000005040F480502064206C00F48050B0F5B4
:104F3000805F04D1606C20F00600606401E0002016
:104F4000606400BF002084F83C0000BF344F354847
:104F5000A16BC8633448A16B08643448A16BC86472
:104F60006FF02200216808602068406840F080608F
:104F7000216848602068806840F4807021688860FB
:104F8000226802F14C0133462A46A06B00F01EFE57
:104F9000786800F01F0018BB25492068884213D0AC
:104FA00024492068884204D1381D006800F01F00A1
:104FB00050B12149206888422BD11948001D006852
:104FC00000F01F00102824D22068806800F04050B4
:104FD000F8B92068806840F080402168886018E057
:104FE00013492068884214D12068806800F040503E
:104FF00078B92068806840F080402168886008E0C7
:10500000FFE7206C40F010002064606C40F001006D
:105010006064002044E700001C00002040420F00B4
:105020000023014015090008AD0900089309000894
:1050300000200140002101400022014010B502463D
:1050400092F82030012B01D0022B06D11068406964
:10505000084314686061002010BD506A40F480204D
:1050600050620120F8E7F0B504460D461E4694F85C
:10507000207020688368A86800B900E000BF012F95
:1050800001D0022F7CD103F0806030B903F00060C2
:1050900018B903F08050002873D0C3F301610229CE
:1050A00005D9606A40F4000060620120F0BD012073
:1050B00088403060A86860B9B5F800C0E86840EA88
:1050C0004C5C206800F5C07000EB0110C0F800C017
:1050D0000FE0D5E901C040EACC00D5F80CC040EAA9
:1050E0000C00D4F800C00CF5C07C0CEB011CCCF813
:1050F0000000D5F810C0206800F5C07000EB01106A
:10510000C0F804C0287D01280ED1206800F5C070C9
:1051100000EB0110406840F4807C206800F5C0700E
:1051200000EB0110C0F804C0D079000692F806C068
:1051300040EA0C4092F805C040EA0C2C10794CEA89
:10514000000C206800F5C07000EB0110C0F80CC026
:10515000D078000692F802C040EA0C4092F801C0F4
:1051600040EA0C2092F800C040EA0C00D4F800C0DD
:105170000CF5C07C0CEB011CCCF80800206801E0A9
:1051800016E00FE000F5C07000EB0110006840F081
:10519000010C206800F5C07000EB0110C0F800C0E1
:1051A000002083E7606A40F40010606201207DE720
:1051B000606A40F480206062012077E7F0B5044621
:1051C0000A46216894F82050012D01D0022D7ED18D
:1051D000424901F50071086840F001000860086864
:1051E00020F47C5008600868566A40EA062008608F
:1051F000107D00F01F06012000FA06F3C8699843ED
:10520000C861A1F50071D069C8B9D1F80C02984302
:10521000C1F80C02908880B2968940EA064601F5F2
:105220001070576940F83760108880B2168940EADC
:10523000064601F51070576900EBC7004660D0695B
:10524000012819D1D1F80C021843C1F80C0290883A
:1052500080B2168840EA064601F51070576940F89A
:105260003760908980B2168940EA064601F51070D1
:10527000576900EBC7004660906928B9D1F804026D
:105280009843C1F8040204E0D1F804021843C1F8BD
:105290000402106928B9D1F814029843C1F8140225
:1052A00004E0D1F814021843C1F81402106A01286E
:1052B00004D1D1F81C021843C1F81C02D1F8000235
:1052C00020F00100C1F800020020F0BDFFE7606A95
:1052D00040F4802060620120F7E700000064004095
:1052E00010B504460CB9012010BD204600F0BCFBEF
:1052F000204600F0C7FA2068006840F400402168AA
:1053000008600020606284F8200000BFECE770476E
:1053100070B5044694F82050012D01D0022D7DD1A6
:1053200051B92068C06800F0030080B9606A40F499
:1053300000106062012070BD2068006900F0030069
:1053400028B9606A40F4001060620120F3E7206829
:1053500000F5D87000EB0110006800F004009060C8
:10536000906840B9206800F5D87000EB0110006823
:10537000400D106007E0206800F5D87000EB0110C8
:105380000068C0085060206800F5D87000EB01107C
:10539000006800F00200D060206800F5D87000EBD3
:1053A0000110406800F00F001061206800F5D8700F
:1053B00000EB0110406800F47F40000A9061206813
:1053C00000F5D87000EB01104068000C50612068B7
:1053D00000F5D87000EB011080681870206800F5A7
:1053E000D87000EB0110806800F47F40000A58700C
:1053F000206800F5D87000EB0110806800F47F0091
:10540000000C9870206800F5D87000EB01108068DF
:10541000000ED870206800F5D87000E02FE000EB97
:105420000110C0681871206800F5D87000EB0110F9
:10543000C06800F47F40000A5871206800F5D870F9
:1054400000EB0110C06800F47F00000C9871206828
:1054500000F5D87000EB0110C068000ED87131B9AA
:105460002068C06840F020002668F06005E02068F1
:10547000006940F020002668306100205BE7606A28
:1054800040F480206062012055E70146002091F839
:105490002020012A01D0022A11D10B689B6803F059
:1054A000806303B1401C0B689B6803F0006303B189
:1054B000401C0B689B6803F0805303B1401C70478D
:1054C0002DE9F05F04460025206846692068D0F881
:1054D0000490206887682068D0F80CA02068D0F875
:1054E00010B02068D0F8188006F00100002855D0D0
:1054F00007F00100C0B101202168886007F00200B8
:1055000018B1204600F0E6FA0EE007F0040010B1F2
:1055100045F4006508E007F0080010B145F4805537
:1055200002E0204600F0D5FA07F48070C8B14FF4CD
:1055300080702168886007F4007018B1204600F080
:10554000CBFA0EE007F4806010B145F4005508E096
:1055500007F4006010B145F4804502E0204600F0F9
:10556000BAFA07F48030C8B14FF4803021688860FF
:1055700007F4003018B1204600F0B0FA0EE007F44E
:10558000802010B145F4004508E007F4002010B178
:1055900045F4803502E0204600F09FFA06F008004E
:1055A00038B10AF0100020B145F4007510202168D0
:1055B000C86006F0040040B10AF0080028B10820D5
:1055C0002168C860204600F0C5F906F0020038B135
:1055D0002068C06800F0030010B1204600F0BBF95D
:1055E00006F0400038B10BF0100020B145F48065A2
:1055F00010202168086106F0200040B10BF008007F
:1056000028B1082021680861204600F0A5F906F0BD
:10561000100038B12068006900F0030010B1204686
:1056200000F09CF906F4003040B109F0100028B1F8
:10563000102021684860204600F0E0F906F4803030
:1056400040B109F0080028B10820216848602046D0
:1056500000F045FA06F4004088B309F0040078B37E
:1056600006F4807020B108F0010008B145F0010592
:1056700006F4007020B108F0020008B145F0020500
:1056800006F4806020B108F0040008B145F004057C
:1056900006F40060A0B108F0700088B108F0700056
:1056A000402817D006DC10280BD020280CD030283A
:1056B00019D10CE0502810D0602814D110E01DE062
:1056C00019E045F008050FE045F010050CE045F045
:1056D000200509E045F0400506E045F0800503E0BF
:1056E00045F4807500E000BF00BF2068806920F0AD
:1056F0007000216888610420216848602DB1606ACB
:10570000284360622046FFF702FEBDE8F09F70B5B7
:1057100004460CB9012070BD94F8200010B9204651
:1057200000F0CCF82068006840F0010021680860B3
:1057300000F0C2FC05462068006820F002002168E5
:1057400008600DE000F0B8FC401B642808D9606ACE
:1057500040F400306062052084F820000120DAE780
:105760002068406800F001000028EBD000F0A4FCA5
:1057700005460DE000F0A0FC401B642808D9606AD3
:1057800040F400306062052084F820000120C2E768
:105790002068406800F002000028EBD1207E01283C
:1057A00006D12068006840F080002168086005E0AC
:1057B0002068006820F0800021680860607E012871
:1057C00006D12068006840F040002168086005E0CC
:1057D0002068006820F0400021680860A07E012851
:1057E00006D12068006840F020002168086005E0CC
:1057F0002068006820F0200021680860E07E012811
:1058000006D12068006820F010002168086005E0DB
:105810002068006840F0100021680860207F01289F
:1058200006D12068006840F008002168086005E0A3
:105830002068006820F0080021680860607F012867
:1058400006D12068006840F004002168086005E087
:105850002068006820F0040021680860D4E9020193
:10586000084321690843616908436168491E084388
:105870002168C86100206062012084F820000020B7
:1058800049E7000010B504460949206888420DD157
:105890000848006820F00070064908604FF4C051C5
:1058A000054800F04DFA152000F080FC10BD000006
:1058B00000640040403802400000024010B586B04D
:1058C0000446142101A8FAF7A9FE1F49206888425E
:1058D00038D100BF002000901C48006840F00070E4
:1058E0001A4908600846006800F00070009000BF88
:1058F00000BF00BF0020009014481038006840F03E
:1059000001001249103908600846006800F00100E3
:10591000009000BF00BF4FF4C050019002200290E1
:1059200000200390032004900920059001A9084855
:1059300000F0BAFA04220021152000F069FC1520BD
:1059400000F056FC06B010BD006400404038024034
:1059500000000240704770477047000030B589B0C2
:1059600005460024002007900890204885423BD13E
:1059700007AB6A460121FFF7CBFC039898BB009860
:10598000B0F5B06F19D100BF13E007A8005D18494A
:105990000968174AD28888541548C088401C1449A1
:1059A000098990FBF1F201FB12001149C880601CCB
:1059B000C4B20498A042E8D815E00098B0F5B26FE0
:1059C00011D10C48DDE9071206C0083890ED000A35
:1059D000B1EE400A084880ED000A064890ED010A41
:1059E000054880ED010A00BF09B030BD0C08002059
:1059F000F4060020340000203C000020704770B501
:105A0000044694F82000012828D1022084F82000C0
:105A10002068006820F001002168086000F04CFB5D
:105A200005462068006820F00200216808600DE04B
:105A300000F042FB401B642808D9606A40F4003043
:105A40006062052084F82000012070BD2068406855
:105A500000F001000028EBD16062F6E7606A40F4D4
:105A6000002060620120F0E770B5044694F8200041
:105A7000022828D12068006840F0010021680860F1
:105A800000F01AFB05460DE000F016FB401B6428F1
:105A900008D9606A40F400306062052084F8200074
:105AA000012070BD2068406800F001000028EBD0A4
:105AB0002068006820F0020021680860012084F856
:105AC00020000020EDE7606A40F480106062012051
:105AD000E7E77047704770477047704770477047F7
