:020000040800F2
:10000000B0330020490200080D8B0008317B000846
:10001000098B0008F128000867BE000800000000F6
:1000200000000000000000000000000059A40008CB
:100030009B2F0008000000002F980008CDAF00089B
:1000400063020008630200086302000863020008FC
:1000500063020008630200086302000863020008EC
:1000600063020008630200086302000863020008DC
:1000700063020008630200086302000863020008CC
:1000800063020008630200089D090008630200087B
:1000900063020008F52800086302000863020008F4
:1000A00063020008F5B0000863020008630200085C
:1000B0006302000805B1000815B1000863020008DA
:1000C000630200086302000863020008630200087C
:1000D000630200086302000863020008630200086C
:1000E000630200086302000863020008630200085C
:1000F000630200086302000863020008630200084C
:10010000630200086302000863020008630200083B
:10011000630200086302000825B1000835B1000839
:10012000630200086302000863020008630200081B
:10013000630200086302000863020008630200080B
:1001400063020008630200086302000863020008FB
:1001500063020008630200086302000863020008EB
:1001600063020008630200086302000863020008DB
:100170006302000863020008630200080000000038
:10018000630200086302000800F002F800F04CF877
:100190000AA090E8000C82448344AAF10107DA45E2
:1001A00001D100F041F8AFF2090EBAE80F0013F0E8
:1001B000010F18BFFB1A43F001031847841A01000E
:1001C000A41A01000A4410F8014B14F00F0508BFEF
:1001D00010F8015B240908BF10F8014B6D1E05D013
:1001E00010F8013B6D1E01F8013BF9D1641E03D0EC
:1001F000641E01F8015BFBD19142E4D3704700001B
:100200000023002400250026103A28BF78C1FBD81F
:10021000520728BF30C148BF0B6070471FB510F0B0
:100220005DFF1FBD10B510BD00F03EFA1146FFF78F
:10023000F5FF0EF042FA00F05CFA03B4FFF7F2FFAC
:1002400003BC00F0BFFA0000094880470948004796
:10025000FEE7FEE7FEE7FEE7FEE7FEE7FEE7FEE776
:10026000FEE7FEE704480549054A064B70470000D3
:10027000E1B0000889010008B02D0020B033002053
:10028000B02F0020B02F00209FED1A1AF5EE000AC3
:1002900040EE010ABDEEE00AF5EEC00A10EE100ACB
:1002A000F1EE10FA38BF401E00EE100A1349F7EEC7
:1002B000001AB8EEC00A30EEC00ADFED0F0A20EED9
:1002C000200AFCEEC00A10EE900AC0F3080000EE0F
:1002D000900A01EB8000F8EE600A90ED011A70EED2
:1002E000600A90ED000A71EEE01A21EE800A00EE3D
:1002F000810A704783F9223E000000447C13010804
:10030000DFED1D0AB5EEC00A60EE200ABDEEE01A70
:1003100011EE100AF1EE10FA38BF401E00EE100A7E
:10032000B8EEC00A30EEC00ADFED140A20EE200A53
:10033000B4EEE00AF1EE10FAA8BF30EE600AFCEE6F
:10034000C00A0F49F7EE001A10EE900AC0F3080039
:1003500000EE900A01EB8000F8EE600A90ED011AC1
:1003600070EE600A90ED000A71EEE01A21EE800A4C
:1003700000EE810A7047000083F9223E000000442D
:100380007C13010853EA020C00F069802DE9F04B60
:100390004FF00006002B1FBFB3FA83F503FA05F4F4
:1003A00024FA05F65E4012BF1643B2FA82F502FA4D
:1003B00005F4C5F120051EBF22FA05FC44EA0C0431
:1003C000203556EA044C4FEA144418BF641C4FF021
:1003D00000084FF00009904271EB030C39D300295B
:1003E00019BFB1FA81F701FA07F6B0FA80F700FAFF
:1003F00007F6C7F120071EBF20FA07FC46EA0C06E5
:100400002037B6FBF4FCA7EB0507103F07F01F0BE6
:10041000CBF120060CFA0BFB2CFA06F644BFB346D0
:100420000026202FA4BF5E464FF0000B5BEA060CAF
:1004300008BF4FF0010B19EB0B09ABFB027C48EB3B
:100440000608C01B06FB02CC0BFB03CC71EB0C01B6
:10045000C1E70B46024641464846BDE8F08B13B55E
:100460004FF000004FF00001AFF30080BDE81C40EA
:10047000704740EA010310B59B070FD1042A0DD342
:1004800010C808C9121F9C42F8D020BA19BA884275
:1004900001D9012010BD4FF0FF3010BD1AB1D307B4
:1004A00003D0521C07E0002010BD10F8013B11F8EA
:1004B000014B1B1B07D110F8013B11F8014B1B1B13
:1004C00001D1921EF1D1184610BD032A40F23080AE
:1004D00010F0030C00F0158011F8013BBCF1020F85
:1004E000624498BF11F801CB00F8013B38BF11F806
:1004F000013BA2F1040298BF00F801CB38BF00F81D
:10050000013B11F0030300F07C80083AC0F0088042
:1005100051F8043B083A51F804CBA0E80810F5E77D
:10052000121D5CBF51F8043B40F8043BAFF3008060
:10053000D20724BF11F8013B11F801CB48BF11F8D5
:10054000012B24BF00F8013B00F801CB48BF00F8A5
:10055000012B70474FF000020429C0F0128010F008
:10056000030C00F01B80CCF1040CBCF1020F18BF8F
:1005700000F8012BA8BF20F8022BA1EB0C0100F022
:100580000DB85FEAC17C24BF00F8012B00F8012BF5
:1005900048BF00F8012B70474FF0000200B513462A
:1005A00094469646203922BFA0E80C50A0E80C5093
:1005B000B1F12001BFF4F7AF090728BFA0E80C5044
:1005C00048BF0CC05DF804EB890028BF40F8042B3D
:1005D00008BF704748BF20F8022B11F0804F18BFAA
:1005E00000F8012B704770477047704710B500F056
:1005F0003BF8006810BD10B5044600F035F8046003
:1006000010BD10B5203AC0F00B80B1E81850203A68
:10061000A0E81850B1E81850A0E81850BFF4F5AFA2
:100620005FEA027C24BFB1E81850A0E8185044BF2C
:1006300018C918C0BDE810405FEA827C24BF51F899
:10064000043B40F8043B08BF7047D20728BF31F88D
:10065000023B48BF11F8012B28BF20F8023B48BFDE
:1006600000F8012B70470000004870474C2D002017
:100670001FB584B000200A9C06AB04AA02A900940E
:10068000AFF3008018B1DDE9020108B010BD0348E6
:10069000204000F034F800200146F6E70000207CFE
:1006A000004870474C2D00207546FFF7F9FFAE4615
:1006B00005006946534620F00700854618B020B56E
:1006C000FFF7D0FDBDE820404FF000064FF00007D7
:1006D0004FF000084FF0000B21F00701AC46ACE8EA
:1006E000C009ACE8C009ACE8C009ACE8C0098D4657
:1006F00070470446AFF300802046FFF79EFD10B51B
:1007000000F00AF8BDE8104000F001B8704700287A
:1007100001D000F057B8704710B5022803D041014E
:1007200003D50DA112E0002010BD010101D50FA1DC
:100730000CE0C10001D511A108E0810001D512A192
:1007400004E0400001D513A100E0002115A000F055
:100750003FF8012010BD0000496E76616C6964208D
:100760004F7065726174696F6E000000446976694C
:100770006465204279205A65726F00004F76657279
:10078000666C6F7700000000556E646572666C6F72
:1007900077000000496E6578616374205265737557
:1007A0006C7400005349474650453A2041726974C1
:1007B000686D6574696320657863657074696F6ED0
:1007C0003A20000001491820ABBEFEE726000200D7
:1007D00070B505460C460A2000E06D1C00F011F8CB
:1007E00035B128780028F8D102E0641C00F009F83F
:1007F00014B120780028F8D1BDE870400A20AFF38A
:10080000008008B569468DF800000320ABBE08BD26
:1008100010B500F0B9FD314890ED080ADFED300A5F
:1008200020EE200A2F48D0ED030A9FED2F1A00EE8C
:10083000810A2A4880ED080A2C480068406B2B4941
:100840000968896B884205D9244890ED080A80ED33
:10085000070A06E0214890ED080AB1EE400A80ED53
:10086000070A1E4890ED070ABDEEC00A10EE100AF6
:1008700000B21A490882084690ED570ADFED180ABF
:1008800020EE200A1748D0ED050A9FED171A00EE5A
:10089000810A084680ED570A15480068C06B144964
:1008A0000968096C884205D90C4890ED570A80ED1B
:1008B000560A06E0094890ED570AB1EE400A80ED6D
:1008C000560A064890ED560ABDEEC00A10EE100A10
:1008D00001B20248A0F84C1110BD0000D42A00203B
:1008E0006666663F141C0020CDCCCC3D7C09002000
:1008F000CC07002070B50546AC6B206C00F05000B2
:1009000050BB206C40F4007020642068806800F0C8
:100910004050E8B9207ED8B92068C06A00F4700061
:1009200020B12068806800F4806088B92068406841
:1009300020F0200021684860206C20F48070206442
:10094000206C00F4805018B9206C40F00100206445
:10095000204603F08DFF0BE0206C00F0100018B172
:10096000204603F087FF03E0A06BC16C2846884750
:1009700070BD70B50546AC6B40202064606C40F0E3
:1009800004006064204603F075FF70BD70B5044636
:10099000A56B284603F06DFF70BD000010B503483D
:1009A00003F069FF024803F066FF10BD2C0400202D
:1009B0007404002055494A6822F440324A604A686B
:1009C00043681A434A600268526822F480720368DE
:1009D0005A6002685368026943EA022203685A6057
:1009E0000268526822F0407203685A6002685268D6
:1009F00083681A4303685A600268926822F40062AE
:100A000003689A6002689268C3681A4303689A6030
:100A10003F4B826A9A4218D00268926822F0706254
:100A200003689A6002689268836A1A4303689A604E
:100A30000268926822F0405203689A6002689268E5
:100A4000C36A1A4303689A600BE00268926822F056
:100A5000706203689A600268926822F040520368EC
:100A60009A600268926822F0020203689A60026843
:100A70009368027E43EA420203689A602022125C75
:100A8000A2B10268526842F4006203685A600268C8
:100A9000526822F4604203685A6002685368426AEE
:100AA000521E43EA423203685A6005E00268526807
:100AB00022F4006203685A600268D26A22F470026B
:100AC0000368DA620268D36A828B521E43EA0252DA
:100AD0000368DA620268926822F4007203689A601E
:100AE0000268936890F8302043EA422203689A60D3
:100AF0000268926822F4806203689A6002689368D0
:100B0000426943EA822203689A60704700230140E9
:100B10000100000F3248406800EE100AB8EE400AAB
:100B2000DFED300A20EE200ABCEEC00A10EE100AFB
:100B30002B49C8600846C06810B94FF0FF30C86044
:100B40002748C06800EE100AB8EE400AF7EE000A27
:100B500020EE200ADFED240A80EE801ABDEEC10AE5
:100B600010EE100A00B21E4908820846008A1F498A
:100B700088861F4800680068C0F3001050B9184804
:100B8000B0F9100000EE100AB8EEC00A084680ED79
:100B90000C0A0DE01248B0F9100000EE100AB8EE91
:100BA000C00AFFEE000A20EE200A104880ED0C0A71
:100BB0000F480068416A0A48C069401E01EB0040C6
:100BC000074908620846006A4969401A0749C86728
:100BD0000846B0F87C0000B2A1F850007047000051
:100BE0003C070020310C433CC0E1644CD42A002077
:100BF000140800203248806A00EE100AB8EE400A5D
:100C0000DFED300A20EE200ABCEEC00A10EE100A1A
:100C10002B4908630846006B18B94FF0FF3128488C
:100C200001632748006B00EE100AB8EE400AF3EEAD
:100C30000C0A20EE200ADFED240A80EE801ABDEEB9
:100C4000C10A10EE100A01B21D488186818E1F482C
:100C5000A0F870111E4800680068C0F3001050B181
:100C60001748B0F9340000EE100AB8EEC00A174871
:100C700080ED5B0A0DE01248B0F9340000EE100A76
:100C8000B8EEC00AFFEE000A20EE200A0F4880ED01
:100C90005B0A0F480068416A0948006C401E01EB7E
:100CA000004107484164416C806B091A0748C0F84D
:100CB000B811B0F8B80101B20448A0F88C1170471F
:100CC0003C070020310C433CC0E1644CD42A002096
:100CD0005C08002010B5002410E003200CF078FB25
:100CE0001249096808441149086004200CF070FB9F
:100CF0000F49096808440E490860641CB4F57A7FFE
:100D0000EBDB0A4800684FF47A71B0FBF1F0094957
:100D10000881074800684FF47A71B0FBF1F081B2A6
:100D20000448018203F01EFA10BD0000D402002026
:100D3000D8020020141C002010B52DED068B0446AF
:100D4000C4EB041000EB84107C4901EB8000B0F987
:100D5000580000EE100AB8EEC00AC4EB041000EB15
:100D6000841001EB800080ED130AC4EB041101EB49
:100D70008411724A02EB810191F980000FF086FA2A
:100D800041EC180BC4EB041000EB84106B4A02EB2F
:100D90008000B0F9500000EE100AF8EEC00AC4EB73
:100DA000041000EB841002EB8000B0F9580000EE54
:100DB000100AB8EEC00A30EEC00A10EE101A08464B
:100DC00010F0D6F841EC1A0BB0EE4A0AF0EE6A0ABF
:100DD0000BF076FDB0EE409AF0EE609A53EC182BD3
:100DE00051EC190B0FF065FC7DD2C4EB041000EB45
:100DF0008410524901EB800090F87A00401CC0B288
:100E0000C4EB041101EB84114C4A02EB810181F81F
:100E10007A0002283BDB0020C4EB041101EB8411B3
:100E200002EB810181F87A00C4EB041101EB84111B
:100E300002EB8101B1F9501001EE101AB8EEC11A9F
:100E4000F0EE410AC4EB041101EB841102EB8101C5
:100E500091ED131AB0EE410AC4EB041101EB8411B9
:100E600002EB810101F1E40007F090FEC4EB0410F5
:100E700000EB8410314901EB800090ED430AC4EB94
:100E8000041000EB841001EB800080ED0B0AC4EB32
:100E9000041000EB8410294901EB800090ED0C0A4E
:100EA000C4EB041000EB841001EB8000D0ED0E0ABF
:100EB00080EE201AB0EE418AC4EB041000EB8410DF
:100EC00001EB800090ED0B0AC4EB041000EB8410E2
:100ED00001EB8000D0ED0E0A80EE201AF0EE418A80
:100EE000C4EB041100E01BE001EB8411134A02EB98
:100EF000810101F1B800F0EE480AB0EE680A07F08F
:100F000045FEC4EB041000EB84100C4901EB80009B
:100F1000D0ED380AB0EE600A204600F011F80AE081
:100F2000C4EB041101EB8411044A02EB810101F1CD
:100F3000E4000CF079FFBDEC068B10BDD42A002034
:100F400040BBF0EE000A80EE201AF6EE000A71EEC9
:100F5000200A9FED261A60EE810AFCEEE00A10EEF0
:100F6000901A89B2224A12685163F0EE000A80EEAC
:100F7000201AF6EE000A70EEC10A9FED1C1A60EE10
:100F8000810AFCEEE00A10EE901A89B2184A126843
:100F9000916329E0012827D1B0EE001AC0EE010AC2
:100FA000B6EE001A70EE810A9FED121A60EE810A09
:100FB000FCEEE00A10EE901A89B20F4A1268D16373
:100FC000F0EE000A80EE201AF6EE000A70EEC10A7A
:100FD0009FED081A60EE810AFCEEE00A10EE901A0E
:100FE00089B2054A1268116470470000003C03464C
:100FF0007C090020003E8346CC07002010B52DED73
:10100000048B0446424890ED050AB5EEC00AF1EEA5
:1010100010FA2DD1C4EB041000EB84103C4A02EB13
:10102000800090ED070A10EE101A08460FF0A0FF9E
:1010300041EC190BB0EE490AF0EE690A0BF040FCE6
:10104000B0EE408AF0EE608A9FED320B53EC102B2D
:1010500051EC180B0FF052F90AD29FED300AC4EB95
:10106000041000EB84102A4901EB800080ED470A50
:10107000C4EB041000EB8410254901EB8000D0ED97
:10108000070AC4EB041000EB841001EB8000808C95
:1010900000EE100AB8EE400A80EE801AB0EE418AE7
:1010A000C4EB041000EB841001EB8000D0ED050AC6
:1010B000C4EB041000EB841001EB8000808C00EE88
:1010C000100AB8EE400A80EE801AF0EE418AC4EBB6
:1010D000041101EB84110E4A02EB810101F58870C5
:1010E000F0EE480AB0EE680A07F050FDC4EB0410B9
:1010F00000EB8410064901EB8000D0ED4E0AB0EE03
:10110000600A2046FFF71CFFBDEC048B10BD0000F9
:10111000D42A0020000000A09999B93F00000000E7
:1011200010B5FFF7D7FD14480089322806DA1348B6
:10113000008820F040001149088006E00F48008830
:1011400020F0400040300D4908800B48008A3228CA
:1011500008DA0A48B0F83C0120F040000749A1F83D
:101160003C0108E00548B0F83C0120F04000403068
:101170000249A1F83C0110BD141C0020D42A002013
:1011800010B52DED048B0446204600F011FEC4EB93
:10119000041000EB84103E4901EB8000808F68BB97
:1011A000C4EB041000EB84100A4602EB800090EDC3
:1011B0000C0A10EE101A08460FF0DAFE41EC190B7B
:1011C000B0EE490AF0EE690A0BF07AFBB0EE408A05
:1011D000F0EE608A9FED2F0B53EC102B51EC180BA7
:1011E0000FF08CF80AD29FED2D0AC4EB041000EB2F
:1011F0008410274901EB800080ED310AC4EB041014
:1012000000EB8410224901EB800090ED0C0AC4EB46
:10121000041000EB841001EB8000D0ED0E0A80EE8C
:10122000201AB0EE418AC4EB041000EB841001EBED
:10123000800090ED0B0AC4EB041000EB841001EB6E
:101240008000D0ED0E0A80EE201AF0EE418AC4EB49
:10125000041101EB84110E4A02EB810101F1B80087
:10126000F0EE480AB0EE680A07F090FCC4EB0410F8
:1012700000EB8410064901EB8000D0ED380AB0EE97
:10128000600A2046FFF75CFEBDEC048B10BD000039
:10129000D42A0020000000000000004000000000F0
:1012A00010B52DED048B0446C4EB041000EB841044
:1012B000324901EB8000007907285CD1C4EB0410AF
:1012C00000EB841001EB80008078022853D1C4EB3E
:1012D000041000EB84100A4602EB800090ED0C0A2B
:1012E00010EE101A08460FF043FE41EC190BB0EE59
:1012F000490AF0EE690A0BF0E3FAB0EE408AF0EE2C
:10130000608A9FED1F0B53EC102B51EC180B0EF065
:10131000F5FF26D2C4EB041000EB8410174901EB53
:101320008000B0F88600401C80B2C4EB041101EBD1
:101330008411124A02EB8101A1F886000A281ADB07
:101340000020C4EB041101EB841102EB8101A1F830
:101350008600C4EB041101EB841102EB8101C8701B
:1013600009E00020C4EB041101EB8411034A02EBF5
:101370008101A1F88600BDEC048B10BDD42A0020A9
:10138000000000000000244010B503200CF020F8FD
:1013900013490989401A00EE100AB8EEC00ADFEDC1
:1013A000110A20EE200ADFED100A80EE201A0C4808
:1013B00080ED031A04200CF00BF80949098A401A41
:1013C00000EE100AB8EEC00ADFED060A20EE200A91
:1013D000DFED050A80EE201A014880ED051A10BDE8
:1013E000141C0020333353404260E542C0EB00112F
:1013F00001EB80115F4A02EB8101D1ED170AC0EBCE
:10140000001101EB801102EB8101B1F95A1000EEDD
:10141000101AB8EEC00AF4EEC00AF1EE10FA47D284
:10142000C0EB001101EB801102EB810191ED170A75
:10143000C0EB001101EB801102EB8101D1ED180A24
:1014400030EE200AC0EB001101EB801102EB8101AC
:1014500081ED170AC0EB001101EB801102EB810155
:10146000D1ED170AC0EB001101EB801102EB8101F5
:10147000B1F95A1000EE101AB8EEC00AF4EEC00A24
:10148000F1EE10FA75DDC0EB001101EB801102EBFB
:101490008101B1F95A1000EE101AB8EEC00AC0EB83
:1014A000001101EB801102EB810181ED170A60E070
:1014B000C0EB001101EB80112E4A02EB8101D1ED4E
:1014C000170AC0EB001101EB801102EB8101B1F9A9
:1014D0005A1000EE101AB8EEC00AF4EEC00AF1EE8F
:1014E00010FA46DDC0EB001101EB801102EB810127
:1014F00091ED170AC0EB001101EB801102EB8101A5
:10150000D1ED180A30EE600AC0EB001101EB80113A
:1015100002EB810181ED170AC0EB001101EB801194
:1015200002EB8101D1ED170AC0EB001101EB801134
:1015300002EB8101B1F95A1000EE101AB8EEC00AA0
:10154000F4EEC00AF1EE10FA13D2C0EB001101EB79
:10155000801102EB8101B1F95A1000EE101AB8EEB9
:10156000C00AC0EB001101EB801102EB810181ED9B
:10157000170A7047D42A002010B52DED048B0446BD
:10158000002C7DD1FE4890ED000AC4EB041000EB66
:101590008410FC4901EB8000D0ED190A30EE600A9E
:1015A000C4EB041000EB841001EB800080ED1A0AFC
:1015B000C4EB041000EB841001EB800090ED1A0ADC
:1015C000BDEEC00A10EE100A00B2C4EB041101EB2C
:1015D0008411EC4A02EB8101A1F874002046FFF768
:1015E00005FFC4EB041000EB8410E64A02EB800018
:1015F000D0ED1A0AC4EB041000EB841002EB80005B
:10160000B0F95A0000EE100AB8EEC00A30EEC00A77
:1016100010EE101A08460FF0ABFC41EC190BB0EEBF
:10162000490AF0EE690A0BF04BF9B0EE408AF0EE91
:10163000608A9FEDD50B53EC102B51EC180B0FF07B
:1016400038F87DD2C4EB041000EB8410CD4901EBD7
:10165000800090F87A00401CC0B2C4EB041101EB8A
:101660008411C84A02EB810181F87A00022859DB13
:101670000020C4EB041101EB841102EB810100E0B6
:10168000BAE081F87A00C4EB041000EB8410114634
:1016900001EB800090ED1A0AB5EEC00AF1EE10FAE7
:1016A00009DD9FEDBB0AC4EB041000EB841001EBD5
:1016B000800080ED0B0AC4EB041000EB8410B149EC
:1016C00001EB800090ED1A0AB5EEC00AF1EE10FAB7
:1016D00009D29FEDB00AC4EB041000EB841001EBBB
:1016E000800080ED0B0AC4EB041101EB8411A54AC4
:1016F00002EB810191ED1A1AF0EE410AC4EB0411DC
:1017000001EB841102EB810191ED171AB0EE410A51
:10171000C4EB041101EB841102EB810101F18C0097
:1017200007F034FAC4EB041000EB8410954901EB88
:10173000800090ED0C0AC4EB041000EB841000E074
:1017400035E001EB8000D0ED0E0A80EE201AB0EEFD
:10175000418AC4EB041000EB841001EB800090ED93
:101760000B0AC4EB041000EB841001EB8000D0EDF9
:101770002D0A30EE200AC4EB041000EB841001EBBC
:101780008000D0ED0E0A80EE201AF0EE418AC4EB04
:10179000041101EB84117B4A02EB810101F1B800D5
:1017A000F0EE480AB0EE680A07F0F0F915E0C4EB75
:1017B000041101EB8411734A02EB810101F18C00E9
:1017C0000CF032FBC4EB041101EB84116D4A02EB07
:1017D000810101F1B8000CF027FBC4EB041000EB11
:1017E0008410684901EB8000D0ED380AB0EE600A41
:1017F0002046FFF7A5FBFAE0012CFCD1604890EDF4
:10180000000AC4EB041000EB84105E4901EB800079
:10181000D0ED190A30EE600AC4EB041000EB84101E
:1018200001EB800080ED1A0AC4EB041000EB841079
:1018300001EB800090ED1A0ABDEEC00A10EE100A0E
:1018400000B2C4EB041101EB84114E4A02EB81019A
:10185000A1F874001046B0F93C0000EE100AB8EE92
:10186000C00AB5EEC00AF1EE10FA0ADD9FED4A0A91
:10187000C4EB041000EB8410114601EB800080EDF6
:101880000B0A4048B0F93C0000EE100AB8EEC00A5E
:10189000B5EEC00AF1EE10FA0AD29FED400AC4EB91
:1018A000041000EB8410374901EB800080ED0B0A37
:1018B000C4EB041000EB8410324901EB800090F877
:1018C0007A00401CC0B2C4EB041101EB84112D4A14
:1018D00002EB810181F87A00022826DB0020C4EBAC
:1018E000041101EB841102EB810181F87A00C4EB51
:1018F000041101EB841102EB810191ED1A1AF0EE53
:10190000410AC4EB041101EB841102EB810191ED5A
:10191000171AB0EE410AC4EB041101EB841102EB7B
:10192000810101F18C0007F031F9C4EB041000EBE8
:101930008410144901EB800090ED0C0AC4EB0410F4
:1019400000EB841001EB8000D0ED0E0A80EE201A2F
:10195000B0EE418AC4EB041000EB841001EB800070
:1019600090ED0B0AC4EB041000EB841001EB800037
:10197000D0ED2D0A30EE200AC4EB041010E0000078
:1019800038000020D42A0020000000000000F03FB2
:10199000000048C300004843000016C3000016437F
:1019A00000EB841001EB8000D0ED0E0A80EE201ACF
:1019B000F0EE418AC4EB041101EB84110D4A02EBF5
:1019C000810101F1B800F0EE480AB0EE680A07F0B4
:1019D000DDF8C4EB041000EB8410064901EB800035
:1019E000D0ED380AB0EE600A2046FFF7A9FABDEC48
:1019F000048B10BDD42A002010B50446C4EB04109B
:101A000000EB8410044911F82000C0F3801010B9D5
:101A1000204600F04FFB10BDD42A002010B52DED5C
:101A2000068B7348007905285CD1714890F8400115
:101A3000052857D16E4988890EF04CFC41EC180BF3
:101A40006B4890ED070A10EE101A08460FF090FA56
:101A500041EC1A0BB0EE4A0AF0EE6A0A0AF030FFC7
:101A6000B0EE409AF0EE609A53EC182B51EC190B43
:101A70000EF01FFE21D35E49B1F848010EF02AFC9A
:101A800041EC180B5A4890ED560A10EE101A084611
:101A90000FF06EFA41EC1A0BB0EE4A0AF0EE6A0A49
:101AA0000AF00EFFB0EE409AF0EE609A53EC182B5D
:101AB00051EC190B0EF0FDFD11D24E480088401C70
:101AC0004C490880084600880A280BDD0020088061
:101AD000474988700021464880F83E1102E0002006
:101AE000444908804248807802283AD14048007929
:101AF000052836D03E49C8890EF0ECFB41EC180BA6
:101B00003B4890ED070A10EE101A08460FF030FA25
:101B100041EC1A0BB0EE4A0AF0EE6A0A0AF0D0FE67
:101B2000B0EE409AF0EE609A53EC182B51EC190B82
:101B30000EF0BFFD12D22F484088401C2D4948802E
:101B4000084640880A280CDD002048802848008884
:101B500020F00100401C2649088002E000202549B1
:101B60004880234890F83E0102283ED1204890F852
:101B70004001052839D01E49B1F84A010EF0AAFBF0
:101B800041EC180B1A4890ED560A10EE101A084650
:101B90000FF0EEF941EC1A0BB0EE4A0AF0EE6A0AC9
:101BA0000AF08EFEB0EE409AF0EE609A53EC182BDD
:101BB00051EC190B0EF07DFD14D20E488088401CAC
:101BC0000C498880084680880A280EDD002088801D
:101BD0000748B0F83C0120F00100401C0449A1F87E
:101BE0003C0102E0002003498880BDEC068B10BD5B
:101BF000D42A00207A03002010B504463CB94C4892
:101C000000EBC40108224B480CF0ECF908E0012C71
:101C100006D1474800EBC401082247480CF0E2F91E
:101C2000434830F834004FF6FF71884203D04048F3
:101C300030F8340080B9C4EB041000EB84103F4945
:101C400031F8200020F01000C4EB041101EB8411E6
:101C50003A4A22F821001BE0354830F83400C4EB42
:101C6000041101EB8411354A02EB8101A1F87600E1
:101C7000C4EB041000EB8410114631F8200020F072
:101C800010001030C4EB041101EB841122F8210084
:101C9000274800EBC40040884FF6FF71884204D00B
:101CA000234800EBC400408850B94FF4FA70C4EBED
:101CB000041101EB8411214A02EB8101C8810BE080
:101CC0001B4800EBC4004088C4EB041101EB8411F5
:101CD0001A4A02EB8101C881154800EBC400406834
:101CE000401C20B1124800EBC400406858B9B2EE65
:101CF000000AC4EB041000EB8410104901EB8000D3
:101D000080ED190A13E00A4800EBC40090ED010AC7
:101D1000B8EEC00ADFED0A0A80EE201AC4EB041008
:101D200000EB8410054901EB800080ED191A10BD0D
:101D30008829002000D0030800D80308D42A0020F6
:101D400000007A4410B50446C4EB041000EB841084
:101D5000164901EB80000079092824D2DFE800F061
:101D600005060A0E1216171B1F001DE02046FEF77F
:101D7000E3FF19E0204600F0E1F815E0204600F00E
:101D80002BFA11E02046FFF739F90DE00CE0204670
:101D9000FFF7F2FB08E02046FFF7F2F904E02046E7
:101DA00000F0D8FA00E000BF00BF10BDD42A002028
:101DB000C0EB001101EB80115F4A02EB8101D1ED14
:101DC0000B0AC0EB001101EB801102EB8101B1F9AC
:101DD0003C1000EE101AB8EEC00AF4EEC00AF1EEA4
:101DE00010FA47D2C0EB001101EB801102EB810128
:101DF00091ED0B0AC0EB001101EB801102EB8101A8
:101E0000D1ED100A30EE200AC0EB001101EB801179
:101E100002EB810181ED0B0AC0EB001101EB801197
:101E200002EB8101D1ED0B0AC0EB001101EB801137
:101E300002EB8101B1F93C1000EE101AB8EEC00AB5
:101E4000F4EEC00AF1EE10FA75DDC0EB001101EB03
:101E5000801102EB8101B1F93C1000EE101AB8EECE
:101E6000C00AC0EB001101EB801102EB810181ED92
:101E70000B0A60E0C0EB001101EB80112E4A02EB6F
:101E80008101D1ED0B0AC0EB001101EB801102EBD7
:101E90008101B1F93C1000EE101AB8EEC00AF4EE60
:101EA000C00AF1EE10FA46DDC0EB001101EB801123
:101EB00002EB810191ED0B0AC0EB001101EB8011E7
:101EC00002EB8101D1ED100A30EE600AC0EB001187
:101ED00001EB801102EB810181ED0B0AC0EB0011D7
:101EE00001EB801102EB8101D1ED0B0AC0EB001177
:101EF00001EB801102EB8101B1F93C1000EE101AE8
:101F0000B8EEC00AF4EEC00AF1EE10FA13D2C0EB3C
:101F1000001101EB801102EB8101B1F93C1000EEE0
:101F2000101AB8EEC00AC0EB001101EB801102EBF1
:101F3000810181ED0B0A7047D42A002010B52DEDE8
:101F4000048B04462046FFF733FFC4EB041000EB7C
:101F500084103E4901EB8000808F68BBC4EB041005
:101F600000EB84100A4602EB800090ED0C0A10EEA4
:101F7000101A08460EF0FCFF41EC190BB0EE490AAE
:101F8000F0EE690A0AF09CFCB0EE408AF0EE608A3E
:101F90009FED2F0B53EC102B51EC180B0EF0AEF9FC
:101FA0000AD29FED2D0AC4EB041000EB84102749E0
:101FB00001EB800080ED310AC4EB041000EB8410CB
:101FC000224901EB800090ED0C0AC4EB041000EBF9
:101FD000841001EB8000D0ED0E0A80EE201AB0EEE6
:101FE000418AC4EB041000EB841001EB800090EDFB
:101FF0000B0AC4EB041000EB841001EB8000D0ED61
:102000000E0A80EE201AF0EE418AC4EB041101EBB7
:1020100084110E4A02EB810101F1B800F0EE480A8A
:10202000B0EE680A06F0B2FDC4EB041000EB8410B9
:10203000064901EB8000D0ED380AB0EE600A204678
:10204000FEF77EFFBDEC048B10BD0000D42A0020FB
:1020500000000000000000400000000010B52DED61
:10206000028B0446B0EE408AB0EE480A2046FEF7E6
:1020700067FF54B9012208210B4803F027FF012212
:102080001021094803F022FF0BE0012C09D10122A5
:102090005102064803F01AFF01228021044803F090
:1020A00015FFBDEC028B10BD00100240001802406D
:1020B000000C0240C0EB001101EB8011344A02EB2E
:1020C0008101C97879B301295ED1C0EB001101EB20
:1020D000801102EB81018978022919D0C0EB00112F
:1020E00001EB801102EB810191F8881081B9012187
:1020F000C0EB001202EB8012254B03EB82029170C1
:10210000C0EB001202EB801203EB820282F888100F
:102110000021C0EB001202EB80121D4B03EB820288
:1021200082F8891031E0FFE7C0EB001101EB80116C
:10213000174A02EB8101897804291AD0C0EB0011FB
:1021400001EB801102EB810191F8891089B900211E
:10215000C0EB001202EB80120D4B03EB8202917078
:102160000121C0EB001202EB801203EB820282F825
:1021700089100021C0EB001202EB8012044B03EB2C
:10218000820282F8881000E000BF00BF70470000A4
:10219000D42A002010B5044654B9002208210B4867
:1021A00003F094FE00221021084803F08FFE0BE09C
:1021B000012C09D100226102054803F087FE0022AC
:1021C0008021044803F082FE10BD00000010024090
:1021D00000180240000C024010B50446C4EB041085
:1021E00000EB84105A4901EB800090ED060AC4EB25
:1021F000041000EB841001EB8000D0ED110AB4EE66
:10220000E00AF1EE10FA3FD2C4EB041000EB8410A8
:1022100001EB800090ED060AC4EB041000EB841083
:1022200001EB8000D0ED120A30EE200AC4EB04105E
:1022300000EB841001EB800080ED060AC4EB041073
:1022400000EB841001EB800090ED060AC4EB041053
:1022500000EB841001EB8000D0ED110AB4EEE00A2F
:10226000F1EE10FA65DDC4EB041000EB841001EB15
:10227000800090ED110AC4EB041000EB841001EB18
:10228000800080ED060A54E0C4EB041000EB8410DB
:102290002F4901EB800090ED060AC4EB041000EB1F
:1022A000841001EB8000D0ED110AB4EEE00AF1EEEB
:1022B00010FA3EDDC4EB041000EB841001EB80004B
:1022C00090ED060AC4EB041000EB841001EB8000D3
:1022D000D0ED120A30EE600AC4EB041000EB84105B
:1022E00001EB800080ED060AC4EB041000EB8410C3
:1022F00001EB800090ED060AC4EB041000EB8410A3
:1023000001EB8000D0ED110AB4EEE00AF1EE10FA14
:102310000FD2C4EB041000EB841001EB800090EDB1
:10232000110AC4EB041000EB841001EB800080ED77
:10233000060AC4EB041000EB8410054901EB800091
:10234000D0ED060AB0EE600A2046FEF7F9FD10BD9A
:10235000D42A002010B52DED048B0446002C7DD12D
:102360002046FFF725FDC4EB041000EB8410D7498D
:1023700001EB8000808F68BBC4EB041000EB84107D
:102380000A4602EB800090ED0C0A10EE101A084687
:102390000EF0EEFD41EC190BB0EE490AF0EE690AC1
:1023A0000AF08EFAB0EE408AF0EE608A9FEDC80B1C
:1023B00053EC102B51EC180B0DF0A0FF0AD29FED3F
:1023C000C60AC4EB041000EB8410C04901EB800086
:1023D00080ED310AC4EB041000EB8410BB4901EB23
:1023E000800090ED0C0AC4EB041000EB841001EBAC
:1023F0008000D0ED0E0A80EE201AB0EE418AC4EBC8
:10240000041000EB841001EB800090ED0B0AC4EB8C
:10241000041000EB841001EB8000D0ED0E0A80EE7A
:10242000201AF0EE418AC4EB041101EB8411A74A93
:1024300002EB810101F1B800F0EE480AB0EE680A43
:1024400006F0A4FBC4EB041000EB84109F4901EBE1
:102450008000D0ED380AB0EE600A00E003E02046CC
:10246000FEF76EFD2FE1012CFCD19C4890ED000A97
:10247000C4EB041000EB8410944901EB8000D0ED14
:10248000190A30EE600AC4EB041000EB841001EB73
:10249000800080ED1A0AC4EB041000EB841001EBFD
:1024A000800090ED1A0ABDEEC00A10EE100A00B2CC
:1024B000C4EB041101EB8411844A02EB8101A1F801
:1024C00074002046FEF792FFC4EB041000EB84106A
:1024D0007E4A02EB8000D0ED1A0AC4EB041000EB38
:1024E000841002EB8000B0F95A0000EE100AB8EE3A
:1024F000C00A30EEC00A10EE101A08460EF038FD81
:1025000041EC190BB0EE490AF0EE690A0AF0D8F96D
:10251000B0EE408AF0EE608A9FED710B53EC102B09
:1025200051EC180B0EF0C5F87ED2C4EB041000EB92
:102530008410664901EB800090F87A00401CC0B21C
:10254000C4EB041101EB8411604A02EB810181F8B4
:102550007A00022837DB0020C4EB041101EB841160
:1025600002EB810181F87A00C4EB041101EB8411C4
:1025700002EB810191ED1A1AF0EE410AC4EB04114D
:1025800001EB841102EB810191ED171AB0EE410AC3
:10259000C4EB041101EB841102EB810101F18C0009
:1025A00006F0F4FAC4EB041000EB8410474901EB89
:1025B000800090ED2D0AC4EB041000EB841001EBB9
:1025C000800080ED0B0AC4EB041000EB84103F493F
:1025D00001EB800090ED0C0AC4EB041000EB8410BA
:1025E00001EB8000D0ED0E0A80EE201AB0EE418A99
:1025F000C4EB041000EB841001EB800090ED0B0A9B
:10260000C4EB041000EB841001EB8000D0ED0E0A47
:1026100080EE201AF0EE418AC4EB041101EB841124
:102620002A4A02EB810100E018E001F1B800F0EE67
:10263000480AB0EE680A06F0A9FAC4EB041000EBF1
:102640008410224931F8200020F01000C4EB04115E
:1026500001EB84111D4A22F8210026E0C4EB04118D
:1026600001EB8411194A02EB810101F18C000BF09E
:10267000DBFBC4EB041101EB8411144A02EB810172
:1026800001F1B8000BF0D0FBC4EB041000EB841098
:102690000E4931F8200020F010001030C4EB041176
:1026A00001EB8411094A22F82100C4EB041000EB6D
:1026B0008410064901EB8000D0ED380AB0EE600AC4
:1026C0002046FEF73DFCBDEC048B10BDD42A002053
:1026D0000000000000000040000000003800002062
:1026E000000000000000E03F10B54FF49E717148FB
:1026F000FDF752FF4FF49E716F48FDF74DFFFEF757
:102700000FFD0020FFF778FA9FED6C0A694880ED15
:102710000E0A0B20674981F880004FF41670A1F86B
:102720007800B3EE0E0A084680ED100A002088708B
:1027300064208884502088819FED610A084680EDDE
:10274000120AB6EE000A80ED180A9FED5E0A80EDCF
:10275000170A0020A1F85A000120FFF74DFA9FED5B
:10276000570A544880ED5D0A082180F8BC114FF4E7
:102770001671A0F8B411B3EE0E0A80ED5F0A0021C5
:1027800080F83E116421A0F860115021A0F8481192
:102790009FED4B0A80ED610AB6EE000A80ED670AF4
:1027A0009FED480A80ED660A0021A0F8961190ED91
:1027B0000E0AB1EE400AB0EE402A90ED0E0AF0EE9D
:1027C000401A9FED401ADFED3F0AB0EE080AE430F0
:1027D0000CF044FA9FED3C2ADFED3C1A9FED391ACC
:1027E000DFED3B0A9FED3B0A334884380CF036FAA4
:1027F0009FED352ADFED351A9FED321AF1EE040A0E
:10280000B3EE040A2C482C380CF028FA294890ED35
:102810000E0AB1EE400AB0EE402A90ED0E0AF0EE3C
:10282000401A9FED281ADFED270A9FED2B0A8C3006
:102830000CF014FA1F4890ED5D0AB1EE400AB0EEBC
:10284000402A90ED5D0AF0EE401A9FED1E1ADFED72
:102850001D0A9FED220A00F508700CF0FFF99FEDAC
:102860001A2ADFED1A1A9FED171ADFED1A0AB7EED2
:10287000000A1148B8300CF0F1F99FED132ADFED92
:10288000131A9FED101AF1EE040AB3EE040A14486D
:102890000CF0E4F99FED132ADFED131A9FED091AEE
:1028A000DFED080A9FED110A0D4884380CF0D6F9C7
:1028B00010BD0000D42A0020102C002000009643F8
:1028C0000AD7233C00000000A4707DBFA4707D3FA8
:1028D000CDCC4C3DCDCCCC3D0000FA436666663F86
:1028E000202D0020000016C30000164300004843BE
:1028F00000BFFEE710B5024802F0D8FC10BD000092
:102900001407002008480949086080200881002039
:102910008880C88006480749086080200881002018
:102920008880C88070470000940600208806002038
:1029300008060020FC05002010B504464CB904EB45
:10294000C4008A4A02EB4001122289480BF04AFB7C
:102950000AE0012C08D104EBC400844A02EB4001D8
:10296000122284480BF03EFB04EBC4007F4931F88F
:10297000100080B24FF6FF71884227D004EBC400EC
:102980007A4931F8100008B304EBC40001EB4000B1
:10299000408880B24FF6FF71884217D004EBC40024
:1029A000724901EB4000408880B104EBC40001EBA8
:1029B0004000808880B24FF6FF71884206D004EB59
:1029C000C4006A4901EB4000808848B9002004EB4C
:1029D000441101EB8411684A02EB810188700DE01B
:1029E00004EBC400654901EBC00004EBC4015F4A7D
:1029F00002EB41010A6802608988818004EBC4000F
:102A00005A4901EB4000C08880B24FF6FF718842FE
:102A100028D004EBC400554901EB4000C08808B33E
:102A200004EBC40001EB4000008980B24FF6FF7157
:102A3000884217D004EBC4004C4901EB40000089E8
:102A400080B104EBC40001EB4000408980B24FF636
:102A5000FF71884206D004EBC400444901EB4000FA
:102A6000408948B9002004EB441101EB8411424A2B
:102A700002EB810188700FE004EBC4003F4901EBD9
:102A8000C00004EBC401394A02EB4101D1F8062031
:102A9000C0F806204989418104EBC400334901EBA9
:102AA0004000C068401C28B104EBC40001EB4000AA
:102AB000C06848B9002004EB441101EB84112E4A90
:102AC00002EB8101887015E004EBC400274901EB9B
:102AD0004000C06800EE100AF8EEC00A9FED281A08
:102AE00080EE810A10EE100A04EBC401234A02EBC7
:102AF000C101486104EBC4001C4901EB4000008A9D
:102B00004FF6FF71884206D004EBC400174901EB71
:102B10004000008A58B9B2EE040A04EB441000EBFE
:102B20008410154901EB800080ED1A0A16E004EBD1
:102B3000C4000E4901EB4000008A00EE100AB8EE16
:102B4000400ADFED100A80EE201A04EB441000EB7F
:102B50008410094901EB800080ED1A1A204600F02C
:102B6000F1FF204600F010F810BD0000C01E00204C
:102B7000000002080008020880260020F01D002046
:102B800000401C4600007A4400EBC001804A02EB82
:102B9000C101B1F9001000EBC0027E4B33F91220E5
:102BA00091427CD100EBC001794A02EBC101B1F93D
:102BB000021000EBC00203EB4202B2F90220914284
:102BC0006DD100EBC001724A02EBC101B1F90410F2
:102BD00000EBC00203EB4202B2F9042091425ED145
:102BE00000EBC0016A4A02EBC101B1F9061000EB2B
:102BF000C00203EB4202B2F9062091424FD100EB32
:102C0000C001634A02EBC101B1F9082000EBC00129
:102C100003EB4101B1F908108A4240D100EBC00139
:102C20005B4A02EBC101B1F90A2000EBC00103EBE2
:102C30004101B1F90A108A4231D100EBC0011A46B4
:102C400002EB4101CA6800EBC001514B03EBC1012B
:102C5000496900EE101ADFED500A20EE200ABDEEA1
:102C6000C00A10EE101A8A4219D100EBC001494A7D
:102C700002EB41010A8A00EB401101EB8011474B46
:102C800003EB810191ED1A0ADFED450A20EE200ADF
:102C9000BCEEC00A10EE101A89B28A4271D000EB65
:102CA000C0013B4A02EBC101098800EBC002394B6D
:102CB00023F8121000EBC001354A02EBC10149882C
:102CC00000EBC00203EB4202518000EBC001304A2E
:102CD00002EBC101898800EBC00203EB4202918044
:102CE00000EBC0012A4A02EBC101C98800EBC00217
:102CF00003EB4202D18000EBC001254A02EBC10187
:102D00000A8900EBC00103EB41010A8100EBC0011D
:102D10001F4A02EBC1014A8900EBC00103EB4101EC
:102D20004A8100EBC0011A4A02EBC101496900EE79
:102D3000101ADFED190A20EE200ABDEEC00A10EECF
:102D4000101A00EBC00203EB4202D16000EB40110D
:102D500001EB8011114A02EB810191ED1A0ADFEDBE
:102D6000100A20EE200ABCEEC00A10EE101A00EB8A
:102D7000C00203EB4202118201210A4A115404E00D
:102D8000FFE70021074A1154704700BFFCE700002D
:102D9000F01D0020C01E002000401C4680260020A0
:102DA00000007A444C03002010B50E48007801283A
:102DB00003D00C484078012812D10020094908703E
:102DC0004870012105200BF0D7F812220649074868
:102DD0000BF0E4F812220449123105480BF0DEF83A
:102DE00010BD00004C030020C01E0020000002089F
:102DF0000008020870B588B004460E46154601204A
:102E00000190B4F5006F03D202940020059002E017
:102E1000039404200590082D00DD0825002004906F
:102E200006958DF81C0000BF064802F024FA002821
:102E3000FAD001AB324602A9024802F00AF801209A
:102E400008B070BD1407002090ED010AD0ED000A13
:102E5000B0EE001A10EE810AD0ED020A30EE600AE0
:102E6000DFED090A20EE200A81ED000A90ED010A4B
:102E7000D0ED020A30EE600ADFED040A20EE200AEF
:102E800081ED010A704700009FAAAA3E36CD133F8C
:102E90000146087810381823B0FBF3F20848805C2C
:102EA000C865032A05D908686FF30900001D886505
:102EB00003E008686FF309008865886D70470000BB
:102EC0005C130108014600208A6A8B69CBB932B1D4
:102ED000012A0DD0022A03D0032A10D10EE000BF30
:102EE000CB6A03F08073B3F1807F00D1012007E04B
:102EF000CB6AB3F1C07F00D1012001E000E000BF48
:102F000034E08B69B3F5005F1AD132B1012A07D0E2
:102F1000022A03D0032A11D10AE000BF01200EE0EB
:102F2000CB6A03F08073B3F1807F00D1012006E00B
:102F3000CB6AB3F1C07F00D1012000E000BF15E0F3
:102F400032B1012A05D0022A04D0032A0CD103E0B1
:102F500000BF00BF012008E0CB6A03F08073B3F12B
:102F6000807F00D1012000E000BF00BF704730B576
:102F70000468246824F4802405682C600468636075
:102F80008468402C04D10468A2600468E16003E016
:102F90000468A1600468E26030BD704710B52DED93
:102FA000048B84B0044600200390029001902146D7
:102FB0000AF052F903A921F81400214601200AF071
:102FC0004BF902A921F81400214602200AF044F925
:102FD00001A921F81400C4EB041000EB4000FE49E5
:102FE00001EB800090F8A600002875D10120C4EB09
:102FF000041101EB4101F84A02EB810181F8A600BE
:103000000020C4EB041101EB410102EB8101A1F8A6
:10301000AA004FF40060C4EB041101EB410102EB84
:1030200081014860C4EB041101EB410102EB810115
:10303000C860C4EB041101EB410102EB810148615E
:103040009FEDE60A04EB441000EB8410E44901EB29
:10305000800080ED250A20460BF06AFE04EB441048
:1030600000EB8410DE4901EB800090ED250A04EBB3
:10307000441000EB841001EB800080ED550A9FEDB9
:10308000D90A04EB441000EB841001EB800080EDC2
:10309000150A04EB441000EB841001EB800090ED66
:1030A000150A04EB441000EB841001EB800080ED66
:1030B0005B0A9FEDCD0A04EB441000EB841001EB9A
:1030C000800080ED5C0A012004EB441101EB8411C7
:1030D000C34A02EB81018870C4EB041000EB40008E
:1030E000BD4901EB8000B0F8A400401C80B2C4EBE5
:1030F000041101EB4101B84A02EB8101A1F8A400DF
:1031000001287CDB0020C4EB041101EB410102EB40
:103110008101A1F8A4009FEDB30A04EB441000EB79
:103120008410AF4901EB800080ED150A04EB4410D8
:1031300000EB841001EB800090ED150A04EB4410C5
:1031400000EB841001EB800080ED5B0A9FEDA60A86
:1031500004EB441000EB841001EB800080ED5C0A6E
:1031600004EB441000EB84100A4602EB800090ED63
:10317000550A10EE101A08460DF0FAFE41EC190B34
:10318000B0EE490AF0EE690A09F09AFBB0EE408A07
:10319000F0EE608A9FED950B53EC102B51EC180B61
:1031A0000DF087FA1DD89FED900A04EB441000EB58
:1031B00084108B4901EB800080ED550AC4EB0410AC
:1031C00000EB4000844901EB800090F8A700401C10
:1031D000C4EB041101EB41017F4A02EB810181F84C
:1031E000A700C4EB041000EB40007B4901EB80001A
:1031F00090F8A70002287DDD04EB441000E037E3DF
:1032000000EB8410764901EB800090ED550AB5EE95
:10321000C00AF1EE10FA6DD1C4EB041000EB4000CF
:103220006D4901EB8000B0F8A800B0F57A7F61DC51
:10323000C4EB041000EB400001EB8000B0F8A800E4
:10324000401CC4EB041101EB4101634A02EB810114
:10325000A1F8A800C4EB041000EB4000114601EBFC
:103260008000B0F8A800B0F57A7F7DD1C4EB0410DF
:1032700000EB400051F82000C4EB041101EB4101C8
:1032800002EB8101496808444008C4EB041101EBDA
:10329000410102EB81018861C4EB041000EB4000A6
:1032A000114601EB80008068C4EB041101EB410181
:1032B00002EB8101C96808444008C4EB041101EB2A
:1032C000410102EB8101C861C4EB041000EB400036
:1032D000114601EB80000069C4EB041101EB4101D0
:1032E00002EB8101496908444008C4EB041101EB79
:1032F000410100E08DE102EB81010862C4EB0410A2
:1033000000EB4000114651F82000C4EB041101EB22
:10331000410102EB81014968401AC0F34F00C4EB40
:10332000041101EB410102EB81018884C4EB04101C
:1033300000EB4000114601EB80008068C4EB0411F3
:1033400001EB410102EB8101C968401AC0F34F0053
:10335000C4EB041101EB410102EB8101C884C4EB11
:10336000041000EB400000E000E2114601EB800099
:103370000069C4EB041101EB410102EB81014969D1
:10338000401AC0F34F00C4EB041101EB410102EB02
:1033900081010885C4EB041000EB4000114601EBED
:1033A0008000808CB0F5487F7EDBC4EB041000EB1E
:1033B000400001EB8000C08CB0F5487FF4DBC4EB2B
:1033C000041000EB400001EB8000008DB0F5487F59
:1033D000EADB03A80EE00000E41E002017B7513A14
:1033E000802600208FC2F53D000000000000004054
:1033F000FB21194030F81400C4EB041101EB41012A
:1034000002EB8101098B09B2401A00EE100AF8EEB6
:10341000C00AC4EB041000EB4000114601EB800031
:10342000808C00EE100AB8EE400A80EE801AC4EBE1
:10343000041000EB400001EB800080ED0B1A02A8A5
:1034400030F81400C4EB041101EB410102EB8101DF
:10345000898B09B2401A00EE100AF8EEC00AC4EBDC
:10346000041000EB4000114601EB8000C08C00EE20
:10347000100AB8EE400A80EE801AC4EB041000EB8C
:10348000400001EB800080ED0C1A01A830F8140018
:10349000C4EB041101EB410102EB8101098C09B27B
:1034A000401A00EE100A00E09FE0F8EEC00AC4EBFC
:1034B000041000EB4000114601EB8000008D00EE8F
:1034C000100AB8EE400A80EE801AC4EB041000EB3C
:1034D000400001EB800080ED0D1AC4EB041000EBFE
:1034E000400001EB800090ED0B0AC4EB041000EBF0
:1034F000400001EB8000D0ED0C0AB6EE001A00EEA1
:10350000C10AC4EB041000EB400001EB8000D0EDD9
:103510000D0AB6EE001A00EEC10AC4EB041000EB6F
:10352000400001EB800080ED0E0AC4EB041000EBBC
:10353000400001EB800090ED0C0AB1EE400ADFED97
:10354000FE0A20EE200AC4EB041000EB400001EB61
:103550008000D0ED0D0A9FEDF81A00EE810AC4EB51
:10356000041000EB400001EB800080ED0F0AC4EB7B
:10357000041000EB400001EB800090ED0E1AF0EE1D
:10358000410AC4EB041000EB400001EB800090ED19
:103590000F1AB0EE410A08F0C3FFC4EB041000EBB1
:1035A0004000E64901EB80004430C4EB041101EB1C
:1035B0004101E24A02EB810191F8AF1000EB81007A
:1035C00080ED000AC4EB041000EB4000114601EB53
:1035D000800090F8AF00401CC4EB041101EB4101E6
:1035E00002EB810181F8AF00C0E0C4EB041000EBF6
:1035F0004000D24901EB800090F8A700401EC4EBC8
:10360000041101EB4101CD4A02EB810181F8A700D1
:10361000ACE003A830F81400C4EB041101EB410145
:10362000C64A52F82110884208D903A830F814007D
:10363000C4EB041101EB410142F8210003A830F86A
:103640001400C4EB041101EB4101BC4A02EB8101FF
:103650004968884209D203A830F81400C4EB041169
:1036600001EB410102EB8101486002A830F814002F
:10367000C4EB041101EB4101B04A02EB81018968FE
:10368000884209D902A830F81400C4EB041101EBF8
:10369000410102EB8101886002A830F81400C4EBFC
:1036A000041101EB4101A54A02EB8101C96888427E
:1036B00009D202A830F81400C4EB041101EB410157
:1036C00002EB8101C86001A830F81400C4EB0411BA
:1036D00001EB4101994A02EB81010969884209D94C
:1036E00001A830F81400C4EB041101EB410102EB16
:1036F0008101086101A830F81400C4EB041101EB4A
:1037000041018E4A02EB81014969884209D201A830
:1037100030F81400C4EB041101EB410102EB81010C
:10372000486104EB441000EB8410854901EB8000F4
:1037300090ED550A04EB441000EB841001EB80007F
:10374000D0ED250A30EE200A04EB441000EB841083
:1037500001EB800080ED550A0020C4EB041101EB61
:103760004101764A02EB8101A1F8A800C4EB0410E4
:1037700000EB4000714901EB800090F8A7000C2895
:1037800078DD04EB441000EB84106D4901EB800000
:10379000807801286ED1C4EB041000EB400067492B
:1037A00001EB8000B0F8AA00401C80B2C4EB041109
:1037B00001EB4101614A02EB8101A1F8AA00B0F5D9
:1037C0007A7F57DB0020C4EB041101EB410102EBCF
:1037D0008101A1F8AA001FEDFC0A10EE100A04EB0B
:1037E000C401584A02EBC10148610020C4EB041136
:1037F00001EB4101514A02EB810181F8A7009FEDE5
:10380000520A04EB441000EB84104D4901EB800098
:1038100080ED250A9FED4D0A04EB441000EB841067
:1038200001EB800080ED550A0020C4EB041101EB90
:10383000410102EB8101A1F8A400022004EB441134
:1038400001EB84113E4A02EB810188700020C4EB39
:10385000041101EB4101394A02EB810181F8A70013
:10386000C4EB041101EB410102EB8101A1F8A800B6
:103870005BE1FFE7C4EB041000EB40002F4901EBD4
:10388000800090F8A7000C28F2DD04EB441000EB58
:1038900084102B4901EB800080780228E8D1C4EB2A
:1038A000041000EB4000254901EB8000B0F8AA00AD
:1038B000401C80B2C4EB041101EB41011F4A02EB32
:1038C0008101A1F8AA00B0F57A7FD1DB20460BF088
:1038D0006BFA0020C4EB041101EB4101174A02EB23
:1038E000810181F8B00046E0C4EB041000EB400019
:1038F000124901EB80004430C4EB041101EB41019B
:103900000E4A02EB810191F8B01000EB810090EDBE
:10391000000AC4EB041000EB4000114601EB8000EC
:10392000D0ED100A30EE200AC4EB041000EB40008A
:1039300001EB80000CE00000D7B35D3FE41E0020E7
:1039400080260020F01D002017B751BA00000000AB
:1039500080ED100AC4EB041000EB400001EB800086
:1039600090F8B000401CC4EB041101EB410102EBE4
:10397000810181F8B000C4EB041000EB40006D49F8
:1039800001EB800090F8B000C4EB041101EB4101A1
:10399000684A02EB810191F8AF108842A4DBC4EBC6
:1039A000041000EB4000114601EB8000D0ED100A3E
:1039B000C4EB041000EB400001EB800090F8AF0076
:1039C00000EE100AB8EE400A80EE801AC4EB041034
:1039D00000EB400001EB800080ED101AC4EB0410F6
:1039E00000EB400001EB8000008B00B204EBC4014F
:1039F000514A02EBC101C880C4EB041000EB400047
:103A00004C4901EB8000808B01B204EBC40002EB57
:103A1000C0000181C4EB041000EB4000454901EBFC
:103A20008000008C01B204EBC40002EBC0004181B5
:103A3000C4EB041000EB40003E4901EB8000808C99
:103A400000B204EBC40102EBC1010880C4EB041016
:103A500000EB4000374901EB8000C08C00B204EB62
:103A6000C40102EBC1014880C4EB041000EB40002C
:103A7000304901EB8000008D00B204EBC40102EB81
:103A8000C1018880C4EB041000EB4000294901EB20
:103A90008000006C04EBC40102EBC10148612046C8
:103AA00000F050F804EB441000EB8410234901EBC4
:103AB00080008078032838D19FED210A04EB441060
:103AC00000EB841001EB800080ED250A0020C4EBA0
:103AD000041101EB4101174A02EB8101A1F8AA0090
:103AE000C4EB041101EB410102EB8101A1F8A40038
:103AF000C4EB041101EB410102EB810181F8A70045
:103B0000C4EB041101EB410102EB810181F8A60035
:103B1000C4EB041101EB410102EB8101A1F8A80003
:103B20002046FFF731F8FFF73FF904B0BDEC048BF6
:103B300010BD0000E41E0020F01D002080260020A3
:103B400017B7513A10B52DED048B044604EBC400B1
:103B50004D4901EBC000B0F90000B0F5487F6DDBC6
:103B600004EBC40001EBC000B0F90200B0F5487FDF
:103B700064DB04EBC40001EBC000B0F90400B0F555
:103B8000487F5BDB04EBC40001EBC000B0F906002A
:103B9000B0F5FA6F75DD04EBC40001EBC000B0F9BD
:103BA0000800B0F5FA6F6CDD04EBC40001EBC00057
:103BB000B0F90A00B0F5FA6F63DD04EBC4000A4601
:103BC00002EBC000416908460DF0D2F941EC190B37
:103BD000B0EE490AF0EE690A08F072FEB0EE408AD3
:103BE000F0EE608A9FED290B53EC102B51EC180B73
:103BF0000CF084FB45D2032004EB441101EB84114B
:103C0000244A02EB81018870002104EB441000EB90
:103C1000841002EB8000018104EB441000EB84105F
:103C2000114601EB8000808820F0100004EB441165
:103C300001EB841102EB8101888022E0002004EB7B
:103C4000441101EB8411134A02EB810188700121B8
:103C500004EB441000EB841002EB8000018104EBC4
:103C6000441000EB8410114601EB8000808820F0A6
:103C70001000103004EB441101EB841102EB8101C0
:103C80008880BDEC048B10BDF01D002000000040BA
:103C9000FB2109408026002072B600BFFEE700002D
:103CA00010B5002201B909E0012901D10A0205E09D
:103CB000022901D10A0201E04FF440720E4B1B6849
:103CC00023F440730C4C236023461B68134323608A
:103CD00023461B6823F0F803236023461B68022455
:103CE00044EAC0042343044C236023461B6843F486
:103CF0008033236010BD0000103C0240074A126868
:103D000022F44072054B1A601A4612681A601A466D
:103D1000126842F001021A6001707047103C0240C4
:103D200010B50D49096821F440710B4C2160214602
:103D3000096841F4407121602146096841F00101A0
:103D40002160026000BF00BF00BFBFF36F8F00BFE4
:103D500000BF00BF436010BD103C0240084A12681B
:103D600022F44072064B1A601A46126842F48072BE
:103D70001A601A46126842F001021A600180704708
:103D8000103C0240084A126822F44072064B1A6046
:103D90001A46126842F400721A601A46126842F01B
:103DA00001021A6001607047103C0240234800681D
:103DB00000F0100040B12248C06940F010002049D6
:103DC000C86110201D4908601C48006800F02000F0
:103DD00040B11B48C06940F008001949C861202063
:103DE000164908601548006800F0400040B11448CA
:103DF000C06940F004001249C86140200F490860C2
:103E00000E48006800F0800040B10D48C06940F0E5
:103E100002000B49C8618020084908600748006813
:103E200000F0020040B10648C06940F0200004499B
:103E3000C861022001490860704700000C3C024044
:103E40009C03002070B50446002500201449C86179
:103E500002F042F8054609E0601C38B124B102F0D6
:103E60003BF8401BA04201D9032070BD0D480068FB
:103E700000F480300028EFD10A48006800F001000B
:103E800010B10120074908600648006800F0F20000
:103E900018B1FFF78BFF0120E7E70020E5E70000FE
:103EA0009C0300200C3C024010B500EB400202EBEA
:103EB000C002124B43F822100A1D00EB400303EB33
:103EC000C0030E4C04EB83035A600C3200EB40033A
:103ED00003EBC00304EB83039A60083200EB40035A
:103EE00003EBC00304EB8303DA60083200EB40030A
:103EF00003EBC00304EB83031A6110BD501D0020C7
:103F0000B0EE401AF0EE602AF6EE006A61EE266A24
:103F1000F0EE665ADFED2B6A62EEA66AB0EE666AD4
:103F2000F0EE411AF1EE656A76EE866AB0EE662A28
:103F3000F1EE656A76EEC66AB0EE660ADFED226AD9
:103F4000B0EE663ADFED206AF0EE663AF4EEC21AA1
:103F5000F1EE10FA04DDB0EE613AF0EE423A03E021
:103F6000B0EE423AF0EE613AB4EEC30AF1EE10FA66
:103F700002DDB0EE403A06E0B4EEE30AF1EE10FAEC
:103F800001D2F0EE403A73EE236AB6EE007A66EEA6
:103F9000870A31EEE04A72EE604A30EE605AF6EE81
:103FA000006A74EE266AC0ED006AF6EE006A74EEEE
:103FB000A66AC0ED016AF6EE006A75EE266AC0EDEB
:103FC000026A7047D7B35D3F0000000010B52DEDC9
:103FD000028BB0EE408A124890ED000ABCEEC00A97
:103FE00010EE100A82B2BCEEC80A10EE100A81B2BE
:103FF0000C4809F039FD0A4890ED000ABCEEC00AF1
:1040000010EE100A82B2BCEEC80A10EE100A81B29D
:104010000448203009F028FDBDEC028B10BD0000E3
:1040200090020020B80F002010B5044604EB4402B3
:1040300002EBC4024A4B03EB820202F1280104EBBB
:10404000440202EBC40203EB820202F1240004EBFF
:10405000440202EBC40253F82220D2ED000AB0EE73
:10406000600A06F0FAF904EB440202EBC4023C4B8E
:1040700003EB820202F1140104EB440202EBC402DE
:1040800003EB82025068FEF7DFFE04EB440202EB12
:10409000C402334B03EB820292ED0A1AF0EE410A9E
:1040A00004EB440202EBC40203EB820292ED091A14
:1040B000B0EE410A04EB440202EBC40203EB8202BD
:1040C000916804EB440202EBC40203EB820202F1AA
:1040D000140005F097FB04EB440202EBC402204BF2
:1040E00003EB820292ED0A1AF0EE410A04EB44025D
:1040F00002EBC40203EB820292ED091AB0EE410A10
:1041000004EB440202EBC40203EB820202F11C0145
:1041100004EB440202EBC40203EB8202D06805F018
:1041200091FE04EB440101EBC4010D4A02EB810155
:10413000086904EB440101EBC40102EB810191ED3C
:10414000081AF0EE410A04EB440101EBC40102EB52
:10415000810191ED071AB0EE410AFFF7D1FE10BDC3
:10416000501D002010B52DED068B032009F0F6F848
:1041700000EE100AB8EE400ADFED2F0A20EE200A0A
:104180009FED2E1AC0EE010A9FED2D0A80EE801AD7
:104190009FED2C0A21EE000A2B4880ED000A9FEDCE
:1041A0002B0AF0EE408A9FED290AB0EE408A0520E6
:1041B00009F00EF900EE100AB8EE400ADFED1F0A12
:1041C00080EE201A9FED1C0A21EE000AB0EE408A14
:1041D000B2EE040A28EE000ADFED170A70EEC80AF4
:1041E00080EE201AF0EE418AB0EE680A0AF0C9FCAF
:1041F000F0EE40AAB2EE040A0AF0C3FC3AEEC00A9E
:10420000DFED130A80EE201AB0EE419A9FED110AFD
:1042100030EE490AF0EE409AB7EE000AC0EE290AE5
:10422000B0EE60AA9FED0C0A3AEE400A064880ED17
:10423000010ABDEC068B10BD3333534000008045AE
:104240000000604200008444141C002000000000B4
:10425000003079450FCF5B3B3393884302460A8099
:10426000B1F9003001EE903AF8EEE11AF0EE610A91
:10427000B1F9003001EE903AF8EEE11AB0EE611AB1
:10428000B1F9003001EE903AF8EEE11AB0EE610AB1
:1042900040F22B1037E031F9103001EE903AF8EE91
:1042A000E11AF4EEE01AF1EE10FA08DD31F91030FF
:1042B00001EE903AF8EEE11AF0EE610A12E031F9FF
:1042C000103001EE903AF8EEE11AF4EEC11AF1EE78
:1042D00010FA07D231F9103001EE903AF8EEE11AF7
:1042E000B0EE611A31F9103001EE903AF8EEE11AB1
:1042F00071EE801AB0EE610A431E31F8133021F8D6
:104300001030431E98B20028C5D14FF4957070EE5E
:10431000601A71EEC11AB0EE610A01EE900AF8EE71
:10432000611A80EE212AB0EE420A704710B50020D3
:10433000FEF702FB0120FEF7FFFAFEF735FD9FEDC9
:10434000091AF2EE080A9FED080A002004F082FC28
:104350009FED041AF2EE080A9FED030A012004F013
:1043600079FC10BD17B7D13800003E4330B5024686
:10437000854C8869A04200D000BF00BF92F83C0085
:10438000012801D1022030BD012082F83C0000BF8D
:104390000868092816D91068C0680C780A3C04EB34
:1043A00044050724AC40A0431468E0600C780A3C44
:1043B00004EB44048868A0401468E468204314684F
:1043C000E06013E0106800690C7804EB44050724F2
:1043D000AC40A043146820610C7804EB4404886866
:1043E000A040146824692043146820611068806B21
:1043F00020F440101468A0631068846B088A401E83
:1044000044EA00501468A0630879C01C0C7C001BAF
:1044100000EB80041F20A0401468A46B8443106844
:1044200084630879C01C0C7C001B00EB80040888A6
:1044300080B2A0401468A46B20431468A063524C5F
:104440008869A04218D01068806820F47020146831
:10445000A060106880688C6920431468A0601068B0
:10446000806820F440101468A06010688068CC69EF
:1044700020431468A0600BE01068806820F470206E
:104480001468A0601068806820F440101468A06070
:10449000487D30B11068406840F480601468606006
:1044A00005E01068406820F4806014686060087D52
:1044B00030B11068406840F480501468606005E0D6
:1044C0001068406820F480501468606048680128D3
:1044D00004D002280FD0032827D119E010684069C2
:1044E0006FF30B001468606110684069CC6820436A
:1044F0001468606126E0106880696FF30B0014682F
:10450000A06110688069CC6820431468A06119E03C
:104510001068C0696FF30B001468E0611068C0692F
:10452000CC6820431468E0610CE01068006A6FF307
:104530000B00146820621068006ACC68204314687D
:10454000206200BF00BF114B114C1068A04206D181
:104550000868122803D1586840F4800058600C4C59
:104560001068A04209D10868102802D008681128F4
:1045700003D1586840F40000586000BF002082F862
:104580003C0000BF00BFFEE601000F000023014019
:104590000020014010B504460548844202D108F0CD
:1045A0000DFD04E00348844201D108F033FE10BD44
:1045B0002C0400207404002038B50146002000902F
:1045C0000022002300BF91F83C00012801D1022005
:1045D00038BD012081F83C0000BF0868806800F009
:1045E0000100A0B90868806840F001000D68A8606B
:1045F00038480068384DB0FBF5F000EB4000009003
:1046000002E00098401E009000980028F9D1086848
:10461000806800F00100002851D0086C42F20105CA
:10462000A84340F480500864086C00F4807008B916
:104630000020486400BF002081F83C0000BF401FFC
:104640000D6828600868406840F080000D68686068
:10465000224C606800F01F00B0B90868806800F460
:10466000401008B9012000E00020024608684068B8
:10467000012525EA90230AB303B30868806840F453
:1046800080000D68A86022E00868806800F440108F
:1046900008B9012000E000200246086840680125B2
:1046A00025EA90230E4D0868A84210D132B12BB1F3
:1046B0000868806840F480000D68A86007E0086C16
:1046C00040F010000864486C40F00100486400208D
:1046D0007EE700001800002040420F000023014048
:1046E0000020014038B502460020009000BF92F83B
:1046F0003C00012801D1022038BD012082F83C0095
:1047000000BF0868092816D91068C0680C780A3CF0
:1047100004EB44050724AC40A0431468E0600C7827
:104720000A3C04EB44048868A0401468E468204311
:104730001468E06013E0106800690C7804EB44052D
:104740000724AC40A043146820610C7804EB4404B7
:104750008868A04014682469204314682061486870
:10476000072817D21068406B0C79641E04EB84058F
:104770001F24AC40A04314686063088880B20C79A1
:10478000641E04EB8404A0401468646B2043146826
:10479000606331E048680D2817D21068006B0C790F
:1047A000E41F04EB84051F24AC40A043146820637D
:1047B000088880B20C79E41F04EB8404A0401468DC
:1047C000246B20431468206316E01068C06A0C79DB
:1047D0000D3C04EB84051F24AC40A0431468E06248
:1047E000088880B20C790D3C04EB8404A040146866
:1047F000E46A20431468E062194B1A4C1068A04226
:1048000006D10868122803D1586840F48000586027
:10481000144C1068A0421CD10868102802D0086807
:10482000112816D1586840F4000058600868102814
:104830000FD10D4800680D4CB0FBF4F000EB800088
:104840004000009002E00098401E00900098002870
:10485000F9D100BF002082F83C0000BF00BF4BE749
:1048600000230140002001401800002040420F00BA
:104870007047704770472DE9F04104460025002637
:10488000206807682068D0F8048007F0020508F067
:10489000200695B38EB3206C00F0100018B9206C80
:1048A00040F4007020642068806800F04050E8B94F
:1048B000207ED8B92068C06A00F4700020B120685A
:1048C000806800F4806088B92068406820F020008B
:1048D00021684860206C20F480702064206C00F413
:1048E000805018B9206C40F0010020642046FFF78A
:1048F000BFFF6FF012002168086007F0040508F0A0
:104900008006E5B3DEB3206C00F0100018B9206C0F
:1049100040F4005020642068806800F4401038BBE8
:104920002068806B00F4401020B12068806800F49B
:104930008060E8B92068406800F48060C0B92068F1
:10494000806800F0405098B9207E88B9206840689F
:1049500020F0800021684860206C20F480502064A2
:10496000206C00F4807018B9206C40F001002064C5
:104970002046FFF70FFE6FF00C002168086007F07B
:10498000010508F0400685B17EB12068006800F09E
:10499000010050B1206C40F480302064204600F0CB
:1049A0004FF86FF001002168086007F0200508F05B
:1049B00080667DB176B1606C40F0020060646FF09B
:1049C0002000216808602046FFF754FF6FF02000A8
:1049D00021680860BDE8F08170B5044600250CB977
:1049E000012070BD1549A06A884200D000BF206C2C
:1049F00030B9204600F026F80020606484F83C00BE
:104A0000206C00F0100088B9206C20F4885040F031
:104A1000020020642046FBF7CDFF00206064206C7C
:104A200020F0020040F00100206400E0012500BFFA
:104A3000002084F83C0000BF2846D2E70100000FA8
:104A40007047000010B586B00446142101A8FBF79A
:104A5000A3FD7F49206888426CD100BF00200090F0
:104A60007C48006840F480707A4908600846006815
:104A700000F48070009000BF00BF00BF00200090D5
:104A800074481438006840F0040072491439086012
:104A90000846006800F00400009000BF00BF00BF9F
:104AA000002000900846006840F0010008600846B9
:104AB000006800F00100009000BF00BF0E200190D0
:104AC000032002900020039001A9634801F0FCF844
:104AD00071200190032002900020039001A95F48FB
:104AE00001F0F2F85E485F4908600020486000214C
:104AF0005C488160C1604FF480610161490041619F
:104B0000890081614911C16100210162416200F0A7
:104B1000F7FE08B1FFF7C0F800BF5248A0638463F6
:104B200000BF00221146122001F082FA122001F08B
:104B30006FFA8BE04C4920688842FAD100BF002010
:104B400000904448006840F480604249086008468C
:104B5000006800F48060009000BF00BF00BF00202C
:104B600000903C481438006840F02000394914395E
:104B700008600846006800F02000009000BF00BFF9
:104B800000BF002000900846006840F00400086064
:104B90000846006800F00400009000BF00BF00BF9E
:104BA000002000900846006840F0010008600846B8
:104BB000006800F00100009000BF00BF4FF4F860F3
:104BC0000190032002900020039001A9274801F0E2
:104BD0007BF801200190032002900020039001A99E
:104BE0001D4801F071F80E20019003200290002072
:104BF000039001A9194801F067F8194818301C49B9
:104C000008604FF080604860002119488160C160F1
:104C10004FF480610161490041618900816149115E
:104C2000C16100210162416200F06AFE08B1FFF734
:104C300033F800BF0E48A063846300BF0022114612
:104C4000122001F0F5F9122001F0E2F906B010BDD2
:104C500000200140443802400008024000000240A9
:104C600010640240BC0400200022014000140240F5
:104C70001C050020F8B504460D461646002000909D
:104C800000BF94F83C00012801D10220F8BD0120AA
:104C900084F83C0000BF2068806800F00100A0B9E3
:104CA0002068806840F001002168886055480068ED
:104CB0005549B0FBF1F000EB4000009002E0009895
:104CC000401E009000980028F9D12068806800F408
:104CD0008070B0F5807F05D12068806820F48070F6
:104CE000216888602068806800F0010000287ED07C
:104CF000206C40F20161884340F480702064206899
:104D0000406800F4806028B1206C20F4005040F42A
:104D100080502064206C00F48050B0F5805F04D196
:104D2000606C20F00600606401E00020606400BF59
:104D3000002084F83C0000BF344F3548A16BC863A5
:104D40003448A16B08643448A16BC8646FF022003A
:104D5000216808602068406840F0806021684860F1
:104D60002068806840F4807021688860226802F1C1
:104D70004C0133462A46A06B00F038FE786800F0FC
:104D80001F0018BB25492068884213D02449206899
:104D9000884204D1381D006800F01F0050B121493D
:104DA000206888422BD11948001D006800F01F00C0
:104DB000102824D22068806800F04050F8B920689C
:104DC000806840F080402168886018E013492068BE
:104DD000884214D12068806800F0405078B920687B
:104DE000806840F080402168886008E0FFE7206C20
:104DF00040F010002064606C40F00100606400200E
:104E000044E700001800002040420F00002301404A
:104E1000F50800088D09000873090008002001400A
:104E2000002101400022014010B5024692F82030D6
:104E3000012B01D0022B06D1106840690843146889
:104E40006061002010BD506A40F480205062012053
:104E5000F8E7F0B504460D461E4694F82070206829
:104E60008368A86800B900E000BF012F01D0022FBD
:104E70007CD103F0806030B903F0006018B903F012
:104E80008050002873D0C3F30161022905D9606AFC
:104E900040F4000060620120F0BD012088403060D5
:104EA000A86860B9B5F800C0E86840EA4C5C2068C2
:104EB00000F5C07000EB0110C0F800C00FE0D5E9AC
:104EC00001C040EACC00D5F80CC040EA0C00D4F890
:104ED00000C00CF5C07C0CEB011CCCF80000D5F830
:104EE00010C0206800F5C07000EB0110C0F804C0CD
:104EF000287D01280ED1206800F5C07000EB01105C
:104F0000406840F4807C206800F5C07000EB011020
:104F1000C0F804C0D079000692F806C040EA0C4000
:104F200092F805C040EA0C2C10794CEA000C20687D
:104F300000F5C07000EB0110C0F80CC0D07800067E
:104F400092F802C040EA0C4092F801C040EA0C20FE
:104F500092F800C040EA0C00D4F800C00CF5C07C08
:104F60000CEB011CCCF80800206801E016E00FE013
:104F700000F5C07000EB0110006840F0010C2068E3
:104F800000F5C07000EB0110C0F800C0002083E7FE
:104F9000606A40F40010606201207DE7606A40F4BE
:104FA00080206062012077E7F0B504460A46216858
:104FB00094F82050012D01D0022D7ED1424901F5F7
:104FC0000071086840F001000860086820F47C5017
:104FD00008600868566A40EA06200860107D00F004
:104FE0001F06012000FA06F3C8699843C861A1F5BD
:104FF0000071D069C8B9D1F80C029843C1F80C020D
:10500000908880B2968940EA064601F5107057698B
:1050100040F83760108880B2168940EA064601F5EC
:105020001070576900EBC7004660D069012819D19C
:10503000D1F80C021843C1F80C02908880B216888F
:1050400040EA064601F51070576940F837609089CC
:1050500080B2168940EA064601F51070576900EBE8
:10506000C7004660906928B9D1F804029843C1F896
:10507000040204E0D1F804021843C1F804021069E4
:1050800028B9D1F814029843C1F8140204E0D1F809
:1050900014021843C1F81402106A012804D1D1F88F
:1050A0001C021843C1F81C02D1F8000220F00100D4
:1050B000C1F800020020F0BDFFE7606A40F48020E4
:1050C00060620120F7E700000064004010B504466C
:1050D0000CB9012010BD204600F0D6FB204600F0A0
:1050E000C7FA2068006840F400402168086000208A
:1050F000606284F8200000BFECE7704770B504469A
:1051000094F82050012D01D0022D7DD151B9206895
:10511000C06800F0030080B9606A40F4001060626B
:10512000012070BD2068006900F0030028B9606AA2
:1051300040F4001060620120F3E7206800F5D870A9
:1051400000EB0110006800F004009060906840B926
:10515000206800F5D87000EB01100068400D106069
:1051600007E0206800F5D87000EB01100068C00867
:105170005060206800F5D87000EB0110006800F066
:105180000200D060206800F5D87000EB0110406884
:1051900000F00F001061206800F5D87000EB0110DE
:1051A000406800F47F40000A9061206800F5D870E4
:1051B00000EB01104068000C5061206800F5D870C9
:1051C00000EB011080681870206800F5D87000EBC3
:1051D0000110806800F47F40000A5870206800F5D4
:1051E000D87000EB0110806800F47F00000C98700C
:1051F000206800F5D87000EB01108068000ED870B0
:10520000206800F5D87000E02FE000EB0110C068C6
:105210001871206800F5D87000EB0110C06800F428
:105220007F40000A5871206800F5D87000EB01102B
:10523000C06800F47F00000C9871206800F5D870F9
:1052400000EB0110C068000ED87131B92068C06849
:1052500040F020002668F06005E02068006940F01A
:1052600020002668306100205BE7606A40F48020FF
:105270006062012055E70146002091F82020012AB4
:1052800001D0022A11D10B689B6803F0806303B13F
:10529000401C0B689B6803F0006303B1401C0B6863
:1052A0009B6803F0805303B1401C70472DE9F05F09
:1052B00004460025206846692068D0F804902068DC
:1052C00087682068D0F80CA02068D0F810B020685B
:1052D000D0F8188006F00100002855D007F0010032
:1052E000C0B101202168886007F0020018B1204693
:1052F00000F000FB0EE007F0040010B145F400657B
:1053000008E007F0080010B145F4805502E020469F
:1053100000F0EFFA07F48070C8B14FF48070216894
:10532000886007F4007018B1204600F0E5FA0EE03E
:1053300007F4806010B145F4005508E007F4006000
:1053400010B145F4804502E0204600F0D4FA07F49D
:105350008030C8B14FF480302168886007F4003095
:1053600018B1204600F0CAFA0EE007F4802010B110
:1053700045F4004508E007F4002010B145F48035FD
:1053800002E0204600F0B9FA06F0080038B10AF051
:10539000100020B145F4007510202168C86006F0A7
:1053A000040040B10AF0080028B108202168C86054
:1053B000204600F0C5F906F0020038B12068C06848
:1053C00000F0030010B1204600F0BBF906F04000E9
:1053D00038B10BF0100020B145F480651020216831
:1053E000086106F0200040B10BF0080028B1082049
:1053F00021680861204600F0A5F906F0100038B1D8
:105400002068006900F0030010B1204600F09CF90C
:1054100006F4003040B109F0100028B110202168D6
:105420004860204600F0FAF906F4803040B109F0F7
:10543000080028B1082021684860204600F05FFA83
:1054400006F4004088B309F0040078B306F48070D5
:1054500020B108F0010008B145F0010506F4007024
:1054600020B108F0020008B145F0020506F48060A2
:1054700020B108F0040008B145F0040506F400600E
:10548000A0B108F0700088B108F07000402817D073
:1054900006DC10280BD020280CD0302819D10CE0C5
:1054A000502810D0602814D110E01DE019E045F01C
:1054B00008050FE045F010050CE045F0200509E077
:1054C00045F0400506E045F0800503E045F48075B1
:1054D00000E000BF00BF2068806920F070002168F4
:1054E00088610420216848602DB1606A28436062A9
:1054F0002046FFF702FEBDE8F09F70B504460CB9E8
:10550000012070BD94F8200010B9204600F0CCF8BE
:105510002068006840F001002168086000F0DCFCB1
:1055200005462068006820F00200216808600DE050
:1055300000F0D2FC401B642808D9606A40F40030B7
:105540006062052084F820000120DAE720684068C6
:1055500000F001000028EBD000F0BEFC05460DE095
:1055600000F0BAFC401B642808D9606A40F400309F
:105570006062052084F820000120C2E720684068AE
:1055800000F002000028EBD1207E012806D120681F
:10559000006840F080002168086005E0206800682D
:1055A00020F0800021680860607E012806D1206814
:1055B000006840F040002168086005E0206800684D
:1055C00020F0400021680860A07E012806D12068F4
:1055D000006840F020002168086005E0206800684D
:1055E00020F0200021680860E07E012806D12068B4
:1055F000006820F010002168086005E0206800685D
:1056000040F0100021680860207F012806D1206842
:10561000006840F008002168086005E02068006824
:1056200020F0080021680860607F012806D120680A
:10563000006840F004002168086005E02068006808
:1056400020F0040021680860D4E9020108432169C0
:105650000843616908436168491E08432168C861BD
:1056600000206062012084F82000002049E700004B
:1056700010B504460949206888420DD108480068E1
:1056800020F00070064908604FF4C051054800F052
:1056900067FA152000F09AFC10BD0000006400407D
:1056A000403802400000024010B586B00446142184
:1056B00001A8FAF771FF1F492068884238D100BF5E
:1056C000002000901C48006840F000701A490860F3
:1056D0000846006800F00070009000BF00BF00BFE7
:1056E0000020009014481038006840F00100124972
:1056F000103908600846006800F00100009000BF03
:1057000000BF4FF4C050019002200290002003908F
:10571000032004900920059001A9084800F0D4FA5C
:1057200004220021152000F083FC152000F070FCFD
:1057300006B010BD00640040403802400000024046
:10574000704770477047000030B589B005460024A7
:105750000020079008902B48854251D107AB6A463C
:105760000121FFF7CBFC0398002848D10098B0F541
:10577000B06F19D100BF13E007A8005D2249096886
:10578000214AD28888542048C088401C1E49098973
:1057900090FBF1F201FB12001B49C880601CC4B2EF
:1057A0000498A042E8D82AE00098B0F5B26F26D15C
:1057B0001648DDE9071206C0154890ED000ADFED36
:1057C000150A20EE200A1148D0ED000AF1EE600A19
:1057D0009FED111A00EE810A0D4880ED000A90ED50
:1057E000010ADFED0C0A20EE200A0848D0ED010A7C
:1057F0009FED091A00EE810A054880ED010A00BFFD
:1058000009B030BD14070020FC0500203000002046
:10581000380000206666663FCDCCCC3D704770B541
:10582000044694F82000012828D1022084F82000A2
:105830002068006820F001002168086000F04CFB3F
:1058400005462068006820F00200216808600DE02D
:1058500000F042FB401B642808D9606A40F4003025
:105860006062052084F82000012070BD2068406837
:1058700000F001000028EBD16062F6E7606A40F4B6
:10588000002060620120F0E770B5044694F8200023
:10589000022828D12068006840F0010021680860D3
:1058A00000F01AFB05460DE000F016FB401B6428D3
:1058B00008D9606A40F400306062052084F8200056
:1058C000012070BD2068406800F001000028EBD086
:1058D0002068006820F0020021680860012084F838
:1058E00020000020EDE7606A40F480106062012033
:1058F000E7E77047704770477047704770477047D9
:105900002DE9F0410446002500F0E6FA074614B9F7
:105910000120BDE8F081606A00B100BF022084F878
:10592000350000BF002084F8340000BF2068006804
:1059300020F00100216808600AE000F0CDFAC01BE9
:10594000052805D920206065032084F83500E0E7AC
:105950002068006800F001000028EED1206805688A
:1059600021480540D4E901010843E1680843216961
:10597000084361690843A1690843E1690843216A52
:1059800008430543606A042803D1D4E90B010843A6
:105990000543206805602068456925F00705606AB1
:1059A0000543606A04280DD1A06A0543E06A48B146
:1059B0002046FDF787FA28B140206065012084F871
:1059C0003500A6E7206845612046FDF761FA0646E6
:1059D00094F85C103F208840B06000206065012092
:1059E00084F83500002094E73F8010F02DE9F0475F
:1059F00004460D4616461F464FF00008D4F858904E
:105A000000BF94F83400012802D10220BDE8F087DD
:105A1000012084F8340000BF94F83500012825D116
:105A2000022084F83500002060653B463246294656
:105A30002046FDF79CFA94F85C103F208840C9F896
:105A400008002068006840F0160021680860206C9B
:105A500028B12068006840F00800216808602068CC
:105A6000006840F001002168086006E000BF0020E7
:105A700084F8340000BF4FF002084046C6E700003B
:105A80000348006840F0004001490860002070476A
:105A9000103C02402DE9F04106460F4614461D46D3
:105AA0004FF0010800BF1F48007E012802D10220EC
:105AB000BDE8F08101201B49087600BF4CF2503050
:105AC000FEF7C0F98046B8F1000F23D126B9E1B244
:105AD0003846FEF713F912E0012E04D1A1B2384680
