:020000040800F2
:1000000070100020010100080D3600080F360008AE
:100010001B360008273600083336000800000000B1
:100020000000000000000000000000003F36000853
:10003000413600080000000043360008453600083D
:10004000553B00081B0100081B0100081B010008AC
:100050001B0100081B0100081B0100081B01000810
:100060001B0100081B0100081B0100081B01000800
:10007000693800081B010008413700081B0100080F
:100080001B010008D33700081B0100081B010008F2
:1000900047360008913600081B0100081B010008C4
:1000A0001B0100081B0100081B0100081B010008C0
:1000B0001B0100081B010008933800081B01000801
:1000C0001B0100081B0100081B0100081B010008A0
:1000D0001B010008DB36000865370008F737000809
:1000E0001B0100081B0100081B010008DFF80CD0F1
:1000F00007F0A2FB00480047E13300087010002021
:100100000648804706480047FEE7FEE7FEE7FEE7B1
:10011000FEE7FEE7FEE7FEE7FEE7FEE70502000872
:10012000ED0000080CB50020019000906C480068BC
:1001300040F480306A49086000BF6948006800F4F4
:10014000003000900198401C0190009820B94FF6B3
:10015000FF7101988842F0D16148006800F40030D6
:1001600010B10120009001E00020009000980128CB
:1001700043D15C48006840F010005A4908600846C6
:10018000006820F0030008600846006840F00200A4
:1001900008605348406852494860084640684860D3
:1001A0000846406840F4806048600846406820F493
:1001B0007C1048600846406840F4E81048600846F3
:1001C000006840F08070086000BF4548006800F09B
:1001D00000700028F9D04248406820F003004049F0
:1001E00048600846406840F00200486000BF3C4854
:1001F000406800F00C000828F9D10CBD10B5FFF7DD
:1002000091FF10BD10B53648006840F00100344938
:10021000086008464068344908403149486008464B
:100220000068324908402E4908600846006820F4FA
:10023000802008600846406820F4FE0048604FF4C3
:100240001F008860FFF7DAFF4FF000602849086060
:1002500010BD10B5002100200022214B5B6803F087
:100260000C0121B1042906D0082928D107E0214B2F
:10027000214C236027E01F4B1F4C236023E0184BC9
:100280005B6803F47010164B5B6803F48032022342
:1002900003EB904022B9194B4343174C23600DE008
:1002A0000F4B5B6803F4003323B1144B4343124CF0
:1002B000236003E00F4B43430F4C236003E00D4BDF
:1002C0000D4C236000BF00BF054B5B68C3F30313F5
:1002D0000B4CE15C084B1B68CB40074C236010BD06
:1002E00000100240002002400000FFF8FFFFF6FE71
:1002F00008ED00E000127A000000002000093D0037
:100300000400002031490143314A1160704770B543
:10031000002100230F22C47804B32D4C246804F478
:10032000E064C4F5E064210AC1F10403CA404478E2
:1003300004FA03F18478144021430901254C06781E
:10034000A155047804F01F050124AC4005786D1117
:10035000AD0005F1E025C5F8004109E0047804F09E
:100360001F050124AC401C4D0678761145F8264047
:1003700070BD1A4A0A400243154B1B1F1A60704792
:1003800039B1134A121D12680243114B1B1D1A602A
:1003900006E00F4A121D126882430D4B1B1D1A60A6
:1003A0007047042808D14FF0E021096941F00401A9
:1003B0004FF0E022116107E04FF0E021096921F0E0
:1003C00004014FF0E0221161704700000000FA05BF
:1003D0000CED00E000E400E080E100E080FFFF1FA2
:1003E00010B50446FA48844208D10121401501F0B5
:1003F00056FE0021601501F052FE17E0F5488442D8
:1004000008D10121001501F04AFE0021201501F05C
:1004100046FE0BE0F048844208D10121C80301F0F8
:100420003EFE00214FF4004001F039FE10BD30B512
:100430000246002000235068E84C20400D790C68EB
:1004400044EA0524204350609068E54C2040D1E9FF
:1004500002542C434D7944EA450420439060D06A0D
:1004600020F470000C7C641EE4B2234340EA035085
:10047000D06230BD00210160017141718160C160B5
:1004800001210174704721B1826842F0010282604B
:1004900003E0826822F001028260704721B1826825
:1004A00042F48072826003E0826822F4807282608B
:1004B000704710B50023CBB21AB144681C434460A6
:1004C00002E044689C43446010BD816841F008012B
:1004D00081607047014600208A6802F008020AB174
:1004E000012000E000207047816841F00401816034
:1004F0007047014600208A6802F004020AB1012018
:1005000000E00020704721B1826842F4A0028260BE
:1005100003E0826822F4A002826070470146002056
:100520008A6802F480020AB1012000E000207047CE
:1005300010B50A4600210023416821F46041531E92
:1005400041EA4331416010BD21B1426842F400628A
:10055000426003E0426822F4006242607047F0B5F6
:1005600004460D4600200021092D11DDE068A5F1AB
:100570000A0606EB4607072606FA07F18843A5F1A7
:100580000A0606EB460603FA06F10843E0600CE0B3
:10059000206905EB4507072606FA07F1884305EBB6
:1005A000450603FA06F108432061072A0FDA606B5B
:1005B000561E06EB86071F2606FA07F18843561ECD
:1005C00006EB860605FA06F10843606322E00D2A71
:1005D0000FDA206BD61F06EB86071F2606FA07F1F7
:1005E0008843D61F06EB860605FA06F1084320630A
:1005F00010E0E06AA2F10D0606EB86071F2606FA58
:1006000007F18843A2F10D0606EB860605FA06F10E
:100610000843E062F0BD21B1826842F4801282603A
:1006200003E0826822F48012826070470146C86C41
:1006300080B2704766484C300068704721B142680C
:1006400042F48062426003E0426822F480624260C9
:10065000704721B1426842F48052426003E0426830
:1006600022F48052426070470A460021816821F4DA
:10067000E04111438160704721B1826842F4004239
:10068000826003E0826822F400428260704721B1F8
:10069000826842F40212826003E0826822F402124D
:1006A00082607047014600208A6802F400120AB195
:1006B000012000E000207047F0B5044615460020F8
:1006C00000220026092911DDE068A1F10A0707EBE5
:1006D000470C072707FA0CF29043A1F10A0707EB32
:1006E000470703FA07F21043E0600CE0206901EBD2
:1006F000410C072707FA0CF2904301EB410703FA7C
:1007000007F210432061A06BC0F30156EF1C06F105
:10071000010CA7EB0C0707EB870C1F2707FA0CF25D
:100720009043EF1C06F1010CA7EB0C0707EB8707C2
:1007300001FA07F21043A063F0BD10B50A4600218C
:100740000023816B21F44011531E41EA0351816360
:1007500010BD08B5002300930090009B0B4400934C
:10076000009B1A6008BD08B5024600200090009268
:1007700001F12800009B184400900098006880B2A6
:1007800008BD0A4600214168164B194011434160DB
:1007900070474162826270470A460021416821F039
:1007A0001F0111434160704740B109490831096890
:1007B00041F40001064A0832116007E0044908319B
:1007C000096821F40001024A0832116070470000F4
:1007D0000024014000280140003C0140FFFEF0FFE2
:1007E000FDF7F1FFFFFD3FFF0246002013680B40BD
:1007F0000BB1012000E000207047CA43026070473F
:1008000070B502460020002300240B125568CEB2BA
:1008100005EA060415681D4015B10CB1012000E081
:10082000002070BD00220A12D3430360704700000D
:1008300010B50446FE48844209D10121480601F062
:100840003BFC00214FF0007001F036FC08E0012174
:10085000880601F031FC00214FF0806001F02CFC93
:1008600010BD30B5024600200023146824F00204B5
:100870001460146844F00104146000E05B1C5468C8
:1008800004F001041CB94FF6FF74A342F6D154687A
:1008900004F001040CB900206CE08C79012C04D127
:1008A000146844F08004146003E0146824F08004A9
:1008B0001460CC79012C04D1146844F04004146015
:1008C00003E0146824F0400414600C7A012C04D175
:1008D000146844F02004146003E0146824F0200439
:1008E00014604C7A012C04D1146844F01004146094
:1008F00003E0146824F0100414608C7A012C04D1F5
:10090000146844F00804146003E0146824F0080438
:100910001460CC7A012C04D1146844F004041460EF
:1009200003E0146824F0040414608C78A407CD78E4
:1009300044EA05640D7944EA05444D7944EA0554D6
:100940000D886D1E2C43D461146824F001041460DA
:10095000002300E05B1C546804F001041CB14FF656
:10096000FF74A342F6D1546804F001040CB10020D6
:1009700000E0012030BD10B50021837A012202FA87
:1009800003F1AC4A126842F00102AA4B1A60A94A6C
:100990001C3212688A43A74B1C331A60027BCAB907
:1009A000A44A0C3212688A43A24B0C331A60428864
:1009B000C38842EA03439F4A4032847A42F8343083
:1009C0000288838842EA03439A4A4032847A02EBDF
:1009D000C4025360027B012A19D1964A0C32126874
:1009E0000A43944B0C331A604288038842EA03435B
:1009F000904A4032847A42F83430C288838842EA8E
:100A000003438C4A4032847A02EBC4025360C27AB8
:100A10003AB9884A121D12688A43864B1B1D1A6018
:100A200006E0844A121D12680A43824B1B1D1A609D
:100A3000028932B97F4A143212688A437D4B1433DB
:100A40001A600289012A06D17A4A143212680A43CE
:100A5000784B14331A60427B012A06D1754A1C3246
:100A600012680A43734B1C331A60724A126822F0F0
:100A70000102704B1A6010BD00218171C1710172B9
:100A800041728172C1728170C170032101710221B2
:100A900041710121018070476649096841F00101F7
:100AA000644A11601146096843F60E729143614A27
:100AB00011601146096841EA002111601146096878
:100AC00021F001011160704721B1026842F48032C7
:100AD000026003E0026822F4803202607047E1B1F4
:100AE000026842F0800202604FF4C272125842F46F
:100AF00080734FF4C27213504FF4CA72125842F40A
:100B000080734FF4CA7213504FF4D272125842F4E9
:100B100080734FF4D27213501BE0026822F08002FF
:100B200002604FF4C272125822F480734FF4C27202
:100B300013504FF4CA72125822F480734FF4CA72E1
:100B400013504FF4D272125822F480734FF4D272C1
:100B50001350704710B502460020936803F080637D
:100B6000B3F1806F00D110E0936803F00063B3F13C
:100B7000006F01D1012008E0936803F08053B3F1C6
:100B8000805F01D1022000E00420042879D002F522
:100B9000C07303EB00131B6803F0010402F5C0737C
:100BA00003EB00131C600B7A7BB94B7A0C8843EA89
:100BB000445302F5C07404EB00142468234302F587
:100BC000C07404EB0014236010E00B7A4C6843EA15
:100BD000C4034C7A234302F5C07404EB0014246868
:100BE000234302F5C07404EB001423608B7A03F0F6
:100BF0000F038B7202F5C07303EB00135B6823F0E5
:100C00000F0402F5C07303EB00135C6002F5C073C0
:100C100003EB00135B688C7A234302F5C07404EB8A
:100C2000001463608B7B1C064B7B44EA034403E0A7
:100C300000640040006600400B7B44EA0323CC7A4A
:100C4000234302F5C07404EB0014A3608B7C1C06E4
:100C50004B7C44EA03440B7C44EA0323CC7B2343D0
:100C600002F5C07404EB0014E36002F5C07303EBFB
:100C700000131B6843F0010402F5C07303EB00137B
:100C80001C6010BD10B50246002321B1012907D018
:100C900002290FD109E09068F94C00EA04030BE047
:100CA0009068F84C00EA040306E09068F64C00EA0D
:100CB000040301E0002300BF00BFF44C181BA34253
:100CC00016D007DC83B16FF08060184470B1022841
:100CD00018D111E0B0F5007F10D0ED4C204448B1A0
:100CE000B0F5003F0ED10BE002230DE000230BE036
:100CF000002309E0002307E0012305E0012303E0CE
:100D0000012301E0002300BF00BFD8B210BD21B114
:100D1000012907D002290FD109E0826842F0800240
:100D200082600AE0826842F40042826005E08268E4
:100D300042F40002826000E000BF00BF704710B5BF
:100D400000F5D87303EB01131B6803F0040313725F
:100D5000137A53B900F5D87303EB01131B6840F203
:100D6000FF7404EA5353136009E000F5D87303EBF2
:100D700001131B686FF0604404EAD303536000F56D
:100D8000D87303EB01131B6803F00203537200F5E1
:100D9000D87303EB01135B6803F00F03937200F544
:100DA000D87303EB01135B681B0AD37400F5D87387
:100DB00003EB01139B68D37200F5D87303EB0113A7
:100DC0009B681C0A147300F5D87303EB01139B682E
:100DD0001C0C547300F5D87303EB01139B681B0EB6
:100DE000937300F5D87303EB0113DB68D37300F53D
:100DF000D87303EB0113DB681C0A147400F5D87375
:100E000003EB0113DB681C0C547400F5D87303EB7F
:100E10000113DB681B0E937421B9C36843F02003F0
:100E2000C36003E0036943F02003036110BD21B9EF
:100E3000C26842F02002C26003E0026942F0200270
:100E4000026170470246002019B9D36803F003001D
:100E500006E0012903D1136903F0030000E000203C
:100E6000704710B502460B4600204FF6FF71BBB924
:100E7000146824F0020444F00104146000E0491EE8
:100E8000546804F00304012C01D00029F7D1546800
:100E900004F00304012C01D0002032E0012030E0F6
:100EA000012B13D1146824F00304146000E0491EE0
:100EB000546804F003040CB10029F8D1546804F01C
:100EC00003040CB100201CE001201AE0022B17D112
:100ED000146824F0010444F00204146000E0491E88
:100EE000546804F00304022C01D00029F7D154689F
:100EF00004F00304022C01D0002002E0012000E0F5
:100F0000002010BD014600200A6822F0010242F0D4
:100F100002020A604A6802F00302022A00D101209C
:100F2000704701464FF6FF7200200B6823F0020362
:100F30000B6000E0521E4B6803F00203022B01D14C
:100F4000002AF7D14B6803F00203022B00D00120E6
:100F50007047014600208A6902F070007047014620
:100F600000208A69100E7047014600208A69C2F38A
:100F7000074070471AB143690B43436102E043697C
:100F80008B434361704710B50246002001F47003A3
:100F900043B19369C1F3130423400BB101202DE049
:100FA00000202BE001F0807343B15368C1F31304B8
:100FB00023400BB1012021E000201FE001F000637D
:100FC00043B19368C1F3130423400BB1012015E032
:100FD000002013E001F0007343B1D368C1F31304A0
:100FE00023400BB1012009E0002007E01369C1F3A1
:100FF000130423400BB1012000E0002010BD0022AB
:10100000244B994202D10023836111E0C1F3130202
:1010100001F000730BB1C2600AE001F080630BB114
:10102000026105E001F000630BB1826000E0426004
:1010300070470246002002EA01030BB1012000E0E4
:101040000020704770B504460D46002660692840B0
:10105000002872D0B5F5807F69D01DDC082D42D004
:1010600006DC012D2DD0022D31D0042D7FD134E0AE
:10107000102D3ED0202D42D0402D78D145E00000EB
:101080000300000400030008000003100001000832
:101090000001FFF77000F030B5F5004F61D009DCBA
:1010A000B5F5007F4AD0B5F5806F4DD0B5F5006F2E
:1010B0005DD150E0B5F5803F2DD0B5F5003F56D15C
:1010C0002FE0A0685549FFF7B4FF064651E0E068FD
:1010D0000321FFF7AEFF06464BE0E0680821FFF76B
:1010E000A8FF064645E0E0681021FFF7A2FF06468C
:1010F0003FE020690321FFF79CFF064639E02069A5
:101100000821FFF796FF064633E020691021FFF71C
:1011100090FF06462DE060680821FFF78AFF06462B
:1011200027E060681021FFF784FF064621E0A069F0
:101130000121FFF77EFF06461BE01BE0A0690221AC
:10114000FFF777FF064614E0A0690421FFF771FF5F
:1011500006460EE00BE0A0697021FFF76AFF064625
:1011600007E060680421FFF764FF064601E00026FF
:1011700000BF00E00026304670BDB1F5007F3AD0D8
:101180000FDC202928D006DC01291CD004291DD021
:10119000082940D11DE0402921D0B1F5807F3AD106
:1011A00026E0B1F5004F31D006DCB1F5806F25D0D7
:1011B000B1F5006F2FD124E0B1F5803F12D0B1F529
:1011C000003F28D111E0154A826025E00822C26064
:1011D00022E01022C2601FE0082202611CE01022FF
:1011E000026119E00822426016E01022426013E01A
:1011F0000422426010E0042242600DE004224260BA
:101200000AE0002282610422426005E0002282613D
:101210000422426000E000BF00BF704701010100EE
:1012200001684FF6FE7211400160002101604160CB
:101230008160C1608D49884208D18C49083949686C
:1012400041F00F01894A083A51608AE08749143118
:10125000884208D185490839496841F0F001834A3C
:10126000083A51607DE081492831884208D17F49A0
:101270000839496841F470617C4A083A516070E06D
:101280007A493C31884208D178490839496841F4A3
:101290007041764A083A516063E07449503188429F
:1012A00008D172490839496841F470216F4A083AF7
:1012B000516056E06D496431884208D16B49083964
:1012C000496841F47001694A083A516049E0674948
:1012D0007831884208D165490839496841F0706120
:1012E000624A083A51603CE06149884206D1011FD8
:1012F000096841F00F01021F116032E05C491431AE
:10130000884208D15A49091F096841F0F001584A3A
:10131000121F116025E056492831884208D15449EE
:10132000091F096841F47061514A121F116018E0E9
:101330004F493C31884208D14D49091F096841F4A1
:1013400070414B4A121F11600BE0494950318842ED
:1013500007D14749091F096841F47021444A121F07
:101360001160704710B50022026847F6F0739A4387
:101370000C6A8B6823430C6923434C6923438C69B3
:101380002343CC6923434C6A23438C6A23431A4387
:101390000260CB6843600B6883604B68C36010BD1C
:1013A0000021016041608160C16001614161816132
:1013B000C161016241628162704721B1026842F0FD
:1013C0000102026004E002684FF6FE731A400260F8
:1013D00070471AB103680B43036002E003688B4354
:1013E00003607047416070470146486880B27047AB
:1013F00001460020002201F080531BB11C4B083B2A
:101400001A6802E0194B083B1A6802EA01030BB1A3
:10141000012000E00020704700F0805119B114490C
:10142000091F086002E01149083948607047014609
:101430000020002201F080531BB10D4B083B1A68BD
:1014400002E00A4B083B1A6802EA01030BB10120D3
:1014500000E00020704700F0805119B10449091FD5
:10146000086002E0014908394860704708000240FE
:101470000804024001460020FE4A106800F03800CF
:10148000084310607047FB49096821F00801F94AD8
:10149000116011460968014311607047F5490968F8
:1014A00021F01001F34A11601146096801431160EF
:1014B0007047F148EF494860F04848607047EE488F
:1014C000EC494860ED4848607047EA48006940F0E0
:1014D0008000E84908617047E648006940F08000F4
:1014E000E449086170470420E249C96801F001013C
:1014F00009B101200EE0DF49C96801F0040109B11A
:10150000022007E0DB49C96801F0100109B103209E
:1015100000E00420704700B502460423FFF7E3FF14
:10152000034603E0FFF7DFFF0346521E012B01D104
:10153000002AF7D102B90523184600BD30B504468C
:1015400004254FF43020FFF7E6FF0546042D17D1A0
:10155000C848006940F00200C64908610846446175
:10156000006940F0400008614FF43020FFF7D3FFDE
:101570000546C048006941F6FD710840BD49086153
:10158000284630BD10B504244FF43020FFF7C3FFC8
:101590000446042C16D1B748006940F00400B54950
:1015A00008610846006940F0400008614FF43020AF
:1015B000FFF7B1FF0446AF48006941F6FB710840F0
:1015C000AC490861204610BD00B502460423FFF770
:1015D0008AFF034603E0FFF786FF0346521E012BF6
:1015E00001D1002AF7D102B90523184600BD10B574
:1015F00004244FF43020FFF7E7FF0446042C16D1F3
:101600009C48006940F004009A4908610846006956
:1016100040F0400008614FF43020FFF7D5FF04464A
:101620009448006941F6FB710840924908612046E0
:1016300010BD00208F49C96901F0020109B10120E4
:1016400000E00020704730B5A5250424FFF7F1FF26
:1016500000B100254FF43020FFF75DFF0446042C55
:101660003AD1854883498860844888600846006983
:1016700040F0200008610846006940F04000086121
:101680004FF43020FFF747FF0446042C1BD1794864
:10169000006941F6DF710840764908610846006933
:1016A00040F01000086176480580E002FFF733FF44
:1016B0000446052C10D06F48006941F6EF710840D0
:1016C0006C49086108E0052C06D06A48006941F6BB
:1016D000EF71084067490861204630BD78B506467D
:1016E0000C46042500200090E802FFF714FF054691
:1016F000042D24D15F48006940F001005D49086174
:101700003480E802FFF707FF0546042D10D1B01C16
:101710000090200C00990880E802FFF7FCFE0546C7
:101720005448006941F6FE7108405249086106E0DC
:101730005048006941F6FE7108404E49086128464C
:1017400078BD70B504460D460426F002FFF7E3FEAF
:101750000646042E11D14748006940F00100454972
:1017600008612580F002FFF7D6FE06464148006971
:1017700041F6FE7108403F490861304670BD70B5C2
:1017800005460E460424E002FFF7C5FE0446042C7D
:1017900017D1394837498860384888600846006959
:1017A00040F0100008612E80E002FFF7B4FE04460E
:1017B000052C06D02F48006941F6EF7108402D49ED
:1017C0000861204670BD2DE9F04304464FF6FF76D0
:1017D0003746B046B1460425E443E6B2C4F30727D2
:1017E000C4F307484FEA1469E802FFF794FE054680
:1017F000042D49D120481F49886020488860084648
:10180000006940F010000861FF2E06D01C48083027
:101810000680E802FFF77FFE0546042D08D1FF2F62
:1018200006D017480A300780E802FFF774FE054625
:10183000042D0AD1B8F1FF0F07D011480C30A0F8E1
:101840000080E802FFF767FE0546042D0AD1B9F1D2
:10185000FF0F07D00A480E30A0F80090E802FFF70B
:101860005AFE0546052D0FD00248006941F6EF717A
:10187000084007E00020024023016745AB89EFCD17
:1018800000F8FF1F664908612846BDE8F08330B5BF
:10189000054604244FF43020FFF73DFE0446042C97
:1018A00041D160485E4988605F48886008460069A9
:1018B00040F0200008610846006940F040000861DF
:1018C0004FF43020FFF727FE0446042C22D1544861
:1018D000006941F6DF710840514908610846006916
:1018E00040F0100008611DB100205049088002E05E
:1018F000A5204E4908804FF43020FFF70CFE044627
:10190000052C10D04648006941F6EF710840444963
:10191000086108E0052C06D04148006941F6DF71F6
:1019200008403F490861204630BDF0B505460E46E7
:10193000174604243B483A4988603B488860E002E7
:10194000FFF7E9FD0446042C19D13548006940F041
:1019500010003349086147F0F80030432843334909
:10196000891C0880E002FFF7D6FD0446052C06D04E
:101970002B48006941F6EF7108402949086120466B
:10198000F0BD2748C069800870472548006A704745
:1019900000202349096801F0200109B1012000E07D
:1019A0000020704729B11E4A126902431C4B1A617C
:1019B00004E01B4A12698243194B1A6170470146C1
:1019C0000020012908D1164AD26902F001020AB1A9
:1019D000012008E0002006E0114AD2680A400AB15E
:1019E000012000E0002070470D49C86070470420C6
:1019F0000B49C96801F0010109B101200EE0084955
:101A0000C96801F0040109B1022007E00449C9686E
:101A100001F0100109B1032000E00420704700002C
:101A20000020024023016745AB89EFCD00F8FF1F7E
:101A300010B50446CC48844208D10121042000F0AE
:101A40002EFB0021042000F02AFB46E0C748844218
:101A500008D10121082000F022FB0021082000F01D
:101A60001EFB3AE0C248844208D10121102000F058
:101A700016FB0021102000F012FB2EE0BD4884422E
:101A800008D10121202000F00AFB0021202000F0D5
:101A900006FB22E0B848844208D10121402000F032
:101AA000FEFA0021402000F0FAFA16E0B348844222
:101AB00008D10121802000F0F2FA0021802000F0FE
:101AC000EEFA0AE0AE48844207D10121801500F009
:101AD000E6FA0021A01500F0E2FA10BD10B50121D0
:101AE000084600F0DCFA0021012000F0D8FA10BD11
:101AF0002DE9F041024600250026002000230024A5
:101B0000002791F803C00CF00F0591F803C00CF00A
:101B1000100CBCF1000F03D091F802C04CEA05058F
:101B200091F800C0BCF1000F31D0146800202BE008
:101B30004FF0010C0CFA00F3B1F800C00CEA0306F8
:101B40009E4220D183004FF00F0C0CFA03F7BC43E8
:101B500005FA03FC4CEA040491F803C0BCF1280F19
:101B600006D14FF0010C0CFA00FCC2F814C00AE0D8
:101B700091F803C0BCF1480F05D14FF0010C0CFAED
:101B800000FCC2F810C0401C0828D1D31460B1F882
:101B900000C0BCF1FF0F34DD546800202EE000F1DE
:101BA000080C4FF0010808FA0CF3B1F800C00CEA79
:101BB00003069E4221D183004FF00F0C0CFA03F76D
:101BC000BC4305FA03FC4CEA040491F803C0BCF1E1
:101BD000280F05D100F1080C08FA0CF8C2F814809F
:101BE00091F803C0BCF1480F07D100F1080C4FF089
:101BF000010808FA0CF8C2F81080401C0828CED35F
:101C00005460BDE8F0814FF6FF71018002218170C0
:101C10000421C17070470246002093680B400BB14D
:101C2000012000E0002070470146886880B27047BC
:101C300002460020D3680B400BB1012000E00020D9
:101C400070470146C86880B27047016170474161C2
:101C500070470AB1016100E041617047C16070479F
:101C60004FF480320A4382618161826182698269B4
:101C7000704702460020434B18684FF680731840A7
:101C800040EA021008433F4B186070473E49C86164
:101C90007047F0B50A46002300240021002500F01B
:101CA0000046B6F1004F02D1364EF16901E0354EE3
:101CB0007168C0F3034583B200F44016B6F5401FC7
:101CC00008D121F070612F4E766826F070662D4F96
:101CD0007E6012E000F48016B6F5801F06D1032660
:101CE00006FA05F4A14341F0706106E0460D3601A5
:101CF00003FA06F6B14341F0706122B1460D360198
:101D000003FA06F6314300F00046B6F1004F02D167
:101D10001C4EF16101E01B4E7160F0BD30B5002238
:101D20008B071C0F0F2303FA04F2164B08338C1099
:101D300053F824309343134C08348D1044F8253065
:101D400023468C1053F824308C07240F00FA04F437
:101D500023430C4C08348D1044F8253030BD0A491B
:101D6000DC3108607047000000080140000C0140B1
:101D7000001001400014014000180140001C014007
:101D8000002001400000014000002042E0480068BF
:101D900040F00100DE49086008464068DD4908401F
:101DA000DB49486008460068DB490840D8490860BC
:101DB0000846006820F4802008600846406820F447
:101DC000FE0048604FF41F0088607047D0490968E2
:101DD00021F48031CE4A11601146096821F4802136
:101DE0001160B0F5803F03D0B0F5802F0ED106E032
:101DF000C749096841F48031C54A116007E0C44908
:101E0000096841F4A021C24A116000E000BF00BF90
:101E1000704710B501460022002300204A11012A14
:101E200002D1BB4C236806E0022A02D1B84C236AD7
:101E300001E0B74C636A01F01F02012494401C408A
:101E40000CB1012000E0002010BD38B5002000904A
:101E50000024002500BF3120FFF7DBFF0546009876
:101E6000401C00904FF6FF710098884201D0002D71
:101E7000F1D03120FFF7CDFF08B1012400E00024AC
:101E8000204638BD01460020A14A106820F0F80025
:101E900040EAC10010607047A049086070470246E0
:101EA00000209B4B586820F47C1042EA0103184341
:101EB000974B586070479949086670470146002063
:101EC000934A506820F003000843506070479048E0
:101ED000406800F00C007047014600208C4A5068B2
:101EE00020F0F00008435060704701460020884A07
:101EF000506820F4E06008435060704701460020BD
:101F0000834A506820F4605040EAC1005060704736
:101F100029B17F4A527A02437D4B5A7204E07C4ACF
:101F2000527A82437A4B5A7270477C49D8310860A2
:101F3000704701460020764A506820F4404008432C
:101F4000506070470021724A20321170704A82F846
:101F50002010012802D004280AD104E001216C4A93
:101F60002032117005E00521694A2032117000E02D
:101F700000BF00BF70476A49086070476449096A3A
:101F80000143634A116270476549443908607047EC
:101F900030B500210022002400235D4D6D6805F05E
:101FA0000C0121B1042905D0082923D105E05D4D9C
:101FB000056022E05B4D05601FE0554D6D6805F43E
:101FC0007012534D6D6805F48034022505EB924282
:101FD0001CB9554D554305600BE04D4D6D6805F43A
:101FE00000351DB1504D5543056002E04D4D554340
:101FF000056002E04B4D056000BF00BF444D6D68B9
:1020000005F0F0010909494D6B5C0568DD4045604C
:102010003F4D6D6805F4E061090A444D6B5C45680D
:10202000DD4085603A4D6D6805F46051C90A3F4D49
:102030006B5C4568DD40C560354D6D6805F4404119
:10204000890B3B4D6B5CC568B5FBF3F5056130BD95
:1020500029B12F4A526902432D4B5A6104E02C4AA0
:10206000526982432A4B5A61704729B1284A9269C2
:102070000243274B9A6104E0254A92698243244B2C
:102080009A61704729B1224AD2690243204BDA6132
:1020900004E01F4AD26982431D4BDA61704729B1BF
:1020A0001B4AD26802431A4BDA6004E0184AD2682D
:1020B0008243174BDA60704729B1154A126902430F
:1020C000134B1A6104E0124A12698243104B1A61E1
:1020D000704713494039086070471049C864704719
:1020E0000B49C87170470A48406A40F0807008493F
:1020F0004862704701460020054A92680A400AB1CA
:10210000012000E0002070470149887270470000FC
:10211000001002400000FFF8FFFFF6FE0000424200
:102120008004424200127A0000093D0014000020A1
:102130002400002010B50446FE48844208D1012145
:10214000C014FFF7ACFF0021E014FFF7A8FFC4E0C4
:10215000B4F1804F08D101210846FFF7ADFF0021FF
:102160000120FFF7A9FFB8E0F348844208D101211C
:102170000220FFF7A1FF00210220FFF79DFFACE046
:10218000EE48844208D101210420FFF795FF002189
:102190000420FFF791FFA0E0E948844208D1012123
:1021A0000820FFF789FF00210820FFF785FF94E052
:1021B000E448844208D101211020FFF77DFF00216F
:1021C0001020FFF779FF88E0DF48844208D1012121
:1021D0002020FFF771FF00212020FFF76DFF7CE03A
:1021E000DA48844208D101214014FFF758FF00214A
:1021F0006014FFF754FF70E0D548844209D10121F3
:10220000C804FFF74CFF00214FF40020FFF747FF01
:1022100063E0D048844209D101210805FFF73FFF60
:1022200000214FF48010FFF73AFF56E0CA4884427D
:1022300009D101214805FFF732FF00214FF40010BA
:10224000FFF72DFF49E0C548844208D10121402015
:10225000FFF732FF00214020FFF72EFF3DE0C0488E
:10226000844208D101218020FFF726FF0021802031
:10227000FFF722FF31E0BB48844208D101218015DD
:10228000FFF71AFF0021A015FFF716FF25E0B6485B
:10229000844209D101210804FFF701FF00214FF416
:1022A0008030FFF7FCFE18E0B048844209D10121DC
:1022B0004804FFF7F4FE00214FF40030FFF7EFFE73
:1022C0000BE0AB48844208D101218804FFF7E7FE08
:1022D00000214FF48020FFF7E2FE10BD00220288AB
:1022E000944B98420ED0994B98420BD0B0F1804F4E
:1022F00008D0914B984205D0904B984202D0904B19
:10230000984204D14FF68F731A404B881A438D4B75
:10231000984207D08C4B984204D04FF6FF431A40A6
:10232000CB881A4302808B8883850B880385814B79
:1023300098420BD0854B984208D08B4B984205D0E1
:102340008A4B984202D08A4B984201D10B7A03867D
:1023500001238382704770B5002400220023058C7E
:102360004FF6FE7635400584028C8388048B4FF649
:102370008F752C40B51E2C400D882C43751E2A40AD
:102380000D892A434D882A436A4DA8420BD06F4DD0
:10239000A84208D0744DA84205D0744DA84202D07E
:1023A000734DA84213D14FF6F7752A404D892A4341
:1023B0004FF6FB752A408D882A434FF6FF652B4068
:1023C0004FF6FF552B408D892B43CD892B438380BE
:1023D0000483CD888586028470BD70B500240022F8
:1023E0000023058C4FF6EF7635400584028C8388F8
:1023F000048B48F6FF752C404FF6FF452C400D88A6
:102400004FF6FF7606EA05252C434FF6DF752A4086
:102410000D8906EA05152A434D8806EA05152A4363
:10242000444DA84202D0494DA8421DD14FF67F75B8
:102430002A404D894FF6FF7606EA05152A434FF6E6
:10244000BF752A408D8806EA05152A434FF6FF35E9
:102450002B404FF2FF752B408D8906EA85052B43F3
:10246000CD8906EA85052B4383800483CD880587C3
:10247000028470BD70B5002400220023058C4FF645
:10248000FF6635400584028C8388848B4FF68F75F8
:102490002C404FF6FC752C400D882C434FF6FF5511
:1024A0002A400D894FF6FF7606EA05252A434D8816
:1024B00006EA05252A431F4DA84202D0234DA84213
:1024C0001DD14FF2FF752A404D894FF6FF7606EA7F
:1024D00005252A434FF6FF352A408D8806EA052553
:1024E0002A434EF6FF752B404DF6FF752B408D8924
:1024F00006EA05152B43CD8906EA05152B43838093
:102500008483CD888587028470BD70B50022002346
:102510000024058C4EF6FF7635400584038C8488B4
:10252000828B48F6FF752A404FF6FF452A400D88FA
:1025300020E00000002C01400004004000080040A2
:10254000000C004000100040001400400034014026
:10255000004C014000500140005401400018004070
:10256000001C0040002000400040014000440140A9
:10257000004801404FF6FF7606EA05252A434DF64E
:10258000FF752B400D8906EA05352B434D8806EA79
:1025900005352B43FA4DA84202D0FA4DA84208D186
:1025A0004BF6FF752C408D894FF6FF7606EA8515B0
:1025B0002C4384808283CD88A0F84050038470BD72
:1025C000828B4FF2FF331A408283828B4FF6FF7368
:1025D00003EA01231A4382837047F0B50C4615467F
:1025E000002200210026078C4EF6FF7C07EA0C072C
:1025F0000784828B018C4FF6FF7707EA043640F69A
:10260000FF473A404FF6FF7707EA05273A434FF670
:10261000FF7707EA03373A43D94FB8420ED0D94F74
:10262000B8420BD0B0F1804F08D0D74FB84205D098
:10263000D64FB84202D0D64FB84206D14DF6FF77FA
:10264000394046F48057394305E047F6FF57394093
:1026500044F48057394382830184F0BD828B4FF666
:10266000F3731A408283828B0A4382837047F0B5EA
:102670000C461546002200210026078C4FF6FF6C01
:1026800007EA0C070784828B018C4FF6FF7707EA75
:1026900004264FF60C773A404FF6FF7707EA031708
:1026A0002F433A43B64FB8420ED0B64FB8420BD084
:1026B000B0F1804F08D0B44FB84205D0B34FB84204
:1026C00002D0B34FB84206D14FF6FF57394046F417
:1026D0008077394305E04FF2FF57394044F4807763
:1026E000394382830184F0BD028B4FF2FF331A40DD
:1026F0000283028B4FF6FF7303EA01231A4302831E
:102700007047F0B50C461546002200210026078CC4
:102710004FF6EF7C07EA0C070784028B018C4FF61B
:10272000FF7707EA041640F6FF473A404FF6FF7777
:1027300007EA03373A434FF6FF7707EA05273A439C
:102740008F4FB8420ED08F4FB8420BD0B0F1804FB0
:1027500008D08D4FB84205D08C4FB84202D08C4F74
:10276000B84206D14FF6DF77394046F010073943BB
:1027700005E04FF65F77394044F010073943028394
:102780000184F0BD028B4FF6F3731A400283028B73
:102790000A4302837047F0B50C461546002200211B
:1027A000068C4FF6FE773E400684028B018C4FF676
:1027B0000C7632407E1C06EA03162E433243704EDE
:1027C000B0420ED06F4EB0420BD0B0F1804F08D067
:1027D0006D4EB04205D06D4EB04202D06C4EB0424C
:1027E00006D14FF6FD76314044F00106314305E055
:1027F0004FF6F576314044F00106314302830184FF
:10280000F0BD70B505460C465D4885420ED05D486A
:1028100085420BD0B5F1804F08D05B48854205D08A
:102820005A48854202D05A48854200D100E000BF94
:10283000208850B92389A28861882846FFF7ABFF1A
:10284000E1882846FFF79EFF25E0208804280AD16A
:102850002389A28861882846FFF753FFE18828462C
:10286000FFF742FF17E0208808280AD12389A288B1
:1028700061882846FFF7FBFEE1882846FFF7EEFE59
:1028800009E02389A28861882846FFF7A6FEE1882F
:102890002846FFF795FE70BD2DE9F04105460C4630
:1028A00000260127608808B9022600E00026A088DB
:1028B000012801D1022700E001272088A0B923893F
:1028C000A28861882846FFF766FFE1882846FFF75F
:1028D00059FF23893A4631462846FFF712FFE1881F
:1028E0002846FFF701FF13E02389A2886188284664
:1028F000FFF707FFE1882846FFF7F6FE23893A46EF
:1029000031462846FFF747FFE1882846FFF73AFFA0
:10291000BDE8F0810A884B881A438B881A43CB881C
:102920001A430B891A434B891A438B891A43A0F81F
:10293000442070474FF6FF71818000210180C180E3
:102940004180017270470021018041808180C180F7
:10295000018141818181C1817047002101804180D5
:10296000012181800021C180018170470021018007
:1029700041808180C1800181418181817047000057
:10298000002C0140003401400004004000080040D9
:10299000000C004021B1028842F00102028004E0F4
:1029A00002884FF6FE731A400280704731B1B0F8CA
:1029B000442042F40042A0F8442005E0B0F844204E
:1029C000C2F30E02A0F8442070471AB183890B436A
:1029D000838102E083898B438381704781827047C2
:1029E00041EA0203A0F8483070471AB183890B43CB
:1029F000838102E083898B438381704701894FF68D
:102A0000F8721140018170470A46002101894FF692
:102A10008F73194011430181704730B504460D464C
:102A200029462046FFF7F0FF208940F0070020816B
:102A300030BD2DE9F04104460D4616461F46602D77
:102A400006D13B46012231462046FFF75AFE05E0FB
:102A50003B46012231462046FFF79DFE294620468F
:102A6000FFF7D2FF208940F007002081BDE8F08108
:102A700030B50C4600210189C9B24FF6FF7505EA51
:102A80000325154325432943018130BD2DE9F0413C
:102A900005460E4617469846002443463A463146B8
:102AA0002846FFF7E5FF2C894FF6F870044044F004
:102AB00007044FF68F70044044F070042C81BDE889
:102AC000F081F0B504460D4616461F463B46324699
:102AD00029462046FFF7CCFF208940F48040208122
:102AE000F0BD0185828270470A46002101884FF6B9
:102AF0008F731940114301807047F0B50C4615469D
:102B00001E460021002200230189028B038C4FF610
:102B1000F877394021434FF6FC473A4040F201171D
:102B20003A434FF6DD773B404FF6FF7707EA06174B
:102B30002F433B43018102830384F0BD0A460021F9
:102B4000018B4FF68F7319401143018370470A467A
:102B50000021018B48F6FF7319404FF6FF7303EA1B
:102B600002231943018370470A460021818B4FF6E7
:102B70008F7319401143818370470A460021818B6E
:102B800048F6FF7319404FF6FF7303EA0223194317
:102B90008183704721B1028842F08002028004E004
:102BA00002884FF67F731A400280704721B18288F5
:102BB00042F00402828004E082884FF6FB731A40E0
:102BC0008280704721B1828842F00802828004E04E
:102BD00082884FF6F7731A408280704721B182884D
:102BE00042F00102828004E082884FF6FE731A40B0
:102BF000828070470A460021018B4FF6F773194017
:102C00001143018370470A460021018B4FF2FF7385
:102C100019404FF6FF7303EA0223194301837047FB
:102C20000A460021818B4FF6F773194011438183C7
:102C300070470A460021818B4FF2FF7319404FF60F
:102C4000FF7303EA02231943818370470A46002178
:102C5000018B4FF6FB7319401143018370470A46FD
:102C60000021018B4FF6FF3319404FF6FF7303EA43
:102C700002231943018370470A460021818B4FF6D6
:102C8000FB7319401143818370470A460021818BF1
:102C90004FF6FF3319404FF6FF7303EA022319433F
:102CA000818370470A460021018B4FF67F731940DC
:102CB0001143018370470A460021018BC1F30E01C5
:102CC0004FF6FF7303EA02231943018370470A4654
:102CD0000021818B4FF67F73194011438183704728
:102CE0000A460021818BC1F30E014FF6FF7303EA00
:102CF00002231943818370470A460021018C4FF655
:102D0000FD7319401143018470470A460021018C6C
:102D10004FF6F77319401143018470470A460021AA
:102D2000018C4FF6DF7319404FF6FF7303EA02136D
:102D30001943018470470A460021018C4FF67F73C6
:102D400019404FF6FF7303EA0213194301847047D9
:102D50000A460021018C4FF6FF5319404FF6FF73CE
:102D600003EA02231943018470470A460021018CBB
:102D70004FF2FF7319404FF6FF7303EA0223194322
:102D8000018470470A460021018C4DF6FF731940FB
:102D90004FF6FF7303EA023319430184704730B5DD
:102DA000002301248C40A3B2048C9C430484048C33
:102DB00002FA01F5ADB22C43048430BD30B50023D6
:102DC00004248C40A3B2048C9C430484048C02FA37
:102DD00001F5ADB22C43048430BD70B5034600202C
:102DE00000241846183001258D40ACB21D8CA54337
:102DF0001D8409B1082909D100EB6100056825F09F
:102E0000700505600568154305600EE00D1FC5F3EC
:102E10004E052844056825F4E045056005684FF631
:102E2000FF7606EA02263543056070BD21B10288AF
:102E300042F00202028004E002884FF6FD731A405D
:102E40000280704721B1028842F00402028004E04F
:102E500002884FF6FB731A400280704721B18288C6
:102E600042F08002828004E082884FF67F731A402D
:102E70008280704702884FF6F7731A4002800288FA
:102E80000A430280704782884FF68F731A4082800F
:102E900082880A438280704702894FF6F8731A408D
:102EA000028102890A430281704702894FF67F73CB
:102EB0001A40028102890A43028170478184704767
:102EC0008185704781867047018770478187704789
:102ED000A0F84010704702884FF6FF431A40028066
:102EE00002880A43028070470146888E7047014677
:102EF000088F70470146888F70470146B1F840003F
:102F000070470146888C70470146088D704702461D
:102F10000020138A0B400BB1012000E00020704715
:102F2000CA430282704730B50246002000230024C5
:102F3000158A05EA0103958905EA010413B10CB16C
:102F4000012000E0002030BDCA430282704700002B
:102F500010B50446FB48844209D101218803FFF7DC
:102F60009EF800214FF48040FFF799F832E0F648D0
:102F7000844209D101214804FFF79EF800214FF453
:102F80000030FFF799F825E0F048844209D101218B
:102F90008804FFF791F800214FF48020FFF78CF8A8
:102FA00018E0EB48844209D10121C804FFF784F8F6
:102FB00000214FF40020FFF77FF80BE0E548844242
:102FC00008D101210805FFF777F800214FF48010A0
:102FD000FFF772F810BD2DE9F04786B005460E46A2
:102FE0000024A24600BFA1460027B08900B100BF5F
:102FF0002F462C8A4CF6FF700440F08804432C8244
:10300000AC894EF6F3100440B088318908437189C9
:1030100008430443AC81AC8A4FF6FF400440B089BA
:103020000443AC8201A8FEF7B3FFC648874202D131
:10303000DDF810A001E0DDF80CA0A88900F4004044
:1030400040B10AEBCA0000EB0A1031684900B0FB3E
:10305000F1F807E00AEBCA0000EB0A1031688900BA
:10306000B0FBF1F86420B8FBF0F004012009642102
:1030700001FB1089A88900F4004040B1322000EB28
:10308000C900B0FBF1F000F00700044308E0322073
:1030900000EB09106421B0FBF1F000F00F000443D5
:1030A0002C8106B0BDE8F0874FF416510160002175
:1030B0008180C18001810C21418100218181704783
:1030C00010B502460020108A4FF2FF0318400B880B
:1030D0004C8823438C882343CC8823431843108295
:1030E00010BD0021018041808180C180704721B1E5
:1030F000828942F40052828104E082894DF6FF7396
:103100001A4082817047F0B503460024002600254E
:10311000002040F66A17B94200D100BF1846C1F33B
:10312000421401F01F06012707FA06F5012C01D110
:103130000C3004E0022C01D1103000E014301AB140
:1031400007682F43076002E00768AF430760F0BDE0
:103150001AB1838A0B43838202E0838A8B43838282
:103160007047028A4FF6F0731A400282028A0A43BD
:103170000282704782894FF2FF731A4082818289EE
:103180000A438281704721B1828942F00202828122
:1031900004E082894FF6FD731A4082817047028AEB
:1031A0004FF6DF731A400282028A0A430282704796
:1031B00021B1028A42F48042028204E0028A4BF684
:1031C000FF731A4002827047C1F308028280704781
:1031D00001468888C0F308007047818941F00101E9
:1031E00081817047028BD2B20283028B42EA0122B4
:1031F00002837047028B02F47F420283028B0A43F0
:103200000283704721B1828A42F02002828204E068
:10321000828A4FF6DF731A408282704721B1828A18
:1032200042F01002828204E0828A4FF6EF731A4065
:103230008282704721B1828A42F00802828204E0D1
:10324000828A4FF6F7731A408282704721B18289D1
:1032500042F40042828103E08289C2F30E0282813D
:10326000704721B1828A42F40062828204E0828A3D
:103270004FF2FF731A4082827047828A4FF6FB73C7
:103280001A408282828A0A438282704721B1828AEE
:1032900042F00202828204E0828A4FF6FD731A40F5
:1032A0008282704702460020B1F5007F00D100BF46
:1032B00013880B400BB1012000E00020704701F49F
:1032C0000072B2F5007F00D100BFCA430280704790
:1032D00070B50246002400230025002040F66A163F
:1032E000B14200D100BFC1F3421501F01F03012616
:1032F00006FA03F3012D02D19689334006E0022D30
:1033000002D1168A334001E0968A33400C1201261E
:1033100006FA04F41688344013B10CB1012000E021
:10332000002070BD10B50022002340F66A14A142AF
:1033300000D100BF0A1201249440A3B2DC430480F0
:1033400010BD00000038014000440040004800402B
:10335000004C00400050004010B50121C802FEF7AB
:10336000ABFE00214FF40060FEF7A6FE10BD002169
:10337000194A126822F4C0710143174A116070475C
:1033800008B5002100911449096821F07F010091DE
:1033900000F07F01009A114300910F4A00991160DB
:1033A00008BD01200D490860704700F07F010A4AFE
:1033B000121F1160704740F08001074A121F116010
:1033C00070470548001D0068C0B2704700200249E0
:1033D000091D086070470000042C0040A4800542CD
:1033E0001CB564A103C9CDE9000101210807FEF75E
:1033F00049FE4FF4A060FCF785FF01F09AF901F057
:103400004FF901F07BF901F02AFD01F0EEFE00F02A
:103410006AFC01F08AF800F0CBFE02F0D9FA012133
:103420005648FFF7B7FA56A1594801F063FD59A174
:10343000574801F05FFD7E20FEF7EBFC48B15CA130
:10344000534801F057FD5E48807840F001005C4928
:103450008870FEF748FE40205A4908605848807836
:1034600000F0010018B1962001F0D8FE02E04620DD
:1034700001F0D4FE02F02EF94FF4967001F0CEFE6A
:103480004020504908608020091F086000204E49F4
:103490008880202008704D4800884D4908804B489E
:1034A000408848804948808888804848C088494981
:1034B000088046480089488044484089888046A161
:1034C000334801F017FD52E04748407801280CD1FD
:1034D00000F007FF00F015FF444803F0B3F844483C
:1034E00003F0B0F80020404948703F488078012838
:1034F00010D100203C4988703E483F49096801606E
:103500003E4909684160082302464FF4B2613C48D5
:1035100001F02AF83448C078012802D1002032494D
:10352000C87031480079012802D100202E49087165
:103530002D484079012817D10821684601F046FC42
:1035400020480838006880F040001E4908390860AB
:103550000846006880F0800008602A48407E2A49BA
:103560004876002020494871002017498880ABE741
:103570007047000001020304050607080008004028
:103580007379737465726D20696E69740D0A000039
:103590000044004043414E20436F6D6D756E69637A
:1035A0006174696F6E203530306B6270730D0A0084
:1035B000B4B0BFDABFB4C3C5B9B70D0A000000008C
:1035C0008001002014080140280000204200002053
:1035D000C4000020CA00002053544D3332D5FDB33F
:1035E000A3D4CBD0D00D0A00A0010020D009002028
:1035F000E80900204E000020E8000020EC00002038
:10360000AC010020200B0020000B00207047F3A12C
:10361000FC4801F06FFC00BFFEE7FBA1F94801F098
:1036200069FC00BFFEE7FDA1F64801F063FC00BFA6
:10363000FEE7FEA1F34801F05DFC00BFFEE7704726
:1036400070477047704710B50221FD48FDF7FAFC3E
:10365000E8B1FC4A0021FA48FDF771FBFA49F94844
:1036600000F0CDFF0A21F848C278843081548438B4
:10367000C078421CF4498431F44802F024FC102143
:10368000F148843003F023FD0120EF49487010BD5C
:1036900010B51021EA48FDF7D5FCE8B1EC4A01214C
:1036A000E748FDF74CFBE849E94800F0A8FF0A218C
:1036B000E548C278843081548438C078421CE2499D
:1036C0008431E24802F0FFFB1021DF48843003F030
:1036D000FEFC0120DC49487010BD10B540F22441C9
:1036E000DC48FFF7F5FD50B3DA48FFF771FD002124
:1036F000D948FDF762FED848FDF776FEC0F180009C
:10370000D649C8700121D548C278843081548438A4
:10371000C078421CD1498431D14802F0D4FB8021C9
:10372000CE48843003F0D3FC8021CB48FDF75AFE0D
:103730000121C948FDF741FE0120C849487010BD6C
:1037400010B54FF40050FDF772FE50B10021C24891
:103750001438FDF732FE0120C04908704003FDF720
:103760007AFE10BD10B540F22441A648FFF7B0FD27
:1037700070B3A448FFF72CFD0021B7481430FDF7C3
:103780001CFEB5481430FDF72FFEC0F18000B5498E
:10379000C8700221B348C278843081548438C0781C
:1037A000421CB0498431B04802F08DFB8021AD4805
:1037B000843003F08CFC8021A7481430FDF712FE02
:1037C0000121A5481430FDF7F8FD0120A5494870F6
:1037D00010BD10B54FF00070FDF729FE50B100216B
:1037E0009D482830FDF7E9FD01209E4908704006FC
:1037F000FDF731FE10BD10B540F224419B48FFF7A4
:1038000067FD80B39948FFF7E3FC00219248283810
:10381000FDF7D3FD90482838FDF7E6FDC0F18000A4
:103820009349C87003219248C27884308154843807
:10383000C078421C8E4984318E4802F044FB8021BE
:1038400085482838FDF7CEFD012183482838FDF74B
:10385000B4FD0120864948700846C078411C844860
:10386000843001F0B3FA10BD10B52020FDF7DFFD64
:1038700070B1002178483C38FDF79FFD01207C495C
:10388000087004217C48FEF7E2F92020FDF7E3FDF3
:1038900010BD10B501217948FFF745FB00287DD008
:1038A00001F0A9FC76480078401C75490870012099
:1038B00048707448807800F00400D0B972480078ED
:1038C000B8B901F0F8FF02F07DF9704A1168704A4A
:1038D000106802F015FF6B4988806D48406880F0E1
:1038E00000446A48214642686A4802F044FA654941
:1038F000C8806349087800EBD0714910A0EB410102
:10390000002969D101205E4988706348B0F9000040
:103910005C4948810846B0F90A00B0F5167F0FDD12
:103920000846807800F02000202809D008468078DA
:1039300040F02000887059A1324801F0DBFA14E011
:103940005048B0F90A00B0F5FA7F0EDA4D48807899
:1039500000F0200048B14B48807820F02000494911
:1039600088704FF400505049086150480078002892
:1039700032D0444800794E49887042488088000A15
:10398000C8704048807908713E48C088000A487174
:103990003C48007A88713B48008900E0D5E0000A85
:1039A000C8713848807A087236484089000A4872DF
:1039B00000208872C872087348733E480078887384
:1039C0003C480088000AC8733A488078087439482F
:1039D0004088000A48746FE076E000000D0A20D3AA
:1039E000B2BCFEB9CAD5CF2CC4DAB4E67CB6D1D508
:1039F000BBD2E7B3F62FB7C3CECAD4BDBDE70D0A1D
:103A000000000000004400400D0A20C4DAB4E6B90A
:103A1000DCC0EDD2ECB3A30D0A0000000D0A20D7E4
:103A2000DCCFDFB9CAD5CF0D0A0000000D0A20BADD
:103A3000AFCAFDD3C3B7A8B4EDCEF30D0A000000A2
:103A4000006400402003002008020020D00900206C
:103A5000340300200038014058000240C803002011
:103A6000DC090020CC040020E809002000480040C8
:103A7000D0050020F4090020000C0140000800409F
:103A8000A001002080010020C0000020B809002013
:103A9000AC09002058090020C20000204552525FA6
:103AA000414443490D0A0000001001402800002055
:103AB0002E0000206E000020FC2088740320C874B3
:103AC0001421284800F0B4FF27480078052190FB16
:103AD000F1F201FB120010B901202349C8702248FD
:103AE00000780A2190FBF1F201FB120010B90120CD
:103AF0001D4908711C480078642190FBF1F201FB1C
:103B0000120020B901201849487100200870174898
:103B10000078401C1549087015488088401C1449DD
:103B200088801248007803280ADB08468088B0F5B0
:103B30007A7F05DA7F20FFF738FC00200B490870F8
:103B400001210C48FFF700FA03E001210948FFF7C3
:103B5000E7F910BD10B5402007490860FFF736FCB3
:103B600010BD00002E000020A00100205600002003
:103B70002800002000080040140801400021F74AF6
:103B8000116004E0F5490968491CF44A1160F349E1
:103B900009688142F6D3704710B58021F048FEF7DE
:103BA00054F80A20FFF7EAFF4021ED48FEF74FF8EE
:103BB0000A20FFF7E3FF8021E948FEF746F80A20D4
:103BC000FFF7DCFF4021E648FEF73FF80A20FFF749
:103BD000D5FF8021E248FEF73AF80A20FFF7CEFF32
:103BE0004021DF48FEF733F80A20FFF7C7FF8021A6
:103BF000DB48FEF72AF80A20FFF7C0FF0020D9496A
:103C0000087012E04021D648FEF71FF80A20FFF79F
:103C1000B5FF4021D248FEF71AF80A20FFF7AEFFA1
:103C2000D0480078401CCF490870CE480078092859
:103C3000E8DB4021CA48FEF708F80A20FFF79EFF9C
:103C40008021C748FEF703F80A20FFF797FF4021BD
:103C5000C348FDF7FCFF0A20FFF790FF4021C04852
:103C6000FDF7F3FF0A20FFF789FF8021BC48FDF72D
:103C7000ECFF0A20FFF782FF4021B948FDF7E7FF7C
:103C80000A20FFF77BFF10BD10B58021B448FDF777
:103C9000DEFF0A20FFF772FF4021B148FDF7D5FF94
:103CA0000A20FFF76BFF8021AD48FDF7CEFF0A2009
:103CB000FFF764FF10BD08B501210820FEF7D5F914
:103CC000C020ADF8000001208DF8020014208DF80E
:103CD00003006946A248FDF70BFFFFF7D5FF08BDBB
:103CE000A1490880704710B50520FFF7F9FFFFF7DD
:103CF000E2FFFFF751FF10BD10B500209B4908807F
:103D000080219748FDF7A1FF0A20FFF737FF4021E8
:103D10009348FDF79AFF0A20FFF730FF0DE0934824
:103D20000088401C9149088008460088B0F5FA7F59
:103D300003DDFFF7A9FF022010BD80218848FDF7B1
:103D40006AFF0028EBD140218548FDF780FF0A205B
:103D5000FFF714FF0020EFE710B504460020844968
:103D600008702EE004F0800020B180217C48FDF72F
:103D70006CFF03E080217A48FDF769FF0A20FFF716
:103D8000FDFE40217648FDF760FF0A20FFF7F6FEB2
:103D900040217348FDF75BFF0A20FFF7EFFE7448F0
:103DA0000078072803D180216D48FDF74EFF60069B
:103DB000040E0A20FFF7E2FE6D480078401C6C49B3
:103DC00008706B4800780828CCDB0A20FFF7D6FE85
:103DD00010BD10B580216248FDF737FF0A20FFF7BC
:103DE000CDFE40215E48FDF730FF0A20FFF7C6FEFA
:103DF00080215B48FDF70FFF08B9012010BD80212D
:103E00005748FDF724FF0A20FFF7B8FE4021544829
:103E1000FDF71DFF0A20FFF7B1FE80215048FDF796
:103E2000FAFE08B10220E9E70020E7E72DE9F041BA
:103E300004460D4616461F46FFF7CBFF4D49087056
:103E40000846007818B108460078BDE8F0810021E6
:103E500041EA4401C8B2FFF77FFFFFF74DFF454934
:103E600008700846007810B108460078EDE728464B
:103E7000FFF772FFFFF740FF3E49087008460078E1
:103E800010B108460078E0E700203B49087013E0D5
:103E900039490978785CFFF75FFFFFF72DFF354957
:103EA00008700846007810B108460078CDE732481F
:103EB0000078401C304908702F480078B042E7DB9A
:103EC000FFF7E2FE0020C0E72748008870472DE991
:103ED000F04707468846144699464FF0000A0025E9
:103EE000FFF7F2FF064600BF0025E2B24B4641460F
:103EF0003846FFF79BFF05467DB176B1FFF7C4FE5C
:103F00005046411C01F0FF0A022802DD2846BDE8A8
:103F1000F087304600F0B4FCE6E72846F7E710B536
:103F200080210F48FDF793FE0A20FFF727FE40216E
:103F30000B48FDF78AFE0A20FFF720FE40210848C3
:103F4000FDF785FE0A20FFF719FE80210448FDF7E2
:103F50007CFE0A20FFF712FE10BD0000600000206A
:103F6000000C01405E0000205C0000206400002086
:103F7000660000206C0000206B00002010B580213E
:103F80008548FDF762FE0A20FFF7F8FD40218248D0
:103F9000FDF75BFE0A20FFF7F1FD40217E48FDF7AB
:103FA00056FE0A20FFF7EAFD10BD10B500207B4940
:103FB00008707B49087023E040217748FDF745FEF3
:103FC0000A20FFF7DBFD754800784006000E7349B4
:103FD000087080217048FDF71EFE28B16F480078F8
:103FE00040F001006D49087040216B48FDF72FFE3D
:103FF0000A20FFF7C3FD6A480078401C6849087032
:10400000674800780828D7DB6448007810BD2DE9A0
:10401000F04105460F4614461E46FFF7DAFE002122
:1040200041EA4501C8B2FFF797FEFFF765FE5D491B
:1040300008700846007818B108460078BDE8F0819D
:104040003846FFF789FEFFF757FE564908700846C5
:10405000007810B108460078F0E7FFF7BAFE0121BA
:1040600001EB4501C8B2FFF777FEFFF745FE4D496A
:1040700008700846007810B108460078DEE70CE0CA
:10408000FFF793FF3070012C02D1FFF777FF01E0BB
:10409000FFF745FF761C601EC4B2002CF0D1FFF77D
:1040A000F3FD0020CAE72DE9F0470746884614468D
:1040B00099464FF0000A0025FFF706FF064600BFAD
:1040C0000025E2B24B4641463846FFF7A0FF0546C1
:1040D0007DB176B1FFF7D8FD5046411C01F0FF0AD3
:1040E000022802DD2846BDE8F087304600F0C8FB14
:1040F000E6E72846F7E710B580212748FDF7A5FD3C
:104100000A20FFF73BFD40212348FDF7A0FD0A20D0
:10411000FFF734FD0020244908702449087023E08B
:1041200040211D48FDF791FD0A20FFF727FD1E489D
:1041300000784006000E1C49087080211648FDF7E3
:104140006AFD28B11848007840F00100164908704F
:1041500040211148FDF77BFD0A20FFF70FFD1348B2
:104160000078401C11490870104800780828D7DBF7
:104170000D48007810BD70B50446FFF72AFE0021F7
:1041800041EA4401C8B2FFF7E7FDFFF7B5FD054678
:10419000FFF77AFD284670BD000C01406800002042
:1041A000670000206D0000206A00002069000020E8
:1041B00000B591B04FF40040FDF7BBFE0121042093
:1041C000FDF753FF01214802FDF74FFF012108468B
:1041D000FDF73EFF0120ADF800008DF80200002041
:1041E0008DF8030069464F48FDF782FC0CA8FCF7E8
:1041F00041F900200C9001208DF834008DF8350035
:104200004FF460200E9000200F9002208DF84000A7
:104210000CA94548FCF70BF907230122002142486D
:10422000FCF79DF90723022210213F48FCF797F97C
:104230000120FCF7B9FA3D48FCF7F2FF3A484C3050
:1042400001903B480290002003901420049000202D
:104250000590802006904000079080000890202064
:10426000099000020A9000200B9001A92F48FDF749
:1042700079F801212D48FDF7A0F801212A48FCF723
:104280000DF901212848FCF7FEF82748FCF71DF935
:1042900000BF2548FCF71EF90028FAD12248FCF798
:1042A00023F900BF2048FCF724F90028FAD10121A6
:1042B0001D48FCF728F911B000BD0246002300217B
:1042C00000BF07E01A4800EB810030F812000344F9
:1042D000481CC1B20A29F5DB0A20B3FBF0F080B21A
:1042E000704700B50020FFF7E8FF00EB801101EBFD
:1042F00080204FF4E05190FBF1F000B20D490880AE
:1043000000BD00B50120FFF7D8FF40F2EF61081AA9
:1043100064214843352190FBF1F0FA3000B20549A1
:10432000488000BD00080140002401400800024010
:10433000E00100206E00002008B501210520FDF7F6
:1043400094FE4FF48050ADF8000018208DF8030063
:1043500001208DF802006946CB48FDF7C9FB4FF4F8
:104360000060ADF8000048208DF8030001208DF8B2
:1043700002006946C448FDF7BBFB08BD08B5142020
:104380008DF8000001208DF8010000208DF802005A
:1043900001208DF803006846FBF7B9FF15208DF862
:1043A000000001208DF8010000208DF8020001209E
:1043B0008DF803006846FBF7AAFF08BD0EB5012182
:1043C0004806FDF75FFEB148FCF732FA6846FCF795
:1043D00053FB00208DF8060001208DF807008DF8B2
:1043E000080000208DF809008DF80A008DF80B00F8
:1043F0008DF802008DF8030004208DF804000220DF
:104400008DF805000820ADF8000069469F48FCF7CC
:1044100028FA0EBD1FB500208DF80A008DF80B009C
:1044200001208DF80C0041F2FF50ADF800004FF66E
:10443000FC70ADF802004FF6E070ADF8040000200B
:10444000ADF80600ADF8080001208DF80D006846B3
:10445000FCF791FA01208DF80A0000208DF80B007E
:1044600001208DF80C0041F6FF10ADF800004FF66A
:10447000FC70ADF802004FF6E070ADF804000020CB
:10448000ADF80600ADF8080001208DF80D00684673
:10449000FCF771FA02208DF80A0000208DF80B005D
:1044A00001208DF80C0041F6FF30ADF800004FF60A
:1044B000FC70ADF802004FF6E070ADF8040000208B
:1044C000ADF806000120ADF808008DF80D00684633
:1044D000FCF751FA03208DF80A0000208DF80B003C
:1044E00001208DF80C0041F23F40ADF800004FF67E
:1044F000FC70ADF802004FF6E070ADF8040000204B
:10450000ADF806000120ADF808008DF80D006846F2
:10451000FCF731FA012202215C48FCF72BFD012255
:1045200010215A48FCF726FD1FBD10B580225849BE
:10453000584801F0A9FCFFF7FFFEFFF71FFFFFF748
:104540003DFFFFF767FF10BD002101604160017270
:104550008172C174C1720022027342738273C2738A
:1045600002744274827470472DE9F04104460E468D
:1045700017461D462660002020726072A5724649CB
:1045800008700CE044480078395C04F10B00424AA2
:104590001278815440480078401C3F4908703E48DA
:1045A0000078A842EEDB21463848FCF7D3FABDE894
:1045B000F0812DE9F04104460E4617461D4666601F
:1045C0000420207200206072A572344908700CE04B
:1045D00032480078395C04F10B00304A127881547B
:1045E0002E480078401C2D4908702C480078A842BD
:1045F000EEDB21462548FCF7ADFABDE8F08110B5A9
:10460000A52281F884205E2385225354827A121DCC
:10461000D3B286225354002387225354037988222D
:1046200053540022CA700AE0CB7800F10B02D45C2C
:104630005A1D01F184039C54CA78521CCA70CA786E
:10464000837A9A42F0DB4268120ECB785B1D01F14F
:104650008404E2544268C2F30744CA78921D01F10F
:1046600084039C548288C2F30724CA78D21D9C54C8
:104670000479CA7808329C545A24CA7809329C5466
:10468000827A0A32CA7010BD0008014000640040FE
:1046900048030020D0090020720000207300002091
:1046A00008B501211420FDF7E0FC4020ADF8000022
:1046B00010208DF8030002208DF80200694635486D
:1046C000FDF716FA8020ADF8000069463148FDF785
:1046D0000FFA4FF40050ADF8000014208DF80300DD
:1046E00069462D48FDF704FA40202A491031086038
:1046F0008020086080012849086108BD08B50121B3
:104700000C20FDF7B2FC48208DF8030002208DF844
:104710000200C001ADF8000069461E48FDF7E8F947
:104720004FF47040ADF8000069461C48FDF7E0F911
:1047300008BD08B501210846FDF797FC012118487E
:10474000FDF7A7FA01211C20FDF78FFC4FF6FF7043
:10475000ADF8000028208DF8030002208DF802003B
:1047600069460D48FDF7C4F94FF6FF70ADF800003B
:1047700069460A48FDF7BCF949F6FF70ADF800003C
:1047800069460448FDF7B4F908BD4022014B1433D3
:104790001A6070470008014000100140000C014001
:1047A0000002300030B50146B1F1807F01D3012015
:1047B00030BD21F07F40401E4FF0E0225061501785
:1047C0000F22002807DA13071D0E3F4B00F00F04DD
:1047D000241F1D5503E013071C0E3C4B1C5400BF47
:1047E00000204FF0E0229061072010610020DFE7F9
:1047F00010B54FF43470FFF7D5FF08B100BFFEE7E6
:1048000010BD01B53249009808604FF0E020006902
:1048100040F001004FF0E021086100BF2C48006823
:104820000028FBD108BD2A48006820B1284800684C
:10483000401E27490860704701B54FF43470FFF7F8
:10484000B1FF0020234908600CE000BF4FF0E020DA
:10485000006900F480300028F8D01E480068401C31
:104860001C4908601B48006800998842EDD34FF04E
:10487000E020006920F001004FF0E021086108BD50
:1048800001B51548FFF78EFF0020144908600CE0C1
:1048900000BF4FF0E020006900F480300028F8D01D
:1048A0000E480068401C0D4908600C4800680099DB
:1048B0008842EDD34FF0E020006920F001004FF076
:1048C000E021086108BD000018ED00E000E400E010
:1048D0007400002078000020401901007C000020B6
:1048E00010B592B0044601210420FDF7BEFB012162
:1048F0000846FDF7BAFB01218803FDF7B6FB01214D
:104900000846FDF7A5FB4FF40070ADF84400012008
:104910008DF8460018208DF8470011A9FE48FDF7D4
:10492000E7F84FF48060ADF8440048208DF8470068
:1049300011A9F948FDF7DCF80D940020ADF8380016
:10494000ADF83A00ADF83C000C20ADF83E00002078
:10495000ADF840000DA9F148FEF73DFB8020049022
:104960000020079008900590802006900020099074
:104970000B90EA48001D0190E948029000200A903F
:104980001020039001A9E748FCF7ECFCE348001D68
:104990000190E348803002904FF480500A9000204C
:1049A000039001A9DF481430FCF7DCFC25208DF8CA
:1049B000300004208DF8310000208DF832000120F5
:1049C0008DF833000CA8FBF7A2FC0E208DF8300008
:1049D00004208DF8310000208DF8320001208DF880
:1049E00033000CA8FBF793FC012240F22441CB4892
:1049F000FEF789FB01220221CA48FCF7EAFC0122EA
:104A00008021C648FEF7A4FB01224021C348FEF7DF
:104A10009FFB0121C348FCF7D0FC0121C1481430A1
:104A2000FCF7CBFC0121BD48FEF761FB12B010BDC5
:104A300070B504460D460020BB4908800BE0BA481B
:104A40000088215CB648B84A12888154B64800886C
:104A5000401CB5490880B4480088A842EFDBB04844
:104A6000001F007858B10020AD49091F0870294681
:104A7000AC48FCF7B7FC0121AA48FCF79EFC70BDCE
:104A800010B592B0044601210420FDF7EEFA012191
:104A90000846FDF7EAFA01214804FDF7F3FA01217F
:104AA0000846FDF7D5FA0420ADF8440001208DF842
:104AB000460018208DF8470011A99748FDF718F80F
:104AC0000820ADF8440048208DF8470011A992480D
:104AD000FDF70EF80D940020ADF83800ADF83A005F
:104AE000ADF83C000C20ADF83E000020ADF84000D1
:104AF0000DA98E48FEF76FFA8020049000200790E1
:104B00000890059080200690002009900B9087481F
:104B1000001D0190864802904FF480500A900020BA
:104B2000039001A97F482830FCF71CFC7F48001D3A
:104B300001907F488038029000200A901020039056
:104B400001A978483C30FCF70DFC26208DF8300098
:104B500004208DF8310000208DF8320001208DF8FE
:104B600033000CA8FBF7D3FB11208DF83000042094
:104B70008DF8310000208DF8320001208DF83300CF
:104B80000CA8FBF7C4FB012240F224416748FEF762
:104B9000BAFA0122022163483C30FCF71AFC0122D8
:104BA00080216248FEF7D4FA012240215F48FEF7D7
:104BB000CFFA01215B482830FCF7FFFB012159485F
:104BC0003C30FCF7FAFB01215848FEF790FA12B08E
:104BD00010BD70B504460D460020564908800CE013
:104BE00054480088215C52488038524A12888154C7
:104BF00050480088401C4F4908804E480088A84211
:104C0000EEDB4B488438007868B10020484984398D
:104C10000870294643483C30FCF7E4FB0121414839
:104C20003C30FCF7CAFB70BD10B592B004460121C0
:104C30000820FDF71AFA01210846FDF716FA0121AE
:104C40008804FDF71FFA01210846FDF701FA042048
:104C5000ADF8440001208DF8460010208DF8470083
:104C600011A93548FCF744FF04213348FCF7EFFF56
:104C70004FF48060ADF8440001208DF84600182004
:104C80008DF8470011A92C48FCF732FF4FF4006063
:104C9000ADF8440048208DF8470011A92648FCF7DC
:104CA00027FF0D940020ADF83800ADF83A00ADF8BC
:104CB0003C000C20ADF83E000020ADF840000DA9EE
:104CC0001E48FEF788F98020049000200790089085
:104CD000059080200690002009900B901748001D39
:104CE00001901748029000200A901020039001A91B
:104CF0000C482838FCF736FB1048001D019010487E
:104D0000803002904FF480500A900020039001A957
:104D10000448143816E00000000801400038014043
:104D2000CC030020440002408000002000440040EA
:104D30005005002082000020000C01400048004087
:104D4000D4050020FCF70EFB27208DF8300004204E
:104D50008DF8310000208DF8320001208DF83300ED
:104D60000CA8FBF7D4FA0C208DF8300004208DF845
:104D7000310000208DF8320001208DF833000CA89E
:104D8000FBF7C5FA012240F22441EA48FEF7BBF9DD
:104D900001220221E848FCF71CFB01228021E548A2
:104DA000FEF7D6F901224021E248FEF7D1F90121B0
:104DB000E148FCF702FB0121DF481430FCF7FDFA63
:104DC0000121DC48FEF793F912B010BD70B504461E
:104DD0000D460421D948FCF738FF0020D849088047
:104DE0000BE0D7480088215CD648D54A1288815408
:104DF000D3480088401CD2490880D1480088A84286
:104E0000EFDBD048001F007858B10020CD49091FC2
:104E100008702946C848FCF7E5FA0121C648FCF7A6
:104E2000CCFA70BD70B504460D46E1B2C648FEF737
:104E3000CBF900BF8021C448FEF734FA0028F9D02E
:104E4000204670BD10B5044600BF2021BE48FEF7C5
:104E500029FA0028F9D0BC48FEF7BAF910BD10B500
:104E60008022BA49BA4801F00FF88022B949BA48FD
:104E700001F00AF88022B949B94801F005F84FF469
:104E80007A30FFF72DFD4FF47A30FFF7F9FD4FF43C
:104E90001650FFF7C9FE10BD70B504460D462946F1
:104EA0002046FEF791F900BF80212046FEF7FAF96F
:104EB0000028F9D070BD70B506460C461546002096
:104EC000A84908700AE0A7480078215C3046FFF73F
:104ED000E3FFA4480078401CA2490870A14800786C
:104EE000A842F0DB00BF40213046FEF7DBF9002886
:104EF000F9D070BD70B505460C4600BF9A480088D1
:104F0000215C2846FFF7C8FF97480088401C964957
:104F1000088008460088205C0028EFD1088000BF88
:104F200040212846FEF7BEF90028F9D070BD70B5C3
:104F300005460C46200A8D4908708D490C708B4837
:104F400001782846FEF740F900BF40212846FEF7C9
:104F5000A9F90028F9D0864801782846FEF734F9E7
:104F600000BF40212846FEF79DF90028F9D070BD0A
:104F700070B505460C46200E7E490870200C48701E
:104F8000200A8870CC7004222846FFF794FF00BFE7
:104F900040212846FEF786F90028F9D070BD2DE99A
:104FA000F04107460C4615461E46DDF81880294696
:104FB000204602F097F87049086008460068811999
:104FC0004246384602F0A0F8BDE8F081F0B503464D
:104FD0000D461646002729460A2E03D000200870E9
:104FE0002846F0BD33B9302001F8010B00200870CD
:104FF0002846F6E7002B03DA2D2001F8010B5B426F
:1050000042F210720DE093FBF2F404B937B104F1EF
:10501000300001F8010B04FB123301270A2092FB38
:10502000F0F2002AEFDC002008702846D9E70FB420
:1050300070B586B006460CA8019073E00B98007816
:105040005C281CD10B98401C0B9000786E2809D06E
:1050500072280FD10D213046FEF7B6F80B98401C90
:105060000B900BE00A213046FEF7AEF80B98401C7F
:105070000B9003E00B98401C0B9000BF4BE00B988B
:105080000078252840D10B98401C0B9000786428AC
:1050900018D0732833D1019810C801900BE0217803
:1050A0003046FEF791F800BF80213046FEF7FAF84F
:1050B0000028F9D0641C20780028F0D10B98401CFF
:1050C0000B9020E0019820C801900A2202A92846EE
:1050D000FFF77CFF02AC0BE021783046FEF774F856
:1050E00000BF80213046FEF7DDF80028F9D0641CAF
:1050F00020780028F0D10B98401C0B9003E00B980F
:10510000401C0B9000BF06E00B9810F8011B0B90A1
:105110003046FEF759F800BF80213046FEF7C2F84E
:105120000028F9D00B980078002887D106B070BC11
:105130005DF814FB004800401C000240000C0140D8
:1051400084000020D405002000440040D406002044
:10515000DC09002054070020E8090020D4070020C3
:10516000F409002086000020880000208A0000202A
:105170008B0000208C0000209000002008B51E202D
:105180008DF8000002208DF8010000208DF802004B
:1051900001208DF803006846FBF7B9F808BD0EB58D
:1051A00001210420FCF76EFF40F2E730ADF8040067
:1051B00040F2CF20ADF800000020ADF80600ADF8B9
:1051C00002008DF8080069461848FDF787F80121AC
:1051D0001648FDF7A5FE012211461448FDF7F5FB20
:1051E00000211248FDF7D6FB0EBD10B5FFF7C6FF34
:1051F000FFF7D5FF10BD0E48008828B10C48008885
:10520000401E0B49088008E0094800884EF66021DE
:10521000884202DD642006490880704704490880FE
:1052200000BF034909880029FBD1704700080040EE
:105230009400002070B504460D461646B4F1006F88
:1052400002D3AA48844201D3002070BD3019A84976
:105250000860A84804600020A7490870A7A1AA48D0
:10526000FFF748FE15E0A34800680078A2490978D6
:105270006854A1480078295CA4A002F041FB9D4835
:105280000068401C9B4908609B480078401C9A4974
:10529000087098480068964909688842E3D301205D
:1052A000D3E770B504460D461646B4F1006F02D33D
:1052B0008E48844201D3002070BD04EB46008C4927
:1052C00008608C48046000208B49087091A18E48CA
:1052D000FFF710FE17E087480068008886490978C4
:1052E00025F811008448007835F8101087A002F0E6
:1052F00007FB80480068801C7E4908607E48007873
:10530000401C7D4908707B480068794909688842DB
:10531000E1D30120D0E72DE9F04104460E461546C1
:105320000127B4F1006F02D37048844202D30020F9
:10533000BDE8F08104EB45006D4908606D480460EC
:1053400000206D49087077A16F48FFF7D3FD1FE07B
:105350006848006801886DA002F0D2FA65480068CC
:1053600000886549097836F81110884206D0002770
:1053700060480068018871A002F0C2FA5D480068C8
:10538000801C5C4908605C480078401C5A490870E1
:105390005848006856490968884201D2002FD7D181
:1053A0003846C5E72DE9F04104460D4616464FF054
:1053B00004080127B4F1006F02D34C48844202D3A1
:1053C0000020BDE8F081FCF774F83420FCF70CFBFA
:1053D0002046FCF7B3F8804621885DA002F090FAE1
:1053E00004EB4600424908604248046000204249FC
:1053F00008701BE04048007835F810203D480168EF
:1054000058A002F07DFA3C48007835F81010394871
:105410000068FCF796F9804636480068801C3549DC
:10542000086035480078401C3349087031480068EE
:105430002F490968884202D2B8F1040FDAD0FCF78C
:1054400044F84AA002F05CFA2A48046000202A4985
:1054500008701FE027480068018845A002F050FA54
:105460002448006800882449097835F811108842DA
:1054700006D000271F48006801883FA002F040FACC
:105480001C480068801C1B4908601B480078401CB1
:10549000194908701748006815490968884201D2FF
:1054A000002FD7D138468CE770B504460D46164616
:1054B000324629462046FFF72EFF012804D133A1AA
:1054C0001148FFF717FD0FE0324629462046FFF747
:1054D00069FF012804D133A10B48FFF70BFD03E05E
:1054E00036A10948FFF706FD70BD0000000008085E
:1054F0009C00002098000020A00000200D0A4279A6
:105500007465446174613A00004400402025782CA1
:10551000000000000D0A48616C66576F72644461B8
:10552000746100000D0AD0B4666C617368C7B0BDC9
:10553000F8D0D0D0A3D1E93A000000000D0AB2BBE8
:10554000CDACB5C4CAFDBEDDA3BA2578200D0A00D6
:10555000B2C1B3FDBAF3B5C4CAFDBEDDA3BA2578A6
:10556000200D0A0025783A25782000000D0A000059
:1055700025782C20000000000D0AB4EDCEF3B5C450
:10558000CAFDBEDDA3BA2578200D0A00B6C1D0B48D
:10559000C4DAB2BF464C415348CAFDBEDDCFE0CDB0
:1055A000AC0D0A00CAFDD7E9D0B4C4DAB2BF464C8C
:1055B000415348B3C9B9A60D0A000000CAFDD7E996
:1055C000D0B4C4DAB2BF464C415348CAA7B0DC0DD0
:1055D0000A00000010B50922EA49EB48FFF761FE16
:1055E000E8484238B0F842004AF25A5188422ED177
:1055F000E448423890F84600E4490870E1484238EF
:1056000090F848004870DF48423890F84A008870A7
:10561000DC48423890F84C00C870DA48423890F8BC
:105620004E000871D748423890F850004871D5486C
:10563000423890F852008871D248423890F85400AD
:10564000C871D048423890F85600087211E04020E6
:10565000CE49087084204870E42088700020C8700B
:105660003320087100204871432088710020C871E0
:10567000087210BD10B5C64B012200216A20FEF74A
:1056800012FDC349243981F84400084690F82400EB
:10569000052803D1084690F8440068B1BC48243876
:1056A00090F8442090F82410BAA002F029F9B848E4
:1056B000243890F8440010BDB548243890F82410E0
:1056C000BBA002F01DF90020B149243981F8440043
:1056D00000BFF0E710B5FFF77DFFFFF7CBFFAC4948
:1056E000243981F84400084690F8440018B108466F
:1056F00090F8440010BDA54B012202216A20FEF75C
:10570000E6FBA349243981F84400084690F8440098
:1057100018B1084690F84400ECE79C4B9B1D012211
:1057200008216A20FEF7D3FB9949243981F8440007
:10573000084690F8440018B1084690F84400D9E7AC
:10574000924B5B1C012203216A20FEF7C0FB9049AB
:10575000243981F84400084690F8440018B10846FE
:1057600090F84400C6E7894B9B1C012204216A2063
:10577000FEF7ADFB8649243981F84400084690F8CD
:10578000440018B1084690F84400B3E77F4BDB1C97
:10579000012205216A20FEF79AFB7D49243981F810
:1057A0004400084690F8440018B1084690F84400B8
:1057B000A0E7764B1B1D012206216A20FEF787FB1E
:1057C0007349243981F84400084690F8440018B120
:1057D000084690F844008DE700206D49243981F88F
:1057E000440000BF86E710B5694B012217216A20EB
:1057F000FEF759FC6649243981F84400084690F8C0
:10580000440018B1084690F8440010BD00206049DB
:10581000243981F8440000BFF7E710B55C4B032240
:105820002C216A20FEF73FFC5949243981F84400B5
:10583000084690F8440018B1084690F8440010BD9E
:1058400000205349243981F8440000BFF7E710B520
:105850004F4B032230216A20FEF725FC4C492439A6
:1058600081F84400084690F8440018B1084690F8C2
:10587000440010BD00204649243981F8440000BF8F
:10588000F7E710B5424B022257216A20FEF70BFCC6
:105890003F49243981F84400084690F8440018B183
:1058A000084690F8440010BD00203949243981F899
:1058B000440000BFF7E710B5354B0E2233216A20B4
:1058C000FEF7F1FB3249243981F84400084690F88C
:1058D000440018B1084690F8440010BD2C48243804
:1058E00090F8241090F8250041EA002000B23549D4
:1058F00008802748243890F8261090F8270041EABD
:10590000002000B2304908802148243890F828103F
:1059100090F8290041EA002000B22B4948801C4839
:10592000243890F82A1090F82B0041EA002000B2A9
:10593000254988801648243890F82C1090F82D00BE
:1059400041EA002000B2214908801148243890F82B
:105950002E1090F82F0041EA002000B21B49488029
:105960000B48243890F8301090F8310041EA0020BC
:1059700000B21649888000200549243981F8440086
:1059800000BFAAE7AE08002000000108350900208A
:1059900014090020514D4938363538435F4572723D
:1059A0006F723A2532782C2532780D0A00000000FB
:1059B000514D4938363538435F416464723A257831
:1059C0000D0A0000A2000020A4000020AA00002070
:1059D000FD48FE490860FE4848600021FB484161DF
:1059E000F948FC490860FA4848600021F9484161DB
:1059F000F548F9490860F64848600021F6484161D9
:105A0000704710B504460020F4490860486088607B
:105A1000F349086048608860F24908800FE0FFF7AA
:105A20004AFFF14908800846008800B90BE00A20C7
:105A3000FFF7F4FBEB480088401CEA490880E9487E
:105A40000088A042EBDB00BF0020E649088043E06D
:105A5000FFF731FFE44908800846008810B1084686
:105A6000007810BDDD480068E049B1F90010084435
:105A7000DA49086008464068DC49B1F90210084478
:105A8000D649486008468168D848B0F90400A0F5B6
:105A900080400844D1498860D1480068D449B1F9B0
:105AA00000100844CE49086008464068D049B1F962
:105AB00002100844CA49486008468068CC49B1F9D8
:105AC00004100844C64988600A20FFF7A7FBC548B0
:105AD0000088401CC3490880C2480088A042B7DB48
