:020000040800F2
:1000000008040020450100089B0100089301000836
:10001000970100088D010008790200080000000027
:10002000000000000000000000000000C701000800
:100030009101000800000000C5010008C901000886
:100040005F0100085F0100085F0100085F01000810
:100050005F0100085F0100085F0100085F01000800
:100060005F0100085F0100085F0100085F010008F0
:100070005F0100085F0100085F0100085F010008E0
:100080005F0100085F0100085F0100085F010008D0
:100090005F0100085F0100085F0100085F010008C0
:1000A0005F0100085F0100085F0100085F010008B0
:1000B0005F0100085F0100085F0100085F010008A0
:1000C0005F0100085F0100085F0100085F01000890
:1000D0005F0100085F0100085F0100085F01000880
:1000E0005F0100085F0100085F0100085F01000870
:1000F0005F0100085F0100085F0100085F01000860
:100100005F0100085F0100085F0100085F0100084F
:100110005F0100085F0100085F0100085F0100083F
:100120005F0100085F0100085F0100085F0100082F
:10013000DFF80CD000F018F80048004789030008E9
:10014000080400200648804706480047FEE7FEE70F
:10015000FEE7FEE7FEE7FEE7FEE7FEE7FEE7FEE777
:10016000D101000831010008064C074D06E0E068A7
:1001700040F0010394E8070098471034AC42F6D3EE
:10018000FFF7DAFF640500088405000800BFFEE7FA
:10019000704700BFFEE700BFFEE7704710B50028BC
:1001A00007DA0A07140E054A00F00F031B1FD45488
:1001B00003E00A07130E024A135410BD18ED00E0C5
:1001C00000E400E07047704710B500F071F810BD12
:1001D00008B52648006840F47000244908602448A7
:1001E000006840F001002249086000BF2048006814
:1001F00000F002000028F9D000BF1D48406840F020
:1002000080001B4948600020009002E00098401CDC
:10021000009000985028F9D31548406840F09000AD
:10022000134948600020009002E00098401C0090B4
:1002300000985028F9D300BF0D48406820F0030013
:100240000B494860084600680A49084008490860A8
:100250004FF41F0088600846006820F48020086082
:1002600000204860C86200F051F908BD88ED00E048
:1002700000100240FFFFF6FE00BFFEE702E008C8E4
:10028000121F08C1002AFAD170477047002001E010
:1002900001C1121F002AFBD170470000034908600A
:1002A00000BF024909680029FBD170470000002007
:1002B0000448006820B103480068401E01490860F6
:1002C000704700000000002041617047F0B504460F
:1002D00016460025002201F00F0501F0100747B176
:1002E000042E05D145F00305E76B1F43E76300E0EB
:1002F000354300201EE0012787401F40C7B1226818
:100300004FEA800C0F2707FA0CF7BA43870005FA6B
:1003100007F73A43282904D1012787401F40676126
:1003200005E0482903D1012787401F40276122604B
:10033000471CB8B20828DED3082022E001278740F6
:100340001F40E7B16268A0F108074FEA870C0F274A
:1003500007FA0CF7BA43A0F10807BF0005FA07F740
:100360003A43282904D1012787401F40676105E0EF
:10037000482903D1012787401F4027616260471C3D
:10038000B8B21028DAD3F0BD40F2036000F024F8D0
:100390004FF40043032210210E48FFF797FF4FF45C
:1003A00000410C48FFF790FF00F0B4F811E04FF463
:1003B00000400849103108604FF4FA60FFF76EFF03
:1003C0004FF400400349143108604FF4FA60FFF71E
:1003D00065FFECE7000C0140064A02EB901109684A
:1003E00000F01F0301229A401143024B03EB9012CD
:1003F0001160704700100240002000213F4A12683F
:1004000042F480323D4B1A6000BF401C3B4A1268E8
:1004100002F4003119B94FF6FF729042F5D1374A14
:10042000126802F400320AB900BFFEE7334AD2690B
:1004300042F08052314BDA61314A126842F4404254
:100440002F4B1A602D4A52682C4B5A601A4652683C
:100450005A601A46526842F480625A601A465268DC
:1004600022F440325A601A46526842F440325A60CE
:100470001A465268234B1A40204B5A601A4652685B
:10048000214B1A431D4B5A601A46126842F0807283
:100490001A6000BF194A126802F00072002AF9D0EF
:1004A000174A126842F48032154B1A6000BF144A92
:1004B000526802F48032002AF9D0114A126842F4DC
:1004C00000320F4B1A6000BF0D4A526802F400322E
:1004D000002AF9D0094A526822F00302074B5A60F9
:1004E0001A46526842F002025A6000BF034A52683C
:1004F00002F00802002AF9D0704700000010024004
:1005000000700040FFFFC3B70000340810B5FFF7CC
:1005100073FF10BD10B5124800684FF47A71B0FB3C
:10052000F1F4601EB0F1807F01D301200FE0601E66
:100530004FF0E02148610F214FF0FF30FFF72EFE12
:1005400000204FF0E021886107200861002008B1F9
:1005500000BFFEE70021481EFFF720FE10BD00008F
:1005600004000020840500080000002008000000AE
:100570007C0200088C050008080000200004000030
:0C0580008C02000800000000000E27079D
:0400000508000131BD
:00000001FF
