:020000040800F2
:10000000B018002009020008111E0008B51B0008E6
:100010000D1E000819060008DD220008000000007F
:10002000000000000000000000000000490100087E
:10003000A11A000800000000A5010008E71F000841
:1000400023020008230200082302000823020008FC
:1000500023020008230200082302000823020008EC
:1000600023020008230200082302000823020008DC
:1000700023020008230200082302000823020008CC
:1000800023020008230200082302000823020008BC
:10009000230200081D0600082302000823020008AE
:1000A00023020008A1200008230200082302000800
:1000B000230200082302000823020008230200088C
:1000C000230200082302000823020008230200087C
:1000D0002302000877220008792200082302000882
:1000E000230200082302000823020008230200085C
:1000F000230200082302000823020008230200084C
:10010000230200082302000823020008230200083B
:10011000CD21000823020008230200082302000862
:10012000230200082302000823020008230200081B
:10013000DFF810D000F0BCF800480047A9550008CF
:10014000AFF30080B01800202C4B19680868B0E8A5
:10015000F04F80F30988BFF36F8F4FF0000080F3FA
:10016000118870470000000008480068006880F3AC
:1001700008884FF0000080F3148862B661B6BFF3C0
:100180004F8FBFF36F8F00DF00BF00BF08ED00E0AF
:10019000DFF80C00016841F470010160704700BF96
:1001A00088ED00E0EFF30980BFF36F8F134B1A68FF
:1001B0001EF0100F08BF20ED108A20E9F04F1060EC
:1001C00009B44FF0500080F31188BFF34F8FBFF395
:1001D0006F8F07F071F84FF0000080F3118809BCB1
:1001E00019680868B0E8F04F1EF0100F08BFB0ECB7
:1001F000108A80F30988BFF36F8F7047A801002031
:10020000EFF3058070470000064880470648004726
:10021000FEE7FEE7FEE7FEE7FEE7FEE7FEE7FEE7B6
:10022000FEE7FEE7F91F00083101000840EA01037C
:100230009B0703D009E008C9121F08C0042AFAD29C
:1002400003E011F8013B00F8013B521EF9D2704760
:10025000D2B201E000F8012B491EFBD27047002208
:10026000F6E710B513460A4604461946FFF7F0FFB5
:10027000204610BD421C10F8011B0029FBD1801A3A
:10028000704730B50B46014600202022012409E0CA
:1002900021FA02F59D4205D303FA02F5491B04FA3F
:1002A00002F52844151EA2F10102F1DC30BD000068
:1002B000064C074D06E0E06840F0010394E80700B3
:1002C00098471034AC42F6D3FFF736FF5078000859
:1002D0007078000870B58C1810F8015B15F00703F2
:1002E00001D110F8013B2A1106D110F8012B03E0CF
:1002F00010F8016B01F8016B5B1EF9D12B0705D4D7
:100300000023521E0DD401F8013BFAE710F8013B1F
:10031000CB1A921C03E013F8015B01F8015B521E3B
:10032000F9D5A142D8D3002070BD10B503F0CEFCA2
:1003300002F068F910BD000010B504460122214604
:10034000014801F0B6FC10BD000A0020F8B50020FD
:10035000009000240026002565E0002041498870B7
:10036000072C5CD2DFE804F0040F1C27323E51005A
:100370009DF80000A52801D1012000E000200446DE
:100380009DF800504CE09DF800005E2801D102204D
:1003900000E0002004469DF800002844C5B23FE07C
:1003A0009DF80000304908709DF800002844C5B24F
:1003B000601CC4B234E09DF800002B4948709DF8E1
:1003C00000002844C5B2601CC4B229E09DF80000BA
:1003D000254988709DF800002844C5B2601CC4B24D
:1003E00000261DE09DF800101F48C01C81559DF897
:1003F00000002844C5B2701CC6B21B480078B04249
:1004000002D1601CC4B200260AE09DF800008542BB
:1004100002D1154800F02CF80024002500E000BFB0
:1004200000BF04B9F8BD6846FFF786FF18B10D4854
:10043000C07E002891D00B484078022810D109488E
:100440008078401CC0B207498870FF2808D100207E
:10045000487088707F20C880088100200349088187
:1004600000BFDFE72C080020AC0400205C0800205F
:1004700010B504460121204601F082F910B1204652
:1004800000F09CF810BD000010B588B004460521AE
:10049000384803F04FFC38480190002003908DF855
:1004A0001E00049002904FF48050069000200590AA
:1004B0008DF81C0001208DF81D0001AA05212D4892
:1004C00003F07CFC05212B4803F0CEFB05212948D5
:1004D00003F01DFD0621274803F02CFC264801905F
:1004E0000020039001208DF81E000020049002904F
:1004F0004FF480500690002005908DF81C000120DC
:100500008DF81D0001AA06211A4803F057FC0621A8
:10051000184803F0A9FB0621164803F0F8FC224610
:100520001549091F40F2117001F082FE00220421DA
:10053000262005F051FB4FF441710F48001F06F0D3
:1005400095FD0D48001F06F07DFD0521094803F0CB
:1005500059FB0621074803F055FB40210648001FC0
:1005600006F060FD80210448001F06F063FD08B01E
:1005700010BD0000000002400444004010B514E02B
:10058000012204210C4804F055FA012003F0F6FA88
:1005900000220421084804F04DFAFA2003F0EEFA94
:1005A00001220421044804F045FA0821024804F01D
:1005B000A4FA0128E4D010BD0010014070B5044633
:1005C000A520144908705E204870207888706078F3
:1005D000C870A07808712278E11C0E48401DFFF712
:1005E00025FE0026002005E00A49095C3144CEB210
:1005F000411CC8B22178491D8142F5DC2078801D5C
:10060000C5B2681E03490E542946024806F0EEFBA7
:1006100070BD0000EF04002000BFFEE710B586B0FB
:10062000002401AA0121134802F00DFE9DF80C00E0
:10063000F0B90198B0F5A06F1AD100BF14E00DF128
:100640000F00005D0C4909680B4AD28888540A489B
:10065000C088401C0849098990FBF1F201FB120097
:100660000549C880601CC4B29DF80E00A042E6DCBB
:1006700006B010BD00640040B00E002038B5374809
:1006800090F82B0080B302200090354AB2F9101088
:10069000002901DB0A4600E04A42B2F52F7F0ADC5E
:1006A0002F4AB2F90E00002801DB024600E0424268
:1006B000B2F52F7F04DD012269462A4801F030FBA4
:1006C000002414E02648123030F8140068B12448A1
:1006D000123030F81400B0F52F7F06DA0122694697
:1006E000204801F01DFB04E005E0601CC4B2042CAE
:1006F000E8DB00BF00BF1A4890ED070ADFED1A0AD9
:10070000B4EEE00AF1EE10FA03D2002013490877A4
:1007100022E0134890ED070ADFED140AB4EEE00A78
:10072000F1EE10FA03DB63200C49087714E00C4863
:1007300090ED070ADFED0C0A30EE600ADFED0C0ADF
:1007400020EE200ADFED0B0A80EE201ABCEEC10A73
:1007500010EE100A0149087738BD00002C0800206F
:100760007C080020640A0020CDCCA4410000E441B4
:100770000000C842CCCCFC4010B50C48C078012821
:1007800005D10B490B4800F075F805F0C1FC07488E
:100790000079401CC0B205490871462804D10020E8
:1007A000C870087100F02EFE10BD00002C0800205B
:1007B000040600203005002070B50446A078042807
:1007C0004FD005284ED1E07853281FD100260025B0
:1007D00018E0264850F8350000B970BD234B03EBF4
:1007E000C5031A79A3689919204B53F83500FFF710
:1007F0001DFD2846691CCDB21C4901EBC0000079E3
:100800003044C6B2A088B042E3DC24E0E07873282C
:1008100021D10026082518E0144850F8350000B909
:10082000DBE7124B03EBC5031A79A36899190F4B49
:1008300053F83500FFF7FAFC2846691CCDB20B4986
:1008400001EBC00000793044C6B2A088B042E3DCBE
:10085000FFF714FF00BF0020054908710120C87090
:1008600001E000E000BF00BF00BFB6E72C0400209D
:100870002C0800202DE9F04104460D4600260020FA
:100880002070F9480078401CF74908702078082843
:1008900004DB05F03DFC00BF00202070002700BFF6
:1008A000F248C07DF9000841C2B23046711CCEB298
:1008B0002A54781CC0B2071EF2D0ED48018E22786F
:1008C000601C00EBC2000180E94890F832102278E9
:1008D000601C00EBC2004180E54890F83200301AFD
:1008E00041192278601C00EBC20041602078401C56
:1008F00020702078082804DB05F00AFC0026002080
:100900002070002700BFD9488079F9000841C2B2A1
:100910003046711CCEB22A54781CC0B2071EF2D0E9
:10092000D348818E2278601C00EBC2000180D04841
:1009300090F836102278601C00EBC2004180CC4851
:1009400090F83600301A41192278601C00EBC20082
:1009500041602078401C20702078082804DB05F0D6
:10096000D7FB002600202070002700BFBF48007A78
:10097000F9000841C2B23046711CCEB22A54781C2C
:10098000C0B2071EF2D0BA48018F2278601C00EB7B
:10099000C2000180B64890F83A102278601C00EB43
:1009A000C2004180B24890F83A00301A41192278CA
:1009B000601C00EBC20041602078401C2070AD48F4
:1009C000007B00F00100AC49097B01F00101884285
:1009D0007ED0AA480088401CA849088008460088A4
:1009E000012876D1A348007B00F00100002871D1D6
:1009F0002078082804DB05F08BFB002600202070FF
:100A0000002700BFF90001200841C2B23046711C26
:100A1000CEB22A54781CC0B2071EF3D09448B0F866
:100A200060102278601C00EBC2000180904890F8B2
:100A300062102278601C00EBC20041808C4890F864
:100A40006200301A41192278601C00EBC20041603C
:100A50002078401C20702078082804DB05F058FB23
:100A6000002600202070002700BFF9000720084161
:100A7000C2B23046711CCEB22A54781CC0B2071ED6
:100A8000F3D07B48B0F864102278601C00EBC20001
:100A90000180774890F866102278601C00EBC20055
:100AA0004180734890F86600301A41192278601C22
:100AB00000EBC20041602078401C2070207808289C
:100AC00004DB05F025FB002600202070002702E053
:100AD000CCE2A2E1D4E000BFF9004FF496700841E7
:100AE000C2B23046711CCEB22A54781CC0B207463E
:100AF0000228F1D35E48B0F874102278601C00EB35
:100B0000C20001805A4890F876102278601C00EBF1
:100B1000C2004180564890F87600301A4119227878
:100B2000601C00EBC20041602078401C20702078DF
:100B3000082804DB05F0ECFA0026002020700027CE
:100B400000BFF90001200841C2B23046711CCEB28C
:100B50002A54781CC0B2071EF3D04548B0F8841060
:100B60002278601C00EBC2000180414890F886109A
:100B70002278601C00EBC20041803D4890F886005E
:100B8000301A41192278601C00EBC20041602078C5
:100B9000401C20702078082804DB05F0B9FA0026F4
:100BA00000202070002700BFF90007200841C2B2D2
:100BB0003046711CCEB22A54781CC0B2071EF3D046
:100BC0002B48B0F888102278601C00EBC20001802E
:100BD000274890F88A102278601C00EBC200418000
:100BE000234890F88A00301A41192278601C00EBE3
:100BF000C20041602078401C20702078082804DB67
:100C000005F086FA002600202070002700BFF900BA
:100C10006FF063000841C2B23046711CCEB22A5454
:100C2000781CC0B207460228F1D31148B0F8A010D2
:100C30002278601C00EBC20001800D4890F8A210E1
:100C40002278601C00EBC2004180094890F8A200A5
:100C5000301A41192278601C00EBC20041602078F4
:100C6000401C207087E30000120000202C080020A8
:100C7000947600087C0800205C080020100000200A
:100C80002078082804DB05F043FA002600202070B5
:100C9000002700BFF90001200841C2B23046711C94
:100CA000CEB22A54781CC0B2071EF3D0FE48B0F86A
:100CB00060102278601C00EBC2000180FA4890F8B6
:100CC00062102278601C00EBC2004180F64890F868
:100CD0006200301A41192278601C00EBC2004160AA
:100CE0002078401C20702078082804DB05F010FADA
:100CF000002600202070002700BFF90008200841CE
:100D0000C2B23046711CCEB22A54781CC0B2071E43
:100D1000F3D0E548B0F864102278601C00EBC20004
:100D20000180E14890F866102278601C00EBC20058
:100D30004180DD4890F86600301A41192278601C25
:100D400000EBC20041602078401C20702078082809
:100D500004DB05F0DDF9002600202070002700BF2D
:100D6000F90001200841C2B23046711CCEB22A54AB
:100D7000781CC0B2071EF3D0CB48B0F8841022789C
:100D8000601C00EBC2000180C74890F886102278F2
:100D9000601C00EBC2004180C34890F88600301A06
:100DA00041192278601C00EBC20041602078401C91
:100DB00020702078082804DB05F0AAF9002600201E
:100DC0002070002700BFF90008200841C2B2304659
:100DD000711CCEB22A54781CC0B2071EF3D0B248A0
:100DE000B0F888102278601C00EBC2000180AE4889
:100DF00090F88A102278601C00EBC2004180AA485B
:100E000090F88A00301A41192278601C00EBC20069
:100E100041602078401C2070ADE2A4480088B0F505
:100E2000967F7DDDA2480089002879D1A0484089BD
:100E30000028FAD19F48007B00F001009C4908730C
:100E400000209A4908802078082804DB05F060F922
:100E5000002600202070002700BFF900062008416E
:100E6000C2B23046711CCEB22A54781CC0B2071EE2
:100E7000F3D08D48B0F864102278601C00EBC200FB
:100E80000180894890F866102278601C00EBC2004F
:100E90004180854890F86600301A41192278601C1C
:100EA00000EBC20041602078401C207020780828A8
:100EB00004DB05F02DF9002600202070002700BF7C
:100EC000F90000200841C2B23046711CCEB22A544B
:100ED000781CC0B2071EF3D07348B0F88410227893
:100EE000601C00EBC20001806F4890F886102278E9
:100EF000601C00EBC20041806B4890F88600301AFD
:100F000041192278601C00EBC20041602078401C2F
:100F100020702078082806DB05F0FAF8002600E0AB
:100F20002EE000202070002700BFF90000200841BB
:100F3000C2B23046711CCEB22A54781CC0B20746E9
:100F40000228F2D35848B0F874102278601C00EBE5
:100F5000C2000180544890F876102278601C00EBA3
:100F6000C2004180504890F87600301A411922782A
:100F7000601C00EBC20041602078401C2070FAE148
:100F80004A48008840F6B8318842F8DD20780828C1
:100F900004DB05F0BDF8002600202070002700BF0C
:100FA000F90000200841C2B23046711CCEB22A546A
:100FB000781CC0B2071EF3D03B48B0F8601022780E
:100FC000601C00EBC2000180374890F86210227864
:100FD000601C00EBC2004180334890F86200301A78
:100FE00041192278601C00EBC20041602078401C4F
:100FF00020702078082804DB05F08AF800260020FD
:101000002070002700BFF90000200841C2B230461E
:10101000711CCEB22A54781CC0B2071EF3D02248ED
:10102000B0F884102278601C00EBC20001801E48DA
:1010300090F886102278601C00EBC20041801A48AC
:1010400090F88600301A41192278601C00EBC2002B
:1010500041602078401C20701648007B00F00100A1
:101060001349087300201149088084E100BF124829
:101070000078052190FBF1F201FB12000028F4D169
:101080000C480089002872D12078082804DB05F07C
:101090003FF8002600202070002700BFF90006203E
:1010A0000841C2B2304609E09476000810000020E2
:1010B0007C0800205C08002012000020711CCEB2C9
:1010C0002A54781CC0B2071EE8D0CB48B0F8641090
:1010D0002278601C00EBC2000180C74890F86610BF
:1010E0002278601C00EBC2004180C34890F8660083
:1010F000301A41192278601C00EBC2004160207850
:10110000401C20702078082804DB05F001F8002638
:1011100000202070002700BFF90000200841C2B263
:101120003046711CCEB22A54781CC0B2071EF3D0D0
:10113000B148B0F884102278601C00EBC200018036
:10114000AD4890F886102278601C00EBC200418008
:10115000A94890F88600301A41192278601C00EBEB
:10116000C20041602078401C2070CDE0FFE720786D
:10117000082804DB04F0CCFF0026002020700027A4
:1011800000BFF90001200841C2B23046711CCEB246
:101190002A54781CC0B2071EF3D09748B0F86010EC
:1011A0002278601C00EBC2000180934890F8621026
:1011B0002278601C00EBC20041808F4890F86200EA
:1011C000301A41192278601C00EBC200416020787F
:1011D000401C20702078082804DB04F099FF0026CA
:1011E00000202070002700BFF90002200841C2B291
:1011F0003046711CCEB22A54781CC0B2071EF3D000
:101200007D48B0F864102278601C00EBC2000180B9
:10121000794890F866102278601C00EBC20041808B
:10122000754890F86600301A41192278601C00EB6E
:10123000C20041602078401C20702078082804DB20
:1012400004F066FF002600202070002700BFF90090
:1012500001200841C2B23046711CCEB22A54781C1B
:10126000C0B2071EF3D06448B0F884102278601C26
:1012700000EBC2000180604890F886102278601C64
:1012800000EBC20041805C4890F88600301A41199A
:101290002278601C00EBC20041602078401C207066
:1012A0002078082804DB04F033FF0026002020709B
:1012B000002700BFF90006200841C2B23046711C69
:1012C000CEB22A54781CC0B2071EF3D04A48B0F8F8
:1012D00088102278601C00EBC2000180464890F81C
:1012E0008A102278601C00EBC2004180424890F8CE
:1012F0008A00301A41192278601C00EBC20041605C
:101300002078401C207000BF2078082804DB04F0FF
:10131000FFFE002600202070002700BF3748B0F9EC
:101320000800F9000841C2B23046711CCEB22A54FE
:10133000781CC0B207460228F0D32F48B0F87410CA
:101340002278601C00EBC20001802B4890F87610D8
:101350002278601C00EBC2004180274890F876009C
:10136000301A41192278601C00EBC20041602078DD
:10137000401C207000BF22480078282190FBF1F229
:1013800001FB1200B0BB00201D490870207808281E
:1013900004DB04F0BDFE002600202070002700BF03
:1013A000F90001200841C2B23046711CCEB22A5465
:1013B000781CC0B2071EF3D00F48B0F8B8102278DE
:1013C000601C00EBC20001800B4890F8BA10227834
:1013D000601C00EBC2004180074890F8BA00301A48
:1013E00041192278601C00EBC20041602078401C4B
:1013F000207000BFBDE8F081947600085C080020F2
:101400001200002010B5AEB00024242101A8FEF780
:1014100026FFC820ADF80400AA48AB4941F83400C3
:10142000AA48807E01EBC4010871A848018B9DF891
:1014300006200DF1070000EB82000180A348817EA9
:101440009DF806200DF1070000EB820041809DF819
:101450000600401CC0B28DF80600641C9948801C30
:10146000994941F83400994890F84E0001EBC401C5
:1014700008719648B0F84C109DF806200DF1070051
:1014800000EB82000180914890F84E109DF80620F4
:101490000DF1070000EB820041809DF80600401C22
:1014A000C0B28DF80600641C8648001D864941F8CC
:1014B0003400864890F87A0001EBC4010871834833
:1014C000B0F878109DF806200DF1070000EB8200BF
:1014D00001807E4890F87A109DF806200DF10700F3
:1014E00000EB820041809DF80600401CC0B28DF8E0
:1014F0000600641C7348801D734941F8340073482A
:1015000090F8A60001EBC40108717048B0F8A4106F
:101510009DF806200DF1070000EB820001806B486A
:1015200090F8A6109DF806200DF1070000EB820050
:1015300041809DF80600401CC0B28DF80600641C76
:101540000DAA01A9532002F053F90AAA0DA940F6E9
:10155000012000F093FC0AA805F050FA142002F0D4
:101560000DFB242101A8FEF77AFE4FF47A70ADF846
:101570000400082453481830534941F834005348B4
:1015800090F8B60001EBC40108715048B0F8B410EF
:101590009DF806200DF1070000EB820001804B480A
:1015A00090F8B6109DF806200DF1070000EB8200C0
:1015B00041809DF80600401CC0B28DF80600641CF6
:1015C00040480A30404941F83400404890F8C20091
:1015D00001EBC40108713D48B0F8C0109DF8062029
:1015E0000DF1070000EB82000180384890F8C2102E
:1015F0009DF806200DF1070000EB820041809DF868
:101600000600401CC0B28DF80600641C2D480C304A
:101610002D4941F834002D4890F8C60001EBC40173
:1016200008712A48B0F8C4109DF806200DF1070093
:1016300000EB82000180254890F8C6109DF8062036
:101640000DF1070000EB820041809DF80600401C70
:10165000C0B28DF80600641C1A480E301A4941F8D1
:1016600034001A4890F8BE0001EBC4010871174815
:10167000B0F8BC109DF806200DF1070000EB8200C9
:101680000180124890F8BE109DF806200DF1070069
:1016900000EB820041809DF80600401CC0B28DF82E
:1016A0000600641C0DAA01A9732002F0A1F80AAA81
:1016B0000DA940F6012000F0E1FB0AA805F09EF913
:1016C0002EB010BD800800202C0400209476000865
:1016D0000848094908608020088100208880C88067
:1016E0000648074908608020088100208880C8805B
:1016F00070470000480F00203C0F0020BC0E002067
:10170000B00E00202DE9F04186B004460F46154684
:1017100000264FF00308B4F5006F04D201940020B6
:101720008DF80C0003E0029404208DF80C00082DC5
:1017300000DD082500208DF80D008DF80E502A469A
:1017400039460DF10F00FEF771FD06E001A90B48C7
:1017500001F0ECFD8046701C86B2B8F1030F03D196
:1017600040F6FF708642F1DB40F6FF70864203DBF5
:10177000002006B0BDE8F0810120FAE700640040D7
:101780002DE9F04104460D464FF0000835B9002020
:10179000BF4908710120C87000BF76E10020BC4934
:1017A000887002204870A0780870A078012804D0C2
:1017B000062815D0072872D124E1B6480078E070D9
:1017C000B44840782071B348807860710021A171DD
:1017D000E17103212172062020704FF0010853E1CE
:1017E0002078112844D16079022841DAE6782779F7
:1017F0000F227F21304602F07BF8C6B20F227F21F4
:10180000384602F075F8C7B2A3484672877260790D
:1018100000F00100A049C870A07900F00300087131
:10182000E07900F007008871207A00F00300C871A9
:10183000607A00F003000872A07A00F00700C87216
:10184000E07A00F003008873207B00F00100087349
:10185000607B00F001004871A07B00F00100C873BC
:10186000E07B00F001000874207C00F00100487467
:101870008748C07E00287DD18748407A8449C88047
:101880008548807A088184488079032802D004281A
:101890000BD105E04FF6D4608049088109E0F2E001
:1018A0004FF496707D49088103E000207B49088150
:1018B00000BF00BF7648007C01282ED17448C07C50
:1018C00075490979884228D17148C07D7249C97A21
:1018D000884222D16E4890F829006F49897B88425E
:1018E0001BD16B4890F828006B494979884214D184
:1018F000674890F82A006849C97B88420DD164483E
:1019000090F82B006449097C884206D1604890F821
:101910002C006149497C884273D05D48C07C5E4997
:10192000097988420DD05B48008950B959484089EF
:1019300038B95848007B00F0010080F00100574999
:1019400008735348C07D5449C97A88420BD0524825
:10195000C07A012807DB5048C07A052803DC4E48CE
:10196000C07A4B49C8754A4890F829004A49897B92
:10197000884200E045E00CD04748807B012808DB26
:101980004548807B032804DC4348807B404981F83C
:1019900029003F4890F828003F494979884206D0FD
:1019A0003D48407900F00100394981F82800384865
:1019B00090F82A003849C97B884206D03648C07B57
:1019C00000F00100324981F82A00314890F82B00DC
:1019D0003149097C884206D02F48007C00F0010084
:1019E0002B4981F82B002A4890F82C002A49497C81
:1019F000884206D02848407C00F00100244981F844
:101A00002C0000BF45F27860214908620120E07097
:101A10000846C17C2171C17D61710021A171E17114
:101A200090F82910217290F82810617290F82A100D
:101A3000A17290F82B10E1720121217390F82C1003
:101A40006173007FA0730021E173114890F82410A6
:101A50002174417F6174006A000EA0740C48006A12
:101A6000010CE1740A48008C010A2175084890F8BD
:101A7000201061750021A175E17521761620207076
:101A80004FF0010800E000BF00BF4046BDE8F08114
:101A90002C0800207C080020AE0800205C080020F4
:101AA00070472DE9F04107460C4615461E46234671
:101AB00032462946384602F0C2FFBDE8F0810000F8
:101AC00010B588B004460421384802F033F938488C
:101AD00001900020039001208DF81E00002004904A
:101AE00002904FF400500690002005908DF81C00E5
:101AF00001208DF81D0001AA04212C4802F05EF996
:101B000004212A4802F0B0F80421284802F0FFF925
:101B10000221264802F00EF925480190002003908A
:101B20008DF81E00049002904FF4005006900020A3
:101B300005908DF81C0001208DF81D0001AA0221DE
:101B40001A4802F03BF90221184802F08DF80221F0
:101B5000164802F0DCF922461549091F40F21370BD
:101B600000F066FB00220521342004F035F84FF424
:101B700041710F48001F05F079FA0D48001F05F06C
:101B800061FA0221094802F03DF880210848001F4F
:101B900005F050FA0221054802F034F840210448CB
:101BA000001F05F03FFA08B010BD0000000402401D
:101BB000044C004000BFBFF34F8F0748006800F49B
:101BC000E06006490843001D03490860BFF34F8FDA
:101BD00000BF00BFFEE700000CED00E00000FA05CA
:101BE0002DE9F0410446062C23DA0026FF270025C4
:101BF00008E0284600F030F810B1701CC6B22F463D
:101C0000681CC5B2062DF4DB012E02DD012011494E
:101C1000087016B900200F490870012E07D1A7429D
:101C200005D10C48007810B90120BDE8F0810020F2
:101C3000FBE7062C0BD1032000F00EF828B104209E
:101C400000F00AF808B10120EFE70020EDE70020DE
:101C5000EBE700002A00002001460348405C08B979
:101C6000012070470020FCE72400002010B502F09E
:101C70005BFE002010BD0146CA880B899A4206DD32
:101C80000A894B891A44CB88D21A8A8003E00A89D0
:101C9000CB88D21A8A80888870470023036043600B
:101CA0008360C360016042818380C38003810373CA
:101CB00070472DE9F04104460F46154600262046A0
:101CC000FFF7D9FFA84201DB207B10B10020BDE85F
:101CD000F081E08828446189884212DD6089E188CA
:101CE000401A86B2E2882068811832463846FEF7EC
:101CF0009DFA0020E080A088801BA080A81B85B2F0
:101D00003744E288206881182A463846FEF78EFA62
:101D1000E0882844E080A088401BA0800120D6E70E
:101D20002DE9F04104460F46154600266089A1883A
:101D3000401AA8422BDB01202073208928446189A6
:101D4000884212DD60892189401A86B22289216881
:101D5000881832463946FEF769FA00202081A088AB
:101D60003044A080A81B85B2374422892168881896
:101D70002A463946FEF75AFA208928442081A0884D
:101D80002844A08000202073E8B2BDE8F081002044
:101D9000FBE7000010B504462246044940F21470E7
:101DA00000F046FA014805F04DF910BD0050004022
:101DB0001FB540F20B6004F039FC134804F038FF03
:101DC0007720ADF800000020ADF80200ADF8040067
:101DD000092002900020ADF806008DF80C0069463D
:101DE000094804F099FF00220221192003F0F4FEB3
:101DF0000121054804F0DCFF034804F013FF02480A
:101E000004F084FF1FBD0000002C014000BFFEE76E
:101E1000704770B504460D466088212800D970BD12
:101E20006288211D2846FEF701FA00BFF7E730B5AA
:101E30000346002218790870521C002019E0082877
:101E400000DB19E04C1C04EBC0051C1D1444246885
:101E50002C60141DA2B21C1DA5184C1C04EBC00460
:101E600065604C1C04EBC00464881444A2B2441C9A
:101E7000E0B20C788442E2DC00BF30BD10800B7809
:101E800093704B88093393804B1C9360704700001C
:101E900010B580210348FEF7E2F980210248FEF7E1
:101EA000DEF910BD2C060020AC06002010B5002085
:101EB0002049C870087108704870887048717F2088
:101EC000C8800881002008740846007C48740020FF
:101ED00048750120C875002048760877C87681F8D3
:101EE0002A0081F82C0001204877134800887F28B9
:101EF00003D1114840887F2805D00E48C06840F0C3
:101F000004000C49C86000200C498880C880088102
:101F10000B49087001204870002088701221094880
:101F2000FEF79DF97F2007494872887200204874A7
:101F300010BD00002C080020180000205C080020C4
:101F40007C080020AE08002010B530210A48FEF7BA
:101F500086F920210948FEF782F920210848FEF77A
:101F60007EF912210748FEF77AF912210648FEF79A
:101F700076F9FFF79BFF10BD2C0800205C080020BD
:101F80007C0800209C080020AE08002070B586B0B8
:101F900006460C4615460020ADF80E00ADF81000C0
:101FA0000120ADF81200C4F30A04C5F30A054FF688
:101FB000FF7000EA4410ADF804000020ADF8060000
:101FC0004FF6FF7000EA4510ADF808000020ADF8AC
:101FD0000A000120ADF80C008DF8140001A801F0F2
:101FE00015F806B070BD10B505F0CCF9012801D088
:101FF00005F0AEF910BD000008B52648006840F4B1
:102000007000244908602448006840F0010022491B
:10201000086000BF2048006800F002000028F9D0E6
:1020200000BF1D48406840F080001B494860002008
:10203000009002E00098401C009000985028F9D3CE
:102040001548406840F09000134948600020009017
:1020500002E00098401C009000985028F9D300BF7F
:102060000D48406820F003000B49486008460068AE
:102070000A490840084908604FF41F008860084674
:10208000006820F48020086000204860C86204F0E6
:10209000B1FD08BD88ED00E000100240FFFFF6FE34
:1020A00010B50121454804F08AFE00287ED044483E
:1020B0000068401C42490860084600681421B0FBD3
:1020C000F1F201FB120028B93E484078022801D005
:1020D00004F06CFC3A4800680921B0FBF1F201FB06
:1020E000120008B902F022F8354800686421B0FBFC
:1020F000F1F201FB120040B903F066F930480079B3
:1021000020F00100401C2E4908712D4800684FF452
:102110007A71B0FBF1F201FB120030B92848007966
:1021200020F00400001D26490871254800684FF47E
:10213000FA61B0FBF1F201FB120030B920480079DE
:1021400020F0080008301E4908711D48006842F25E
:102150001071B0FBF1F201FB120030B918480079A0
:1021600020F010001030164908711548006844F638
:102170002061B0FBF1F201FB120030B91048007988
:1021800020F0200020300E4908710D4800680E49EB
:10219000B0FBF1F201FB120050B90948007920F0C0
:1021A0004000403006490871002000E004E008606B
:1021B0000121024804F000FE10BD0000002C014087
:1021C0002C0000202C080020A086010010B5134927
:1021D000134804F065FF00B30221124801F0CFFE5E
:1021E000C0F14000C4B202210E4801F00BFD2246AE
:1021F0000D490E48FFF794FD40220221094801F0E5
:10220000ABFE0221074801F016FD054804F0B8FEB8
:102210000249034804F037FF00BF10BD0403040067
:10222000004C004000040240740A0020B40B00205F
:1022300070B506460C461546304604F0F7F92046C0
:1022400004F0A8FE2946204604F052FE0021204654
:1022500004F042FF0021204604F05EFF00212046EA
:1022600004F04AFF0421204604F03EFF08212046E6
:1022700004F04AFF70BD704710B51349134804F0CD
:102280000FFF00B30521124801F079FEC0F14000B4
:10229000C4B205210E4801F0B5FC22460D490E4896
:1022A000FFF73EFD40220521094801F055FE0521BA
:1022B000074801F0C0FC054804F062FE02490348EB
:1022C00004F0E1FE00BF10BD040304000044004020
:1022D00000000240C0080020000A002000BFFEE706
:1022E00010B588B004463020079003211C4801F047
:1022F00021FD1C48009007A8029001208DF81A00CB
:1023000000200390019005900120049000208DF89A
:10231000180001208DF819006A460321104801F0C9
:102320004DFD03210E4801F09FFC03210C4801F0F4
:10233000EEFD22460B49091F40F20E60FFF778FFC1
:102340000848001F04F07EFE0321054801F073FCDD
:1023500080210448001F04F06DFE08B010BD00008D
:1023600000000240043801400FB4054B10B503A92A
:10237000044A029800F02CF810BC5DF814FB000031
:1023800001490008A40000200FB4084B10B504A9AF
:1023900002AA039800F01CF8044602A9002000F0ED
:1023A000F3F8204610BC5DF814FB000089250008F6
:1023B00002E008C8121F08C1002AFAD1704770470E
:1023C000002001E001C1121F002AFBD1704700006C
:1023D0002DE9FF4F8BB09A460F460546002606E0D2
:1023E00025280BD052460D9990476D1C761C2878F5
:1023F0000028F5D10FB03046BDE8F08F0024A0468C
:102400000122604900E0044315F8013F203B02FA35
:1024100003F00842F7D128782E2817D115F8010FBC
:1024200044F004042A280ED06FF02F022878A0F17F
:10243000300109290AD808EB880102EB410100EBC1
:1024400001086D1CF2E757F8048B6D1C2878692889
:102450003ED006DC0028CDD063280BD0642804D100
:1024600036E0732810D075284BD052460D9990470E
:10247000761C85E017F8040B8DF8000000208DF81D
:102480000100E946012003E057F8049B4FF0FF30BC
:1024900061074FF0000401D40AE0641C44450DDAE2
:1024A0008442FADB19F804100029F6D106E0641C16
:1024B0008442FCDB19F804100029F8D1264404E01A
:1024C00019F8010B52460D999047641EF8D257E057
:1024D00001CF4FF00A0B002802DA40422D2102E022
:1024E000210504D52B218DF82410012103E0E107FB
:1024F00005D02021F7E70DF1200908910CE000211B
:10250000F9E701CF4FF00A0BF9E75946FDF7B9FE9D
:1025100001F1300209F8012D0028F6D1ADEB0900D8
:1025200000F1200B600701D44FF00108D84502DD0F
:10253000A8EB0B0000E000208046002406E009A87C
:102540005246005D0D999047641C761C08988442A1
:10255000F5DB04E0302052460D999047761CB8F127
:102560000001A8F10108F5DC05E019F8010B52465D
:102570000D999047761CBBF10001ABF1010BF4DC27
:102580006D1C34E7092801000A68531C0B601070A9
:102590007047816841F00801816000BF816801F0E7
:1025A00008010029FAD1816841F00401816000BF6F
:1025B000816801F004010029FAD1704730B5012982
:1025C00002D002291AD10CE0C36A23F47003C3625B
:1025D000C36A541E4FF4700505EA04542343C362D2
:1025E0000DE0836B23F440138363836B541E4FF41D
:1025F000401505EA04542343836300E000BF00BF95
:1026000030BD000010B540F2096004F00FF81F481B
:1026100000F04AF8002000F0B9F8012202211B481E
:1026200000F027F901221102184800F022F90021D8
:10263000164800F02DF8022201211448FFF7BEFFD2
:10264000052300221146114800F0AEF805230122AF
:1026500011460E4800F0A8F84FF4602201210B4803
:1026600000F07BF801221146084800F057F80748AF
:1026700000F046F8054800F048F80448FFF789FFE5
:102680000121024800F0E6F810BD000000240140DE
:1026900021B1826842F40062826003E0826822F421
:1026A000006282607047000010B504461348204461
:1026B00030B1B0F5806F0CD0B0F5C05F1BD111E028
:1026C00040F2093003F0D2FF40F2093003F0BEFFC0
:1026D00012E040F20A3003F0C9FF40F20A3003F082
:1026E000B5FF09E040F20F3003F0C0FF40F20F30B9
:1026F00003F0ACFF00E000BF00BF10BD00DCFEBF78
:10270000816841F4807181607047816801F0010146
:1027100019B9816841F001018160704772B101F01F
:1027200001031BB1836843F48013836001F002034B
:1027300093B1836843F4004383600DE001F001032B
:102740001BB1836823F48013836001F002031BB183
:10275000836823F4004383607047012902D0022973
:1027600010D107E0836823F46023836083681343F8
:10277000836008E0836823F4E04383608368134345
:10278000836000E000BF00BF704700000549096892
:1027900021F47021034A1160114609680143116058
:1027A0007047000004240140F0B51D4606290CD2F4
:1027B000436B01EB81071F26BE40B34301EB81064B
:1027C00002FA06F63343436322E00C290ED2036B70
:1027D0008E1F06EB86071F26BE40B3438E1F06EBF7
:1027E000860602FA06F63343036311E010290FD27E
:1027F000C36AA1F10C0606EB86071F26BE40B34351
:10280000A1F10C0606EB860602FA06F63343C36214
:102810000A2A0CD2046902EB42070726BE40B443E1
:1028200002EB420605FA06F63443046111E0122A6F
:102830000FD2C468A2F10A0606EB46070726BE407F
:10284000B443A2F10A0606EB460605FA06F634433F
:10285000C460F0BD01F001021AB1826842F4800246
:10286000826001F002021AB1826842F400128260B2
:102870007047AAB101F480731BB1436843F48073BD
:10288000436001F480631BB1436843F48063436099
:1028900001F00203CBB1836843F00203836014E0CC
:1028A00001F480731BB1436823F48073436001F427
:1028B00080631BB1436823F48063436001F002032B
:1028C0001BB1836823F00203836070472DE9F34F47
:1028D00083B00F46387805287ED13D1DA87808289A
:1028E00003DD002005B0BDE8F08F00210EE0E81CFC
:1028F00000EB81000288E81C00EB81004088104456
:10290000602801DD0020EDE7481CC1B2A8788842AC
:10291000EDDCDD48D0F800903AE1A9F10C0ABAF8F4
:102920000010039881426FD1DAF804000290C4E0ED
:102930000298A0F10C047878217888427AD16088D6
:1029400000285BD1288828B1A06803F0D3FE0020BE
:10295000A06095E000200190834600BF09E0616817
:1029600001EB80014A880199114489B20191411C0F
:10297000C8B261788142F2DC002008E0E91C01EB7A
:102980008001498859441FFA81FB411CC8B2A978CB
:102990008142F3DC0198584508D05946A06803F0FD
:1029A0007DFFA060A06808B900209BE70020009090
:1029B00080461EE0D4F808C0009B0CEB0302EB1C21
:1029C00003EB88035988EB1C03EB8803188803F09A
:1029D0005DFE401C08B90FE054E1E81C00EB8800E4
:1029E00041880098084480B2009008F1010000F08E
:1029F000FF08A8784045DDDC00BF41E0288870BBB7
:102A00000020019000BF0AE0C0E0E91C01EB80015A
:102A10004A880199114489B20191411CC8B2A97830
:102A20008142F2DC019803F097FEA060A06810B923
:102A3000002057E73EE04FF0000BD8461BE0A368AC
:102A400003EB0B02EB1C03EB88035988EB1C03EB35
:102A50008803188803F01AFE401C08B90EE00FE046
:102A6000E81C00EB8800408858441FFA80FB08F1FE
:102A7000010000F0FF08A8784045E0DC00BF00BF7F
:102A8000A878617888420BD0A8786070627891004D
:102A9000606803F003FF6060606808B9002021E708
:102AA0002888608061788A00E91C6068FDF7BEFBB9
:102AB000032017E70298006802900AF104010298C7
:102AC00088427FF435AF142003F046FE04460CB96B
:102AD000002007E77878207028886080A8786070E8
:102AE0006178880003F038FE6060606808B90020F3
:102AF000F8E661788A00E91C6068FDF797FB0AF147
:102B0000040104F10C0002F02DFD2888E0BB002038
:102B1000019000BF09E0E91C01EB80014A8801999E
:102B2000114489B20191411CC8B2A9788142F2DCFA
:102B3000019803F011FEA060A06808B90020D1E65A
:102B40004FF0000BD8461AE0A36803EB0B02EB1C16
:102B500003EB88035988EB1C03EB8803188803F008
:102B600095FD401C00B90DE0E81C00EB8800408892
:102B700058441FFA80FB08F1010000F0FF08A87814
:102B80004045E1DC00BF00BF0220ABE6D9F8009071
:102B90003D4881457FF4C1AE142003F0DDFD0646BB
:102BA0000EB900209EE6301D00BF00BF006000BFD0
:102BB000406000BF03983080334906F10C0002F0FA
:102BC000D1FC142003F0C8FD04460CB9002089E6AE
:102BD0007878207028886080A87860706178880094
:102BE00003F0BAFD6060606808B900207AE6617899
:102BF0008A00E91C6068FDF719FB311D04F10C0027
:102C000002F0B0FC2888D8BB4FF0000B002008E091
:102C1000E91C01EB8001498859441FFA81FB411CE2
:102C2000C8B2A9788142F3DC584603F095FDA06054
:102C3000A06808B9002055E64FF0000AD0461AE017
:102C4000A36803EB0A02EB1C03EB88035988EB1C17
:102C500003EB8803188803F019FD401C00B90DE050
:102C6000E81C00EB8800408850441FFA80FA08F105
:102C7000010000F0FF08A8784045E1DC00BF00BF7C
:102C800001202FE600202DE6F0030020F8B50546D0
:102C900000260024002000902889001D86B2942E72
:102CA00000DDF8BD45F65A202880204820442988B8
:102CB0000180A01C84B21D482044A9880180A01C6A
:102CC00084B2A87919490855601C84B200200855BF
:102CD000601C84B20846011928890880A01C84B2AF
:102CE0002889801FC4F18A01884206DC2B899A1F3B
:102CF0000E4B1819E968FDF799FA2889801F2044BE
:102D000084B2A01EC1B20948801C00F0CBFD009027
:102D100006482044BDF800100180A01C84B203497D
:102D2000204600F018F800BFBBE700009013002019
:102D300007B56846FDF740FD0EBD70B505460C466B
:102D400003E014F8010B02F0E9FD281EA5F10101D2
:102D50008DB2F6D170BD70B504460D4621462846A9
:102D600000F028FC00F086FC70BD00001548C07E15
:102D700020B17F201349C880088122E011484078A3
:102D8000F8B91048007B00F0040088B17F200D499D
:102D9000C88008810C4800887F2812D10A484088E2
:102DA0007F280ED10846C06820F00400C86008E003
:102DB0000548008800B20349C8800348408800B233
:102DC000088170472C0800201800002070B50546C7
:102DD00005EB8500304901EB40042846FEF700FF73
:102DE00000283ED02078052802DA0520207052E025
:102DF00020780A2803DA2078401C20704BE0A07964
:102E000038B90120A07105EB4501491CC8B200F09A
:102E10007FF8A08800283EDD6088A18888420DDA0E
:102E20006088401C80B26080A188884233D105EB65
:102E30004501C91CC8B200F06BF82CE0E07900280D
:102E400029DD207A401CC0B22072E179884222DB61
:102E50000020207205EB4501491CC8B200F058F86B
:102E600019E02078052802DD0520207010E0207888
:102E700018B12078401E20700AE0A079012807D1FF
:102E80000020A07105EB4501891CC8B200F040F894
:102E900000206080207270BD100A00200021134ABB
:102EA0009172D172117300201DE0C82100EB8002E5
:102EB0000F4B03EB42029180022100EB800203F8EA
:102EC0001210002100EB800203EB4202917100EB33
:102ED000800203EB4202D17100EB800203EB42025D
:102EE0001172411CC8B20728DFDB7047560A002068
:102EF000100A002010B5FEF7B9FE002404E02046B9
:102F0000FFF764FF601CC4B2072CF8DB10BD0000A3
:102F10000649C97A054A50541146C97A491CC9B2B2
:102F2000D1720A2901DB0021D1727047560A0020B4
:102F30001CB54FF4807217491748FEF7AEFE052105
:102F4000164800F05FFE40220521144801F004F805
:102F5000134A0521114800F0C8FF05210F4800F071
:102F60006AFE10A103C9CDE9000106210B4800F05B
:102F700049FE05220621094800F0EEFF6A460621B7
:102F8000064800F0B2FF0621044800F054FEFDF7A9
:102F9000F5FA1CBD00090020000A002000000240D4
:102FA000C008002041540D0A0000000010B50123A4
:102FB000102204210A48FEF774FD01231022082183
:102FC0000748FEF76EFD0123182204210548FEF78D
:102FD00068FD0123042208210248FEF762FD10BDAE
:102FE00000100140000801407047000010B5044681
:102FF0000548844207D140F2194003F037FB40F204
:10300000194003F023FB10BD0064004010B50021FF
:10301000837A012202FA03F13E4A126842F0010269
:103020003C4B1A603B4A1C3212688A43394B1C33B2
:103030001A60C289DAB9374A0C3212688A43354BB2
:103040000C331A60C288344B03EA024243881A43A5
:103050004389304C403444F8332082882E4B03EAB5
:10306000024203881A43438904EBC3035A60C289AE
:10307000012A1BD1274A0C3212680A43254B0C3314
:103080001A600288244B03EA024243881A434389A8
:10309000204C403444F8332082881F4B03EA02421C
:1030A000C3881A43438904EBC3035A6082893AB93F
:1030B000184A121D12688A43164B1B1D1A6006E03F
:1030C000144A121D12680A43124B1B1D1A60028912
:1030D0003AB9104A143212688A430E4B14331A60FC
:1030E00006E00C4A143212680A430A4B14331A6081
:1030F000027C012A06D1074A1C3212680A43054B9A
:103100001C331A60034A126822F00102014B1A6054
:1031100010BD0000006600400000FFFF70B50246D1
:103120004FF6FF730020146824F002041460146842
:1031300044F00104146000E05B1E546804F00104D4
:103140000CB9002BF8D1546804F001040CB900202C
:1031500074E00C784FF0404505EA84744D784FF0E8
:10316000407606EA05652C438D784FF4702606EA12
:1031700005452C43CD784FF4E00606EA05552C436F
:103180004D896D1EC5F309052C43D4610C79012CC2
:1031900004D1146844F08004146003E0146824F03F
:1031A000800414604C79012C04D1146844F040046C
:1031B000146003E0146824F0400414608C79012C3E
:1031C00004D1146844F02004146003E0146824F06F
:1031D00020041460CC79012C04D1146824F010046C
:1031E000146003E0146844F0100414600C7A012C9D
:1031F00004D1146824F00804146003E0146844F057
:10320000080414604C7A012C04D1146844F00404BE
:10321000146003E0146824F004041460146824F0BB
:10322000010414604FF6FF7300E05B1E546804F065
:1032300001040CB1002BF8D103B1012070BD42692B
:103240000A434261704710B500F5D87303EB0113D0
:103250001B6803F004031372137A3BB900F5D873AB
:1032600003EB01131B685B0D136006E000F5D873D8
:1032700003EB01131B68DB08536000F5D87303EB05
:1032800001131B6803F00203537200F5DA7303EBBA
:1032900001131B681B0AD37400F5DA7303EB0113E7
:1032A0001B6803F00F03937200F5DC7303EB01134B
:1032B0001B68D37200F5DC7303EB01131B681C0A57
:1032C000147300F5DC7303EB01131B681C0C5473BF
:1032D00000F5DC7303EB01131B681C0E947300F5FF
:1032E000DE7303EB01131B68D37300F5DE7303EB8E
:1032F00001131B681C0A147400F5DE7303EB011341
:103300001B681C0C547400F5DE7303EB01131B687F
:103310001C0E947421B9C36843F02003C36003E01A
:10332000036943F02003036110BD000030B502467D
:103330000B460021906800F08060B0F1806F00D1F2
:1033400010E0906800F00060B0F1006F01D1012141
:1033500008E0906800F08050B0F1805F01D1022158
:1033600000E00321032901D1032030BD02F5C07024
:1033700000EB0110006800F0010402F5C07000EBE2
:1033800001100460187A88B918883B4C04EA405050
:103390005C7A204302F5C07404EB011424682043D6
:1033A00002F5C07404EB0114206013E06FF0070411
:1033B000586804EAC0001C7A20435C7A204302F576
:1033C000C07404EB01142468204302F5C07404EBBC
:1033D0000114206002F5C27000EB0110006820F0BB
:1033E0000F0402F5C27000EB0110046002F5C27018
:1033F00000EB011000689C7A204302F5C27404EBD4
:1034000001142060987B4FF07F4404EA00605C7BED
:103410004FF47F0505EA044420431C7B2D1205EA86
:1034200004242043DC7A204302F5C47404EB011425
:103430002060987C2C0404EA00605C7C2D0205EA84
:10344000044420431C7C2D1205EA04242043DC7B29
:10345000204302F5C67404EB0114206002F5C0702D
:1034600000EB0110006840F0010402F5C07000EBB1
:1034700001100460084678E70000E0FF10B5274817
:10348000FFF7B4FD40F2197003F0D0F840F202608B
:1034900003F0CCF8FEF71CF94FF400630322482137
:1034A0001F4801F0CCFA4FF48053032218211C4826
:1034B00001F0C5FA00220321152002F08DFB194905
:1034C000002000F085F81849012000F081F8002064
:1034D0001449087101204871002088710120C871C9
:1034E00000200872012048720020087048700E20E9
:1034F00088700020C870072048810848FFF70EFE3A
:1035000000224FF4A0611046FEF740FD1121034850
:10351000FFF795FE02F0CCFB10BD000000640040F8
:1035200000080140C80F0020D40F002010B500246F
:1035300000F010F80446002C09DD802C07DA214643
:10354000034800F019F802492046FFF7F6FB10BDCA
:10355000300E00200020074B9988DA88914204DD64
:103560001B8913445B1A98B203E0914201DA531AA3
:1035700098B27047B00E002030B50246002000BF60
:1035800012E00B4B1B680A4CA4881B5D1354084BBC
:103590009B885B1C064C248993FBF4F504FB1533D4
:1035A000034CA380431C98B28842EADB30BD000084
:1035B000B00E002070B504460D460026034A294689
:1035C000204600F0FFF8304670BD00003C0F0020A0
:1035D00010B5024609B900BFFEE732B1012A16D084
:1035E000022A20D0032A41D12EE000234B71CB7157
:1035F0008B7140F2FF334B8100230B724B7002231F
:103600008B700023CB700B714B720B7030E0012379
:10361000CB8100230B740B810B804B808B80CB8084
:103620008B814B8124E0002005E0002401F10B0395
:103630001C54431CD8B20828F7D300238B724B606C
:103640000B724B720B6013E0002005E0002401F1C7
:103650000B031C54431CD8B20828F7D300238B72E9
:103660004B600B72CB744B720B6001E000BFFEE746
:1036700000BF10BD10B5454800F08EF844490880E1
:103680007DE04348008808283ADD404800893F49EA
:103690008988401A84B2082C11DA3C4800683B4AF9
:1036A0009288811822463B48FCF7C0FDC4F108020D
:1036B000364B1968374B1819FCF7B8FD09E0334849
:1036C000006832498988014432480A6802604968C2
:1036D000416008222F494FF4B060FEF713F82C48E0
:1036E000008808382A4908802848808808302749F7
:1036F000098990FBF1F201FB1200244988803DE02A
:103700002248008921498988401A84B220480088CB
:10371000844212DA1D4800681C4A928881182246A9
:103720001C48FCF783FD1A4B1B881A1B174B1968A2
:10373000184B1819FCF77AFD09E014480068134A81
:1037400092888118124802881248FCF76FFD1048D1
:10375000027810494FF4B060FDF7D4FF0B48808821
:103760000B49098808440949098990FBF1F201FBDA
:1037700012000649888000200549088000BF0448DF
:10378000008800283FF77DAF10BD00003C0F0020EF
:103790007A0000207C000020014600208A88CB8827
:1037A0009A4206DD0A89CB881A448B88D21A90B2D5
:1037B00007E08A88CB889A4203DACA888B88D21AB3
:1037C00090B2704770B50346002000BF0DE01C5C4E
:1037D000D6881568AC55D488641C158994FBF5F619
:1037E00005FB1644D480441CA0B28842EFDB70BDB8
:1037F00070B505460E461446052020706570B078F9
:103800008000C01C60806088802801DD002060800E
:1038100062883146201DFCF709FD70BD2DE9F0419D
:1038200007460D4614460420207067700120608012
:103830002878207100262EE06088001D691C01EBAD
:10384000C60149880844802802DD0020608025E008
:103850006188201D0144681C00EBC60000680860F8
:103860006088001D60806B1C03EBC6035A886B1CCC
:1038700003EBC6035968B4F802C0231D0CEB030028
:10388000FCF7D4FC6188681C00EBC6004088084443
:103890006080701CC6B22878B042CDDC00BFBDE8A5
:1038A000F081000010B502460B464FF6FF710AE0AA
:1038B00012F8014B84EA2120C0B2074C34F8100002
:1038C00080EA012081B2181EA3F10104E3B2EFDC0B
:1038D000C84380B210BD0000F001002003484068DA
:1038E00020F020000149486070470000002004E0FB
:1038F0008B1A834202DD831898B206E08B1883424C
:1039000002DA831A98B200E00846704730B58DB0ED
:1039100008211A4801F0F1F8044619A11D48807ADF
:103920001DA209AB13C308921A48407A21A2284964
:10393000B1F9081027A3CDE90431CDE906202448C8
:10394000B0F906002AA23149B1F9061030A3CDE939
:103950000031CDE902202D48B0F9043035A23E49AE
:103960003E48FEF711FD3D48FCF784FC85B2294630
:103970003A4803F09DFA0DB030BD0000000C014044
:10398000706F776572436F6E74726F6C466C6167AF
:1039900000000000AE08002050686F6E655F726521
:1039A00063656976655F706172612E436F6F7264E3
:1039B0005900000050686F6E655F726563656976D7
:1039C000655F706172612E436F6F72645800000012
:1039D0002C08002052656D6F74655F73657474699F
:1039E0006E675F706172612E436F6F726459000081
:1039F00052656D6F74655F73657474696E675F702F
:103A00006172612E436F6F72645800007C08002061
:103A100052656D6F74655F726563656976655F7029
:103A20006172612E77616C6B696E675F737065653B
:103A3000645F520052656D6F74655F72656365699E
:103A400076655F706172612E77616C6B696E675F1E
:103A500073706565645F4C005C770008A800002007
:103A60002DE9F05F82460E464FF0000B30780628B5
:103A700051D12A48076849E0A7F10C05288850452C
:103A800043D14FF000092CE0D5F8048021E0A8F1E3
:103A90000C04301D10F809002178884217D10BF171
:103AA000010000F0FF0B404601F06EFD606802F07F
:103AB00021FE00206060608820B9A06802F01AFE34
:103AC0000020A060204602F015FE002404E0D8F893
:103AD0000080281D8045DAD100BF09F1010000F007
:103AE000FF0970884845CFDC281D0168814201D15B
:103AF000012100E00021012906D1384601F044FDF2
:103B0000284602F0F7FD002503E03F68034887429E
:103B1000B2D100BF00BF5846BDE8F09FF0030020BF
:103B200010B5042003F06AF8104800681049B0FB93
:103B3000F1F0104908700D4800680D49B0FBF1F430
:103B40004FF47A70444301200B4908804FF0E02085
:103B5000006940F002004FF0E0210861084644612E
:103B6000006940F00100086110BD00000400002061
:103B700040420F00000000200200002070B5044603
:103B800003F000FC012810D00B480088844206D3C3
:103B900009480088B4FBF0F5284603F053FB0648BB
:103BA0000088B4FBF0F100FB11444FF47A7104FB80
:103BB00001F000F003F870BD0200002070B503466C
:103BC00000224FF0E02675690D4E367803FB06F4AF
:103BD0004FF0E026B16910E04FF0E026B06988426E
:103BE0000BD0884202D20E1A324402E02E1A0E4442
:103BF00032440146A24200D300E0EDE700BF70BDB1
:103C00000000002070B505460C462146284600F00D
:103C100097F908B900BFFEE704EB8400810005F1C5
:103C20000800405820F0010104EB8400820005F1F7
:103C30000800815070BD70B505460C4621462846E7
:103C400000F07EF908B900BFFEE704EB84008100B4
:103C500005F10800405840F0010104EB84008200A7
:103C600005F10800815070BD70B505460C4621462F
:103C7000284600F065F908B900BFFEE704EB8400B0
:103C8000810005F10800405820F0200104EB840079
:103C9000820005F10800815070BD70B505460C46E4
:103CA0002146284600F04CF908B900BFFEE704EBB6
:103CB0008400810005F10800405840F0200104EB29
:103CC0008400820005F10800815070BD00B587B006
:103CD0004FF4A06002F0AAFC0021134800F02AF87B
:103CE0001248009000208DF8180011480290012021
:103CF0008DF81900000201908000039000208DF8DB
:103D00001A0002200490000305906A46002106482C
:103D100000F054F800210448FFF7BFFF00210248DB
:103D2000FFF789FF07B000BD000002404C240140AE
:103D30001400002070B504460D462946204600F0C8
:103D4000FFF808B900BFFEE705EB8500810004F12C
:103D50000800405820F0010105EB8500820004F1C5
:103D600008008150002105EB8500820004F1080065
:103D7000815005EB8500820004F10C00815005EBB9
:103D80008500820004F11000815005EB850082005F
:103D900004F1140081506068AA000F21914008438B
:103DA000606070BD30B503461C688D0002FA05F5F1
:103DB0002C400CB1012000E0002030BD2DE9F04185
:103DC00004460D4616462946204600F0B9F808B9C3
:103DD00000BFFEE705EB8500820004F110003168AA
:103DE000815005EB8500820004F11400B168815018
:103DF000308A81B205EB8500820004F10C0081500D
:103E000005EB8500810004F10800475827F47C5732
:103E1000F1687068084371690843074305EB850042
:103E2000810004F108004750307E01280ED105EBD7
:103E30008500810004F10800405840F0400105EB86
:103E40008500820004F1080081500DE005EB85003B
:103E5000810004F10800405820F0400105EB850086
:103E6000820004F108008150707E01280ED105EB1C
:103E70008500810004F10800405840F0800105EB06
:103E80008500820004F1080081500DE005EB8500FB
:103E9000810004F10800405820F0800105EB850006
:103EA000820004F108008150B07E70B905EB8500F6
:103EB000810004F10800405820F0100105EB850056
:103EC000820004F1080081500DE005EB85008100BF
:103ED00004F10800405840F0100105EB8500820015
:103EE00004F108008150BDE8F08170B506460C462B
:103EF00015462146304600F023F808B900BFFEE71A
:103F000004EB8400810006F11400455070BD70B5CB
:103F100005460C462146284600F012F808B900BFB5
:103F2000FEE704EB8400810005F10800405820F40E
:103F3000804104EB8400820005F10800815070BDCF
:103F400002460120034B9A4202D1042900DD0020E1
:103F5000704700000004024070B506460C46154646
:103F600021463046FFF7ECFF08B900BFFEE7A9B2D3
:103F700004EB8400820006F10C00815070BD70B526
:103F800005460C4621462846FFF7DAFF08B900BF70
:103F9000FEE704EB8400810005F10C00405870BD81
:103FA00010B540F2026002F041FB40F2036002F003
:103FB0003DFB40F2046002F039FB40F2056002F084
:103FC00035FB4FF4C06002F031FB4FF4A06002F00B
:103FD0002DFB40F2015002F029FBFFF7A1FD4FF449
:103FE000407001F05BFE01210C4800F097FDFFF7E7
:103FF00075FC02F06FF800F051FEFEF7F5FF00F0DF
:104000002DFE02F027FF01F079FAFEF7CFFF00F056
:104010000BFE01F097FD00F01BF810BD0002300010
:1040200010B500200649087006490880064800219E
:10403000016000BF1021054800F0F8FC00BF10BD72
:104040009C0000209E00002095000020000C0140F4
:1040500010B50323042280210A48FDF722FD032323
:10406000482240210748FDF71CFD03231022202190
:104070000448FDF716FD0323102211460148FDF701
:1040800010FD10BD000C014010B54021214800F08A
:1040900034FDC8BB01202049087040211D4800F0B4
:1040A0002CFD80BB1D48007800F0800028B91B481B
:1040B000007840F08000194908701848007800F036
:1040C000400000BB1648008841F2883188421FDB5F
:1040D000134800884CF25031884219DC0F480078B0
:1040E00040F040000D4908700E480021018000207A
:1040F0000D4908700948007800F07F0007490870F2
:1041000000200749088003E0FFE70020024908700B
:1041100010BD0000000C0140A20000209C00002007
:104120009E000020990000209B00002010B5E5486B
:10413000007800F08000D8B1E3480088401CE249D4
:10414000088000BF1021E14800F072FC00BFDE488B
:1041500000884FF6E85188420AD10020D9490870FA
:10416000D949088000BF1021D84800F05FFC00BF8B
:104170008021D64800F0C1FCD54908700846007877
:1041800040B9D4480078401CD24908700020D24978
:10419000087054E1D1480078401CD0490870CE48DE
:1041A0000078002872D10846007802281ADB0846F9
:1041B0000078052816DCC7480078642812DBC5485B
:1041C000007882280EDC0120C54908700020C5490E
:1041D0000870C5490870C5490870C5490870C549C7
:1041E000087023E1BE48007858B3BA480078082820
:1041F00027DBB84800780D2823DCBA480078401C3B
:10420000B8490870084600781728EADDBA480078EF
:104210000028E6D1B4480078B8490870B34800785F
:10422000B7490870B2480078B6490870B1480078BC
:10423000B54908700120B04908700020A8490870ED
:10424000F4E0A7480078002875D0A248007802283A
:1042500071DBA048007807286DDCA2480078182898
:1042600013D2DFE800F00C141B222930373E454CF6
:10427000535A616970777E858C939AA1A8AF9A484A
:10428000007840F0800098490870B7E0D4E0964884
:10429000007840F0400094490870AFE09248007800
:1042A00040F0200090490870A8E08F48007840F066
:1042B00010008D490870A1E08B48007840F008009C
:1042C000894908709AE08848007840F004008649DF
:1042D000087093E08448007840F00200824908703A
:1042E0008CE08148007840F001007F49087085E04B
:1042F0007E48007840F080007C4908707EE07B4872
:10430000007840F040007949087077E077480078FD
:1043100040F020007549087070E07448007840F063
:1043200010007249087069E07048007840F0080099
:104330006E49087062E068E06C48007840F0040064
:104340006A4908705AE06948007840F002006749FD
:10435000087053E06548007840F001006349087038
:104360004CE06348007840F080006149087045E007
:104370005F48007840F040005D4908703EE05C48CE
:10438000007840F020005A49087037E0584800781B
:1043900040F010005649087030E05548007840F071
:1043A00008005349087029E05148007840F00400A3
:1043B0004F49087022E04E48007840F002004C4916
:1043C00008701BE04A48007840F001004849087036
:1043D0004948007890B944480078484908704348F3
:1043E0000078474908704248007846490870012023
:1043F0004149087000203A49087000BF00BF3948A1
:104400000078401C3749087010E0002035490870DA
:1044100033490870344908703449087034490870C9
:1044200001202E49087000202A49087000202949DF
:1044300008700120294908700120274908702E487A
:10444000007868B300202C4908702C4800782F4968
:1044500008702B48007848702A48007888701948FE
:10446000007800F08000E0B11648007800F04000CD
:10447000B8B9224800782649087021480078487069
:104480001E480078234981F82D001D4801782148F5
:1044900080F82E1000200C49088001201E49087069
:1044A0000EE01A4800781A490978884208D117485E
:1044B000407817494978884202D10120164908708E
:1044C00010BD00009C0000209E000020000C014058
:1044D0008400002087000020930000208600002038
:1044E0009400002088000020890000208A0000201D
:1044F0008B0000208C000020910000208D00002007
:104500008E0000208F0000209000002095000020E9
:10451000990000202C0800208500002070B504467A
:104520000D466A0021460248FBF780FE70BD000080
:104530009900002010B5FFF7A7FD18480078012862
:1045400021D100BF2021164800F072FA00BF0020E0
:10455000124908701348807821280BD0222805D0F2
:10456000242802D0282809D108E007E000200E49BD
:10457000C87603E001200C49C87600BF00BF0020C8
:104580000849887008E00548007828B900BF202154
:10459000034800F04BFA00BF10BD0000850000206A
:1045A000000C0140950000202C08002010B500F000
:1045B0004BFB00F06FFB02F03BFCFEF7B9FC00F098
:1045C000F5FAFEF75BFF00F035FF01F0A9FA00F005
:1045D000AAF9FFF725FD02F0FFFB10BD2DE9F04120
:1045E00004460D46164604482718324639462846E2
:1045F000FBF71CFEBDE8F081000006082DE9F0473E
:1046000004460E461746B1460F4804EB000800F07A
:10461000F9F84FEAD821C80200F082F800250CE032
:10462000094A22445019D9F8001000F00DF908F198
:10463000040809F10409281DC5B2BD42F0DB00F0F1
:1046400059F8BDE8F08700000000060800B50346F1
:10465000012200BF00F00CF802465B1E012A01D1C6
:10466000002BF7D1012A00D10422104600BD000022
:1046700000200A49C96801F0010109B101200CE0DC
:104680000649C96801F0100109B1032005E003499A
:10469000C96801F0040101B1022070470020024006
:1046A00000B50346012200BF00F00CF802465B1E75
:1046B000012A01D1002BF7D1012A00D10422104692
:1046C00000BD000000200A49C96C01F0010109B1D8
:1046D00001200CE00649C96C01F0100109B103206A
:1046E00005E00349C96C01F0040101B102207047E3
:1046F000002002400848006940F080000649086137
:1047000006480088B0F5007F04D90846006D40F0E7
:10471000800008657047000000200240E0F7FF1F9E
:1047200030B5054633480088B0F5007F44D932489B
:1047300085421CD23148FFF789FF0446002C56D130
:104740002F48006940F002002D4908610846456184
:10475000006940F0400008612848FFF777FF0446F1
:104760002748006920F00200254908613FE02348FE
:10477000FFF796FF0446002C39D12148006D40F028
:1047800002001F49086508464565C06900F002003F
:1047900008B1084645611A48006D40F040001849CC
:1047A00008651648FFF77CFF04461548006D20F0A9
:1047B0000200134908651AE01048FFF747FF044656
:1047C000ACB90F48006940F002000D490861084685
:1047D0004561006940F0400008610848FFF736FF76
:1047E00004460748006920F0020005490861204698
:1047F00030BD0000E0F7FF1FFFFF07080000FF0FBC
:10480000002002400C48006900F0800020B10B48F5
:10481000094948600A4848600A480088B0F5007FA6
:1048200009D90548006D00F0800020B10348024915
:1048300048640348486470470020024023016745EC
:10484000AB89EFCDE0F7FF1F70B504460D4600269B
:1048500027480088B0F5007F31D92648844217D216
:104860002548FFF7F3FE0646002E3ED12348006997
:1048700040F001002149086125601F48FFF7E6FE6E
:1048800006461E48006920F001001C4908612CE022
:104890001948FFF705FF06463EBB1848006D40F07B
:1048A00001001649086525601348FFF7F9FE064622
:1048B0001248006D20F001001049086515E00E480F
:1048C000FFF7C4FE064686B90C48006940F00100B7
:1048D0000A49086125600848FFF7B8FE0646074800
:1048E000006920F0010005490861304670BD0000F4
:1048F000E0F7FF1FFFFF07080000FF0F0020024046
:1049000070B504460D4600BF0721054802F09FFB25
:104910000028F9D02146024802F037FB204670BD3E
:10492000004800407047704710B54FF4807113483D
:1049300000F0E3F8124908704FF48071114800F05C
:10494000DCF80F4948704FF400710C4800F0D5F8BE
:104950000B4988708021094800F0CFF80849C870D9
:104960004FF48041084800F0C8F80549087140211B
:10497000024800F0C2F80249487110BD0010014021
:104980002400002000080140000C01402DE9F84FF0
:1049900082468B4614460720207084F801B001201F
:1049A0006080002020712048D0F8008035E0A8F118
:1049B0000C09B9F8000050452DD10125D9F8047033
:1049C00023E0A7F10C062079401C20713178201DCE
:1049D0004155681C85B2201D2844009071880098BC
:1049E0000180A81C85B27178201D4155681C85B2D4
:1049F00073789A00231D58197168FBF717FC7078BB
:104A0000042111FB005085B23F6809F10400874280
:104A1000D7D1658004E0D8F8008003488045C6D12E
:104A200000BFBDE8F88F0000F0030020416170472F
:104A3000016170470AB1016100E041617047F0B562
:104A4000044616460025002201F00F0501F010076C
:104A500047B1042E05D145F00305E76B1F43E7631B
:104A600000E0354300201EE0012787401F40C7B10A
:104A700022684FEA800C0F2707FA0CF7BA43870029
:104A800005FA07F73A43282904D1012787401F4038
:104A9000676105E0482903D1012787401F4027614E
:104AA0002260471CB8B20828DED3082022E0012784
:104AB00087401F40E7B16268A0F108074FEA870C02
:104AC0000F2707FA0CF7BA43A0F10807BF0005FA51
:104AD00007F73A43282904D1012787401F4067611F
:104AE00005E0482903D1012787401F402761626004
:104AF000471CB8B21028DAD3F0BD024690680840CF
:104B000008B1012070470020FCE70246D068084049
:104B100008B1012070470020FCE70000F0B50A460C
:104B2000002300240021002500F00046B6F1004FCC
:104B300002D11D4EF16901E01B4E7168C0F30345BF
:104B400083B200F44016B6F5401F08D121F0E061B1
:104B5000154E766826F0E066134F7E6012E000F492
:104B60008016B6F5801F06D1032606FA05F4A14388
:104B700041F0E06106E0460D360103FA06F6B14366
:104B800041F0E06122B1460D360103FA06F63143E9
:104B900000F00046B6F1004F02D1034EF16101E092
:104BA000014E7160F0BD0000000001400EB54FF4F1
:104BB000807216491648FDF770F816A207CA8DE8EC
:104BC000070004211648FFF71DF8092204211448A4
:104BD000FFF7C2F96A4604211148FFF786F904215C
:104BE0000F48FFF728F802210D48FFF70BF8402285
:104BF00002210B48FFF7B0F90A4A02210848FFF7E3
:104C000074F902210648FFF716F80EBDB40A002019
:104C1000B40B0020444D4120746573740000000003
:104C200000040240740A002010B5012318229902E2
:104C30000448FCF736FF0123042251020148FCF727
:104C400030FF10BD0010014010B57F200249C88020
:104C50000881FBF76AFB10BD2C08002010B501236A
:104C6000002219460A48FCF71CFF012300220221FA
:104C70000748FCF716FF0123102211460448FCF7F1
:104C800010FF002210210248FFF7D4FE10BD0000E3
:104C90000008014010B5FEF701F910BD10B503235F
:104CA000042291011048FCF7FCFE03230422910129
:104CB0000E48FCF7F6FE03230422D1010A48FCF754
:104CC000F0FE0323042280210748FCF7EAFE0323B9
:104CD000042211030648FCF7E4FE032304224021CA
:104CE0000148FCF7DEFE10BD001001400008014045
:104CF000000C014008B500F037F8044806230522EF
:104D000000210090042000F0B1F808BD40760008B2
:104D100038B500F029F81248007F0A2190FBF1F025
:104D200000EB40000F4901EB40040623052200215F
:104D30000120009400F09AF80948007F0A2190FBB6
:104D4000F1F201FB120000EB4000064901EB4004C8
:104D50000623052200210720009400F087F838BDC3
:104D60002C08002004760008002007E000EB40013A
:104D7000044A114400220A80411CC8B20628F5DB0F
:104D8000704700004A00002010B5FFF7EDFF00F06B
:104D90008FFF0A20FEF7F2FE01F0AAF90421044871
:104DA000FFF746FEFBF7EAFBFDF780F810BD0000B9
:104DB000000C014010B5FDF779F801F0A1F90421CC
:104DC0000548FFF733FE01200449487100F0C6F999
:104DD00000F06EFF10BD0000000C01402C08002008
:104DE00038B50446FFF7C0FF012C16DB032C14DC9A
:104DF0001C480623052200210090012000F036F80F
:104E000004EB4400184901EB400006230522002171
:104E10000090072000F02AF823E0042C21DB072C67
:104E20001FDC201F400000EB40000E49303901EB31
:104E300040000623052200210090012000F016F812
:104E4000201F012101EB400000EB400005493039F3
:104E500001EB40000623052200210090072000F00E
:104E600005F838BD8E760008047600082DE9F04775
:104E700004469C46089D012A01DABDE8F08700201F
:104E80003EE10B18002B00DA38E1082C4ADA002C3E
:104E900048DB531EDE1703EB5676F610761C4643AE
:104EA000AE5D2641F6B20F1807EB4707DFF86082C8
:104EB00047447F783E430F1807EB470747447E700F
:104EC000DE1703EB5676F610761C4643AE5DC4F152
:104ED0000807BE4006F0F0060F1807EB470718F862
:104EE00007703E430F1807EB470708F807601319D0
:104EF000082B16DB531EDE1703EB5676F610761CD6
:104F00004643761CAE5D264106F0F0060F1807EB0F
:104F1000470718F807703E430F1807EB470708F8D4
:104F20000760EAE0002C7CDA67424FEAE77807EB9B
:104F300058784FEAE8084FFA88F327464FEAE478B2
:104F400004EB58784FEAE808A4EBC8064FEAE27889
:104F500002EB5878B3EBE80F24DA571E4FEAE778F4
:104F600007EB58784FEAE80808F1010800FB083819
:104F700015F80880C6F1000908FA09F808F0FF08DA
:104F800001EB000909EB4909DFF884A1D14499F844
:104F9000019048EA090801EB000909EB4909D144ED
:104FA00089F801804FEAE27802EB587903F10108B1
:104FB000B8EBE90F26DA571E4FEAE77807EB587887
:104FC0004FEAE80808F1010800FB083808F1010879
:104FD00015F8088006F1080948FA09F808F0FF08F2
:104FE00001EB000909EB4909DFF824A1D14499F844
:104FF000019048EA090801EB000909EB4909D1448D
:1050000089F801804FEAE27802EB587903F1010850
:10501000B8EBE90F26DA571E4FEAE77807EB587826
:1050200000E04EE04FEAE80808F1010800FB08380C
:1050300008F1010815F80880C6F1000908FA09F816
:1050400008F0F00801EB000909EB4909DFF8C0A0FE
:105050001AF8099048EA090801EB000909EB490927
:105060000AF809804FEAE27802EB587903F1020866
:10507000B8EBE90F24DA571E4FEAE77807EB5878C8
:105080004FEAE80808F1010800FB083808F10208B7
:1050900015F8088006F1080948FA09F808F0F00840
:1050A00001EB000909EB4909DFF864A01AF809903F
:1050B00048EA090801EB000909EB49090AF80980E7
:1050C0001BE0082C19DB531EDE1703EB5676F61097
:1050D000761C4643AE5DA4F108073E4106F0F0069B
:1050E0000F1807EB4707DFF8288018F807703E43D2
:1050F0000F1807EB470708F8076000BF431CD8B23A
:10510000604503DA0B18062BFFF6BBAE00BFB4E612
:105110004A000020F8B507460C4616461D46FFF724
:1051200023FE3346224600210B480095007840B20A
:10513000FFF79CFE0848B0F9000020440C2809DC69
:10514000054900950978214448B23346224600219A
:10515000FFF78CFEF8BD000074000020F8B5202495
:1051600039E0FFF701FE202C05D0182C03D0102CBD
:1051700001D0082C12D12546E01704EB5070C01066
:10518000401E00EB4000154901EB400006230522BC
:10519000002100900820FFF769FE17E02546E01780
:1051A00004EB5070C01000EB40000C4901EB4000D4
:1051B0002646E11704EB5171C910A4EBC101009020
:1051C00048B2062305220021FFF750FE4620FEF7D5
:1051D000D5FC601EC4B2002CC3DCF8BD46760008C6
:1051E00010B566480078072808D16548407928B985
:1051F000FFF7E0FD002061490870BEE0604840799B
:10520000012812D15E48C06878B100240AE05C48E9
:10521000C0680121A140084010B12046FFF7E0FD21
:10522000601CC4B2082CF2DBA7E05548C07E50B128
:1052300053484079012806D1524B062220210020F4
:10524000FFF768FF99E04E48407802280CD14C489F
:105250004079012808D1FFF74DFD4848007807281C
:10526000CBD1FFF791FD88E0454840790128C4D1B2
:10527000434840780028C0D1404800780D2845D0E8
:105280000CDC072813D004DC012813D0042851D1EA
:105290001DE00A2830D00B284CD132E00E2831D046
:1052A000102821D0112823D0152843D133E0FFF74F
:1052B0006BFD40E03248C07D052804DA3048C07DEF
:1052C000401C2F49C8751E202F49087033E02C4818
:1052D000C07D012804DD2A48C07D401E2849C875CC
:1052E0001E202949087026E001202849087022E084
:1052F0000020264908701EE04FF49670244908816A
:1053000019E000BF00202249088114E04FF6D46064
:105310001F4908810FE01F48008950B91D48408986
:1053200038B91C48007B00F0010080F001001849EA
:10533000087300E000BF00BF1448007820B10122CC
:1053400012491548FCF7ECFC1148007B00F0010005
:105350001049097B01F00101884200D00DE00A48A4
:105360000078002807DD00F019F807480078401E93
:105370000549087001E0FFF7CBFC10BD7900002063
:105380002C0800205C00002077000020780000201E
:105390005C0800207C080020640A002008B5FFF7A4
:1053A000E3FC0748C07D00EB4000064901EB4000EC
:1053B00006230522002100900420FFF757FD08BDB9
:1053C0002C0800200476000810B51648407900B972
:1053D00010BD022204211448FEF7E4FC00B30421AE
:1053E0001148FEF70FFC1148007800EB400010490F
:1053F000421804210C48FEF778FD032204210A48D4
:10540000FEF7AAFD04210848FEF715FC07480078BE
:10541000401CC0B205490870062801DB0020087056
:1054200000BFD5E72C0800200000024076000020D5
:105430004A00002000B58FB040F20E7001F0F6F87F
:105440004FF4A06001F0F2F804212948FEF772FC45
:105450002848089028480A9001208DF83A0000203A
:105460000B9009904FF400500D9003200C900020F9
:105470008DF8380001208DF8390008AA04211C4855
:10548000FEF79CFC04211A48FEF7EEFB04211848A5
:10549000FEF73DFD17480C3801F0D2FA4FF44040BA
:1054A00002904FF4827001900020039006900490C7
:1054B00007908020059001A90E480C3801F0ECFA05
:1054C0000C480C3801F006FB0A480C3801F0FDFAD4
:1054D00008480C3801F0AFFA04210548FEF7ABFB91
:1054E000002104480C3801F09BFA0FB000BD000009
:1054F000000002400C3800404A00002010B540F285
:10550000036001F093F84FF4C06001F08FF80323BB
:1055100018224FF400411148FCF7C3FA0323182264
:105520004FF480510D48FCF7BCFA032318224FF4C6
:1055300000510A48FCF7B5FA03231022042107485A
:10554000FCF7AFFA0323102211460548FCF7A9FA2D
:1055500004210248FFF76CFA10BD0000000C014066
:105560000010014030B504460A46204611465368F3
:1055700000BF012505B906E048600160436000BF37
:10558000186000BF00BF30BD00BF00BF012101B9DE
:1055900008E0D0E900124A6000BF00BF116000BF00
:1055A00000BF00BF70470000FEF7FAFCFEF7FEFFE9
:1055B000FCF76EFCFCF7C8FC00F002F979E03D480E
:1055C0000079C0F3800088B13B484079012805D1BB
:1055D000FAF7BCFEFDF7CAFBFBF7CEF8FDF78AFC35
:1055E0003448007920F004003249087131480079CC
:1055F000C0F3C00058B130484079012801D1FDF70F
:1056000095FF2C48007920F008002A4908712948A4
:105610000079C0F3001058B1FFF7E2FD00F0AAFADC
:10562000FEF788FF2348007920F010002149087117
:1056300020480079C0F3401098B110211F48FFF7AF
:1056400064FA20B110211D48FFF7F0F903E01021A2
:105650001A48FFF7EDF91748007920F020001549A6
:10566000087114480079C0F3801010B3FEF74EF9AA
:10567000FFF758F91048407920B9FAF77FFF00F09A
:1056800037FD03E000F03CFD00F0C8F80A48C07E9A
:10569000012808D17F200849C880088100200849D6
:1056A0000881FAF76BFF0348007920F040000149B8
:1056B000087184E72C0000202C0800200010014015
:1056C0005C0800207CB505461C48006800B97CBD1C
:1056D0000024002001900A2000905A2018490870E8
:1056E0004870A41C0846204414490968898901802F
:1056F000A41C022012490855641C00200855641C93
:1057000008462044BDF800100180A41C0C48204429
:105710000560241DA01EC1B20948801CFEF7C2F816
:10572000019007482044BDF804100180A41C0449DE
:105730002046FDF710FB00BFC9E700001804002059
:10574000901300201CB51C48006800B91CBD002443
:1057500000200190072000905A20184908704870D6
:10576000A41C084620441449096889890180A41CA6
:10577000012012490855641C00200855641C084685
:105780002044BDF800100180A41C00200B490855DE
:10579000641CA01EC1B20948801CFEF783F801906A
:1057A00006482044BDF804100180A41C034920468B
:1057B000FDF7D1FA00BFC9E71804002090130020BC
:1057C00010B5042211490020FEF708FF0F480078A9
:1057D00000F001000E4908730C48007800F0010049
:1057E0000C49087309480078C0F341000A4981F860
:1057F000290001210548401CFEF790FE0648034998
:10580000B1F80110A0F82D1010BD00000800002014
:105810007C0800205C0800202C08002010B5002423
:105820003748007800F001003649097B01F001019A
:10583000884208D001243348007B3149097860F35D
:1058400000012F4801702E480078C0F341002E4916
:1058500091F82910884209D001242B4890F829108A
:105860002748007861F342002549087024480078F1
:10587000C0F3C000244991F82B10884209D00124BC
:10588000214890F82B101E48007861F3C3001C4992
:10589000087000202BE01A49491C11F810201A4901
:1058A0002D3111F810108A4208D0012416492D31EB
:1058B00011F810201249491C01F810201049491C08
:1058C00001EB40014A7810492D3101EB4001497844
:1058D0008A420AD001240C492D3101EB40014A785B
:1058E0000749491C01EB40014A70411CC8B201281C
:1058F000D1DB24B1042202490020FEF77FFE10BD57
:10590000080000207C0800202C08002030B5039CF3
:10591000837181800281C46030BD000010B50446EF
:10592000454890F88C0020B1012817D0022877D183
:105930003CE05A2C11D14048B0F88A10B0F88A00E7
:10594000401C3D4AA2F88A001046445401201146EA
:1059500081F88D0081F88C0063E065E03648B0F88E
:105960008A10B0F88A00401C334AA2F88A00104618
:105970004454B0F88A00082817D1104690F88D00DA
:10598000012811D11046C08880280DDC4FF6FF7029
:105990001146A1F88E0001461046A0F89010022092
:1059A000114681F88C0000E03EE03AE02248B0F871
:1059B0008A10B0F88A00401C1F4AA2F88A001046DC
:1059C000445490F88D00012829D11046B0F88A106F
:1059D000C088001D814222DB10468179801CFDF7C2
:1059E00061FF1549A1F89000084690F88D00012844
:1059F00013D10846B0F88A00801E095C0E48B0F842
:105A00008A00401E0C4A105C41EA00211046B0F8A2
:105A10009000814201D100F011F805E000E000E0C3
:105A200002E000BF002010BD00200349A1F88A0059
:105A300081F88C0000BFF6E71A1400202DE9F04130
:105A400088B02D4890F88D7090F80480C58800F1DA
:105A50000806012F07D18DF816804088ADF8140094
:105A6000ADF8185007969DF81600082840D2DFE8D8
:105A700000F03F04070D17212B35FFF763FE37E0D9
:105A8000079804682046FFF71DFE31E001AA0021B7
:105A900004A800F057FB01A807C8FDF749F927E063
:105AA00001AA002104A800F04DFB01A807C8FDF7DA
:105AB0003FF91DE001AA002104A800F043FB01A862
:105AC00007C8FDF735F913E001AA002104A800F08A
:105AD00039FB01A807C8FDF72BF909E001AA00214D
