:020000040800F2
:10000000F065002009020008C517000869160008FD
:10001000C1170008690900089D1B000800000000C6
:10002000000000000000000000000000490100087E
:100030008515000800000000A5010008AF190008A0
:1000400023020008230200082302000823020008FC
:1000500023020008230200082302000823020008EC
:1000600023020008230200082302000823020008DC
:1000700023020008230200082302000823020008CC
:1000800023020008230200082302000823020008BC
:10009000230200086D09000823020008230200085B
:1000A00023020008691A000823020008230200083E
:1000B000230200082302000823020008230200088C
:1000C000230200082302000823020008230200087C
:1000D000230200082D1B0008651B000823020008EE
:1000E000230200082302000823020008230200085C
:1000F000230200082302000823020008230200084C
:10010000230200082302000823020008230200083B
:10011000AD1A000823020008230200082302000889
:10012000230200082302000823020008230200081B
:10013000DFF810D000F0CAFB00480047BD510008AE
:10014000AFF30080F06500202C4B19680868B0E818
:10015000F04F80F30988BFF36F8F4FF0000080F3FA
:10016000118870470000000008480068006880F3AC
:1001700008884FF0000080F3148862B661B6BFF3C0
:100180004F8FBFF36F8F00DF00BF00BF08ED00E0AF
:10019000DFF80C00016841F470010160704700BF96
:1001A00088ED00E0EFF30980BFF36F8F134B1A68FF
:1001B0001EF0100F08BF20ED108A20E9F04F1060EC
:1001C00009B44FF0500080F31188BFF34F8FBFF395
:1001D0006F8F07F0DBFE4FF0000080F3118809BC41
:1001E00019680868B0E8F04F1EF0100F08BFB0ECB7
:1001F000108A80F30988BFF36F8F7047900000204A
:10020000EFF3058070470000064880470648004726
:10021000FEE7FEE7FEE7FEE7FEE7FEE7FEE7FEE7B6
:10022000FEE7FEE7C11900083101000840EA0103BA
:100230009B0703D009E008C9121F08C0042AFAD29C
:1002400003E011F8013B00F8013B521EF9D2704760
:10025000D2B201E000F8012B491EFBD27047002208
:10026000F6E710B513460A4604461946FFF7F0FFB5
:10027000204610BD2DE9FE4F804681EA0300C00FE5
:100280000C46009021F0004123F00045B8EB02003D
:10029000A94105D24046214690461C460B460246DF
:1002A00023F00040104347D0270DC7F30A00C3F3E3
:1002B0000A510290401A019040286BDAC3F31300F0
:1002C00040F4801B0098924620B10023D2EB030A31
:1002D00063EB0B0B01985946C0F14002504600F009
:1002E00057F906460D4650465946019A00F06FF9F7
:1002F00010EB08006141002487EA115284EAE77399
:100300001A4340D0009A62B3019A012A4FEA075279
:1003100015DC001B61EB02014FF0004202EA0752BC
:10032000CDE90042001C41F5801132462B4600F019
:10033000A6F903B0BDE8F08F40462146F9E7001B5F
:1003400061EB0201001C41F5801300185B4120188D
:10035000A2F5001747EB030140EAD570B6196D41CD
:1003600011E06D084FEA360645EAC0754FEA0752BC
:10037000001B61EB0201001C41F5801149084FEAA6
:1003800030000019514132462B4603B0BDE8F04F12
:1003900000F066B90098012240000023D0EB020271
:1003A00063EBE073009821464FEAE074B8EB00007D
:1003B00061EB0401E9E783F000435BE781F0004172
:1003C00058E72DE9FE4F81EA030404F0004421F0D0
:1003D000004100944FF0000B23F0004350EA010469
:1003E0005ED052EA03045BD0C3F30A54C1F30A554A
:1003F0002C44A4F2F3340194A0FB0254C1F3130182
:1004000041F48011C3F3130343F4801301FB02444E
:1004100000FB034E840A970A44EA815447EA835753
:10042000A4FB076802958D0A05FB07854FEA932C0C
:1004300004FB0C542705029D4FEA065847EA16377D
:10044000B5EB08056EEB070C870E920E47EA811795
:1004500042EA8312A7FB0201B6EB0B0164EB000436
:100460002B0D43EA0C335E1844EB1C50DA46514620
:10047000E7FB0201C5F313044FEA0B3343EA1453BD
:100480004FEA0432019C43EA0603A4F10C040294EF
:10049000009CCDE900B400F0F2F803B0BDE8F08FA5
:1004A00000200146F9E70EB5C10F80EAE07008446C
:1004B000CA07002140F233438DE80E000A460B467E
:1004C00000F0DDF803B000BD70B5C1F30A5201F0D1
:1004D00000450024C1F3130140F2FF3341F48011C1
:1004E0009A4201DA002070BD40F233439A42A2F2F0
:1004F000334203DC524200F05AF800E090402C43B3
:10050000F1D0404270BD00F0004230F000400AD00F
:10051000C10D01F56071C0F3160042EA0151C20835
:1005200040071143704700200146704701F0004327
:1005300030B421F0004150EA010206D00A0DA2F5C4
:100540006072C1F31301002A02DC30BC0020704746
:10055000440F44EAC104C100E01830BC00EBC250B3
:1005600000F047B830B50B46014600202022012498
:1005700009E021FA02F59D4205D303FA02F5491B71
:1005800004FA02F52844151EA2F10102F1DC30BD87
:10059000202A04DB203A00FA02F100207047914043
:1005A000C2F1200320FA03F3194390407047202A38
:1005B00004DB203A21FA02F00021704721FA02F30D
:1005C000D040C2F120029140084319467047202ACA
:1005D00006DBCB17203A41FA02F043EAE07306E06B
:1005E00041FA02F3D040C2F120029140084319467B
:1005F00070470029A8BF7047401C490008BF20F081
:100600000100704710B4B0FA80FC00FA0CF050EA18
:10061000010404BF10BC704749B1CCF1200421FA99
:1006200004F411FA0CF118BF012121430843A3EB94
:100630000C01CB1D4FEA00614FEA102042BF0020A1
:1006400010BC704700EBC35010440029A4BF10BC7D
:100650007047401C490008BF20F0010010BC7047E3
:1006600010B5141E73F1000408DA401C41F10001BA
:1006700092185B411A4301D120F0010010BD2DE911
:10068000F04D92469B4611B1B1FA81F202E0B0FA08
:1006900080F220329046FFF77BFF04460F4640EA87
:1006A0000A0041EA0B0153465A46084313D011464B
:1006B00053EA010019D0C8F140025046FFF777FF16
:1006C00005460E46504659464246FFF761FF08432D
:1006D00005D0012004E020463946BDE8F08D002019
:1006E000054346EAE0762C4337430A986305E40A5B
:1006F000A0EB08000022FD0A44EA47540A3002D564
:1007000000200146E9E7010510196941DDE90845C6
:1007100000196941BDE8F04DA2E72DE9F04D81EAED
:10072000030404F0004B21F0004514464FF0000A8A
:1007300023F0004150EA050220D054EA01021DD006
:10074000C5F30A570246C5F31303C1F31300C1F3FF
:100750000A5640F4801543F48013A7EB0608101BDB
:10076000D64608F2FD3873EB050002D308F1010804
:1007700001E092185B41B8F1000F03DA0020014656
:10078000BDE8F08D00204FF48011064684460EE04F
:10079000171B73EB050705D3121B63EB0503064319
:1007A0004CEA010C49084FEA300092185B4150EACC
:1007B0000107EDD152EA030012D082EA040083EA75
:1007C0000501084305D0101BAB4106D201220023CE
:1007D00006E000224FF0004302E06FF001025310E8
:1007E0001AEB06004CEB085110EB0A0041EB0B0131
:1007F000BDE8F04DFFF734BF2DE9F04D00231A4658
:100800001B1A8A4103DB00200146BDE8F08DC1F3CD
:100810000A52C1F3130141F480154FF0000BD107C8
:1008200002D100186D41521E0027044640F2FF110C
:10083000384601EB620A3E468046024600204FF4ED
:100840008011FFF7B4FEC2197141BB1846EB0100DD
:10085000B4EB030C75EB000C04D3E41A65EB000554
:1008600017460E46241908F101006D4180463428D0
:10087000E3DDF91946EB0600091BA84103D24FF04E
:10088000FF32134601E0002213461BEB070046EB44
:100890000A51BDE8F04DFFF7E3BE000030B5041E7D
:1008A00071F1000404DB4FF00044404264EB0101AD
:1008B000141E73F1000405DB1C464FF00043524246
:1008C00063EB04038B4208BF824230BD064C074DE8
:1008D00006E0E06840F0010394E807009847103410
:1008E000AC42F6D3FFF728FC009B0008209B0008D1
:1008F00030B58C1810F8012B12F00F0301D110F84D
:10090000013B120906D110F8012B03E010F8015B3E
:1009100001F8015B5B1EF9D101E001F8013B521EB9
:10092000FBD1A142E6D3002030BD10B503F0A6FDF7
:1009300002F02EF810BD000010B504462246094909
:1009400040F2117001F0CEF802220621262004F0B8
:10095000C9FE40F20531034806F012FF014806F0D7
:10096000FBFE10BD0044004000BFFEE710B586B09E
:100970000024002005906A460121164803F0D3F8B0
:100980009DF8080018BB0098B0F5A06F1FD100BFFC
:1009900014E00DF10B00005D0F4909680E4AD28882
:1009A00088540D48C088401C0B49098990FBF1F21E
:1009B00001FB12000849C880601CC4B29DF80A00FF
:1009C000A042E6DC05A90548006807F0D5FD06B0A1
:1009D00010BD0000006400408C0B00207C00002053
:1009E00010B54FF47A710648006807F0EBFE012855
:1009F00003D103F013FA012010BD0020FCE7000032
:100A00007C0000202DE9F04104460D46A078042822
:100A10001CD005281BD1E078B8B90026002710E0CB
:100A200005EBC7031A79A368991955F83700FFF742
:100A3000FDFB3846791CCFB205EBC000007930448D
:100A4000C6B2A088B042EBDC00BF01E000E000BF0E
:100A500000BFBDE8F081000094B001240020119097
:100A6000129013900190029015E00B4840790128F4
:100A700005D124B101A800F0A5FB002404E006483C
:100A8000407908B904B9012411A800F0E7FC01A9D4
:100A900011A8FFF7B7FFE8E75805002070B500225E
:100AA00000230370FC4BB3F90430FC4CB4F9044050
:100AB000A3422BD0002300BFF84CB4F90440DD0062
:100AC0002C41E6B21446551CEAB20E555C1CE4B249
:100AD0002346022CF0D3F24CA58A0678441C04EB82
:100AE000C6042580EE4CA57D0678441C04EBC604A4
:100AF0006580EB4CA47D141B65180678441C04EB40
:100B0000C60465600478641C047000BFE24BB3F94E
:100B10000630E24CB4F90640A3422DD0002300BFBA
:100B2000DE4CB4F90640DD002C41E6B21446551CFB
:100B3000EAB20E555C1CE4B22346022CF0D3D84C2A
:100B4000258F0678441C04EBC6042580D44C94F809
:100B50003A500678441C04EBC6046580D04C94F8E7
:100B60003A40141B65180678441C04EBC604656003
:100B70000478641C047000BFC74B1B7BC74C247BEC
:100B8000A3427CD0C74B1B885B1CC64C23802346EA
:100B90001B88012B74D1002300BFDD0001242C41F0
:100BA000E6B21446551CEAB20E555C1CE4B2231E94
:100BB000F3D0BB4CB4F850500678441C04EBC60488
:100BC0002580B74C94F852500678441C04EBC604B8
:100BD0006580B34C94F85240141B65180678441C89
:100BE00004EBC60465600478641C0470002300BF35
:100BF000DD0007242C41E6B21446551CEAB20E551E
:100C00005C1CE4B2231EF3D0A54CB4F85450067813
:100C1000441C04EBC6042580A14C94F85650067879
:100C2000441C04EBC60465809D4C94F85640141B8C
:100C300065180678441C04EBC60465600478641CDF
:100C40000470002300BFDD004FF496742C41E6B21F
:100C50001446551CEAB20E555C1CE4B22346022C25
:100C6000F1D38F4CB4F864500678441C04EBC604EE
:100C700025808B4C94F866500678441C01E013E103
:100C800093E004EBC6046580854C94F86640141B21
:100C900065180678441C04EBC60465600478641C7F
:100CA0000470002300BFDD0001242C41E6B214468D
:100CB000551CEAB20E555C1CE4B2231EF3D0784CEE
:100CC000B4F874500678441C04EBC6042580744CB8
:100CD00094F876500678441C04EBC6046580704C8A
:100CE00094F87640141B65180678441C04EBC6047F
:100CF00065600478641C0470002300BFDD000724D5
:100D00002C41E6B21446551CEAB20E555C1CE4B206
:100D1000231EF3D0624CB4F878500678441C04EBE0
:100D2000C60425805E4C94F87A500678441C04EB87
:100D3000C60465805A4C94F87A40141B65180678EE
:100D4000441C04EBC60465600478641C0470002332
:100D500000BFDD006FF095042C41E6B21446551C2F
:100D6000EAB20E555C1CE4B22346022CF1D34C4C83
:100D7000B4F890500678441C04EBC6042580484C17
:100D800094F892500678441C04EBC6046580444CE9
:100D900094F89240141B65180678441C04EBC604B2
:100DA00065600478641C0470C7E13E4B1B88B3F592
:100DB000167F0DDD384B1B8953B9374B5B893BB927
:100DC000364B1B7B344C23730023364C2380B4E119
:100DD000344B1B8840F6B834A342E5DD002300BF46
:100DE000DD0000242C41E6B21446551CEAB20E5533
:100DF0005C1CE4B2231EF3D0294CB4F850500678A2
:100E0000441C04EBC6042580254C94F85250067807
:100E1000441C04EBC6046580214C94F85240141B1A
:100E200065180678441C04EBC60465600478641CED
:100E30000470002300BFDD0000242C41E6B21446FC
:100E4000551CEAB20E555C1CE4B2231EF3D0144CC0
:100E5000B4F874500678441C04EBC6042580104C8A
:100E600094F876500678441C04EBC60465800C4C5C
:100E700094F87640141B65180678441C04EBC604ED
:100E800065600478641C0470044B1B7B024C237364
:100E90000023044C238050E1B0050020940500207D
:100EA000FC97000828000020BF4BB3F90830BF4C66
:100EB000B4F90840A3428AD0BD4B1B785B1CDBB25F
:100EC000BB4C2370052BE6DD00232370B74B1B8939
:100ED000002B56D100BF00BFDD0006242C41E6B236
:100EE0001446551CEAB20E555C1CE4B2231EF3D026
:100EF000B04CB4F854500678441C04EBC60425806A
:100F0000AC4C94F856500678441C04EBC60465803B
:100F1000A84C94F85640141B65180678441C04EB42
:100F2000C60465600478641C0470002300BFDD0003
:100F300000242C41E6B21446551CEAB20E555C1C46
:100F4000E4B2231EF3D09B4CB4F874500678441CD2
:100F500004EBC6042580974C94F876500678441C20
:100F600004EBC6046580934C94F87640141B651816
:100F70000678441C04EBC60465600478641C0470A5
:100F8000ACE0002300BFDD0001242C41E6B2144692
:100F9000551CEAB20E555C1CE4B2231EF3D0854CFE
:100FA000B4F850500678441C04EBC6042580814CEC
:100FB00094F852500678441C04EBC60465807D4CBE
:100FC00094F85240141B65180678441C04EBC604C0
:100FD00065600478641C0470002300BFDD000224F7
:100FE0002C41E6B21446551CEAB20E555C1CE4B224
:100FF000231EF3D06F4CB4F854500678441C04EB15
:10100000C60425806B4C94F856500678441C04EBBB
:10101000C6046580674C94F85640141B6518067822
:10102000441C04EBC60465600478641C047000234F
:1010300000BFDD0001242C41E6B21446551CEAB283
:101040000E555C1CE4B2231EF3D05A4CB4F8745015
:101050000678441C04EBC6042580564C94F8765060
:101060000678441C04EBC6046580524C94F8764024
:10107000141B65180678441C04EBC60465600478EC
:10108000641C0470002300BFDD0006242C41E6B27E
:101090001446551CEAB20E555C1CE4B2231EF3D074
:1010A000444CB4F878500678441C04EBC604258000
:1010B000404C94F87A500678441C04EBC6046580D2
:1010C0003C4C94F87A40141B65180678441C04EBD9
:1010D000C60465600478641C047000BF002300BF70
:1010E000324CB4F90840DD002C41E6B21446551CE0
:1010F000EAB20E555C1CE4B22346022CF0D32D4C10
:10110000B4F864500678441C04EBC6042580294CCE
:1011100094F866500678441C04EBC6046580254CA0
:1011200094F86640141B65180678441C04EBC6044A
:1011300065600478641C047000BF1F4B1B785B1C47
:10114000DBB21D4C2370282B2DDD0023237000BF44
:1011500000BFDD0001242C41E6B21446551CEAB262
:101160000E555C1CE4B2231EF3D0124CB4F8A85008
:101170000678441C04EBC60425800E4C94F8AA5053
:101180000678441C04EBC60465800A4C94F8AA4017
:10119000141B65180678441C04EBC60465600478CB
:1011A000641C047000BF70BDB005002094050020D1
:1011B00026000020FC9700082A00002001E0FFF72D
:1011C0000FFCFCE710B5AEB00446242101A8FFF7E0
:1011D00046F8C820ADF8040064489DF8061044F8AD
:1011E000310002209DF8061004EBC101087160482F
:1011F000018B9DF806200DF1070000EB82000180B5
:101200005B48817E9DF806200DF1070000EB82000F
:1012100041809DF80600401CC0B28DF8060053487E
:10122000801C9DF8061044F8310002209DF806103D
:1012300004EBC10108714E48818F9DF806200DF125
:10124000070000EB82000180494890F83E109DF8AD
:1012500006200DF1070000EB820041809DF806009A
:10126000401CC0B28DF806004048001D9DF80610D5
:1012700044F8310002209DF8061004EBC10108710A
:101280003B48B0F868109DF806200DF1070000EB10
:1012900082000180364890F86A109DF806200DF112
:1012A000070000EB820041809DF80600401CC0B2A0
:1012B0008DF806002D48801D9DF8061044F8310079
:1012C00002209DF8061004EBC10108712848B0F80F
:1012D00094109DF806200DF1070000EB82000180BC
:1012E000234890F896109DF806200DF1070000EBBA
:1012F000820041809DF80600401CC0B28DF80600B7
:101300001A480A309DF8061044F8310002209DF872
:10131000061004EBC10108711548B0F858109DF88B
:1013200006200DF1070000EB82000180104890F8C4
:101330005A109DF806200DF1070000EB8200418055
:101340009DF80600401CC0B28DF806000DAA01A948
:10135000002002F0C5FE0AAA0DA940F6012000F007
:1013600067FA0AA805F03EFE2EB010BDB4050020B5
:10137000FC970008B6B014E04FF0FF3225A90948E9
:10138000006807F06FF904AA25A9572002F0BEFEF5
:1013900001AA04A940F6012000F04AFA01A805F0CC
:1013A00021FEE9E70C00002010B51348007800B1D9
:1013B00010BD00224121082006F0F8FE0F49086008
:1013C0000846006820B925220DA112A002F088F974
:1013D00000220C21082006F0E9FE104908600846AA
:1013E000006820B9282206A10DA002F079F9012099
:1013F0000149087000BFDBE7080000200C00002056
:101400002E2E5C5441534B5C43414E5F7461736BB1
:101410002E6300007478517565756500100000201A
:101420007278517565756500084809490860802023
:10143000088100208880C88006480749086080200D
:10144000088100208880C88070470000240C00209C
:10145000180C0020980B00208C0B002010B50446BF
:1014600024B9552207A10CA002F03AF94FF0FF323F
:1014700021460A48006807F0F5F808B1012010BDC0
:101480000020FCE72E2E5C5441534B5C43414E5FE1
:101490007461736B2E630000700000001000002068
:1014A00010B5044624B9332209A10EA002F018F9A0
:1014B000207808B9002010BD00231A4621460A48AA
:1014C000006806F0F3FE08B10120F4E70020F2E71F
:1014D0002E2E5C5441534B5C43414E5F7461736BE1
:1014E0002E630000700000000C0000202DE9F04188
:1014F00086B004460F46154600264FF00308B4F5A3
:10150000006F04D2019400208DF80C0003E00294D7
:1015100004208DF80C00082D00DD082500208DF832
:101520000D008DF80E502A4639460DF10F00FEF7DA
:101530007DFE06E001A90B4802F068FB8046701CA6
:1015400086B2B8F1030F03D140F6FF708642F1DB9B
:1015500040F6FF70864203DB002006B0BDE8F08154
:101560000120FAE70064004010B504462246044911
:1015700040F2127000F0B6FA014806F0EDF810BD26
:101580000048004070472DE9F04107460C461546DB
:101590001E46234632462946384603F0BEF9BDE8CA
:1015A000F08130B505460D800B880C88088800EE68
:1015B000900AF8EE600AB0EE600A31221DE031F8C0
:1015C0001200984202DD31F8123005E031F81200C5
:1015D000A04201DA31F8124031F8120000EE900A10
:1015E000F8EE600A70EE800AB0EE600A501E31F824
:1015F000100021F81200501EC2B2002ADFD13022A2
:1016000000EE903AF8EE600A30EE601A00EE904A72
:10161000F8EE600A71EE600AB0EE600A00EE902A01
:10162000F8EE600A80EE201AB0EE410AFCEEC00A25
:1016300010EE900A80B230BD10B50446224609492A
:1016400040F2137000F04EFA02220621342004F01A
:1016500049F840F20531034806F092F8014806F0D7
:101660007BF810BD004C00400CA300221146202046
:1016700002F090FE03F0CCFA00BFBFF34F8F0A4890
:10168000006800F4E06009490843001D064908604D
:10169000BFF34F8F00BF00BFFEE7000048617264D8
:1016A0004661756C742100000CED00E00000FA0545
:1016B0002DE9F0410446062C23DA0026FF270025F9
:1016C00008E0284600F030F810B1701CC6B22F4672
:1016D000681CC5B2062DF4DB012E02DD0120114984
:1016E000087016B900200F490870012E07D1A742D3
:1016F00005D10C48007810B90120BDE8F081002028
:10170000FBE7062C0BD1032000F00EF828B10420D3
:1017100000F00AF808B10120EFE70020EDE7002013
:10172000EBE700004A00002001460348405C08B98E
:10173000012070470020FCE74400002010B503F0B2
:1017400063F8002010BD000010B50446224604498D
:1017500040F2147000F0C6F9014805F0FDFF10BD1D
:10176000005000401FB540F20B6005F01FFA13480F
:1017700005F0CAFD7720ADF800000020ADF80200AA
:10178000ADF80400C72002900020ADF806008DF8E7
:101790000C006946094805F02BFE002202211920A1
:1017A00003F0A0FF0121054805F06EFE034805F097
:1017B000A5FD024805F016FE1FBD0000002C0140EB
:1017C00000BFFEE7704770B504460D4660882128CB
:1017D00000D970BD6288211D2846FEF727FD00BF95
:1017E000F7E730B50346002218790870521C002034
:1017F00019E0082800DB19E04C1C04EBC0051C1D97
:10180000144424682C60141DA2B21C1DA5184C1C85
:1018100004EBC00465604C1C04EBC00464881444F1
:10182000A2B2441CE0B20C788442E2DC00BF30BDBE
:1018300010800B7893704B88093393804B1C936016
:101840007047000010B580210348FEF708FD802195
:101850000248FEF704FD10BD58030020D803002005
:1018600010B500202649C87008710870487088704B
:1018700048717F2008818881002088760846807E14
:10188000C8760020C877012081F82100002081F867
:10189000230081F8280081F82500012081F8350017
:1018A000002081F8360081F8370081F838000120E7
:1018B00081F839008873002012498880C8804FF66B
:1018C00018400882488264200F49C882002008839B
:1018D00088820870012048700020887012210B480F
:1018E000FEF7BDFC01200949C8727F20487288724A
:1018F0000120087188730020C8730874487410BDF3
:101900005805002094050020B0050020DE050020C9
:1019100010B53C210A48FEF7A2FC1C210948FEF73D
:101920009EFC1C210848FEF79AFC12210748FEF78E
:1019300096FC12210648FEF792FCFFF791FF10BDBE
:101940005805002094050020B0050020CC0500209B
:10195000DE05002070B586B006460C461546002010
:10196000ADF80E00ADF810000120ADF81200C4F380
:101970000A04C5F30A054FF6FF7000EA4410ADF8FB
:1019800004000020ADF806004FF6FF7000EA451095
:10199000ADF808000020ADF80A000120ADF80C00F9
:1019A0008DF8140001A801F0A1FF06B070BD10B5BC
:1019B00007F050F8012801D006F0DEFB10BD000052
:1019C00008B52648006840F470002449086024489F
:1019D000006840F001002249086000BF204800680C
:1019E00000F002000028F9D000BF1D48406840F018
:1019F00080001B4948600020009002E00098401CD5
:101A0000009000985028F9D31548406840F09000A5
:101A1000134948600020009002E00098401C0090AC
:101A200000985028F9D300BF0D48406820F003000B
:101A30000B494860084600680A49084008490860A0
:101A40004FF41F0088600846006820F4802008607A
:101A500000204860C86205F039FC08BD88ED00E050
:101A600000100240FFFFF6FE10B501210D4805F001
:101A700012FDB0B10C480088401C0B49088005F0ED
:101A80007BFA094800884FF47A7190FBF1F201FB70
:101A9000120010B90020044908800121014805F016
:101AA000F7FC10BD002C01404C0000201CB50020AC
:101AB00000900949094805F070FE58B1074805F043
:101AC000F9FDC0B2019000236A4601A904480068EC
:101AD00006F0CEFC1CBD000005030500004C0040D4
:101AE0007800002070B506460C461546304605F0D5
:101AF0005DF8204605F0E8FD2946204605F092FDF8
:101B00000021204605F065FE0021204605F081FEFB
:101B10000021204605F06DFE0421204605F061FEFF
:101B20000821204605F06DFE70BD00001CB50020A8
:101B300000900949094805F030FE58B1074805F002
:101B4000B9FDC0B2019000236A4601A904480068AB
:101B500006F08EFC1CBD00000503050000380140A6
:101B6000540000201CB5002000900949094805F0E8
:101B700014FE58B1074805F09DFDC0B20190002346
:101B80006A4601A90448006806F072FC1CBD00000A
:101B900005030500004400402C00002000BFFEE7C4
:101BA00010B504462246094940F20E60FFF79AFF3D
:101BB00002220621252003F095FD40F2053103485D
:101BC00005F0DEFD014805F0C7FD10BD00380140FD
:101BD0000FB4054B10B503A9044A029800F0C4FDE8
:101BE00010BC5DF814FB0000E14700088C000020E9
:101BF00003B401984100009850EAC12018BF0420A6
:101C00004A0D18BF40F0010040F2FF72B2EB515F85
:101C100008BF40F00200012808BF052002B070474D
:101C20004100080218BF04200A0E18BF40F001004E
:101C30004FF07F4232EA010108BF40F00200012864
:101C400008BF05207047000070B59B482DED020BC2
:101C50002DED068B079D25F00044A04218DC974827
:101C6000844202DC0AD1069840B19DED060BBDEC22
:101C7000068B02B0BDE8704000F07BBC002DCCBFED
:101C80009FED8F0B9FED900BBDEC068B02B070BDEE
:101C90008F48A04215DD8F48A042D8BF4FF0FF34D7
:101CA00058DD9DED060B51EC100BFFF7A1FF04284A
:101CB00008BF00F075FC9DED060BBDEC068B02B075
:101CC00070BD9DED060B51EC100B02F07DFDCDE9D2
:101CD000060181489FED828BA0423CDD8248A042F4
:101CE0001FDD00249FED82AB9DED060B53EC1A2BFC
:101CF00051EC100BFEF7BEFA9DED060B41EC190BF3
:101D000053EC1A2B51EC100BFEF75BFB53EC182B2A
:101D1000FEF751FB53EC192BFEF7FFFCCDE9060152
:101D200049E09DED060B012453EC182B51EC100BF0
:101D3000FEF7A0FA9DED060B41EC190B53EC182BA6
:101D400051EC100BFEF737FB53EC192BFEF7E5FCBB
:101D5000CDE906012FE06848A0421FDD02249FED77
:101D6000689B9DED060B53EC192B51EC100BFEF705
:101D700028FB53EC182BFEF77DFA9DED060B41EC8A
:101D8000180B53EC192B51EC100BFEF714FB53EC12
:101D9000182BFEF7C2FCCDE906010CE09DED060B09
:101DA000032453EC102B9FED580B51EC100BFEF756
:101DB000B4FCCDE906019DED060B53EC102B51EC64
:101DC000100BFEF7FEFA41EC180B53EC182BFEF744
:101DD000F8FA41EC190B4E480621B0EE490AF0EE34
:101DE000690A784400F049FB53EC182B51EC100BB6
:101DF000FEF7E7FA41EC180B4648B0EE490AF0EE60
:101E0000690A0521784400F038FB53EC192B51EC9A
:101E1000100BFEF7D6FA41EC100B51EC180B53ECFB
:101E2000102B002C0EDAFEF725FA9DED061B53EC65
:101E3000112BFEF7C6FA9DED061B53EC112BFEF796
:101E4000BDFA35E0FEF716FA9DED061B53EC112B9B
:101E5000FEF7B7FA41EC100B2F48784400EBC400B2
:101E600090ED001B51EC100B53EC112BFEF7A3FA75
:101E70009DED061B53EC112BFEF79DFA41EC100B68
:101E80002648784400EBC40090ED001B51EC100B89
:101E900053EC112BFEF792FA41EC100B002DA2BF70
:101EA000BDEC068B02B070BD51EC100B81F000410F
:101EB00041EC100B01E70000000010440000F07F2F
:101EC000182D4454FB21F93F182D4454FB21F9BF30
:101ED0000000DC3F0000203E0000F33F0000000057
:101EE000000000000000F03F0000E63F000000009E
:101EF00000000000000000400080034000000000DF
:101F0000000000000000F83F000000000000F0BFEB
:101F10002A7B0000E07A00006A7A0000227A000042
:101F200070B56F4E2DED040B2DED048B82B0DDF8F6
:101F300024C0DDE907235C422CF000411C4341EA48
:101F4000D474069D22F00040B44205D86C422C4364
:101F500040EAD474B4420BD99DED081B9DED060BED
:101F600002B0BDEC048B04B0BDE8704000F00BBBC8
:101F7000ACF14054A4F17F641C430BD0022404EA6A
:101F8000AC7444EAD27405439FED578B9FED582BF8
:101F900007D015E09DED060B51EC100B01F0A2FBF4
:101FA00042E0002C11BF012C9DED060B02B0BDECF0
:101FB000048B04BF04B070BD022C38D0032C3BD07E
:101FC0000B439FED4D1B9FED4E0B0AD0B14218D134
:101FD000B04209D121F0804120F080400991079062
:101FE0000FE0002A15DA10E0474B7B44002C08BFB5
:101FF00093ED000B0DD0012C10D0022C17D0032C28
:102000001AD0B0421DD1002A03DAB0EE410AF0EE38
:10201000610A02B0BDEC048B04B070BD93ED000BFF
:1020200051EC100B81F0004141EC100BF1E7B0EEE8
:10203000480AF0EE680AECE7B0EE420AF0EE620AF7
:10204000E7E7401A00159FED329B3C28C8BF8DED95
:10205000000B17DCBCF1000FBCBF10F13C0F8DED85
:10206000009B0FDB9DED080B53EC102B9DED060B39
:1020700051EC100BFEF751FB02F0A6FB01F032FB16
:10208000CDE90001B4B1012C10D0022C9FED220B40
:1020900053EC102B9DED000B51EC100B19D0FEF7FB
:1020A0008AF953EC182BFEF786F9BDE7019880F00A
:1020B000004001909DED000B53EC192B51EC100BDF
:1020C000FEF7ECFB04BF022000F048FB9DED000B87
:1020D0009FE7FEF770F953EC182BFEF76FF9A3E7B3
:1020E0000000F07F00000000182D4454FB2109403F
:1020F000182D4454FB2109C0182D4454FB21F9BF6D
:10210000182D4454FB21F93F5279000000000000D3
:102110000000000000000000075C143326A6A13C6C
:1021200010EE101A08B5444A6846B2EB410F28D9A0
:102130004FF0E640B0EB410F94BF00204FF0FF306E
:1021400000900098002861DB60EE000A10F0010F9B
:1021500045D010F0020FDFED391A9FED391A00EE6D
:10216000E11ADFED381A40EE811A21EEA01AF0EEE6
:10217000400A40EE010A08BFF1EE600AB0EE600AC4
:1021800008BD314B21F0004293423CD911F0004F81
:10219000DFED2E0A20EE201ADFED2D0A19BF31EEF9
:1021A000601A71EE200A31EE201A71EE600ABDEE5F
:1021B000E01A11EE100A9FED271A00F0030000EE5E
:1021C000C10A9FED251A009000EEC10A9FED231A67
:1021D00000EEC10A9FED221A00EEC10AB1E79FEDA1
:1021E000211A9FED210A10F0020F00EE810A9FEDE7
:1021F0001F1A00EE801AB7EE000A00EE810A18BF1F
:10220000B1EE400A08BD00F0EFF99AE710EE100AAF
:102210004000B0F17F4F3CBFB7EE000A08BD07D1C8
:102220004FF0010000F09AFABDE8084000F0CCB988
:10223000BDE8084000F0C4B9B61F927E336D4C393A
:10224000DA82083CA0AA2ABE490E494683F9223FF9
:102250000000004B0000C93F00A0FD390020A23360
:102260001A61342CB93AB2BACA9F2A3DDDFFFFBECB
:1022700000B510EE101A2DED028B81B0524A68465F
:10228000B2EB410F2ED94FF0E640B0EB410F94BFB7
:1022900000204FF0FF3000900098B0EE408A0028F8
:1022A0006ADB10F0010F4BD068EE080A9FED471A69
:1022B0009FED470A00EE810A9FED461A10F0020FCB
:1022C00000EE801AB7EE000A00EE810A02BF01B0EC
:1022D000BDEC028B00BD00BF01B0B1EE400ABDEC09
:1022E000028B00BD3C4B21F00042934241D911F0DA
:1022F000004FDFED3A0A20EE201ADFED390A19BF50
:1023000031EE601A71EE200A31EE201A71EE600A89
:10231000BDEEE01A11EE100A9FED321A00F0030034
:1023200000EEC10A9FED301A009000EEC10A9FED49
:102330002F1A00EEC10A9FED2E1A00EEC10AABE77C
:1023400028EE080A9FED2B1ADFED2B0A10F0020F82
:1023500040EE410A9FED291A00EE201A61EE000AB4
:10236000B0EE480A08EE200AB6D101B0BDEC028BEF
:1023700000BD00F039F98FE718EE100A4000B0F107
:102380007F4F0DD218EE100AFFF74AFC042808BF51
:1023900000F022F9B0EE480A01B0BDEC028B00BD9E
:1023A00009D1012000F0DAF901B0BDEC028B5DF833
:1023B00004EB00F009B901B0B0EE480ABDEC028BA5
:1023C0005DF804EB00F0FCB8B61F927EB93AB2BAE1
:1023D000CA9F2A3DDDFFFFBE490E494683F9223FD1
:1023E0000000004B0000C93F00A0FD390020A233CF
:1023F0001A61342C336D4C39DA82083CA0AA2ABE0B
:1024000000B52DED048BB0EE409AF0EE609A83B0EB
:1024100051EC190BFEF7F0F941EC180B18EE100A0D
:1024200018EE901A8DED008B002818BF012008438C
:1024300020F00040C0F17F6000F1E040C00F14D0F8
:1024400019EE101A19EE900A8DED009B002918BFA5
:102450000121084320F00040C0F17F6000F1E0401E
:10246000C00F04BF012000F079F9B0EE480A03B0B4
:10247000F0EE680ABDEC048B00BD70B504462DED8E
:10248000028B4D1E00EBC500B0EE408AF0EE608A74
:1024900090ED000B35F0060017D053EC182B51ECE3
:1024A000100BFDF78EFF41EC100B6D1E04EBC50009
:1024B00090ED001B51EC100B53EC112BFDF7DAFEE5
:1024C00041EC100B35F00600E7D1022D36D0042D7B
:1024D0001CD0062D1CBFBDEC028B70BD53EC182B1D
:1024E00051EC100BFDF76DFF94ED0A1B53EC112B13
:1024F000FDF7C0FE53EC182BFDF763FF94ED081BAE
:1025000053EC112BFDF7B6FE41EC100B53EC182BDE
:1025100051EC100BFDF755FF94ED061B53EC112BFE
:10252000FDF7A8FE53EC182BFDF74BFF94ED040BC1
:1025300053EC102BFDF79EFE41EC100B53EC182BC7
:1025400051EC100BFDF73DFF94ED021B53EC112BEA
:10255000FDF790FE53EC182BFDF733FF94ED001BB5
:1025600053EC112BFDF786FEBDEC028B41EC100BFA
:1025700070BD10B553EC102B51EC100BFDF77AFE2B
:1025800041EC100B10BD10B553EC112B51EC100B9E
:10259000FDF770FE41EC100B10BD000000000000C4
:1025A0009FED050B10B553EC102B51EC100BFDF704
:1025B00008FF41EC100B10BD0000000000000010EF
:1025C00030EE000A70470000DFED020A80EEA00A3C
:1025D00070470000000000009FED020A20EE000A94
:1025E00070470000000000102DE9F0014FF07F421D
:1025F000B2EB410F9FBF4FF0FF310160BDE8F0012A
:1026000070474FF0004242EA0123C1F3C752783AC3
:10261000551112F01F0C434CCCF120067C44C1F341
:10262000C752A2F178024FEA621204EB820254F818
:10263000254008BFD2E9015612D0556804FA0CF4BF
:1026400025FA06F73C43976805FA0CF527FA06F8D1
:10265000D26807FA0CFCF24045EA08054CEA02068B
:10266000A4FB034CA5FB0352A6FB03631D449D4240
:1026700034BF012600261319334416B1934202D900
:1026800003E0934201D2012200E00022624402F101
:10269000200C9206DC0C42EA443200EE102A5B0366
:1026A000DFED210AF8EEC01A00EE103A4FEA9C1C4A
:1026B00011F0004FB8EE400AC0F800C020EE201A1A
:1026C00000EE105ADFED190AB8EE400A20EE200A9B
:1026D00071EE810A70EE800A10EE902A02F5006217
:1026E0006FF30B0200EE902A70EEE11A31EEC11A80
:1026F000DFED101A30EE411A9FED0D0A20EE800A30
:1027000001EE210A9FED0C1A00EE810A04BFBDE81C
:10271000F0017047CCF180510160BDE8F001B1EEED
:10272000400A704728730000000000360000802C2B
:1027300022AAFD29DB0FC92F0000C92F02E008C81B
:10274000121F08C1002AFAD170477047002001E02B
:1027500001C1121F002AFBD1704700000149086027
:1027600070470000480300202DE9FF4F8BB09A46C8
:102770000F460546002606E025280BD052460D9947
:1027800090476D1C761C28780028F5D10FB0304694
:10279000BDE8F08F0024A0460122604900E0044318
:1027A00015F8013F203B02FA03F00842F7D12878E0
:1027B0002E2817D115F8010F44F004042A280ED052
:1027C0006FF02F022878A0F1300109290AD808EB10
:1027D000880102EB410100EB01086D1CF2E757F89C
:1027E000048B6D1C287869283ED006DC0028CDD0EB
:1027F00063280BD0642804D136E0732810D07528E4
:102800004BD052460D999047761C85E017F8040B83
:102810008DF8000000208DF80100E946012003E05A
:1028200057F8049B4FF0FF3061074FF0000401D4CC
:102830000AE0641C44450DDA8442FADB19F80410FE
:102840000029F6D106E0641C8442FCDB19F8041070
:102850000029F8D1264404E019F8010B52460D99DD
:102860009047641EF8D257E001CF4FF00A0B0028C2
:1028700002DA40422D2102E0210504D52B218DF8FA
:102880002410012103E0E10705D02021F7E70DF135
:10289000200908910CE00021F9E701CF4FF00A0B65
:1028A000F9E75946FDF75EFE01F1300209F8012D06
:1028B0000028F6D1ADEB090000F1200B600701D430
:1028C0004FF00108D84502DDA8EB0B0000E0002026
:1028D0008046002406E009A85246005D0D99904705
:1028E000641C761C08988442F5DB04E030205246D4
:1028F0000D999047761CB8F10001A8F10108F5DCAC
:1029000005E019F8010B52460D999047761CBBF172
:102910000001ABF1010BF4DC6D1C34E70928010068
:10292000816841F00801816000BF816801F0080101
:102930000029FAD1816841F00401816000BF8168FB
:1029400001F004010029FAD1704730B5012902D005
:1029500002291AD10CE0C36A23F47003C362C36A6C
:10296000541E4FF4700505EA04542343C3620DE07E
:10297000836B23F440138363836B541E4FF4401521
:1029800005EA04542343836300E000BF00BF30BD69
:1029900010B540F2096004F009F91F4800F04AF848
:1029A000002000F0B9F8012202211B4800F027F9AD
:1029B00001221102184800F022F90021164800F007
:1029C0002DF8022201211448FFF7BFFF0523002242
:1029D0001146114800F0AEF80523012211460E48B9
:1029E00000F0A8F84FF4602201210B4800F07BF8BA
:1029F00001221146084800F057F8074800F046F851
:102A0000054800F048F80448FFF78AFF0121024812
:102A100000F0E6F810BD00000024014021B18268FA
:102A200042F40062826003E0826822F40062826005
:102A30007047000010B504461348204430B1B0F58B
:102A4000806F0CD0B0F5C05F1BD111E040F20930AF
:102A500004F0CCF840F2093004F0B8F812E040F28B
:102A60000A3004F0C3F840F20A3004F0AFF809E08D
:102A700040F20F3004F0BAF840F20F3004F0A6F83C
:102A800000E000BF00BF10BD00DCFEBF816841F464
:102A9000807181607047816801F0010119B9816816
:102AA00041F001018160704772B101F001031BB177
:102AB000836843F48013836001F0020393B1836859
:102AC00043F4004383600DE001F001031BB1836810
:102AD00023F48013836001F002031BB1836823F4A5
:102AE000004383607047012902D0022910D107E01A
:102AF000836823F46023836083681343836008E062
:102B0000836823F4E043836083681343836000E0B9
:102B100000BF00BF704700000549096821F470211B
:102B2000034A1160114609680143116070470000B3
:102B300004240140F0B51D4606290CD2436B01EB7D
:102B400081071F26BE40B34301EB810602FA06F659
:102B50003343436322E00C290ED2036B8E1F06EB36
:102B600086071F26BE40B3438E1F06EB860602FA79
:102B700006F63343036311E010290FD2C36AA1F1B3
:102B80000C0606EB86071F26BE40B343A1F10C06D8
:102B900006EB860602FA06F63343C3620A2A0CD213
:102BA000046902EB42070726BE40B44302EB42062B
:102BB00005FA06F63443046111E0122A0FD2C46804
:102BC000A2F10A0606EB46070726BE40B443A2F16F
:102BD0000A0606EB460605FA06F63443C460F0BD65
:102BE00001F001021AB1826842F48002826001F0B1
:102BF00002021AB1826842F4001282607047AAB1E0
:102C000001F480731BB1436843F48073436001F4A3
:102C100080631BB1436843F48063436001F00203A7
:102C2000CBB1836843F00203836014E001F4807346
:102C30001BB1436823F48073436001F480631BB1CC
:102C4000436823F48063436001F002031BB183688F
:102C500023F00203836070472DE9F34F83B00F46E2
:102C6000387805287ED13D1DA878082803DD00208E
:102C700005B0BDE8F08F00210EE0E81C00EB8100FC
:102C80000288E81C00EB810040881044602801DDC8
:102C90000020EDE7481CC1B2A8788842EDDCDD4891
:102CA000D0F800903AE1A9F10C0ABAF800100398A4
:102CB00081426FD1DAF804000290C4E00298A0F1DA
:102CC0000C047878217888427AD1608800285BD11A
:102CD000288828B1A06803F0F3FF0020A06095E0E9
:102CE00000200190834600BF09E0616801EB80018C
:102CF0004A880199114489B20191411CC8B2617896
:102D00008142F2DC002008E0E91C01EB80014988E7
:102D100059441FFA81FB411CC8B2A9788142F3DCF7
:102D20000198584508D05946A06804F09DF8A06065
:102D3000A06808B900209BE70020009080461EE0B4
:102D4000D4F808C0009B0CEB0302EB1C03EB8803D8
:102D50005988EB1C03EB8803188803F057FF401CCD
:102D600008B90FE054E1E81C00EB880041880098A6
:102D7000084480B2009008F1010000F0FF08A87834
:102D80004045DDDC00BF41E0288870BB0020019099
:102D900000BF0AE0C0E0E91C01EB80014A8801990C
:102DA000114489B20191411CC8B2A9788142F2DC78
:102DB000019803F0B7FFA060A06810B9002057E7A2
:102DC0003EE04FF0000BD8461BE0A36803EB0B027C
:102DD000EB1C03EB88035988EB1C03EB8803188872
:102DE00003F014FF401C08B90EE00FE0E81C00EBF4
:102DF0008800408858441FFA80FB08F1010000F069
:102E0000FF08A8784045E0DC00BF00BFA8786178E3
:102E100088420BD0A878607062789100606804F0F6
:102E200023F86060606808B9002021E72888608086
:102E300061788A00E91C6068FDF7F8F9032017E75C
:102E40000298006802900AF10401029888427FF417
:102E500035AF142003F066FF04460CB9002007E7E5
:102E60007878207028886080A87860706178880001
:102E700003F058FF6060606808B90020F8E66178E8
:102E80008A00E91C6068FDF7D1F90AF1040104F138
:102E90000C0002F071F92888E0BB0020019000BF0F
:102EA00009E0E91C01EB80014A880199114489B2CB
:102EB0000191411CC8B2A9788142F2DC019803F06B
:102EC00031FFA060A06808B90020D1E64FF0000BE8
:102ED000D8461AE0A36803EB0B02EB1C03EB880354
:102EE0005988EB1C03EB8803188803F08FFE401C05
:102EF00000B90DE0E81C00EB8800408858441FFA38
:102F000080FB08F1010000F0FF08A8784045E1DCF3
:102F100000BF00BF0220ABE6D9F800903D488145D4
:102F20007FF4C1AE142003F0FDFE06460EB900206A
:102F30009EE6301D00BF00BF006000BF406000BFC4
:102F400003983080334906F10C0002F015F9142083
:102F500003F0E8FE04460CB9002089E6787820707A
:102F600028886080A87860706178880003F0DAFEB5
:102F70006060606808B900207AE661788A00E91C20
:102F80006068FDF753F9311D04F10C0002F0F4F80C
:102F90002888D8BB4FF0000B002008E0E91C01EBAB
:102FA0008001498859441FFA81FB411CC8B2A978A5
:102FB0008142F3DC584603F0B5FEA060A06808B972
:102FC000002055E64FF0000AD0461AE0A36803EB54
:102FD0000A02EB1C03EB88035988EB1C03EB880304
:102FE000188803F013FE401C00B90DE0E81C00EB4C
:102FF0008800408850441FFA80FA08F1010000F070
:10300000FF08A8784045E1DC00BF00BF01202FE6A3
:1030100000202DE60C030020F8B50546002600240C
:10302000002000902889001D86B2942E00DDF8BD96
:1030300045F65A2028802048204429880180A01C79
:1030400084B21D482044A9880180A01C84B2A879BC
:1030500019490855601C84B200200855601C84B2D0
:103060000846011928890880A01C84B22889801F7D
:10307000C4F18A01884206DC2B899A1F0E4B18196D
:10308000E968FDF7D3F82889801F204484B2A01E88
:10309000C1B20948801C01F095F800900648204410
:1030A000BDF800100180A01C84B20349204600F046
:1030B0001FF800BFBBE70000D460002007B5002365
:1030C0001A4669460248006805F0F0F80EBD000097
:1030D0001000002070B505460C4603E014F8010B03
:1030E00002F0E6F9281EA5F101018DB2F6D170BDFE
:1030F00070B504460D462146284600F0D3FE00F088
:1031000031FF70BD10B52DED108BFE4890F82500F5
:10311000002876D0FB48407802286DD1F948007825
:10312000062869D1F848407AF6490881F648807A3D
:103130008881F54800794877F348C07A012807DB91
:10314000F148C07A052803DCEF48C07A81F82100F5
:10315000EC4890F83500EC49897B88421BD1E9485E
:1031600090F83400E8494979884214D1E54890F84C
:103170003600E549C97B88420DD1E24890F8370016
:10318000E149097C884206D1DE4890F83800DE49E2
:10319000497C884227D0DC48807B012808DBDA485C
:1031A000807B032804DCD848807BD64981F8350031
:1031B000D548407900F00100D24981F83400D24866
:1031C000C07B00F0010081F83600CF48007C00F0A1
:1031D000010081F83700CC48407C00F0010081F804
:1031E000380002F027F9C848007B30B30020C549F9
:1031F000487122E005E0FFE77F20C249088188810D
:103200001BE0C048807B01280ED17F20BD4908818A
:103210008881BE4800887F280FD1BC4840887F281D
:103220000BD10020887308E0B848008800B2B54987
:103230000881B648408800B28881B248807E002864
:103240006CD1B049B1F90810A1F17F00FDF72BF95D
:1032500041EC1C0BAB49B1F90C10A1F17F00FDF75B
:1032600022F941EC1D0BB0EE4C1AF0EE6C1AB0EEE8
:103270004D0AF0EE6D0AFEF753FEB0EE40BAF0EEE6
:1032800060BA51EC1B0BFDF751F99E494861B1F949
:1032900008107F3949439B4AB2F90C207F3A994B79
:1032A000B3F90C307F3B02FB0310FDF7FCF841EC57
:1032B0001C0BB0EE4C0AF0EE6C0AFFF7A1F8B0EE72
:1032C00040BAF0EE60BA51EC1B0BFDF7FDF800B20E
:1032D0008C4908820846B0F91000642801DD64209A
:1032E0000882884890F82100401E894931F8100072
:1032F0008449098A10FB01F0642190FBF1F000B2CF
:1033000080490883084600897F2808D108468089BB
:103310007F2804D100207F498880C880D7E1DFED75
:103320007E8A784890F8210001287CDD9FED7B8A19
:10333000744890F82100AF2110FB01F000EE100A54
:10334000F8EEC0AA6F48D0ED050AB0EE600AFEF7AD
:10335000E7FE6C48B0F9180000EE900AF8EEE00ABB
:1033600060EE200A674890F82100401E00EE100A27
:10337000B8EEC00AF1EE041A80EE211A614890F806
:10338000210000EE100AF8EE401A81EE810A80EE6C
:10339000809A18EE900AFDF7B6F89FED610B53EC9A
:1033A000102BFDF70EF841EC1B0B564890ED050A6B
:1033B00010EE101A0846FDF7A6F853EC1B2BFCF78D
:1033C000FAFFFDF7B3F80DEE900AB0EE6D0AFEF7C6
:1033D000A7FE4C48B0F9180000EE900AF8EEE00A9B
:1033E00020EE200A60EE089A18EE900AFDF78BF89E
:1033F0009FED4B0B53EC102BFCF7E3FF41EC1E0B46
:10340000404890ED050A10EE101A0846FDF77BF8CB
:103410009FED450B53EC102BFCF7CDFF53EC1E2B0F
:10342000FCF728FF00E013E0FDF780F80DEE900AAE
:10343000B0EE6D0AFEF71CFF3248B0F9180000EE3E
:10344000900AF8EEE00A20EE200A20EE08AAA8E092
:10345000DFED37AA2B48D0ED050AB0EE600AFEF783
:103460005FFE2848B0F9180000EE900AF8EEE00A76
:1034700020EE200A10EE104A2046FDF744F841ECF9
:103480001C0B9FED2C0B53EC102BFCF79AFF41EC1F
:103490001B0BFDF74BF809EE100A18EE900AFDF72A
:1034A00032F841EC1E0B9FED1E0B53EC102BFCF77A
:1034B00088FF41EC1C0B134890ED050A10EE101A22
:1034C0000846FDF720F841EC1F0B53EC1C2BFCF7D2
:1034D00072FF41EC1B0BFDF729F80DEE900AB0EEE0
:1034E0006D0AFEF71DFE0748B0F9180000EE900ABD
:1034F000F8EEE00A60EE209A18EE900AFDF703F865
:103500001CE0000058050020DE05002038000020E7
:103510001800002094050020A470BD3E6666263F7A
:103520006F1283C0CA2109406F1283C0CA21F93FBC
:10353000000096437B14AE47E17A843F41EC1B0BBD
:103540001FED090B53EC102BFCF73BFF41EC1C0B60
:10355000604890ED050A10EE101A0846FCF7D3FFFC
:1035600041EC1B0B1FED100B53EC102BFCF723FF52
:1035700041EC1E0B53EC1C2BFCF77CFE41EC1F0BAB
:10358000FCF7D4FF0DEE900AB0EE6D0AFEF770FE68
:103590005048B0F9180000EE900AF8EEE00A20EE6C
:1035A00020AA39EEC90ABDEEC00A10EE100A00B218
:1035B000494988803AEE090ABDEEC00A10EE100AA9
:1035C00000B2C8800846B0F9040000283CDA08467A
:1035D000B0F90600002837DAB6EE000AB0EE408AED
:1035E0000846B0F90400B1F90610884203DD3A48F4
:1035F000B0F9040002E03848B0F906000DEE100AF8
:103600003548B0F9040000EE100AB8EEC00AF8EE32
:10361000CD0A00EEC80ABDEEC00A10EE100A00B2D4
:103620002D4988800846B0F9060000EE100AB8EE71
:10363000C00AF8EECD0A00EEC80ABDEEC00A10EED0
:10364000100A00B2C88041E02348B0F90400002805
:103650003CDD2148B0F90600002837DD9FED1F0A48
:10366000B0EE408A1C48B0F904001B49B1F90610BD
:10367000884203DA1848B0F9040002E01648B0F9AD
:1036800006000DEE100A1448B0F9040000EE100A0E
:10369000B8EEC00AF8EECD0A00EE880ABDEEC00A08
:1036A00010EE100A00B20C4988800846B0F90600F6
:1036B00000EE100AB8EEC00AF8EECD0A00EE880A55
:1036C000BDEEC00A10EE100A00B2C88000BFBDEC0B
:1036D000108B10BD5805002094050020CDCCCC3DAA
:1036E00000BFFEE710B541EC100BFEF7ADFA51EC50
:1036F000100B10BD70B5054605EB8500304901EB98
:1037000040042846FDF7D4FF00283ED02078052845
:1037100002DA0520207052E020780A2803DA2078A7
:10372000401C20704BE0A07938B90120A07105EB56
:103730004501491CC8B200F099F8A08800283EDD78
:103740006088A18888420DDA6088401C80B2608061
:10375000A188884233D105EB4501C91CC8B200F0ED
:1037600085F82CE0E079002829DD207A401CC0B2E1
:103770002072E179884222DB0020207205EB4501AE
:10378000491CC8B200F072F819E02078052802DD63
:103790000520207010E0207818B12078401E20709D
:1037A0000AE0A079012807D10020A07105EB4501AE
:1037B000891CC8B200F05AF800206080207270BDE9
:1037C000B80600200B48807A0A4AD27A904201D18A
:1037D000002070470748807A064A115C1046807ABC
:1037E000401CC0B290720A2801DB0020907208468B
:1037F000EFE70000FE0600200021134A9172D1720B
:10380000117300201DE0C82100EB80020F4B03EB79
:1038100042029180022100EB800203F81210002185
:1038200000EB800203EB4202917100EB800203EB9C
:103830004202D17100EB800203EB42021172411C83
:10384000C8B20728DFDB7047FE060020B80600205C
:1038500010B5FDF773FF002404E02046FFF74AFF90
:10386000601CC4B2072CF8DB10BD00000649C97A01
:10387000054A50541146C97A491CC9B2D1720A2965
:1038800001DB0021D1727047FE06002010B5012334
:10389000102204210A48FDF776FE01231022082198
:1038A0000748FDF770FE0123182204210548FDF7A3
:1038B0006AFE0123042208210248FDF764FE10BDC0
:1038C00000100140000801407047000010B5044698
:1038D0000548844207D140F2194003F087F940F2CD
:1038E000194003F073F910BD0064004010B50021C9
:1038F000837A012202FA03F13E4A126842F0010281
:103900003C4B1A603B4A1C3212688A43394B1C33C9
:103910001A60C289DAB9374A0C3212688A43354BC9
:103920000C331A60C288344B03EA024243881A43BC
:103930004389304C403444F8332082882E4B03EACC
:10394000024203881A43438904EBC3035A60C289C5
:10395000012A1BD1274A0C3212680A43254B0C332B
:103960001A600288244B03EA024243881A434389BF
:10397000204C403444F8332082881F4B03EA024233
:10398000C3881A43438904EBC3035A6082893AB956
:10399000184A121D12688A43164B1B1D1A6006E056
:1039A000144A121D12680A43124B1B1D1A60028929
:1039B0003AB9104A143212688A430E4B14331A6013
:1039C00006E00C4A143212680A430A4B14331A6098
:1039D000027C012A06D1074A1C3212680A43054BB1
:1039E0001C331A60034A126822F00102014B1A606C
:1039F00010BD0000006600400000FFFF70B50246E9
:103A00004FF6FF730020146824F002041460146859
:103A100044F00104146000E05B1E546804F00104EB
:103A20000CB9002BF8D1546804F001040CB9002043
:103A300074E00C784FF0404505EA84744D784FF0FF
:103A4000407606EA05652C438D784FF4702606EA29
:103A500005452C43CD784FF4E00606EA05552C4386
:103A60004D896D1EC5F309052C43D4610C79012CD9
:103A700004D1146844F08004146003E0146824F056
:103A8000800414604C79012C04D1146844F0400483
:103A9000146003E0146824F0400414608C79012C55
:103AA00004D1146844F02004146003E0146824F086
:103AB00020041460CC79012C04D1146824F0100483
:103AC000146003E0146844F0100414600C7A012CB4
:103AD00004D1146824F00804146003E0146844F06E
:103AE000080414604C7A012C04D1146844F00404D6
:103AF000146003E0146824F004041460146824F0D3
:103B0000010414604FF6FF7300E05B1E546804F07C
:103B100001040CB1002BF8D103B1012070BD426942
:103B20000A434261704710B500F5D87303EB0113E7
:103B30001B6803F004031372137A3BB900F5D873C2
:103B400003EB01131B685B0D136006E000F5D873EF
:103B500003EB01131B68DB08536000F5D87303EB1C
:103B600001131B6803F00203537200F5DA7303EBD1
:103B700001131B681B0AD37400F5DA7303EB0113FE
:103B80001B6803F00F03937200F5DC7303EB011362
:103B90001B68D37200F5DC7303EB01131B681C0A6E
:103BA000147300F5DC7303EB01131B681C0C5473D6
:103BB00000F5DC7303EB01131B681C0E947300F516
:103BC000DE7303EB01131B68D37300F5DE7303EBA5
:103BD00001131B681C0A147400F5DE7303EB011358
:103BE0001B681C0C547400F5DE7303EB01131B6897
:103BF0001C0E947421B9C36843F02003C36003E032
:103C0000036943F02003036110BD000030B5024694
:103C10000B460021906800F08060B0F1806F00D109
:103C200010E0906800F00060B0F1006F01D1012158
:103C300008E0906800F08050B0F1805F01D102216F
:103C400000E00321032901D1032030BD02F5C0703B
:103C500000EB0110006800F0010402F5C07000EBF9
:103C600001100460187A88B918883B4C04EA405067
:103C70005C7A204302F5C07404EB011424682043ED
:103C800002F5C07404EB0114206013E06FF0070428
:103C9000586804EAC0001C7A20435C7A204302F58D
:103CA000C07404EB01142468204302F5C07404EBD3
:103CB0000114206002F5C27000EB0110006820F0D2
:103CC0000F0402F5C27000EB0110046002F5C2702F
:103CD00000EB011000689C7A204302F5C27404EBEB
:103CE00001142060987B4FF07F4404EA00605C7B05
:103CF0004FF47F0505EA044420431C7B2D1205EA9E
:103D000004242043DC7A204302F5C47404EB01143C
:103D10002060987C2C0404EA00605C7C2D0205EA9B
:103D2000044420431C7C2D1205EA04242043DC7B40
:103D3000204302F5C67404EB0114206002F5C07044
:103D400000EB0110006840F0010402F5C07000EBC8
:103D500001100460084678E70000E0FF10B52A482B
:103D6000FFF7B4FD40F2197002F020FF40F202604C
:103D700002F01CFFFDF758FB4FF4006303224821BB
:103D8000224800F0CAFD4FF48053032218211F4837
:103D900000F0C3FD00220321152001F0A3FC1C4903
:103DA000002000F08DF81B49012000F089F8002068
:103DB0001749087101204871002088710120C871DD
:103DC00000200872012048720020087048700E2000
:103DD00088700020C870072048810B48FFF70EFE4E
:103DE00000224FF4A0611046FDF7B4FD11210648F2
:103DF000FFF795FE03220021012004F0D7F90649C0
:103E0000086001F0DBFC10BD0064004000080140C8
:103E1000A40C0020B00C00207C00002010B5002471
:103E200000F010F80446002C09DD802C07DA21464A
:103E3000034800F019F802492046FFF74BF910BD7E
:103E40000C0B00200020074B9988DA88914204DD92
:103E50001B8913445B1A98B203E0914201DA531AAA
:103E600098B270478C0B002030B50246002000BF8E
:103E700012E00B4B1B680A4CA4881B5D1354084BC3
:103E80009B885B1C064C248993FBF4F504FB1533DB
:103E9000034CA380431C98B28842EADB30BD00008B
:103EA0008C0B002070B504460D460026034A2946B7
:103EB000204600F0FFF8304670BD0000180C0020CE
:103EC00010B5024609B900BFFEE732B1012A16D08B
:103ED000022A20D0032A41D12EE000234B71CB715E
:103EE0008B7140F2FF334B8100230B724B70022326
:103EF0008B700023CB700B714B720B7030E0012381
:103F0000CB8100230B740B810B804B808B80CB808B
:103F10008B814B8124E0002005E0002401F10B039C
:103F20001C54431CD8B20828F7D300238B724B6073
:103F30000B724B720B6013E0002005E0002401F1CE
:103F40000B031C54431CD8B20828F7D300238B72F0
:103F50004B600B72CB744B720B6001E000BFFEE74D
:103F600000BF10BD10B5454800F08EF844490880E8
:103F70007DE04348008808283ADD404800893F49F1
:103F80008988401A84B2082C11DA3C4800683B4A00
:103F90009288811822463B48FCF748F9C4F1080290
:103FA000364B1968374B1819FCF740F909E03348CC
:103FB000006832498988014432480A6802604968C9
:103FC000416008222F494FF4B060FDF78FFA2C486A
:103FD000008808382A4908802848808808302749FE
:103FE000098990FBF1F201FB1200244988803DE031
:103FF0002248008921498988401A84B220480088D3
:10400000844212DA1D4800681C4A928881182246B0
:104010001C48FCF70BF91A4B1B881A1B174B196825
:10402000184B1819FCF702F909E014480068134A04
:1040300092888118124802881248FCF7F7F8104855
:10404000027810494FF4B060FDF750FA0B488088B1
:104050000B49098808440949098990FBF1F201FBE1
:1040600012000649888000200549088000BF0448E6
:10407000008800283FF77DAF10BD0000180C00201D
:104080008000002082000020014600208A88CB8822
:104090009A4206DD0A89CB881A448B88D21A90B2DC
:1040A00007E08A88CB889A4203DACA888B88D21ABA
:1040B00090B2704770B50346002000BF0DE01C5C55
:1040C000D6881568AC55D488641C158994FBF5F620
:1040D00005FB1644D480441CA0B28842EFDB70BDBF
:1040E00070B505460E461446052020706570B07800
:1040F0008000C01C60806088802801DD0020608016
:1041000062883146201DFCF791F870BD2DE9F04121
:1041100007460D4614460420207067700120608019
:104120002878207100262EE06088001D691C01EBB4
:10413000C60149880844802802DD0020608025E00F
:104140006188201D0144681C00EBC60000680860FF
:104150006088001D60806B1C03EBC6035A886B1CD3
:1041600003EBC6035968B4F802C0231D0CEB03002F
:10417000FCF75CF86188681C00EBC60040880844C6
:104180006080701CC6B22878B042CDDC00BFBDE8AC
:10419000F0810000B2B011E00A2003F0BFFC00F093
:1041A00031FB07484079012808D1FEF7ABFF01A990
:1041B00021A8FCF773FC21A8FDF772F9ECE70000D9
:1041C0005805002010B502460B464FF6FF710AE075
:1041D00012F8014B84EA2120C0B2074C34F81000D9
:1041E00080EA012081B2181EA3F10104E3B2EFDCE2
:1041F000C84380B210BD00000C0100208B1A83421E
:1042000002DD831898B206E08B18834202DA831A23
:1042100098B200E0084670472DE9F05F82460E46EE
:104220004FF0000B3078062851D12A48076849E042
:10423000A7F10C052888504543D14FF000092CE028
:10424000D5F8048021E0A8F10C04301D10F8090015
:104250002178884217D10BF1010000F0FF0B404696
:1042600000F09CFF606802F02BFD00206060608819
:1042700020B9A06802F024FD0020A060204602F0D2
:104280001FFD002404E0D8F80080281D8045DAD105
:1042900000BF09F1010000F0FF0970884845CFDC3C
:1042A000281D0168814201D1012100E0002101297E
:1042B00006D1384600F072FF284602F001FD0025C5
:1042C00003E03F6803488742B2D100BF00BF5846B1
:1042D000BDE8F09F0C03002010B5042002F0FAFFA7
:1042E000104800681049B0FBF1F0104908700D4803
:1042F00000680D49B0FBF1F44FF47A70444301209B
:104300000B4908804FF0E020006940F002004FF0B8
:10431000E021086108464461006940F0010008613D
:1043200010BD00001400002040420F0004000020D7
:104330000600002070B5034600224FF0E0267569A4
:104340000D4E367803FB06F44FF0E026B16910E01D
:104350004FF0E026B06988420BD0884202D20E1A94
:10436000324402E02E1A0E4432440146A24200D3E7
:1043700000E0EDE700BF70BD0400002008B504F0C8
:1043800079FB009005E000F089FD0A21684603F002
:10439000F7FBF8E7FCB506460F4614461D46082015
:1043A00005232A463946CDE90004304600F0C2FC18
:1043B000FCBD70B505460C462146284600F098F92C
:1043C00008B900BFFEE704EB8400810005F1080096
:1043D000405820F0010104EB8400820005F1080040
:1043E000815070BD70B505460C462146284600F048
:1043F0007FF908B900BFFEE704EB8400810005F1F6
:104400000800405840F0010104EB8400820005F1EF
:104410000800815070BD70B505460C4621462846FF
:1044200000F066F908B900BFFEE704EB84008100E4
:1044300005F10800405820F0200104EB84008200C0
:1044400005F10800815070BD70B505460C46214647
:10445000284600F04DF908B900BFFEE704EB8400E0
:10446000810005F10800405840F0200104EB840071
:10447000820005F10800815070BD000000B587B0D2
:104480004FF4A06002F092FB0021134800F02AF8DC
:104490001248009000208DF8180011480290012069
:1044A0008DF81900000201908000039000208DF823
:1044B0001A0002200490000305906A460021064875
:1044C00000F054F800210448FFF7BEFF0021024825
:1044D000FFF788FF07B000BD000002404C240140F8
:1044E0003400002070B504460D462946204600F0F1
:1044F000FFF808B900BFFEE705EB8500810004F175
:104500000800405820F0010105EB8500820004F10D
:1045100008008150002105EB8500820004F10800AD
:10452000815005EB8500820004F10C00815005EB01
:104530008500820004F11000815005EB85008200A7
:1045400004F1140081506068AA000F2191400843D3
:10455000606070BD30B503461C688D0002FA05F539
:104560002C400CB1012000E0002030BD2DE9F041CD
:1045700004460D4616462946204600F0B9F808B90B
:1045800000BFFEE705EB8500820004F110003168F2
:10459000815005EB8500820004F11400B168815060
:1045A000308A81B205EB8500820004F10C00815055
:1045B00005EB8500810004F10800475827F47C577B
:1045C000F1687068084371690843074305EB85008B
:1045D000810004F108004750307E01280ED105EB20
:1045E0008500810004F10800405840F0400105EBCF
:1045F0008500820004F1080081500DE005EB850084
:10460000810004F10800405820F0400105EB8500CE
:10461000820004F108008150707E01280ED105EB64
:104620008500810004F10800405840F0800105EB4E
:104630008500820004F1080081500DE005EB850043
:10464000810004F10800405820F0800105EB85004E
:10465000820004F108008150B07E70B905EB85003E
:10466000810004F10800405820F0100105EB85009E
:10467000820004F1080081500DE005EB8500810007
:1046800004F10800405840F0100105EB850082005D
:1046900004F108008150BDE8F08170B506460C4673
:1046A00015462146304600F023F808B900BFFEE762
:1046B00004EB8400810006F11400455070BD70B514
:1046C00005460C462146284600F012F808B900BFFE
:1046D000FEE704EB8400810005F10800405820F457
:1046E000804104EB8400820005F10800815070BD18
:1046F00002460120034B9A4202D1042900DD00202A
:10470000704700000004024070B506460C4615468E
:1047100021463046FFF7ECFF08B900BFFEE7A9B21B
:1047200004EB8400820006F10C00815070BD000093
:1047300010B540F2026002F039FA40F2036002F074
:1047400035FA40F2046002F031FA40F2056002F0FE
:104750002DFA4FF4C06002F029FAFFF7BDFD4FF4C7
:10476000407001F021F801210B4800F03DF901F003
:10477000F3F900F0C7F9FFF7A7F800F097F902F096
:1047800033FF00F0D7FCFFF781F800F075F902F075
:104790007BFA00F08FFF10BD0002300010B500F072
:1047A000AFFDFCF701FE00F077F900F0A7F902F089
:1047B000FBFEFFF7D3FA02F05DFA00F057FC00F0C1
:1047C00022F802F075FE10BD82B0CDE9000121F0A3
:1047D000004001909DED000B02B051EC100B7047B2
:1047E00070B504460D4600BF0721054802F0B9FF29
:1047F0000028F9D02146024802F061FF204670BD32
:10480000004800407047704710B54FF4807113485E
:1048100000F0E1F8124908704FF48071114800F07F
:10482000DAF80F4948704FF400710C4800F0D3F8E3
:104830000B4988708021094800F0CDF80849C870FC
:104840004FF48041084800F0C6F80549087140213E
:10485000024800F0C0F80249487110BD0010014044
:104860004400002000080140000C01402DE9F84FF1
:1048700082468B4614460720207084F801B0012040
:104880006080002020712048D0F8008035E0A8F139
:104890000C09B9F8000050452DD10125D9F8047054
:1048A00023E0A7F10C062079401C20713178201DEF
:1048B0004155681C85B2201D2844009071880098DD
:1048C0000180A81C85B27178201D4155681C85B2F5
:1048D00073789A00231D58197168FBF7A7FC70784C
:1048E000042111FB005085B23F6809F104008742A2
:1048F000D7D1658004E0D8F8008003488045C6D150
:1049000000BFBDE8F88F00000C0300204161704734
:104910000AB1016100E041617047F0B504461646F6
:104920000025002201F00F0501F0100747B1042E09
:1049300005D145F00305E76B1F43E76300E035430E
:1049400000201EE0012787401F40C7B122684FEAC0
:10495000800C0F2707FA0CF7BA43870005FA07F710
:104960003A43282904D1012787401F40676105E0A9
:10497000482903D1012787401F4027612260471C37
:10498000B8B20828DED3082022E0012787401F4064
:10499000E7B16268A0F108074FEA870C0F2707FA12
:1049A0000CF7BA43A0F10807BF0005FA07F73A432E
:1049B000282904D1012787401F40676105E0482965
:1049C00003D1012787401F4027616260471CB8B2AE
:1049D0001028DAD3F0BD02469068084008B10120E3
:1049E00070470020FCE70000F0B50A4600230024D1
:1049F0000021002500F00046B6F1004F02D11D4E07
:104A0000F16901E01B4E7168C0F3034583B200F405
:104A10004016B6F5401F08D121F0E061154E7668CA
:104A200026F0E066134F7E6012E000F48016B6F5C3
:104A3000801F06D1032606FA05F4A14341F0E06188
:104A400006E0460D360103FA06F6B14341F0E06197
:104A500022B1460D360103FA06F6314300F0004656
:104A6000B6F1004F02D1034EF16101E0014E7160D9
:104A7000F0BD00000000014010B50123182299028A
:104A80000448FCF780FD0123042251020148FCF791
:104A90007AFD10BD0010014010B57F200249088149
:104AA0008881FBF742FF10BD5805002010B5012397
:104AB000002219460A48FCF766FD01230022022164
:104AC0000748FCF760FD0123102211460448FCF75B
:104AD0005AFD002210210248FFF71AFF10BD000006
:104AE0000008014008B503F0C5FF009005E0FEF79F
:104AF000AFFE0A21684603F043F8F8E710B5FEF769
:104B00007BFE10BD10B50323042291011048FCF771
:104B10003AFD0323042291010E48FCF734FD0323E0
:104B20000422D1010A48FCF72EFD03230422802130
:104B30000748FCF728FD0323042211030648FCF76D
:104B400022FD0323042240210148FCF71CFD10BD77
:104B50000010014000080140000C014070B50546FE
:104B60000C46601EC4B2681EC5B205F1B001C8B2E1
:104B700002F0AAFC102101EB141002F0A5FC04F0D5
:104B80000F0002F0A1FC70BD00200CE0002106E047
:104B90000022064B03EBC1031A544A1CD1B28029F0
:104BA000F6DB421CD0B20828F0DB70470B07002070
:104BB000F0B5144600267F2801DC3F2900DDF0BD5A
:104BC0000B46CF1701EB5777C7F3C702CF1701EB9F
:104BD0005777FF10A1EBC707FDB20123AB40DEB250
:104BE0004CB10A4B03EBC0039B5C3343074F07EB0D
:104BF000C007BB5408E0054B03EBC0039B5CB34309
:104C0000024F07EBC007BB5400BFD8E70B070020DB
:104C100070B5002412E0611CC8B20121FFF79EFFAD
:104C2000002507E0074901EBC501085D02F084FC9F
:104C3000681CC5B2802DF5DB601CC4B2082CEADB11
:104C400070BD00000B0700202DE9FC4F82460E4688
:104C500017461C460B9D2846E91705EB5171C1F319
:104C6000C7010091A7F12000C7B24FF0000958E03A
:104C70004FF0000848E0052C0AD1082D08D107EBB9
:104C800087002A49084404FB0981405C01900DE03B
:104C9000082C09D1102D07D1254800EB071004FB83
:104CA0000981405C019001E0BDE8FC8F4FF0000BF2
:104CB0001CE0019800F0010050B10C9808B90120E7
:104CC00000E00020024631465046FFF771FF04E045
:104CD000314650460C9AFFF76BFF01984010019047
:104CE000701CC6B20BF1010000F0FF0BBBF1080F06
:104CF000DFDBA6F10800C6B20AF1010000F0FF0AEE
:104D000008F1010000F0FF08A045B4DBAAEB0400A5
:104D100000F0FF0A06F10800C6B209F1010000F038
:104D2000FF0900988145A3DB00BFBDE7E4950008BB
:104D3000F48F00082DE9FC4305460E4614461F4635
:104D4000DDE909891BE0C7F18000A84203DA0025EC
:104D500006EB0800C6B2C8F14000B04204DA0020F9
:104D600005460646FFF710FFCDE9008922783B464D
:104D700031462846FFF768FFE819C5B2641C207861
:104D80007E2802DC20782028DDDABDE8FC830000E4
:104D900038B500F02BF8134890F828000A2190FB52
:104DA000F1F000EB4000104901EB4004062305221E
:104DB00000210120009400F029F80A4890F828000A
:104DC0000A2190FBF1F201FB120000EB40000649C2
:104DD00001EB40040623052200210720009400F087
:104DE00015F838BD58050020BF970008002007E0DF
:104DF00000EB4001044A114400220A80411CC8B261
:104E00000628F5DB7047000060000020F0B504467E
:104E1000059D002039E0082C22DA0E1806EB460624
:104E20001D4F3E4476782F5C2741FFB23E430F185A
:104E300007EB4707DFF860C067447E702E5CC4F163
:104E40000807BE4006F0F0060F1807EB47071CF8EE
:104E500007703E430F1807EB47070CF8076012E096
:104E60002E5CA4F108073E4106F0F0060F1807EB90
:104E70004707DFF824C01CF807703E430F1807EB04
:104E800047070CF80760461CF0B2984202DA0E1889
:104E9000062EC0DBF0BD00006000002010B5FEF75C
:104EA00091FC04463C48407948B9FCF7D9FCFFF72F
:104EB0009DFF072C6DD101203749487169E00B2C0B
:104EC0003ED008DC012C13D0042C22D0072C0BD0B0
:104ED0000A2C4ED12FE00D2C37D00E2C31D0102CB7
:104EE00028D0152C45D135E000202B49487141E0F0
:104EF000294890F82100052806DA274890F8210073
:104F0000401C254981F821004FF4FA70234908809C
:104F100030E0214890F82100012806DD1E4890F875
:104F20002100401E1C4981F821004FF4FA701B49F2
:104F300008801FE01EE04FF6D4601949088119E08F
:104F400000BF00201649088114E04FF49670144900
:104F500008810FE01348008950B91248408938B9D8
:104F60001048007B08B9012000E000200C490873BC
:104F700000E000BF00BF09480088002807DD00F0FE
:104F800013F806480088401E0449088001E0FFF736
:104F9000FFFE00F039F810BD580500207600002013
:104FA00094050020B00500200EB5FFF71FFF12A1E9
:104FB00003C9CDE9010101A80623012200210090C7
:104FC0001046FFF723FF0E4890F8210000EB400049
:104FD0000C4901EB4000062305220021009004202B
:104FE000FFF714FF01A806230122002100900B20E7
:104FF000FFF70CFF0EBD00008080808080800000E5
:1050000058050020BF97000810B5002426E003E0F3
:105010004FF47A70FFF78EF9022204211148FFF74E
:1050200099FA0028F4D004EB44000F4942180421F7
:105030000C48FFF732FB04210A48FFF7BAF90322B4
:1050400004210848FFF760FB04210648FFF7CAF96E
:105050004FF47A70FFF76EF9601CC4B2072CD6DBF0
:1050600010BD0000000002406000002000B58FB0BD
:1050700040F20E7001F09AFD4FF4A06001F096FD31
:1050800004212948FFF72EFA2848089028480A905A
:1050900001208DF83A0000200B9009904FF4005049
:1050A0000D9003200C9000208DF8380001208DF821
:1050B000390008AA04211C48FFF758FA04211A48AD
:1050C000FFF7A9F904211848FFF7F9FA17480C3837
:1050D00001F0AAFF4FF4404002904FF4827001901B
:1050E000002003900690049007908020059001A96D
:1050F0000E480C3801F0C4FF0C480C3801F0DEFFFC
:105100000A480C3801F0D5FF08480C3801F087FF39
:1051100004210548FFF766F9002104480C3801F026
:1051200073FF0FB000BD0000000002400C380040CB
:105130006000002010B540F2036001F037FD4FF42D
:10514000C06001F033FD032318224FF400410948E9
:10515000FCF719FA032318224FF480510548FCF795
:1051600012FA032318224FF400510248FCF70BFAFD
:1051700010BD0000000C014030B504460A46204630
:105180001146536800BF012505B906E0486001607B
:10519000436000BF186000BF00BF30BD00BF00BF4C
:1051A000012101B908E0D0E900124A6000BF00BF48
:1051B000116000BF00BF00BF704700001CB5FFF7C3
:1051C000B7FAFFF7EBFAFCF73DFBFCF7A1FB00F0A9
:1051D000B3F80748022100238022CDE9001005A181
:1051E000074803F007FC02F07BFE00BFFEE700006B
:1051F0000000002053544152545F5441534B00006F
:10520000C97000087CB505461C48006800B97CBD23
:105210000024002001900A2000905A2018490870AC
:105220004870A41C084620441449096889890180F3
:10523000A41C022012490855641C00200855641C57
:1052400008462044BDF800100180A41C0C482044EE
:105250000560241DA01EC1B20948801CFEF7B2FFE4
:10526000019007482044BDF804100180A41C0449A3
:105270002046FDF73DFF00BFC9E7000034030020D2
:10528000D46000201CB51C48006800B91CBD002477
:1052900000200190072000905A201849087048709B
:1052A000A41C084620441449096889890180A41C6B
:1052B000012012490855641C00200855641C08464A
:1052C0002044BDF800100180A41C00200B490855A3
:1052D000641CA01EC1B20948801CFEF773FF019038
:1052E00006482044BDF804100180A41C0349204650
:1052F000FDF7FEFE00BFC9E734030020D4600020A4
:1053000000200C49088008804FF618408880C8802B
:105310000846008920F0FF00401C08810846007AFA
:1053200008810846408920F0FF0048810846807ABD
:10533000488170474C0300203C480078012802DD7A
:1053400000203A49088039484088012802DD0020C1
:10535000364948803548B0F9040041F270718842FE
:1053600005DC3248B0F904004942884203DA4FF6BE
:1053700018402E4988802D48B0F9060041F270711E
:10538000884205DC2948B0F906004942884203DA20
:105390004FF618402549C8802448007A052806DDC4
:1053A0002248008920F0FF00401C204908811F4846
:1053B00000890121B1EB102F03DA1C48007A1B4948
:1053C00008811A48807A012805DD1848408920F0B4
:1053D000FF0016494881154840890121B1EB102F83
:1053E00003DA1248807A1149488110480078104940
:1053F00081F829000D48408808B9002000E0042009
:105400000B4988760948007A81F8350007480089F9
:10541000000A81F836000548807A81F83700034891
:105420004089000A81F83800704700004C030020D2
:10543000580500201848807E10B900201749488080
:105440001548807E042802D1012014494880124862
:1054500090F835101148008961F307000F49088161
:105460000D4890F836100D48008961F30F200B4964
:105470000881094890F837100848408961F307000F
:1054800006494881044890F838100448408961F37F
:105490000F20024948817047580500204C03002026
:1054A00030B5039C837181800281C46030BD0000EF
:1054B00010B50446454890F88C0020B1012817D05B
:1054C000022877D13CE05A2C11D14048B0F88A101C
:1054D000B0F88A00401C3D4AA2F88A0010464454A5
:1054E0000120114681F88D0081F88C0063E065E0B1
:1054F0003648B0F88A10B0F88A00401C334AA2F847
:105500008A0010464454B0F88A00082817D1104683
:1055100090F88D00012811D11046C08880280DDC3C
:105520004FF6FF701146A1F88E0001461046A0F814
:1055300090100220114681F88C0000E03EE03AE035
:105540002248B0F88A10B0F88A00401C1F4AA2F81E
:105550008A001046445490F88D00012829D1104645
:10556000B0F88A10C088001D814222DB1046817984
:10557000801CFEF727FE1549A1F89000084690F818
:105580008D00012813D10846B0F88A00801E095CFE
:105590000E48B0F88A00401E0C4A105C41EA002117
:1055A0001046B0F89000814201D100F011F805E0FA
:1055B00000E000E002E000BF002010BD0020034931
:1055C000A1F88A0081F88C0000BFF6E75E61002038
:1055D0002DE9F04188B02D4890F88D7090F8048046
:1055E000C58800F10806012F07D18DF81680408884
:1055F000ADF81400ADF8185007969DF8160008286D
:1056000040D2DFE800F03F04070D17212B35FFF7EC
:1056100039FE37E0079804682046FFF7F3FD31E0D4
:1056200001AA002104A800F0A5FA01A807C8FDF707
:1056300045FD27E001AA002104A800F09BFA01A87B
:1056400007C8FDF73BFD1DE001AA002104A800F0FA
:1056500091FA01A807C8FDF731FD13E001AA002166
:1056600004A800F087FA01A807C8FDF727FD09E0A4
:1056700001AA002104A800F07DFA01A807C8FDF7DF
:105680001DFD00BF00BF08B0BDE8F0815E610020D5
:1056900070B505460C461646B4F5007F01DC052CB6
:1056A00000DA70BD22462946701CFAF7BFFD00BF24
:1056B000F7E7000010B50123042251030748FBF768
:1056C00062FF0123182219030448FBF75CFF012342
:1056D000042211460248FBF756FF10BD001001409E
:1056E000001401402DE9F04103460D461646002402
:1056F0000027A0462A48006800F4E060B0F5E06F9B
:1057000003D100BF4FF0040830E02548006800F4E2
:10571000E060B0F5C06F03D101274FF0030825E02A
:105720001F48006800F4E060B0F5A06F02D10227C6
:10573000B8461BE01A48006800F4E060B0F5806FDE
:1057400003D103274FF0010810E01548006800F46A
:10575000E060B0F5407F03D104274FF0000805E07A
:105760004FF4A06000F020F80227B846C7F104000B
:1057700005FA00F4C8F104010F20C840304004438A
:1057800024010848C45403F01F0101208840591126
:10579000890001F1E021C1F80001BDE8F0810000BD
:1057A0000CED00E000E400E002490143024A116010
:1057B000704700000000FA050CED00E010B5BEB027
:1057C000002400208DF8B40000BF00BFC2000121FA
:1057D0001141CBB22146621CD4B201AA5354411CE0
:1057E000C9B2081EF2D0BD49B1F8A8209DF8B43066
:1057F0000DF1B50101EBC3010A80B84991F8AA2067
:105800009DF8B4300DF1B50101EBC3014A80B349F5
:1058100091F8AA10611A01AA0A449DF8B4300DF15A
:10582000B50101EBC3014A609DF8B410491CC9B22F
:105830008DF8B410002000BFC20000211141CBB28E
:105840002146621CD4B201AA5354411CC9B2084675
:105850000229F1D3A1498A8A9DF8B4300DF1B5012E
:1058600001EBC3010A809D498A7D9DF8B4300DF19A
:10587000B50101EBC3014A809849897D611A01AAEB
:105880000A449DF8B4300DF1B50101EBC3014A6043
:105890009DF8B410491CC9B28DF8B410002000BFA7
:1058A000C20000211141CBB22146621CD4B201AA30
:1058B0005354411CC9B208460229F1D387490A8FC3
:1058C0009DF8B4300DF1B50101EBC3010A808349A5
:1058D00091F83A209DF8B4300DF1B50101EBC30108
:1058E0004A807E4991F83A10611A01AA0A449DF84B
:1058F000B4300DF1B50101EBC3014A609DF8B4105D
:10590000491CC9B28DF8B410002000BFC2000121AB
:105910001141CBB22146621CD4B201AA5354411C9E
:10592000C9B2081EF2D06D49B1F850209DF8B430CC
:105930000DF1B50101EBC3010A80684991F85220CD
:105940009DF8B4300DF1B50101EBC3014A80634904
:1059500091F85210611A01AA0A449DF8B4300DF171
:10596000B50101EBC3014A609DF8B410491CC9B2EE
:105970008DF8B410002000BFC20006211141CBB247
:105980002146621CD4B201AA5354411CC9B2081E5C
:10599000F2D05249B1F854209DF8B4300DF1B50160
:1059A00001EBC3010A804D4991F856209DF8B430AF
:1059B0000DF1B50101EBC3014A80484991F8561039
:1059C000611A01AA0A449DF8B4300DF1B50101EB4A
:1059D000C3014A609DF8B410491CC9B28DF8B410D7
:1059E000002000BFC20000211141CBB22146621C41
:1059F000D4B201AA5354411CC9B208460229F1D3BA
:105A00003649B1F864209DF8B4300DF1B50101EBD1
:105A1000C3010A80314991F866209DF8B4300DF138
:105A2000B50101EBC3014A802C4991F86610611A57
:105A300001AA0A449DF8B4300DF1B50101EBC30190
:105A40004A609DF8B410491CC9B28DF8B41000200A
:105A500000BFC20000211141CBB22146621CD4B26A
:105A600001AA5354411CC9B2081EF2D01B49B1F817
:105A700074209DF8B4300DF1B50101EBC3010A802B
:105A8000164991F876209DF8B4300DF1B50101EB7F
:105A9000C3014A80114991F87610611A01AA0A449B
:105AA0009DF8B4300DF1B50101EBC3014A609DF8DA
:105AB000B410491CC9B28DF8B4100CAA2DA9492004
:105AC000FEF724FB09AA0CA940F60120FBF7B0FE63
:105AD00009A801F087FA3EB010BD0000FC9700084D
