:020000040800F2
:100000004067002009020008C9170008A915000868
:10001000C5170008B10A00083D1C000800000000D8
:10002000000000000000000000000000490100087E
:10003000C514000800000000A5010008CF19000841
:1000400023020008230200082302000823020008FC
:1000500023020008230200082302000823020008EC
:1000600023020008230200082302000823020008DC
:1000700023020008230200082302000823020008CC
:1000800023020008230200082302000823020008BC
:1000900023020008B50A0008230200082302000812
:1000A00023020008891A000823020008230200081E
:1000B000230200082302000823020008230200088C
:1000C000230200082302000823020008230200087C
:1000D00023020008CD1B0008051C000823020008AD
:1000E000230200082302000823020008230200085C
:1000F000230200082302000823020008230200084C
:10010000230200082302000823020008230200083B
:100110004D1B0008230200082302000823020008E8
:10012000230200082302000823020008230200081B
:10013000DFF810D000F02CFC0048004709830008CD
:10014000AFF30080406700202C4B19680868B0E8C6
:10015000F04F80F30988BFF36F8F4FF0000080F3FA
:10016000118870470000000008480068006880F3AC
:1001700008884FF0000080F3148862B661B6BFF3C0
:100180004F8FBFF36F8F00DF00BF00BF08ED00E0AF
:10019000DFF80C00016841F470010160704700BF96
:1001A00088ED00E0EFF30980BFF36F8F134B1A68FF
:1001B0001EF0100F08BF20ED108A20E9F04F1060EC
:1001C00009B44FF0500080F31188BFF34F8FBFF395
:1001D0006F8F0AF0AFFD4FF0000080F3118809BC6B
:1001E00019680868B0E8F04F1EF0100F08BFB0ECB7
:1001F000108A80F30988BFF36F8F7047A00000203A
:10020000EFF3058070470000064880470648004726
:10021000FEE7FEE7FEE7FEE7FEE7FEE7FEE7FEE7B6
:10022000FEE7FEE7E11900083101000840EA01039A
:100230009B0703D009E008C9121F08C0042AFAD29C
:1002400003E011F8013B00F8013B521EF9D2704760
:10025000D2B201E000F8012B491EFBD27047002208
:10026000F6E710B513460A4604461946FFF7F0FFB5
:10027000204610BD2DE9FE4F804681EA0300C00FE5
:100280000C46009021F0004123F00045B8EB02003D
:10029000A94105D24046214690461C460B460246DF
:1002A00023F00040104347D0270DC7F30A00C3F3E3
:1002B0000A510290401A019040286BDAC3F31300F0
:1002C00040F4801B0098924620B10023D2EB030A31
:1002D00063EB0B0B01985946C0F14002504600F009
:1002E00010FA06460D4650465946019A00F028FA83
:1002F00010EB08006141002487EA115284EAE77399
:100300001A4340D0009A62B3019A012A4FEA075279
:1003100015DC001B61EB02014FF0004202EA0752BC
:10032000CDE90042001C41F5801132462B4600F019
:100330005FFA03B0BDE8F08F40462146F9E7001BA5
:1003400061EB0201001C41F5801300185B4120188D
:10035000A2F5001747EB030140EAD570B6196D41CD
:1003600011E06D084FEA360645EAC0754FEA0752BC
:10037000001B61EB0201001C41F5801149084FEAA6
:1003800030000019514132462B4603B0BDE8F04F12
:1003900000F01FBA0098012240000023D0EB0202B7
:1003A00063EBE073009821464FEAE074B8EB00007D
:1003B00061EB0401E9E783F000435BE781F0004172
:1003C00058E72DE9FE4F81EA030404F0004421F0D0
:1003D000004100944FF0000B23F0004350EA010469
:1003E0005ED052EA03045BD0C3F30A54C1F30A554A
:1003F0002C44A4F2F3340194A0FB0254C1F3130182
:1004000041F48011C3F3130343F4801301FB02444E
:1004100000FB034E840A970A44EA815447EA835753
:10042000A4FB076802958D0A05FB07854FEA932C0C
:1004300004FB0C542705029D4FEA065847EA16377D
:10044000B5EB08056EEB070C870E920E47EA811795
:1004500042EA8312A7FB0201B6EB0B0164EB000436
:100460002B0D43EA0C335E1844EB1C50DA46514620
:10047000E7FB0201C5F313044FEA0B3343EA1453BD
:100480004FEA0432019C43EA0603A4F10C040294EF
:10049000009CCDE900B400F0ABF903B0BDE8F08FEB
:1004A00000200146F9E72DE9F04D81EA030404F04C
:1004B000004B21F0004514464FF0000A23F00041A4
:1004C00050EA050220D054EA01021DD0C5F30A57B4
:1004D0000246C5F31303C1F31300C1F30A5640F4F7
:1004E000801543F48013A7EB0608101BD64608F2CC
:1004F000FD3873EB050002D308F1010801E0921802
:100500005B41B8F1000F03DA00200146BDE8F08D31
:1005100000204FF48011064684460EE0171B73EB53
:10052000050705D3121B63EB050306434CEA010CD8
:1005300049084FEA300092185B4150EA0107EDD1BB
:1005400052EA030012D082EA040083EA050108435C
:1005500005D0101BAB4106D20122002306E0002289
:100560004FF0004302E06FF0010253101AEB060057
:100570004CEB085110EB0A0041EB0B01BDE8F04DCC
:1005800000F027B90EB5C10F80EAE0700844CA0731
:10059000002140F233438DE80E000A460B4600F07E
:1005A00027F903B000BD70B5C1F30A5201F0004550
:1005B0000024C1F3130140F2FF3341F480119A4249
:1005C00001DA002070BD40F233439A42A2F2334276
:1005D00003DC524200F0A4F800E090402C43F1D03C
:1005E000404270BD00F0004230F000400AD0C10D22
:1005F00001F56071C0F3160042EA0151C2084007DC
:1006000011437047002001467047000030B5041EBA
:1006100071F1000404DB4FF00044404264EB01013F
:10062000141E73F1000405DB1C464FF000435242D8
:1006300063EB0403994208BF904230BD01F00043D0
:1006400030B421F0004150EA010206D00A0DA2F5B3
:100650006072C1F31301002A02DC30BC0020704735
:10066000440F44EAC104C100E01830BC00EBC250A2
:1006700000F078B830B50B46014600202022012456
:1006800009E021FA02F59D4205D303FA02F5491B60
:1006900004FA02F52844151EA2F10102F1DC30BD76
:1006A0002DE9F05F0546002092469B4688460646A7
:1006B000814640241BE0284641464746224600F03A
:1006C0002FF853465A46C01A914110D31146184686
:1006D000224600F016F82D1A67EB01084F46224615
:1006E0000120002100F00DF817EB00094E41201EFB
:1006F000A4F10104DFDC484631462A464346BDE802
:10070000F09F202A04DB203A00FA02F10020704713
:100710009140C2F1200320FA03F31943904070473F
:10072000202A04DB203A21FA02F00021704721FA46
:1007300002F3D040C2F120029140084319467047AD
:10074000202A06DBCB17203A41FA02F043EAE07395
:1007500006E041FA02F3D040C2F120029140084382
:10076000194670470029A8BF7047401C490008BFC0
:1007700020F00100704710B4B0FA80FC00FA0CF0D1
:1007800050EA010404BF10BC704749B1CCF1200409
:1007900021FA04F411FA0CF118BF01212143084396
:1007A000A3EB0C01CB1D4FEA00614FEA102042BFC2
:1007B000002010BC704700EBC35010440029A4BFB8
:1007C00010BC7047401C490008BF20F0010010BC5D
:1007D000704710B5141E73F1000408DA401C41F193
:1007E000000192185B411A4301D120F0010010BDB5
:1007F0002DE9F04D92469B4611B1B1FA81F202E02B
:10080000B0FA80F220329046FFF77BFF04460F4695
:1008100040EA0A0041EA0B0153465A46084313D006
:10082000114653EA010019D0C8F140025046FFF7C3
:1008300077FF05460E46504659464246FFF761FF90
:10084000084305D0012004E020463946BDE8F08D7C
:100850000020054346EAE0762C4337430A986305B7
:10086000E40AA0EB08000022FD0A44EA47540A30DB
:1008700002D500200146E9E7010510196941DDE9CB
:10088000084500196941BDE8F04DA2E72DE9F04D9A
:1008900000231A461B1A8A4103DB00200146BDE8EB
:1008A000F08DC1F30A52C1F3130141F480154FF0EA
:1008B000000BD10702D100186D41521E00270446DB
:1008C00040F2FF11384601EB620A3E46804602467E
:1008D00000204FF48011FFF723FFC2197141BB18AC
:1008E00046EB0100B4EB030C75EB000C04D3E41AE7
:1008F00065EB000517460E46241908F101006D410D
:1009000080463428E3DDF91946EB0600091BA841AF
:1009100003D24FF0FF32134601E0002213461BEBD7
:10092000070046EB0A51BDE8F04DFFF752BFC1F397
:100930000A52C1F3130140F2FF3341F480119A428D
:1009400002DA00200146704740F233439A42A2F295
:10095000334202DC5242FFF7E3BEFFF7D2BE000093
:1009600030B5041E71F1000404DB4FF00044404236
:1009700064EB0101141E73F1000405DB1C464FF00B
:100980000043524263EB04038B4208BF824230BDF6
:10099000064C074D06E0E06840F0010394E80700CC
:1009A00098471034AC42F6D3FFF7C6FBB8E3000813
:1009B000D8E3000830B58C1810F8012B12F00F03A3
:1009C00001D110F8013B120906D110F8012B03E008
:1009D00010F8015B01F8015B5B1EF9D101E001F841
:1009E000013B521EFBD1A142E6D3002030BD10B521
:1009F00006F05CFD02F09EFB10BD000010B5044641
:100A00002246094940F2117001F0BCF80222062189
:100A1000262007F0C5FE40F20531034809F084FDA9
:100A2000014809F06DFD10BD0044004010B51348A9
:100A3000007800B110BD0022672110200AF08AFA68
:100A40000F4908600846006820B916220DA113A0BE
:100A500003F090FE0022672110200AF07BFA114972
:100A600008600846006820B9182206A10EA003F00D
:100A700081FE01200149087000BFDBE7080000206B
:100A80000C0000202E2E5C5441534B5C42546C6988
:100A90006E6B5F7461736B2E630000007478517528
:100AA00065756500100000207278517565756500E8
:100AB00000BFFEE710B586B00024002005906A460E
:100AC0000121164804F08DF89DF8080018BB009825
:100AD000B0F5A06F1FD100BF14E00DF10B00005D59
:100AE0000F4909680E4AD28888540D48C088401CB6
:100AF0000B49098990FBF1F201FB12000849C880FB
:100B0000601CC4B29DF80A00A042E6DC05A90548B5
:100B100000680AF005FC06B010BD0000006400404B
:100B2000DC0C00208C00002010B54FF47A710648D0
:100B300000680AF01BFD012803D104F0CBF9012065
:100B400010BD0020FCE700008C00002030B5002123
:100B50008278042A7ED0052A7DD18288062A7BD11C
:100B6000C278002AFBD10222012A04D0022A0AD02C
:100B7000042A34D117E00A464B1CD9B28468A25C1F
:100B80005A4B1A812CE00A464B1CD9B28468A45CEB
:100B90000A464B1CD9B28568AA5C44EA022212B20A
:100BA000524B1A811CE00A464B1CD9B28468A45CE3
:100BB0000A464B1CD9B28568AA5C44EA02240A465C
:100BC0004B1CD9B2AA5C44EA02440A464B1CD9B277
:100BD000AA5C44EA026212B2444B1A8100E000BFF0
:100BE00000BF0222012A04D0022A0AD0042A38D1E6
:100BF00017E00A464B1CD9B28468A25C3B4B5A8171
:100C000030E00A464B1CD9B28468A45C0A464B1CEF
:100C1000D9B28568AA5C44EA022212B2334B5A81E7
:100C200020E00A464B1CD9B28468A45C0A464B1CDF
:100C3000D9B28568AA5C44EA02240A464B1CD9B2A0
:100C4000AA5C44EA02440A464B1CD9B2AA5C44EAB4
:100C5000026202E046E046E043E012B2234B5A81D2
:100C600000E000BF00BF0222012A04D0022A0AD0FD
:100C7000042A34D117E00A464B1CD9B28468A25C1E
:100C80001A4B9A822CE00A464B1CD9B28468A45CA9
:100C90000A464B1CD9B28568AA5C44EA022212B209
:100CA000124B9A821CE00A464B1CD9B28468A45CA1
:100CB0000A464B1CD9B28568AA5C44EA02240A465B
:100CC0004B1CD9B2AA5C44EA02440B464A1CD1B27E
:100CD000EA5C44EA026212B2044B9A8200E000BF6E
:100CE00000BF01E000E000BF00BF30BD8006002073
:100CF0000EB505E0684600F051FB6846FFF726FF99
:100D0000F8E7000030B5002200230370FE4BB3F972
:100D10000830FE4CB4F90840A34259D00223012BFD
:100D200004D0022B09D0042B36D115E0F74B1D7AE5
:100D30001346541CE2B2CD542FE0F44B1D7A1346F7
:100D4000541CE2B2CD54F14B1B89C3F30725134663
:100D5000541CE2B2CD5420E0EC4B1D7A1346541CD7
:100D6000E2B2CD54E94B1B89C3F307251346541C4B
:100D7000E2B2CD54E54BB3F90830C3F3074513464F
:100D8000541CE2B2CD54E14BB3F908301D0E1346AA
:100D9000541CE2B2CD5400E000BF00BFDC4B9C8A83
:100DA0000578431C03EBC5031C80D94B9C7D05785B
:100DB000431C03EBC5035C80D54B9B7DD31A5C18A9
:100DC0000578431C03EBC5035C6003785B1C037070
:100DD000CD4BB3F90A30CD4CB4F90A40A3425BD0F5
:100DE0000223012B04D0022B09D0042B36D115E0AD
:100DF000C64B9D7A1346541CE2B2CD542FE0C34B30
:100E00009D7A1346541CE2B2CD54C04B5B89C3F3A8
:100E100007251346541CE2B2CD5420E0BB4B9D7A0B
:100E20001346541CE2B2CD54B84B5B89C3F307257B
:100E30001346541CE2B2CD54B44BB3F90A30C3F399
:100E400007451346541CE2B2CD54B04BB3F90A30F7
:100E50001D0E1346541CE2B2CD5400E000BF00BF8B
:100E6000AB4B1C8F0578431C03EBC5031C80A84BC0
:100E700093F83A400578431C03EBC5035C80A44B10
:100E800093F83A30D31A5C180578431C03EBC5037A
:100E90005C6003785B1C03709C4B9B8A002B74D0B6
:100EA000012323B9022B08D0042B24D110E0012503
:100EB0001346541CE2B2CD541EE001251346541CC7
:100EC000E2B2CD5400251346541CE2B2CD5413E0D7
:100ED00001251346541CE2B2CD5400251346541C80
:100EE000E2B2CD541346541CE2B2CD541346541C06
:100EF000E2B2CD5400E000BF00BF854BB3F85040D4
:100F00000578431C03EBC5031C80814B93F85240CA
:100F10000578431C03EBC5035C807D4B93F852308E
:100F2000D31A5C180578431C03EBC5035C60037897
:100F30005B1C0370012323B9022B08D0042B25D19D
:100F400010E002251346541CE2B2CD541FE00225E6
:100F50001346541CE2B2CD5400251346541CE2B291
:100F6000CD5414E002251346541CE2B2CD540025A2
:100F70001346541CE2B2CD541346541CE2B2CD5475
:100F80001346541CE2B2CD5401E07CE000BF00BF28
:100F90005F4BB3F854400578431C03EBC5031C803A
:100FA0005B4B93F856400578431C03EBC5035C800C
:100FB000574B93F85630D31A5C180578431C03EB53
:100FC000C5035C6003785B1C03700223012B04D013
:100FD000022B09D0042B36D115E04C4B1D7D134656
:100FE000541CE2B2CD542FE0484B1D7D1346541CD7
:100FF000E2B2CD54454B9B8AC3F307251346541CDC
:10100000E2B2CD5420E0414B1D7D1346541CE2B2A8
:10101000CD543E4B9B8AC3F307251346541CE2B2C2
:10102000CD543A4BB3F91430C3F307451346541C5F
:10103000E2B2CD54354BB3F914301D0E1346541C97
:10104000E2B2CD5400E000BF00BF314BB3F86440C2
:101050000578431C03EBC5031C802D4B93F86640B9
:101060000578431C03EBC5035C80294B93F866307D
:10107000D31A5C180578431C03EBC5035C60037846
:101080005B1C037097E0012323B9022B08D0042BCB
:1010900022D10FE000251346541CE2B2CD541CE0CF
:1010A00000251346541CE2B2CD541346541CE2B240
:1010B000CD5412E000251346541CE2B2CD54134621
:1010C000541CE2B2CD541346541CE2B2CD54134624
:1010D000541CE2B2CD5400E000BF00BF0C4BB3F88B
:1010E00050400578431C03EBC5031C80084B93F864
:1010F00052400578431C03EBC5035C80044B93F816
:101100005230D31A5C1805E08006002054060020F7
:10111000B6E000080578431C03EBC5035C60037868
:101120005B1C03700223012B04D0022B08D0042B7C
:1011300022D10FE000251346541CE2B2CD541CE02E
:1011400000251346541CE2B2CD541346541CE2B29F
:10115000CD5412E000251346541CE2B2CD54134680
:10116000541CE2B2CD541346541CE2B2CD54134683
:10117000541CE2B2CD5400E000BF00BF0E4BB3F8E8
:1011800064400578431C03EBC5031C800A4B93F8AD
:1011900066400578431C03EBC5035C80064B93F85F
:1011A0006630D31A5C180578431C03EBC5035C60FA
:1011B00003785B1C037030BDB6E0000800BF00BFC1
:1011C00009E0FFF7B1FC30B100231A460249034899
:1011D000006809F03FFFF4E7040400201C00002031
:1011E00010B58AB004464FF47A70ADF8040029486F
:1011F000818A9DF806200DF1070000EB8200018036
:101200002448817D9DF806200DF1070000EB820047
:1012100041809DF80600401CC0B28DF806001D48B4
:10122000018F9DF806200DF1070000EB8200018080
:10123000184890F83A109DF806200DF1070000EBD1
:10124000820041809DF80600401CC0B28DF8060067
:101250001048B0F890109DF806200DF1070000EB43
:10126000820001800B4890F892109DF806200DF145
:10127000070000EB820041809DF80600401CC0B2D0
:101280008DF80600224601A9002003F099FF0AB05C
:1012900010BD0000B6E00008B6B000BF04A8FFF71C
:1012A0009FFF01AA04A940F6012000F0C3FA01A89B
:1012B00008F0BEFD14E04FF0FF3225A90948006890
:1012C0000AF0A4F804AA25A9012003F08FFF01AABF
:1012D00004A940F6012000F0ADFA01A808F0A8FD2D
:1012E000E9E700001800002010B51348007800B1AD
:1012F00010BD00224121082009F02CFE0F49086092
:101300000846006820B923220DA112A003F032FA8A
:1013100000220C21082009F01DFE10490860084633
:10132000006820B9262206A10DA003F023FA0120AF
:101330000149087000BFDBE71400002018000020FE
:101340002E2E5C5441534B5C43414E5F7461736B72
:101350002E63000074785175657565001C000020CF
:1013600072785175657565000848094908608020E4
:10137000088100208880C8800648074908608020CE
:10138000088100208880C88070470000740D00200C
:10139000680D0020E80C0020DC0C002010B504468D
:1013A00024B9662207A10CA003F0E4F94FF0FF3244
:1013B00021460A4800680AF029F808B1012010BD4A
:1013C0000020FCE72E2E5C5441534B5C43414E5FA2
:1013D0007461736B2E630000700000001C0000201D
:1013E00010B5044624B9312209A10EA003F0C2F9B8
:1013F000207808B9002010BD00231A4621460A486B
:10140000006809F027FE08B10120F4E70020F2E7A8
:101410002E2E5C5441534B5C43414E5F7461736BA1
:101420002E63000070000000180000202DE9F0413C
:1014300086B004460F46154600264FF00308B4F563
:10144000006F04D2019400208DF80C0003E0029498
:1014500004208DF80C00082D00DD082500208DF8F3
:101460000D008DF80E502A4639460DF10F00FEF79B
:10147000DDFE06E001A90B4803F026FC8046701C47
:1014800086B2B8F1030F03D140F6FF708642F1DB5C
:1014900040F6FF70864203DB002006B0BDE8F08115
:1014A0000120FAE70064004010B5044622460449D2
:1014B00040F2127000F066FB014809F021F810BDFF
:1014C0000048004070472DE9F04107460C4615469C
:1014D0001E46234632462946384606F0B8FABDE88D
:1014E000F08130B505460D800B880C88088800EE29
:1014F000900AF8EE600AB0EE600A31221DE031F881
:101500001200984202DD31F8123005E031F8120085
:10151000A04201DA31F8124031F8120000EE900AD0
:10152000F8EE600A70EE800AB0EE600A501E31F8E4
:10153000100021F81200501EC2B2002ADFD1302262
:1015400000EE903AF8EE600A30EE601A00EE904A33
:10155000F8EE600A71EE600AB0EE600A00EE902AC2
:10156000F8EE600A80EE201AB0EE410AFCEEC00AE6
:1015700010EE900A80B230BD10B5044622460949EB
:1015800040F2137000F0FEFA02220621342007F028
:1015900007F940F20531034808F0C6FF014808F09A
:1015A000AFFF10BD004C00400CA3002211462020CC
:1015B00005F0C0F906F030FD00BFBFF34F8F0A48B9
:1015C000006800F4E06009490843001D064908600E
:1015D000BFF34F8F00BF00BFFEE700004861726499
:1015E0004661756C742100000CED00E00000FA0506
:1015F0002DE9F0410446092C23DA0026FF270025B7
:1016000008E0284600F092F810B1701CC6B22F46D0
:10161000681CC5B2092DF4DB012E02DD0120424910
:10162000087016B9002040490870012E07D1A74262
:1016300005D13D48007810B90120BDE8F0810020B7
:10164000FBE7092C0BD1072000F070F828B103202C
:1016500000F06CF808B10120EFE70020EDE70A2C5C
:101660000BD1072000F062F828B1052000F05EF8E9
:1016700008B10120E1E70020DFE70B2C0BD10820A7
:1016800000F054F828B1032000F050F808B1012010
:10169000D3E70020D1E70C2C0BD1082000F046F84E
:1016A00028B1052000F042F808B10120C5E700206C
:1016B000C3E70D2C0BD1042000F038F828B103202B
:1016C00000F034F808B10120B7E70020B5E70E2C90
:1016D0000BD1042000F02AF828B1052000F026F8EC
:1016E00008B10120A9E70020A7E70F2C0BD10620A5
:1016F00000F01CF828B1032000F018F808B1012010
:101700009BE7002099E7102C0BD1062000F00EF883
:1017100028B1052000F00AF808B101208DE700206B
:101720008BE7002089E70000750000200146034890
:10173000405C08B9012070470020FCE798070020B2
:1017400010B506F033F8002010BD000010B50446B7
:101750002246044940F2147000F014FA014808F0DF
:10176000CFFE10BD005000401FB540F20B6008F0E6
:10177000DBF8134808F09AFC7720ADF80000002051
:10178000ADF80200ADF8040040F2E730029000200E
:10179000ADF806008DF80C006946094808F0FAFC1F
:1017A00002221146192006F0FBFF0121044808F02F
:1017B0003DFD034808F074FC014808F0E5FC1FBD3E
:1017C000002C014000BFFEE7704770B504460D468F
:1017D0006088212800D970BD6288211D2846FEF747
:1017E00025FD00BFF7E730B50346002218790870E1
:1017F000521C002019E0082800DB19E04C1C04EB07
:10180000C0051C1D144424682C60141DA2B21C1DAC
:10181000A5184C1C04EBC00465604C1C04EBC00410
:1018200064881444A2B2441CE0B20C788442E2DC26
:1018300000BF30BD10800B7893704B8809339380C4
:101840004B1C93607047000010B580210348FEF7E1
:1018500006FD80210248FEF702FD10BD1C04002099
:101860009C04002010B500202D49C8700871087034
:101870004870887048717F200881888100208875B1
:101880000846807DC8750020C87601204877002072
:10189000C87781F8230081F82100012081F8310008
:1018A000002081F8320081F8330081F834001D49AE
:1018B0008880C88008814881C88108824FF6184016
:1018C000488388830846007B20F00300087308469D
:1018D000007B20F03000203008730846007B20F0A9
:1018E0000C00087364201049C8840020088588848F
:1018F0000870012048700020887012210B48FEF704
:10190000AEFC01200949C8727F204872887201200C
:10191000C870087188730020C8730874487410BDBB
:101920001C0600205406002080060020BE06002071
:1019300010B538210A48FEF792FC2C210948FEF721
:101940008EFC2C210848FEF78AFC12210748FEF77E
:1019500086FC12210648FEF782FCFFF783FF10BDCC
:101960001C0600205406002080060020AC06002043
:10197000BE06002070B586B006460C46154600200F
:10198000ADF80E00ADF810000120ADF81200C4F360
:101990000A04C5F30A054FF6FF7000EA4410ADF8DB
:1019A00004000020ADF806004FF6FF7000EA451075
:1019B000ADF808000020ADF80A000120ADF80C00D9
:1019C0008DF8140001A802F0EFFF06B070BD10B54D
:1019D00009F014FF012801D009F0A2FA10BD00009F
:1019E00008B52648006840F470002449086024487F
:1019F000006840F001002249086000BF20480068EC
:101A000000F002000028F9D000BF1D48406840F0F7
:101A100080001B4948600020009002E00098401CB4
:101A2000009000985028F9D31548406840F0900085
:101A3000134948600020009002E00098401C00908C
:101A400000985028F9D300BF0D48406820F00300EB
:101A50000B494860084600680A4908400849086080
:101A60004FF41F0088600846006820F4802008605A
:101A700000204860C86208F0FBFA08BD88ED00E06D
:101A800000100240FFFFF6FE10B501212C4808F0BF
:101A9000D4FB002852D02B480088401C29490880DC
:101AA00008460088052190FBF1F201FB120008B9FD
:101AB00008F080F9234800880A2190FBF1F201FB2D
:101AC000120020B907F0B2FF01201E49C8701D485E
:101AD0000088642190FBF1F201FB120010B9012093
:101AE00018490871174800884FF47A7190FBF1F299
:101AF00001FB1200F0B9012012494871C1031248DC
:101B000006F00BF880F0010422464FF400410E4825
:101B100005F098FF4FF400410B4805F0FEFF80F000
:101B2000010422464FF40041074805F08BFF0020D6
:101B3000044908800121024808F07CFB10BD000028
:101B4000002C014076000020000801401CB5002058
:101B500000900949094808F0F4FC58B1074808F01A
:101B60007DFCC0B2019000236A4601A904480068C8
:101B700009F052FB1CBD000005030500004C0040AD
:101B80008800002070B506460C461546304607F022
:101B9000CBFE204608F06CFC2946204608F016FCD7
:101BA0000021204608F0E9FC0021204608F005FD50
:101BB0000021204608F0F1FC0421204608F0E5FC55
:101BC0000821204608F0F1FC70BD00001CB5002083
:101BD00000900949094808F0B4FC58B1074808F0DA
:101BE0003DFCC0B2019000236A4601A90448006888
:101BF00009F012FB1CBD0000050305000038014080
:101C00007C0000201CB5002000900949094808F01C
:101C100098FC58B1074808F021FCC0B2019000239D
:101C20006A4601A90448006809F0F6FA1CBD0000E4
:101C300005030500004400405800002000BFFEE7F7
:101C400010B504462246094940F20E60FFF79AFF9C
:101C500002220621252006F0A3FD40F205310348AB
:101C600008F062FC014808F04BFC10BD0038014050
:101C70000FB4054B10B503A9044A029800F09AFE70
:101C800010BC5DF814FB0000897700089C00002060
:101C90000FB4084B10B504A902AA039800F08AFEFD
:101CA000044602A9002001F008FA204610BC5DF8A5
:101CB00014FB0000BB30000803B4019841000098F9
:101CC00050EAC12018BF04204A0D18BF40F001009F
:101CD00040F2FF72B2EB515F08BF40F002000128F2
:101CE00008BF052002B070474100080218BF042059
:101CF0000A0E18BF40F001004FF07F4232EA0101A6
:101D000008BF40F00200012808BF0520704700000E
:101D100070B59B482DED020B2DED068B079D25F030
:101D20000044A04218DC9748844202DC0AD106989D
:101D300040B19DED060BBDEC068B02B0BDE87040D6
:101D400000F07BBC002DCCBF9FED8F0B9FED900B67
:101D5000BDEC068B02B070BD8F48A04215DD8F48E8
:101D6000A042D8BF4FF0FF3458DD9DED060B51EC7B
:101D7000100BFFF7A1FF042808BF00F075FC9DEDD4
:101D8000060BBDEC068B02B070BD9DED060B51EC51
:101D9000100B05F0EDFCCDE9060181489FED828B2B
:101DA000A0423CDD8248A0421FDD00249FED82ABB3
:101DB0009DED060B53EC1A2B51EC100BFEF75AFA63
:101DC0009DED060B41EC190B53EC1A2B51EC100B4B
:101DD000FEF7F7FA53EC182BFEF7EDFA53EC192B3C
:101DE000FEF761FBCDE9060149E09DED060B0124FC
:101DF00053EC182B51EC100BFEF73CFA9DED060B43
:101E000041EC190B53EC182B51EC100BFEF7D3FAE5
:101E100053EC192BFEF747FBCDE906012FE068488C
:101E2000A0421FDD02249FED689B9DED060B53EC45
:101E3000192B51EC100BFEF7C4FA53EC182BFEF7DC
:101E400019FA9DED060B41EC180B53EC192B51ECD4
:101E5000100BFEF7B0FA53EC182BFEF724FBCDE97C
:101E600006010CE09DED060B032453EC102B9FEDB7
:101E7000580B51EC100BFEF716FBCDE906019DED5A
:101E8000060B53EC102B51EC100BFEF79AFA41ECB9
:101E9000180B53EC182BFEF794FA41EC190B4E4833
:101EA0000621B0EE490AF0EE690A784400F049FBD9
:101EB00053EC182B51EC100BFEF783FA41EC180B86
:101EC0004648B0EE490AF0EE690A0521784400F070
:101ED00038FB53EC192B51EC100BFEF772FA41EC66
:101EE000100B51EC180B53EC102B002C0EDAFEF7F4
:101EF000C1F99DED061B53EC112BFEF762FA9DED27
:101F0000061B53EC112BFEF759FA35E0FEF7B2F938
:101F10009DED061B53EC112BFEF753FA41EC100B11
:101F20002F48784400EBC40090ED001B51EC100BDF
:101F300053EC112BFEF73FFA9DED061B53EC112BD2
:101F4000FEF739FA41EC100B2648784400EBC40048
:101F500090ED001B51EC100B53EC112BFEF72EFAF9
:101F600041EC100B002DA2BFBDEC068B02B070BD82
:101F700051EC100B81F0004141EC100B01E7000027
:101F8000000010440000F07F182D4454FB21F93F5D
:101F9000182D4454FB21F9BF0000DC3F0000203E17
:101FA0000000F33F00000000000000000000F03FD0
:101FB0000000E63F000000000000000000000040BC
:101FC0000080034000000000000000000000F83F17
:101FD000000000000000F0BF1AC30000D0C20000E3
:101FE0005AC2000012C2000070B56F4E2DED040BF6
:101FF0002DED048B82B0DDF824C0DDE907235C42BF
:102000002CF000411C4341EAD474069D22F00040AC
:10201000B44205D86C422C4340EAD474B4420BD984
:102020009DED081B9DED060B02B0BDEC048B04B0CA
:10203000BDE8704000F00BBBACF14054A4F17F64EC
:102040001C430BD0022404EAAC7444EAD274054366
:102050009FED578B9FED582B07D015E09DED060B9C
:1020600051EC100B02F088FB42E0002C11BF012C58
:102070009DED060B02B0BDEC048B04BF04B070BD37
:10208000022C38D0032C3BD00B439FED4D1B9FED12
:102090004E0B0AD0B14218D1B04209D121F0804193
:1020A00020F08040099107900FE0002A15DA10E037
:1020B000474B7B44002C08BF93ED000B0DD0012C47
:1020C00010D0022C17D0032C1AD0B0421DD1002AF8
:1020D00003DAB0EE410AF0EE610A02B0BDEC048B07
:1020E00004B070BD93ED000B51EC100B81F000417A
:1020F00041EC100BF1E7B0EE480AF0EE680AECE7AD
:10210000B0EE420AF0EE620AE7E7401A00159FEDD2
:10211000329B3C28C8BF8DED000B17DCBCF1000FD3
:10212000BCBF10F13C0F8DED009B0FDB9DED080B4C
:1021300053EC102B9DED060B51EC100BFEF7B3F991
:1021400005F016FB02F018FBCDE90001B4B1012C3B
:1021500010D0022C9FED220B53EC102B9DED000BA9
:1021600051EC100B19D0FEF726F953EC182BFEF7A3
:1021700022F9BDE7019880F0004001909DED000B31
:1021800053EC192B51EC100BFEF7EAFB04BF0220B5
:1021900000F048FB9DED000B9FE7FEF70CF953ECB8
:1021A000182BFEF70BF9A3E70000F07F00000000FA
:1021B000182D4454FB210940182D4454FB2109C01B
:1021C000182D4454FB21F9BF182D4454FB21F93F2D
:1021D00042C10000000000000000000000000000FC
:1021E000075C143326A6A13C10EE101A08B5444A29
:1021F0006846B2EB410F28D94FF0E640B0EB410FF3
:1022000094BF00204FF0FF3000900098002861DB61
:1022100060EE000A10F0010F45D010F0020FDFED64
:10222000391A9FED391A00EEE11ADFED381A40EE47
:10223000811A21EEA01AF0EE400A40EE010A08BF12
:10224000F1EE600AB0EE600A08BD314B21F00042A9
:1022500093423CD911F0004FDFED2E0A20EE201AF8
:10226000DFED2D0A19BF31EE601A71EE200A31EE52
:10227000201A71EE600ABDEEE01A11EE100A9FED11
:10228000271A00F0030000EEC10A9FED251A009006
:1022900000EEC10A9FED231A00EEC10A9FED221A3B
:1022A00000EEC10AB1E79FED211A9FED210A10F05F
:1022B000020F00EE810A9FED1F1A00EE801AB7EEA2
:1022C000000A00EE810A18BFB1EE400A08BD00F016
:1022D000EFF99AE710EE100A4000B0F17F4F3CBFD3
:1022E000B7EE000A08BD07D14FF0010000F09AFADE
:1022F000BDE8084000F0CCB9BDE8084000F0C4B922
:10230000B61F927E336D4C39DA82083CA0AA2ABEF1
:10231000490E494683F9223F0000004B0000C93FA7
:1023200000A0FD390020A2331A61342CB93AB2BAA8
:10233000CA9F2A3DDDFFFFBE00B510EE101A2DED3D
:10234000028B81B0524A6846B2EB410F2ED94FF052
:10235000E640B0EB410F94BF00204FF0FF300090FB
:102360000098B0EE408A00286ADB10F0010F4BD0D5
:1023700068EE080A9FED471A9FED470A00EE810AB2
:102380009FED461A10F0020F00EE801AB7EE000A19
:1023900000EE810A02BF01B0BDEC028B00BD00BFA0
:1023A00001B0B1EE400ABDEC028B00BD3C4B21F008
:1023B0000042934241D911F0004FDFED3A0A20EE7E
:1023C000201ADFED390A19BF31EE601A71EE200ACA
:1023D00031EE201A71EE600ABDEEE01A11EE100A1D
:1023E0009FED321A00F0030000EEC10A9FED301A93
:1023F000009000EEC10A9FED2F1A00EEC10A9FED7A
:102400002E1A00EEC10AABE728EE080A9FED2B1A40
:10241000DFED2B0A10F0020F40EE410A9FED291A62
:1024200000EE201A61EE000AB0EE480A08EE200A1B
:10243000B6D101B0BDEC028B00BD00F039F98FE7D9
:1024400018EE100A4000B0F17F4F0DD218EE100ABE
:10245000FFF74AFC042808BF00F022F9B0EE480A52
:1024600001B0BDEC028B00BD09D1012000F0DAF90A
:1024700001B0BDEC028B5DF804EB00F009B901B0CE
:10248000B0EE480ABDEC028B5DF804EB00F0FCB83E
:10249000B61F927EB93AB2BACA9F2A3DDDFFFFBE8F
:1024A000490E494683F9223F0000004B0000C93F16
:1024B00000A0FD390020A2331A61342C336D4C3951
:1024C000DA82083CA0AA2ABE00B52DED048BB0EE3E
:1024D000409AF0EE609A83B051EC190BFEF7D6F9F2
:1024E00041EC180B18EE100A18EE901A8DED008BC7
:1024F000002818BF0120084320F00040C0F17F6091
:1025000000F1E040C00F14D019EE101A19EE900A35
:102510008DED009B002918BF0121084320F00040E9
:10252000C0F17F6000F1E040C00F04BF012000F067
:1025300079F9B0EE480A03B0F0EE680ABDEC048BFE
:1025400000BD70B504462DED028B4D1E00EBC5009D
:10255000B0EE408AF0EE608A90ED000B35F0060098
:1025600017D053EC182B51EC100BFDF72AFF41EC60
:10257000100B6D1E04EBC50090ED001B51EC100B11
:1025800053EC112BFDF776FE41EC100B35F00600F5
:10259000E7D1022D36D0042D1CD0062D1CBFBDEC7A
:1025A000028B70BD53EC182B51EC100BFDF709FF9B
:1025B00094ED0A1B53EC112BFDF75CFE53EC182B2A
:1025C000FDF7FFFE94ED081B53EC112BFDF752FEB7
:1025D00041EC100B53EC182B51EC100BFDF7F1FEF6
:1025E00094ED061B53EC112BFDF744FE53EC182B16
:1025F000FDF7E7FE94ED040B53EC102BFDF73AFECC
:1026000041EC100B53EC182B51EC100BFDF7D9FEDD
:1026100094ED021B53EC112BFDF72CFE53EC182B01
:10262000FDF7CFFE94ED001B53EC112BFDF722FEBE
:10263000BDEC028B41EC100B70BD10B553EC102BB0
:1026400051EC100BFDF716FE41EC100B10BD10B550
:1026500053EC112B51EC100BFDF70CFE41EC100B61
:1026600010BD0000000000009FED050B10B553ECFD
:10267000102B51EC100BFDF7A4FE41EC100B10BD1C
:10268000000000000000001030EE000A704700005B
:10269000DFED020A80EEA00A704700000000000093
:1026A0009FED020A20EE000A7047000000000010B3
:1026B0002DE9F0014FF07F42B2EB410F9FBF4FF089
:1026C000FF310160BDE8F00170474FF0004242EA7F
:1026D0000123C1F3C752783A551112F01F0C434C35
:1026E000CCF120067C44C1F3C752A2F178024FEA34
:1026F000621204EB820254F8254008BFD2E9015669
:1027000012D0556804FA0CF425FA06F73C43976892
:1027100005FA0CF527FA06F8D26807FA0CFCF24025
:1027200045EA08054CEA0206A4FB034CA5FB03524C
:10273000A6FB03631D449D4234BF012600261319E6
:10274000334416B1934202D903E0934201D20122ED
:1027500000E00022624402F1200C9206DC0C42EA06
:10276000443200EE102A5B03DFED210AF8EEC01AB6
:1027700000EE103A4FEA9C1C11F0004FB8EE400AF0
:10278000C0F800C020EE201A00EE105ADFED190A42
:10279000B8EE400A20EE200A71EE810A70EE800A3F
:1027A00010EE902A02F500626FF30B0200EE902A01
:1027B00070EEE11A31EEC11ADFED101A30EE411A57
:1027C0009FED0D0A20EE800A01EE210A9FED0C1A02
:1027D00000EE810A04BFBDE8F0017047CCF18051E2
:1027E0000160BDE8F001B1EE400A704718BB00007F
:1027F000000000360000802C22AAFD29DB0FC92F23
:102800000000C92F02E008C8121F08C1002AFAD12F
:1028100070477047002001E001C1121F002AFBD160
:10282000704700000149086070470000580300200D
:102830002DE9FF5F82B00021DDE90430020DDDF8F3
:1028400040B0034318D044F61050A2F2FF32424386
:102850001514119801281FD0A5EB0B00401C5FEA4E
:10286000000A4FF000064E4FDFF83891B046504650
:1028700015D5CAF1000413E0119801244AA30128D8
:1028800001D16FEA0B010298119AC0E90031C0E949
:10289000024206B0BDE8F09FCBF10000DFE704463E
:1028A0000021404A491842EB0450CDE9001012E0E3
:1028B000E00707D032463B4640464946FDF781FDDA
:1028C0008046894632463B4610461946FDF779FD5B
:1028D00006460F466410002CEAD1DDE90401DDE96B
:1028E0000023BAF1000F06DAFDF76BFD42464B46B6
:1028F000FDF767FD05E0FDF7D6FD42464B46FDF7C7
:10290000D2FD04460E460022284BFDF77FFE03D879
:102910004FF0FF30014607E00022254B20463146AC
:10292000FDF7A8FCFEF703F8102409E0002C0ADBF1
:102930000A220023FDF7B4FE039B30321A55641EB1
:1029400050EA0102F2D1641C039AC4F11103144449
:10295000119A012A03D0012208430DD10AE008434D
:1029600004D000204FF0110B119072E7A3EB0B0580
:102970006D1E0DE05B4504DD4FF0000205F1010521
:1029800004E003DA4FF00002A5F10105002AECD0C3
:1029900002981199C0E90231C0E9004579E70000C9
:1029A000000014400000F03F300000000000F04341
:1029B0000000E03F2DE9FF4F95B09A468846064655
:1029C0000025EEE1252877D100242746F94A012188
:1029D000039400E0044316F8013F203B01FA03F0A2
:1029E0001042F7D130782A2811D06FF02F033078B9
:1029F000A0F13002092A16D8039A44F0020402EB2F
:102A0000820203EB42021044761C0390EFE758F871
:102A1000042B0392002A03DA504244F4005403903A
:102A200044F00204761C30782E2816D116F8010FD7
:102A300044F004042A280DD06FF02F023078A0F162
:102A40003003092B09D807EB870302EB4303C718B0
:102A5000761CF3E758F8047B761C30786C280FD08E
:102A600006DC4C2817D068280DD06A2814D104E061
:102A7000742810D07A280FD10DE044F400140AE035
:102A800044F4801401E044F440147278824202D18C
:102A900004F58014761C761C307866280BD013DC85
:102AA000582877D009DC002875D04528F6D046286C
:102AB000F4D047281AD193E118E0632835D0642870
:102AC00079D0652812D18BE1702873D008DC672893
:102AD000F1D069286FD06E280DD06F2806D1ACE0F8
:102AE00073282CD0752874D0782853D05246179963
:102AF00090476D1C54E1C4F30250022809D003280A
:102B00000DD0D8F8001004280DD00D6008F104088D
:102B100046E1D8F80010EA17C1E90052F6E7D8F804
:102B200000100D80F2E70D70F0E718F8041B8DF827
:102B3000001000208DF80100EB46012003E058F85A
:102B400004BB4FF0FF3061074FF0000102D40DE0ED
:102B500009F101018946B9420FDA8145F8DB1BF81A
:102B600009100029F4D108E009F1010189468142E8
:102B7000FADB1BF809100029F6D103985346A0EBA5
:102B8000090721463846179A00F080FA284400EBDE
:102B9000090507E044E008E10DE01BF8010B52468F
:102BA00017999047B9F10109F7D2534621463846A3
:102BB000179AF2E039E00A21C4F302524FF0000BF9
:102BC0000091022A06D058F8040BC117032A09D035
:102BD0000AE023E008F1070020F00702F2E8020112
:102BE000904605E000B2C117042A01D140B2C117D6
:102BF000002906DA0A460021404261EB02012D223B
:102C000002E0220504D52B228DF80420012203E0E6
:102C1000E20701D02022F7E7914657E00A2100E0C1
:102C200010214FF0000B00910BE010214FF0000B32
:102C300044F004040827009103E008204FF0000B43
:102C40000090C4F30252022A05D058F8040B002168
:102C5000032A08D008E008F1070020F00702F2E894
:102C60000201904603E080B2042A00D1C0B24FF0C6
:102C7000000922072AD53278702A07D0DDF800C073
:102C80008CF0100C5CEA0B0C05D00EE040228DF8A5
:102C90000420012208E050EA010306D030238DF819
:102CA00004308DF8052002229146009B83F0080332
:102CB00053EA0B030AD150EA010201D1620705D59C
:102CC00030228DF804204FF001097F1E3278582AF7
:102CD00004D039A20C920CAA02920BE03BA2F9E7B5
:102CE0005B46009AFDF7DCFC0C9B9B5C029A521E33
:102CF0000292137050EA0102F2D1029804A9081A54
:102D000000F1200B600702D524F4803400E0012795
:102D10005F4502DDA7EB0B0000E0002000EB0B019C
:102D2000009003984944401A0390E00306D45346A8
:102D30002146179A039800F0A9F90544002706E0F8
:102D400001A85246C05D179990476D1C7F1C4F45E6
:102D5000F6DBE0030CD553462146179A039800F0A2
:102D600095F9054404E030205246179990476D1CB0
:102D70000099481E00900029F5DC08E002980299AD
:102D800052460078491C0291179990476D1CBBF17F
:102D90000001ABF1010BF1DC5BE100F065F90544EA
:102DA000761C307800287FF40DAE19B02846BDE8B7
:102DB000F08F0000092801003031323334353637C6
:102DC0003839616263646566000000003031323377
:102DD0003435363738394142434445460000000017
:102DE000600700D4062708F1070020F00700F0E88C
:102DF0000223804603F0004C5FEA0C0001D097A04C
:102E000009E0200501D596A005E0E00701D095A0D6
:102E100001E0AFF24C001390307823F000436528B6
:102E20000CD006DC452809D046281DD047287FD184
:102E30003BE0662818D067287AD136E00021112FB0
:102E400001DB112000E0781CCDE9000104A90CA8E9
:102E5000FFF7EEFCDDE90D010C9A4FF0000B07F1D6
:102E60000109109200914EE04FF000400097CDE92B
:102E7000011004A90CA8FFF7DBFCDDE90D020C9B97
:102E80000F994FF0000B91461093009211B9791CE5
:102E900000EB0109B7EB090003D4C0F1FF3B07F1D8
:102EA0000109A9EB0700019042E0012F00DA012798
:102EB0000021112F01DD112000E03846CDE900018D
:102EC00004A90CA8FFF7B4FCDDE90D010C9A0091F0
:102ED0004FF0000BB946109221070FD4009A4A45D3
:102EE00003DA914601E0A9F10109B9F1010F05DD0D
:102EF000109AA9F10101515C3029F4D0B84202DAEC
:102F000010F1040F03DA0121CDE9011010E00028CF
:102F100003DC8344A9EB000102E0411C494500DDCC
:102F20008946A0EB0B00401C01904FF0004002903E
:102F3000200705D40198484502DB4FF0FF3001908F
:102F400000208DF84B0002980DF14B07B0F1004FB7
:102F500025D002200C902B200D90029800280CDA2E
:102F6000404202902D200D9007E00A210298FDF7C3
:102F700081FB3031029007F8011D0C99481E0C901E
:102F80000029F2DC02980028EFD1791E0D98087014
:102F9000307800F0200040F0450007F8020D11A83D
:102FA000C01BC01D02901398007800B1012000EBF7
:102FB0000901019801EBE071029801440398401A5D
:102FC000401E0390E00306D453462146179A039807
:102FD00000F05CF805441398007818B15246179930
:102FE00090476D1CE00323D553462146179A03985A
:102FF00000F04CF805441BE0BBF1000F07DB009824
:10300000584504DD1098179910F80B0001E0179946
:1030100030205246904701980BF1010B401E05F1FC
:103020000105019004D12E205246179990476D1C3E
:10303000B9F10001A9F10109DEDC05E017F8010B87
:103040005246179990476D1C0299481E029000291C
:10305000F4DC53462146179A03989EE62D000000A3
:103060002B000000200000002DE9F041044600255F
:103070001E461746880404D405E039462020B04790
:103080006D1C641EF9D52846BDE8F0812DE9F0419C
:10309000044600251E469046C80301D5302700E0AF
:1030A0002027880404D505E041463846B0476D1C0A
:1030B000641EF9D52846BDE8F0810A68531C0B60F0
:1030C00010707047816841F00801816000BF81681D
:1030D00001F008010029FAD1816841F00401816002
:1030E00000BF816801F004010029FAD1704730B5B2
:1030F000012902D002291AD10CE0C36A23F470031B
:10310000C362C36A541E4FF4700505EA0454234396
:10311000C3620DE0836B23F440138363836B541EFF
:103120004FF4401505EA04542343836300E000BFD5
:1031300000BF30BD10B540F2096006F0F5FB1F4836
:1031400000F04AF8002000F0B9F8012202211B48E3
:1031500000F027F901221102184800F022F900219D
:10316000164800F02DF8022201211448FFF7BFFF96
:10317000052300221146114800F0AEF80523012274
:1031800011460E4800F0A8F84FF4602201210B48C8
:1031900000F07BF801221146084800F057F8074874
:1031A00000F046F8054800F048F80448FFF78AFFA9
:1031B0000121024800F0E6F810BD000000240140A3
:1031C00021B1826842F40062826003E0826822F4E6
:1031D000006282607047000010B504461348204426
:1031E00030B1B0F5806F0CD0B0F5C05F1BD111E0ED
:1031F00040F2093006F0B8FB40F2093006F0A4FBBB
:1032000012E040F20A3006F0AFFB40F20A3006F05E
:103210009BFB09E040F20F3006F0A6FB40F20F30B6
:1032200006F092FB00E000BF00BF10BD00DCFEBF57
:10323000816841F4807181607047816801F001010B
:1032400019B9816841F001018160704772B101F0E4
:1032500001031BB1836843F48013836001F0020310
:1032600093B1836843F4004383600DE001F00103F0
:103270001BB1836823F48013836001F002031BB148
:10328000836823F4004383607047012902D0022938
:1032900010D107E0836823F46023836083681343BD
:1032A000836008E0836823F4E0438360836813430A
:1032B000836000E000BF00BF704700000549096857
:1032C00021F47021034A116011460968014311601D
:1032D0007047000004240140F0B51D4606290CD2B9
:1032E000436B01EB81071F26BE40B34301EB810610
:1032F00002FA06F63343436322E00C290ED2036B35
:103300008E1F06EB86071F26BE40B3438E1F06EBBB
:10331000860602FA06F63343036311E010290FD242
:10332000C36AA1F10C0606EB86071F26BE40B34315
:10333000A1F10C0606EB860602FA06F63343C362D9
:103340000A2A0CD2046902EB42070726BE40B443A6
:1033500002EB420605FA06F63443046111E0122A34
:103360000FD2C468A2F10A0606EB46070726BE4044
:10337000B443A2F10A0606EB460605FA06F6344304
:10338000C460F0BD01F001021AB1826842F480020B
:10339000826001F002021AB1826842F40012826077
:1033A0007047AAB101F480731BB1436843F4807382
:1033B000436001F480631BB1436843F4806343605E
:1033C00001F00203CBB1836843F00203836014E091
:1033D00001F480731BB1436823F48073436001F4EC
:1033E00080631BB1436823F48063436001F00203F0
:1033F0001BB1836823F00203836070472DE9F34F0C
:1034000083B00F46387805287ED13D1DA87808285E
:1034100003DD002005B0BDE8F08F00210EE0E81CC0
:1034200000EB81000288E81C00EB8100408810441A
:10343000602801DD0020EDE7481CC1B2A878884271
:10344000EDDCDD48D0F800903AE1A9F10C0ABAF8B9
:103450000010039881426FD1DAF804000290C4E0B2
:103460000298A0F10C047878217888427AD160889B
:1034700000285BD1288828B1A06806F03FFB002017
:10348000A06095E000200190834600BF09E06168DC
:1034900001EB80014A880199114489B20191411CD4
:1034A000C8B261788142F2DC002008E0E91C01EB3F
:1034B0008001498859441FFA81FB411CC8B2A97890
:1034C0008142F3DC0198584508D05946A06806F0BF
:1034D000E9FBA060A06808B900209BE700200090ED
:1034E00080461EE0D4F808C0009B0CEB0302EB1CE6
:1034F00003EB88035988EB1C03EB8803188806F05C
:1035000043FA401C08B90FE054E1E81C00EB8800C6
:1035100041880098084480B2009008F1010000F052
:10352000FF08A8784045DDDC00BF41E0288870BB7B
:103530000020019000BF0AE0C0E0E91C01EB80011F
:103540004A880199114489B20191411CC8B2A978F5
:103550008142F2DC019806F003FBA060A06810B97C
:10356000002057E73EE04FF0000BD8461BE0A36871
:1035700003EB0B02EB1C03EB88035988EB1C03EBFA
:103580008803188806F000FA401C08B90EE00FE026
:10359000E81C00EB8800408858441FFA80FB08F1C3
:1035A000010000F0FF08A8784045E0DC00BF00BF44
:1035B000A878617888420BD0A87860706278910012
:1035C000606806F06FFB6060606808B9002021E762
:1035D0002888608061788A00E91C6068FCF726FE14
:1035E000032017E70298006802900AF1040102988C
:1035F00088427FF435AF142006F0B2FA04460CB9C5
:10360000002007E77878207028886080A8786070AC
:103610006178880006F0A4FA6060606808B900204C
:10362000F8E661788A00E91C6068FCF7FFFD0AF1A2
:10363000040104F10C0004F045FE2888E0BB0020E2
:10364000019000BF09E0E91C01EB80014A88019963
:10365000114489B20191411CC8B2A9788142F2DCBF
:10366000019806F07DFAA060A06808B90020D1E6B4
:103670004FF0000BD8461AE0A36803EB0B02EB1CDB
:1036800003EB88035988EB1C03EB8803188806F0CA
:103690007BF9401C00B90DE0E81C00EB8800408875
:1036A00058441FFA80FB08F1010000F0FF08A878D9
:1036B0004045E1DC00BF00BF0220ABE6D9F8009036
:1036C0003D4881457FF4C1AE142006F049FA064614
:1036D0000EB900209EE6301D00BF00BF006000BF95
:1036E000406000BF03983080334906F10C0004F0BD
:1036F000E9FD142006F034FA04460CB9002089E6EE
:103700007878207028886080A87860706178880058
:1037100006F026FA6060606808B900207AE66178F1
:103720008A00E91C6068FCF781FD311D04F10C0082
:1037300004F0C8FD2888D8BB4FF0000B002008E03B
:10374000E91C01EB8001498859441FFA81FB411CA7
:10375000C8B2A9788142F3DC584606F001FAA060AD
:10376000A06808B9002055E64FF0000AD0461AE0DC
:10377000A36803EB0A02EB1C03EB88035988EB1CDC
:1037800003EB8803188806F0FFF8401C00B90DE031
:10379000E81C00EB8800408850441FFA80FA08F1CA
:1037A000010000F0FF08A8784045E1DC00BF00BF41
:1037B00001202FE600202DE61C030020F8B5054669
:1037C00000260024002000902889001D86B2942E37
:1037D00000DDF8BD45F65A2028802048204429887D
:1037E0000180A01C84B21D482044A9880180A01C2F
:1037F00084B2A87919490855601C84B20020085584
:10380000601C84B20846011928890880A01C84B273
:103810002889801FC4F18A01884206DC2B899A1FFF
:103820000E4B1819E968FCF701FD2889801F204418
:1038300084B2A01EC1B20948801C01F031FD009085
:1038400006482044BDF800100180A01C84B2034942
:10385000204600F01BF800BFBBE7000024620020F8
:1038600007B502489DE80E000EC00EBD04040020FE
:1038700070B505460C4603E014F8010B04F076FE23
:10388000281EA5F101018DB2F6D170BD70B50446B8
:103890000D462146284601F061FB01F0BFFB70BDDB
:1038A00030B52DED108B83B0FE4890F82100002834
:1038B00078D0FC484078022875D1FA48007806286C
:1038C000FAD1F948407AF7490881F748807A888127
:1038D000F548C078012801D1002000E00420F1491A
:1038E0008875F14800794876EF488079012806D03C
:1038F00002280ED0032816D0042838D125E0EB4842
:10390000007B20F03000E94908734FF49670C882BC
:1039100036E0E648007B20F03000E44908734FF6BB
:10392000D460C8822CE0E148007B20F00300DF492E
:1039300008734FF4967048820846007B20F00C0014
:1039400008734FF4967088821AE0D848007B20F004
:103950000300D64908734FF6D46048820846007BBE
:1039600020F00C0008734FF6D460888208E0CF483E
:10397000007B20F03000CD4908730020C88200BFD2
:1039800000BFC948C079012802D0022816D10BE037
:10399000C648007B20F00300C44908734FF49670BA
:1039A000488214E0A1E096E0C048007B20F00300CC
:1039B000BE4908734FF6D460488208E0BB48007BDC
:1039C00020F00300B94908730020488200BF00BFFF
:1039D000B548007A012802D0022814D109E0B34882
:1039E000007B20F00C00B14908734FF49670888278
:1039F00012E0AE48007B20F00C00AC4908734FF693
:103A0000D460888208E0A948007B20F00C00A74918
:103A100008730020888200BF00BFA348C07A012835
:103A200007DBA148C07A052803DC9F48C07A9D497E
:103A300048779C4890F831009B49897B88421BD18C
:103A4000984890F8300098494979884214D19548AF
:103A500090F832009449C97B88420DD1914890F882
:103A600033009149097C884206D18E4890F8340091
:103A70008D49497C884227D08B48807B012808DB10
:103A80008948807B032804DC8748807B854981F84E
:103A900031008548407900F00100824981F830000A
:103AA0008148C07B00F0010081F832007E48007C34
:103AB00000F0010081F833007B48407C00F00100F9
:103AC00081F8340004F014FD7748007BB0B1002089
:103AD0007449487112E000207449C8824882888283
:103AE0007F2070490881888108E07148008800B211
:103AF0006C4908816E48408800B288810321FC220D
:103B00006848B0F90C00CDE9012100906548B0F992
:103B1000083068A0FEF7ACF862480079032805DD9C
:103B2000002060490871C87081F823005D48C078A2
:103B300020B15C480079401C5A4908715948807886
:103B4000032803DD002057498870487055484078A5
:103B500020B154488078401C524988705148807D7B
:103B6000042873D14F49B1F90C10A1F17F00FCF783
:103B700009FD41EC1D0B4B49B1F90810A1F17F0083
:103B8000FCF700FD41EC1E0BB0EE4D1AF0EE6D1A85
:103B9000B0EE4E0AF0EE6E0AFEF726FAB0EE40CA1C
:103BA000F0EE60CA9FED470B53EC102B51EC1C0B51
:103BB000FCF707FC41EC1B0BFCF740FD39490861A1
:103BC000B1F908107F394943364AB2F90C207F3ADF
:103BD000344BB3F90C307F3B02FB0310FCF7D2FCF3
:103BE00041EC1C0BB0EE4C0AF0EE6C0AFEF76CFCDC
:103BF000B0EE40BAF0EE60BA51EC1B0BFCF7D3FC10
:103C000000B22849C8810846407F012803D14FF4FB
:103C10007A70888223E02348407F022804D140F252
:103C2000DC50204988821AE01E48407F032804D1D6
:103C30004FF4FA601B49888211E01A48407F04283B
:103C400005D140F6C4101749888208E072E2154891
:103C5000407F052803D140F6B830124988821148C8
:103C600000897F2808D10F4880897F2804D100204F
:103C70000E49C880888061E20A48808A0949C9895A
:103C800010FB01F07F2190FBF1F000B20749888022
:103C900008468088C880034890ED040AFBEE0E0AAF
:103CA00014E000001C060020BE0600205406002080
:103CB000680000202563256325632563256325634C
:103CC0000000000015DD2A2CCCE78140B4EEE00AAC
:103CD000F1EE10FA31D290ED040ADFEDFE0AB4EEF7
:103CE000E00AF1EE10FA28DB0846B0F9040000EE15
:103CF000100AB8EEC00AF848D0ED040A9FEDF71A92
:103D000070EE810A20EE200ADFEDF50A80EE201A1F
:103D100011EE105A2846FCF765FC41EC1C0B9FED98
:103D2000F10B53EC102BFCF7BEFB41EC1B0BFCF72B
:103D30003AFC00B2ED498880B4E0E74890ED040A0F
:103D4000DFEDE40AB4EEE00AF1EE10FA33D290EDC2
:103D5000040ADFEDE70AB4EEE00AF1EE10FA2ADB1E
:103D6000E248B0F9040000EE100AB8EEC00ADA48E2
:103D7000D0ED040AF1EE600A9FEDD81A70EEC10A88
:103D800020EE200ADFEDD60A80EE201A11EE105A3E
:103D90002846FCF727FC41EC1C0B9FEDD20B53ECA3
:103DA000102BFCF780FB41EC1B0BFCF7FCFB00B27B
:103DB000CE49888076E0C84890ED040ADFEDCD0A50
:103DC000B4EEE00AF1EE10FA31DD90ED040ADFED19
:103DD000CA0AB4EEE00AF1EE10FA28D8C348B0F9E6
:103DE000040000EE100AB8EEC00ABB48D0ED040A89
:103DF0009FEDC11A71EE600A20EE200ADFEDB80ACD
:103E000080EE201A11EE105A2846FCF7EBFB41EC2D
:103E10001C0B9FEDB40B53EC102BFCF744FB41EC57
:103E20001B0BFCF7C0FB00B2B04988803AE0AA48FF
:103E300090ED040ADFEDB00AB4EEE00AF1EE10FAFC
:103E400030DD90ED040ADFEDAD0AB4EEE00AF1EEEC
:103E500010FA27D2A548B0F9040000EE100AB8EE17
:103E6000C00A9D48D0ED040A9FEDA31A70EEC10A66
:103E700020EE200ADFED9A0A80EE201A11EE105A89
:103E80002846FCF7AFFB41EC1C0B9FED960B53EC67
:103E9000102BFCF708FB41EC1B0BFCF784FB00B27A
:103EA000924988809148B0F9040040F6B8318842C0
:103EB00003DD8948808A8D498880874890ED040A0F
:103EC000F3EE0E0AB4EEE00AF1EE10FA31DD90EDF9
:103ED000040ADFED820AB4EEE00AF1EE10FA28D807
:103EE0008248B0F9060000EE100AB8EEC00A7A481F
:103EF000D0ED040A9FED791A71EE600A20EE200AD7
:103F0000DFED770A80EE201A11EE105A2846FCF7F2
:103F100069FB41EC1C0B9FED730B53EC102BFCF772
:103F2000C2FA41EC1B0BFCF73EFB00B26F49C880A4
:103F3000B4E0694890ED040ADFED680AB4EEE00AE7
:103F4000F1EE10FA31DD90ED040ADFED6D0AB4EE0A
:103F5000E00AF1EE10FA28D26448B0F9060000EE4B
:103F6000100AB8EEC00A5C48D0ED040A9FED5B1A57
:103F700070EEC10A20EE200ADFED590A80EE201A09
:103F800011EE105A2846FCF72DFB41EC1C0B9FED5F
:103F9000550B53EC102BFCF786FA41EC1B0BFCF78E
:103FA00002FB00B25149C88078E04B4890ED040A0A
:103FB000DFED540AB4EEE00AF1EE10FA31D290EDE2
:103FC000040ADFED510AB4EEE00AF1EE10FA28DB44
:103FD0004648B0F9060000EE100AB8EEC00A3E48A6
:103FE000D0ED040A9FED441A70EE810A20EE200AFB
:103FF000DFED3B0A80EE201A11EE105A2846FCF73E
:10400000F1FA41EC1C0B9FED370B53EC102BFCF736
:104010004AFA41EC1B0BFCF7C6FA00B23349C880E0
:104020003CE02D4890ED040ADFED370AB4EEE00ADB
:10403000F1EE10FA32D290ED040ADFED340AB4EE5C
:10404000E00AF1EE10FA29DD2848B0F9060000EE8A
:10405000100AB8EEC00A2048D0ED040AF1EE600A5A
:104060009FED251A70EEC10A20EE200ADFED1C0A32
:1040700080EE201A11EE105A2846FCF7B3FA41ECF4
:104080001C0B9FED180B53EC102BFCF70CFA41ECBA
:104090001B0BFCF788FA00B21449C8801348B0F92A
:1040A000060040F6B831884203DD0B48808A0F498C
:1040B000C8800948B0F908007F380749B1F90C10E9
:1040C000C1F17F01884224DD08488088404200B267
:1040D00006491DE00000E1C31C0600200000E1438A
:1040E0000000D243000000000000F03F5406002012
:1040F000008059C40080684400C0A8440040DD44EA
:1041000000805944008068C400C0A8C40040DDC4D9
:104110008880FE48B0F908007F38FC49B1F90C10DE
:104120007F3988420ADDFA48C088404200B2F84927
:10413000C88003E00020F649C8808880F348807D6D
:1041400000287DD1F149B1F90810A1F17F00FCF7F9
:1041500019FA41EC1C0BED49B1F90C10A1F17F00EB
:10416000FCF710FA41EC1D0BB0EE4C1AF0EE6C1A95
:10417000B0EE4D0AF0EE6D0AFDF736FFB0EE40BA34
:10418000F0EE60BA51EC1B0BFCF758FADF490861FE
:10419000B1F908107F394943DC4AB2F90C207F3A63
:1041A000DA4BB3F90C307F3B02FB0310FCF7EAF962
:1041B00041EC1C0BB0EE4C0AF0EE6C0AFEF784F9F1
:1041C000B0EE40BAF0EE60BA51EC1B0BFCF7EBF925
:1041D00000B2CE49C8810846407F012803D14FF480
:1041E0001670888222E0C948407F022804D140F23C
:1041F000DC50C649888219E0C448407F032804D1B6
:1042000040F69800C149888210E0C048407F0428E9
:1042100004D140F6B830BD49888207E0BB48407FF2
:10422000052803D14FF46160B8498882B748808A75
:10423000B649C98910FB01F0642190FBF1F000E060
:1042400041E100B2B1498882084600897F2808D13F
:10425000084680897F2804D10020AD490881488123
:1042600035E19FEDAC8AA948407F01287DDD9FEDB7
:10427000AAAAA648407FAF2110FB01F000EE100A69
:10428000F8EEC0AAA148D0ED040AB0EE600AFDF72E
:10429000ABFF9E48B0F9140000EE900AF8EEE00A79
:1042A00060EE200A9948407F401E00EE100AB8EEEA
:1042B000C00AF1EE041A80EE211A9448407F00EE05
:1042C000100AF8EE401A81EE810AC0EE808A18EEDC
:1042D000100AFCF787F99FED910B53EC102BFCF7BC
:1042E00070F841EC1B0B894890ED040A10EE101A8F
:1042F0000846FCF777F953EC1B2BFCF75CF8FCF74E
:104300009DF90FEE100AB0EE4F0AFDF76DFF7F48E2
:10431000B0F9140000EE900AF8EEE00A20EE200A50
:1043200020EE0A9A18EE100AFCF75CF99FED7B0B61
:1043300053EC102BFCF745F841EC1B0B734890ED48
:10434000040A10EE101A0846FCF74CF99FED750BA5
:1043500053EC102BFCF72FF853EC1B2BFBF78AFFC9
:10436000FCF76CF90FEE100A00E00FE0B0EE4F0A18
:10437000FDF7E2FF6548B0F9140000EE900AF8EE90
:10438000E00A20EE200A60EE0A9A8AE0DFED67AAD2
:104390005E48D0ED040AB0EE600AFDF725FF5B48E9
:1043A000B0F9140000EE900AF8EEE00A20EE200AC0
:1043B00010EE105A2846FCF715F941EC1C0B9FED46
:1043C0005C0B53EC102BFBF7FCFF41EC1B0BFCF7D9
:1043D00035F908EE900A18EE100AFCF703F941ECE3
:1043E0001E0B9FED4E0B53EC102BFBF7EAFF41EC3D
:1043F0001C0B464890ED040A10EE101A0846FCF714
:10440000F1F841EC1D0B53EC1C2BFBF7D4FF41ECF6
:104410001B0BFCF713F90FEE100AB0EE4F0AFDF775
:10442000E3FE3A48B0F9140000EE900AF8EEE00A14
:1044300020EE209A18EE100AFCF7D4F841EC1C0B81
:104440009FED360B53EC102BFBF7BBFF41EC1D0B24
:104450002E4890ED040A10EE101A0846FCF7C2F838
:1044600041EC1C0B9FED2F0B53EC102BFBF7A3FF24
:1044700041EC1E0B53EC1D2BFBF7FCFE41EC1B0B20
:10448000FCF7DCF80FEE100AB0EE4F0AFDF754FF10
:104490001E48B0F9140000EE900AF8EEE00A60EE53
:1044A000209A39EE680ABDEEC00A10EE100A00B27A
:1044B0001749088139EEA80ABDEEC00A10EE100AAD
:1044C00000B2488103E000201149488108810F486B
:1044D000807D01286ED10D49B1F90C10A1F17F004A
:1044E000C11700EB91718910084AD1810848007BFF
:1044F000C0F381001049097888422DD00448007B20
:10450000C0F381000C490870014817E01C06002028
:1045100054060020A470BD3E6666263F6F1283C01D
:10452000CA2109406F1283C0CA21F93F0000964397
:104530007B14AE47E17A843F50000020007BC0F33B
:104540008100012804D17548008A7549088203E07A
:104550007248808B724988837148007BC0F3810068
:10456000012810D16E48008A6E49C989084404B2F6
:10457000002C00DC002440F6B830844200DB044606
:104580006748048216E06648007BC0F3810088B962
:104590006448B0F90C007F38002802DD4FF49674AF
:1045A00006E06048B0F90C007F38002800D55E4C6A
:1045B0005B4884825B48807D022850D15949B1F91B
:1045C0000C10A1F17F00C11700EB91718910554AC1
:1045D000D1815348007B00F0030054490978884298
:1045E0000FD04F48007B00F00300504908704C4842
:1045F000007B00F00300012803D14848C0894849E6
:10460000C8814748007B00F00300012810D14448CE
:10461000C0894449C989084404B2002C00DC002444
:1046200040F6B830844200DB04463D48C48116E0C1
:104630003B48007B00F0030088B93A48B0F90C0011
:104640007F38002802DD4FF4967406E03548B0F953
:104650000C007F38002800D5334C31484482314863
:10466000807D032855D12F49B1F90C10A1F17F00AD
:10467000C11700EB917189102A4AD1812848007B2B
:10468000C0F301102A490978884214D02448007BDD
:10469000C0F30110264908702148007BC0F30110C7
:1046A000012804D11D48008B1D49088303E01B48E5
:1046B000408B1B4948831A48007BC0F30110012836
:1046C00010D11748008B1749C989084404B2002C3F
:1046D00000DC002440F6B830844200DB0446104879
:1046E000048316E00E48007BC0F3011088B90D4822
:1046F000B0F90C007F38002802DD4FF4967406E014
:104700000848B0F90C007F38002800D5064C044852
:10471000C48203B0BDEC108B30BD000080060020C9
:10472000540600201C060020D4FEFFFF510000208C
:104730005200002010B50E480078052813D2DFE89B
:1047400000F003090C060F0001F046FC0CE001F03C
:1047500089FE09E002F00CF906E000F0A5FE03E096
:1047600001F01EFE00E000BF00BF03F055FC10BDCD
:104770002400002000BFFEE710B541EC100BFDF750
:10478000C7FA51EC100B10BD70B5054605EB85005E
:10479000304901EB40042846FCF72AFF00283ED0B0
:1047A0002078052802DA0520207052E020780A28B7
:1047B00003DA2078401C20704BE0A07938B9012042
:1047C000A07105EB4501491CC8B200F099F8A0881A
:1047D00000283EDD6088A18888420DDA6088401C90
:1047E00080B26080A188884233D105EB4501C91CA5
:1047F000C8B200F085F82CE0E079002829DD207AA5
:10480000401CC0B22072E179884222DB0020207275
:1048100005EB4501491CC8B200F072F819E0207898
:10482000052802DD0520207010E0207818B12078DE
:10483000401E20700AE0A079012807D10020A07155
:1048400005EB4501891CC8B200F05AF800206080D1
:10485000207270BDA20700200B48807A0A4AD27AE3
:10486000904201D1002070470748807A064A115CC7
:104870001046807A401CC0B290720A2801DB0020EA
:1048800090720846EFE700004C0800200021134A10
:104890009172D172117300201DE0642100EB80023F
:1048A0000F4B03EB42029180022100EB800203F8E0
:1048B0001210002100EB800203EB4202917100EB29
:1048C000800203EB4202D17100EB800203EB420253
:1048D0001172411CC8B21128DFDB70474C08002060
:1048E000A207002010B5FCF72BFF002404E02046AF
:1048F000FFF74AFF601CC4B2112CF8DB10BD0000AA
:104900000649C97A054A50541146C97A491CC9B2A8
:10491000D1720A2901DB0021D17270474C080020B6
:1049200010B500220121080206F014FB01490860BD
:1049300010BD00005800002010B5012310220421F2
:104940000A48FCF7C0FD0123102208210748FCF7A4
:10495000BAFD0123182204210548FCF7B4FD012308
:10496000042208210248FCF7AEFD10BD00100140F2
:1049700000080140002002490870487088707047A4
:104980005D0000207047000010B5044605488442D1
:1049900007D140F2194004F0E7FF40F2194004F05B
:1049A000D3FF10BD0064004010B50021837A0122BE
:1049B00002FA03F13E4A126842F001023C4B1A60CF
:1049C0003B4A1C3212688A43394B1C331A60C28935
:1049D000DAB9374A0C3212688A43354B0C331A6005
:1049E000C288344B03EA024243881A434389304C5D
:1049F000403444F8332082882E4B03EA0242038875
:104A00001A43438904EBC3035A60C289012A1BD1AC
:104A1000274A0C3212680A43254B0C331A6002886D
:104A2000244B03EA024243881A434389204C403412
:104A300044F8332082881F4B03EA0242C3881A439A
:104A4000438904EBC3035A6082893AB9184A121D9C
:104A500012688A43164B1B1D1A6006E0144A121D89
:104A600012680A43124B1B1D1A6002893AB9104A98
:104A7000143212688A430E4B14331A6006E00C4A53
:104A8000143212680A430A4B14331A60027C012A5A
:104A900006D1074A1C3212680A43054B1C331A60C0
:104AA000034A126822F00102014B1A6010BD000097
:104AB000006600400000FFFF70B502464FF6FF732E
:104AC0000020146824F002041460146844F0010407
:104AD000146000E05B1E546804F001040CB9002B64
:104AE000F8D1546804F001040CB9002074E00C788B
:104AF0004FF0404505EA84744D784FF0407606EA61
:104B000005652C438D784FF4702606EA05452C4345
:104B1000CD784FF4E00606EA05552C434D896D1E0D
:104B2000C5F309052C43D4610C79012C04D1146818
:104B300044F08004146003E0146824F080041460DE
:104B40004C79012C04D1146844F04004146003E053
:104B5000146824F0400414608C79012C04D114688A
:104B600044F02004146003E0146824F0200414606E
:104B7000CC79012C04D1146824F01004146003E0F3
:104B8000146844F0100414600C7A012C04D11468E9
:104B900024F00804146003E0146844F0080414606E
:104BA0004C7A012C04D1146844F00404146003E02E
:104BB000146824F004041460146824F001041460E0
:104BC0004FF6FF7300E05B1E546804F001040CB163
:104BD000002BF8D103B1012070BD42690A43426144
:104BE000704710B500F5D87303EB01131B6803F091
:104BF00004031372137A3BB900F5D87303EB011366
:104C00001B685B0D136006E000F5D87303EB01131E
:104C10001B68DB08536000F5D87303EB01131B68B6
:104C200003F00203537200F5DA7303EB01131B6800
:104C30001B0AD37400F5DA7303EB01131B6803F04E
:104C40000F03937200F5DC7303EB01131B68D3723F
:104C500000F5DC7303EB01131B681C0A147300F5E9
:104C6000DC7303EB01131B681C0C547300F5DC733D
:104C700003EB01131B681C0E947300F5DE7303EB4A
:104C800001131B68D37300F5DE7303EB01131B687C
:104C90001C0A147400F5DE7303EB01131B681C0C73
:104CA000547400F5DE7303EB01131B681C0E94743F
:104CB00021B9C36843F02003C36003E0036943F0F4
:104CC0002003036110BD000030B502460B460021F1
:104CD000906800F08060B0F1806F00D110E09068C3
:104CE00000F00060B0F1006F01D1012108E0906890
:104CF00000F08050B0F1805F01D1022100E003217B
:104D0000032901D1032030BD02F5C07000EB011072
:104D1000006800F0010402F5C07000EB01100460AF
:104D2000187A88B918883B4C04EA40505C7A2043D2
:104D300002F5C07404EB01142468204302F5C0742A
:104D400004EB0114206013E06FF00704586804EAD4
:104D5000C0001C7A20435C7A204302F5C07404EB47
:104D600001142468204302F5C07404EB0114206090
:104D700002F5C27000EB0110006820F00F0402F58C
:104D8000C27000EB0110046002F5C27000EB01106C
:104D900000689C7A204302F5C27404EB0114206081
:104DA000987B4FF07F4404EA00605C7B4FF47F0502
:104DB00005EA044420431C7B2D1205EA0424204309
:104DC000DC7A204302F5C47404EB01142060987C63
:104DD0002C0404EA00605C7C2D0205EA04442043B4
:104DE0001C7C2D1205EA04242043DC7B204302F5C1
:104DF000C67404EB0114206002F5C07000EB0110D2
:104E0000006840F0010402F5C07000EB011004607E
:104E1000084678E70000E0FF10B52948FFF7B4FD29
:104E200040F2197004F080FD40F2026004F07CFD55
:104E3000FCF79AFA4FF4006303224821214802F05C
:104E400006FE4FF48053032218211E4802F0FFFD96
:104E500000220221152003F0A3FC1B49002000F0D2
:104E60008BF81A49012000F087F8002016490871D4
:104E700001204871002088710120C871002008724B
:104E8000012048720020087048700E2088700020B1
:104E9000C870072048810A48FFF70EFE00224FF431
:104EA000A0611046FCF766FD11210548FFF795FE4D
:104EB00003220021012006F04DF80549086010BDCD
:104EC0000064004000080140F40D0020000E0020A6
:104ED0008C00002010B5002400F010F80446002CCF
:104EE00009DD802C07DA2146034800F019F8024951
:104EF0002046FEF7BDFC10BD5C0C00200020074BD7
:104F00009988DA88914204DD1B8913445B1A98B2B0
:104F100003E0914201DA531A98B27047DC0C00208A
:104F200030B50246002000BF12E00B4B1B680A4C54
:104F3000A4881B5D1354084B9B885B1C064C24897A
:104F400093FBF4F504FB1533034CA380431C98B288
:104F50008842EADB30BD0000DC0C002070B504465E
:104F60000D460026034A2946204600F0FFF8304649
:104F700070BD0000680D002010B5024609B900BFE1
:104F8000FEE732B1012A16D0022A20D0032A41D1ED
:104F90002EE000234B71CB718B7140F2FF334B81BC
:104FA00000230B724B7002238B700023CB700B71AC
:104FB0004B720B7030E00123CB8100230B740B810B
:104FC0000B804B808B80CB808B814B8124E0002039
:104FD00005E0002401F10B031C54431CD8B208283F
:104FE000F7D300238B724B600B724B720B6013E094
:104FF000002005E0002401F10B031C54431CD8B22F
:105000000828F7D300238B724B600B72CB744B7262
:105010000B6001E000BFFEE700BF10BD10B54548C2
:1050200000F08EF8444908807DE043480088082855
:105030003ADD404800893F498988401A84B2082CEB
:1050400011DA3C4800683B4A9288811822463B4866
:10505000FBF7ECF8C4F10802364B1968374B181906
:10506000FBF7E4F809E033480068324989880144D5
:1050700032480A6802604968416008222F494FF4AB
:10508000B060FCF7D3F92C48008808382A4908801A
:105090002848808808302749098990FBF1F201FBF4
:1050A0001200244988803DE02248008921498988EE
:1050B000401A84B220480088844212DA1D480068F1
:1050C0001C4A9288811822461C48FBF7AFF81A4BFD
:1050D0001B881A1B174B1968184B1819FBF7A6F8F1
:1050E00009E014480068134A92888118124802881F
:1050F0001248FBF79BF81048027810494FF4B06053
:10510000FCF794F90B4880880B4909880844094941
:10511000098990FBF1F201FB12000649888000200A
:105120000549088000BF0448008800283FF77DAF8C
:1051300010BD0000680D00209000002092000020AB
:10514000014600208A88CB889A4206DD0A89CB88EE
:105150001A448B88D21A90B207E08A88CB889A4288
:1051600003DACA888B88D21A90B2704770B50346AA
:10517000002000BF0DE01C5CD6881568AC55D488B3
:10518000641C158994FBF5F605FB1644D480441C79
:10519000A0B28842EFDB70BDF8B504460D46164656
:1051A0001F4600200090E819C3B2A019C2B22946D8
:1051B000204602F039FEF8BD00B502F0F1FD00BD59
:1051C00070B505460E461446052020706570B0780F
:1051D0008000C01C60806088802801DD0020608025
:1051E00062883146201DFBF721F870BD2DE9F041A2
:1051F00007460D4614460420207067700120608029
:105200002878207100262EE06088001D691C01EBC3
:10521000C60149880844802802DD0020608025E01E
:105220006188201D0144681C00EBC600006808600E
:105230006088001D60806B1C03EBC6035A886B1CE2
:1052400003EBC6035968B4F802C0231D0CEB03003E
:10525000FAF7ECFF6188681C00EBC6004088084440
:105260006080701CC6B22878B042CDDC00BFBDE8BB
:10527000F0810000B2B00FE0642005F023FB074886
:105280004079012808D1FEF70BFB01A921A8FBF703
:1052900039FD21A8FCF7A4F8EEE700001C06002069
:1052A00010B502460B464FF6FF710AE012F8014BAB
:1052B00084EA2120C0B2074C34F8100080EA0120B3
:1052C00081B2181EA3F10104E3B2EFDCC84380B23F
:1052D00010BD00001C0100208B1A834202DD8318E0
:1052E00098B206E08B18834202DA831A98B200E083
:1052F000084670472DE9F05F82460E464FF0000BDE
:105300003078062851D12A48076849E0A7F10C05F2
:105310002888504543D14FF000092CE0D5F804808F
:1053200021E0A8F10C04301D10F809002178884212
:1053300017D10BF1010000F0FF0B404602F0D4FF43
:10534000606804F0DBFB00206060608820B9A06822
:1053500004F0D4FB0020A060204604F0CFFB002422
:1053600004E0D8F80080281D8045DAD100BF09F19B
:10537000010000F0FF0970884845CFDC281D016856
:10538000814201D1012100E00021012906D13846E6
:1053900002F0AAFF284604F0B1FB002503E03F68B5
:1053A00003488742B2D100BF00BF5846BDE8F09F16
:1053B0001C03002010B5042004F05EFE10480068B5
:1053C0001049B0FBF1F0104908700D4800680D4914
:1053D000B0FBF1F44FF47A70444301200B4908808C
:1053E0004FF0E020006940F002004FF0E02108613A
:1053F00008464461006940F00100086110BD0000EA
:105400002000002040420F00040000200600002081
:1054100070B5044606F0F2F9012810D00B48008858
:10542000844206D309480088B4FBF0F5284605F00D
:1054300049FA06480088B4FBF0F100FB11444FF430
:105440007A7104FB01F000F003F870BD0600002043
:1054500070B5034600224FF0E02675690D4E367890
:1054600003FB06F44FF0E026B16910E04FF0E026B0
:10547000B06988420BD0884202D20E1A324402E050
:105480002E1A0E4432440146A24200D300E0EDE75A
:1054900000BF70BD0400002004E0322005F012FAC5
:1054A000FFF748F9F9E7000070B52DED028B86B0E3
:1054B0000024FFF7D1F90546012D09D10020F84954
:1054C0004871FCF7CFF902F005FC042004F0C2FC9F
:1054D000F44880781038182837D2DFE810F0180028
:1054E0003700AE00000125013600360036003600D8
:1054F000360036004301A101C101F1023600360039
:10550000290359037903360036009803B1032B466B
:10551000E5A2E6A1E6A001F053FF04467F20E049A2
:1055200008818881012C08D1062088751120DD4969
:105530008870E9A000F028FF07E0022C05D12720A1
:10554000D8498870EBA000F01FFF82E30120D44906
:1055500048777F208881EC48007B20F00C00001DFC
:10556000E94908730846007B20F00300401C0873DB
:105570000846007B20F03000203008734FF61840BA
:1055800048830020C8810882E048B0F90E20E0A1DD
:1055900001A8FCF77DFB01AB00222021104601F0A1
:1055A000D8F9DA48B0F91020DBA101A8FCF770FBAC
:1055B00001AB00222021462001F0CBF9D348B0F9FD
:1055C0001A20D7A101A8FCF763FB01AB0022302110
:1055D000462001F0BEF9CD49B1F91A1001F57A70F3
:1055E000002801DB014600E04142962921DCC74941
:1055F000B1F90E1028291CDCC449B1F91010282972
:1056000017DCC9480078401CC74908700846007874
:105610000A2811DD1220A3498870C4A000F0B4FE4E
:1056200000F076FB04209E4988750020BE49087072
:105630000FE30020BC4908700BE3042098498875EB
:10564000B248828CBEA101A8FCF722FB01AB00226C
:105650002021462001F07DF9AC48808C962816DB8D
:10566000B1480078401CB0490870084600780A2804
:1056700010DB002008700620894988757F2088810A
:10568000142088498870B0A000F07EFEE1E200207E
:10569000A54908700D2D0CD0162D14D18148007825
:1056A000401C804908700846007800F0010008702E
:1056B00009E07C48007810B901207A49087013206D
:1056C0007849887000BF00BF7648007818B17F2005
:1056D0007349888102E0E62071498881B9E27F2020
:1056E0006F4988812B4670A270A19EA001F068FED0
:1056F0000446012C06D126206A498870A3A000F038
:1057000043FE10E0022C0ED166480078012802D139
:1057100000206449087012206249887083A000F05C
:1057200033FE00F0F5FA94E22B465FA25FA19CA045
:1057300001F046FE0446012C0BD10620584988751D
:105740007F2088811B20574988709FA000F01CFE95
:1057500007E0022C05D112205249887073A000F096
:1057600013FE76E206204E4988756748007B20F0DC
:105770000C00001D6449087340F6B8300882634885
:10578000B0F91C2096A101A8FCF782FA01AB002217
:105790002021462001F0DDF85C48B0F910205EA120
:1057A00001A8FCF775FA01AB00223021462001F078
:1057B000D0F85649B1F91C00002801DB014600E091
:1057C0004142B1F57A6F06DA5049B1F9101040F64E
:1057D0005432914220DB54480078401C52490870F2
:1057E000084600780A281ADD1C202E4988707EA001
:1057F00000F0CAFD4548006A7F4908604348808B35
:10580000414988830846007B20F00C00083008736B
:105810000020454908701CE200204349087018E246
:105820002B4621A221A175A001F0CAFD0446012C3E
:105830000DD11D201B4988700420194988753348F3
:10584000006A6D49086068A000F09EFD07E0022C28
:1058500005D11B20134988705BA000F095FDF8E18D
:105860002A48006A64490968461A002E01DB30465E
:1058700000E0704202466AA101A8FCF709FA01ABF8
:1058800000222021462001F064F82048006A5A498D
:105890000968461A002E01DB3146C6E0C4E000006C
:1058A0001C060020250000204E6F00005965730083
:1058B0002041726520796F75207375726520746F51
:1058C00020676F206175746F20646F776E737461E9
:1058D0006972733F00000000205265616479207492
:1058E0006F20676F20646F776E73746169727321C4
:1058F0000000000020446F776E207374616972733A
:10590000206F7574210000005406002080060020DE
:10591000464C3A2534642000424C3A253464200039
:1059200053413A25356420004400002020476F6928
:105930006E6720646F776E73746169727321000003
:1059400046593A25346420002044657465637465C3
:105950006420746F70206F662073746169727321A4
:1059600000000000205761726E696E6721457874EF
:1059700069206D617962652064616E6765726F751B
:10598000732165787469206E6F773F00457874697C
:1059900020646F776E737461697273210000000078
:1059A0002041726520796F7520737572652044659A
:1059B00074656374656420746F70206F66207374FF
:1059C000616972733F000000206261636B20737530
:1059D0007070726F7420646F776E20210000000079
:1059E00042413A253464200020676F696E67206465
:1059F0006F776E210000000040000020204172659A
:105A000020796F75207375726520676F696E6720E6
:105A1000646F776E207374616972733F00000000D9
:105A2000484C3A253464200071420846FAF7AAFD32
:105A300041EC180B9FED890B53EC102BFAF7E6FDA8
:105A400016D888480078401C8649087008460078B7
:105A50000A2810DD84A000F097FC8848008A884955
:105A600008821E2087498870062087498875F0E0E3
:105A700000207C4908700D2D0CD0162D14D18148C2
:105A80000078401C7F4908700846007800F001004B
:105A9000087009E07B48007810B901207949087046
:105AA00013207849887000BF00BF7648007818B18D
:105AB0007F207549888102E0E62073498881C8E02B
:105AC0006F48007B20F00C00001D6D49087300201A
:105AD00008826A48B0F910206CA101A8FCF7D8F838
